{
	"Documents/EthDev/Projects2/SolidityByExamples/MultiSigWallet/contracts/MultiSigWallet.sol": {
		"MultiSigWallet": {
			"abi": [
				{
					"inputs": [
						{
							"internalType": "address[]",
							"name": "_owners",
							"type": "address[]"
						},
						{
							"internalType": "uint256",
							"name": "_numOfConfirmations",
							"type": "uint256"
						}
					],
					"stateMutability": "nonpayable",
					"type": "constructor"
				},
				{
					"anonymous": false,
					"inputs": [
						{
							"indexed": true,
							"internalType": "address",
							"name": "owner",
							"type": "address"
						},
						{
							"indexed": true,
							"internalType": "uint256",
							"name": "txId",
							"type": "uint256"
						}
					],
					"name": "Confirmed",
					"type": "event"
				},
				{
					"anonymous": false,
					"inputs": [
						{
							"indexed": true,
							"internalType": "address",
							"name": "sender",
							"type": "address"
						},
						{
							"indexed": false,
							"internalType": "uint256",
							"name": "amount",
							"type": "uint256"
						},
						{
							"indexed": false,
							"internalType": "uint256",
							"name": "balance",
							"type": "uint256"
						}
					],
					"name": "Deposit",
					"type": "event"
				},
				{
					"anonymous": false,
					"inputs": [
						{
							"indexed": true,
							"internalType": "address",
							"name": "executor",
							"type": "address"
						},
						{
							"indexed": true,
							"internalType": "uint256",
							"name": "txId",
							"type": "uint256"
						}
					],
					"name": "Executed",
					"type": "event"
				},
				{
					"anonymous": false,
					"inputs": [
						{
							"indexed": true,
							"internalType": "address",
							"name": "owner",
							"type": "address"
						},
						{
							"indexed": true,
							"internalType": "uint256",
							"name": "txId",
							"type": "uint256"
						}
					],
					"name": "Revoked",
					"type": "event"
				},
				{
					"anonymous": false,
					"inputs": [
						{
							"indexed": true,
							"internalType": "address",
							"name": "owner",
							"type": "address"
						},
						{
							"indexed": true,
							"internalType": "address",
							"name": "to",
							"type": "address"
						},
						{
							"indexed": true,
							"internalType": "uint256",
							"name": "txId",
							"type": "uint256"
						},
						{
							"indexed": false,
							"internalType": "uint256",
							"name": "value",
							"type": "uint256"
						},
						{
							"indexed": false,
							"internalType": "bytes",
							"name": "data",
							"type": "bytes"
						}
					],
					"name": "Submitted",
					"type": "event"
				},
				{
					"inputs": [
						{
							"internalType": "uint256",
							"name": "_txId",
							"type": "uint256"
						}
					],
					"name": "approveTransaction",
					"outputs": [],
					"stateMutability": "nonpayable",
					"type": "function"
				},
				{
					"inputs": [
						{
							"internalType": "uint256",
							"name": "_txId",
							"type": "uint256"
						}
					],
					"name": "executeTransaction",
					"outputs": [],
					"stateMutability": "nonpayable",
					"type": "function"
				},
				{
					"inputs": [
						{
							"internalType": "uint256",
							"name": "",
							"type": "uint256"
						},
						{
							"internalType": "address",
							"name": "",
							"type": "address"
						}
					],
					"name": "isConfirm",
					"outputs": [
						{
							"internalType": "bool",
							"name": "",
							"type": "bool"
						}
					],
					"stateMutability": "view",
					"type": "function"
				},
				{
					"inputs": [
						{
							"internalType": "address",
							"name": "",
							"type": "address"
						}
					],
					"name": "isOwner",
					"outputs": [
						{
							"internalType": "bool",
							"name": "",
							"type": "bool"
						}
					],
					"stateMutability": "view",
					"type": "function"
				},
				{
					"inputs": [],
					"name": "numOfConfirmations",
					"outputs": [
						{
							"internalType": "uint256",
							"name": "",
							"type": "uint256"
						}
					],
					"stateMutability": "view",
					"type": "function"
				},
				{
					"inputs": [
						{
							"internalType": "uint256",
							"name": "",
							"type": "uint256"
						}
					],
					"name": "owners",
					"outputs": [
						{
							"internalType": "address",
							"name": "",
							"type": "address"
						}
					],
					"stateMutability": "view",
					"type": "function"
				},
				{
					"inputs": [
						{
							"internalType": "uint256",
							"name": "_txId",
							"type": "uint256"
						}
					],
					"name": "revokeTransaction",
					"outputs": [],
					"stateMutability": "nonpayable",
					"type": "function"
				},
				{
					"inputs": [
						{
							"internalType": "address",
							"name": "_to",
							"type": "address"
						},
						{
							"internalType": "uint256",
							"name": "_value",
							"type": "uint256"
						},
						{
							"internalType": "bytes",
							"name": "_data",
							"type": "bytes"
						}
					],
					"name": "submitTransaction",
					"outputs": [],
					"stateMutability": "nonpayable",
					"type": "function"
				},
				{
					"inputs": [
						{
							"internalType": "uint256",
							"name": "",
							"type": "uint256"
						}
					],
					"name": "transactions",
					"outputs": [
						{
							"internalType": "address",
							"name": "to",
							"type": "address"
						},
						{
							"internalType": "uint256",
							"name": "value",
							"type": "uint256"
						},
						{
							"internalType": "bytes",
							"name": "data",
							"type": "bytes"
						},
						{
							"internalType": "bool",
							"name": "executed",
							"type": "bool"
						},
						{
							"internalType": "uint256",
							"name": "confirmations",
							"type": "uint256"
						}
					],
					"stateMutability": "view",
					"type": "function"
				},
				{
					"stateMutability": "payable",
					"type": "receive"
				}
			],
			"devdoc": {
				"kind": "dev",
				"methods": {},
				"version": 1
			},
			"evm": {
				"assembly": "    /* \"Documents/EthDev/Projects2/SolidityByExamples/MultiSigWallet/contracts/MultiSigWallet.sol\":61:3919  contract MultiSigWallet {... */\n  mstore(0x40, 0x80)\n    /* \"Documents/EthDev/Projects2/SolidityByExamples/MultiSigWallet/contracts/MultiSigWallet.sol\":1583:2209  constructor(address[] memory _owners, uint _numOfConfirmations) {... */\n  callvalue\n  dup1\n  iszero\n  tag_1\n  jumpi\n  0x00\n  dup1\n  revert\ntag_1:\n  pop\n  mload(0x40)\n  sub(codesize, bytecodeSize)\n  dup1\n  bytecodeSize\n  dup4\n  codecopy\n  dup2\n  dup2\n  add\n  0x40\n  mstore\n  dup2\n  add\n  swap1\n  tag_2\n  swap2\n  swap1\n  tag_3\n  jump\t// in\ntag_2:\n    /* \"Documents/EthDev/Projects2/SolidityByExamples/MultiSigWallet/contracts/MultiSigWallet.sol\":1683:1684  0 */\n  0x00\n    /* \"Documents/EthDev/Projects2/SolidityByExamples/MultiSigWallet/contracts/MultiSigWallet.sol\":1666:1673  _owners */\n  dup3\n    /* \"Documents/EthDev/Projects2/SolidityByExamples/MultiSigWallet/contracts/MultiSigWallet.sol\":1666:1680  _owners.length */\n  mload\n    /* \"Documents/EthDev/Projects2/SolidityByExamples/MultiSigWallet/contracts/MultiSigWallet.sol\":1666:1684  _owners.length > 0 */\n  gt\n    /* \"Documents/EthDev/Projects2/SolidityByExamples/MultiSigWallet/contracts/MultiSigWallet.sol\":1658:1708  require(_owners.length > 0, \"Must have >1 owners\") */\n  tag_6\n  jumpi\n  mload(0x40)\n  0x08c379a000000000000000000000000000000000000000000000000000000000\n  dup2\n  mstore\n  0x04\n  add\n  tag_7\n  swap1\n  tag_8\n  jump\t// in\ntag_7:\n  mload(0x40)\n  dup1\n  swap2\n  sub\n  swap1\n  revert\ntag_6:\n    /* \"Documents/EthDev/Projects2/SolidityByExamples/MultiSigWallet/contracts/MultiSigWallet.sol\":1749:1750  0 */\n  0x00\n    /* \"Documents/EthDev/Projects2/SolidityByExamples/MultiSigWallet/contracts/MultiSigWallet.sol\":1727:1746  _numOfConfirmations */\n  dup2\n    /* \"Documents/EthDev/Projects2/SolidityByExamples/MultiSigWallet/contracts/MultiSigWallet.sol\":1727:1750  _numOfConfirmations > 0 */\n  gt\n    /* \"Documents/EthDev/Projects2/SolidityByExamples/MultiSigWallet/contracts/MultiSigWallet.sol\":1727:1791  _numOfConfirmations > 0 && _numOfConfirmations <= _owners.length */\n  dup1\n  iszero\n  tag_9\n  jumpi\n  pop\n    /* \"Documents/EthDev/Projects2/SolidityByExamples/MultiSigWallet/contracts/MultiSigWallet.sol\":1777:1784  _owners */\n  dup2\n    /* \"Documents/EthDev/Projects2/SolidityByExamples/MultiSigWallet/contracts/MultiSigWallet.sol\":1777:1791  _owners.length */\n  mload\n    /* \"Documents/EthDev/Projects2/SolidityByExamples/MultiSigWallet/contracts/MultiSigWallet.sol\":1754:1773  _numOfConfirmations */\n  dup2\n    /* \"Documents/EthDev/Projects2/SolidityByExamples/MultiSigWallet/contracts/MultiSigWallet.sol\":1754:1791  _numOfConfirmations <= _owners.length */\n  gt\n  iszero\n    /* \"Documents/EthDev/Projects2/SolidityByExamples/MultiSigWallet/contracts/MultiSigWallet.sol\":1727:1791  _numOfConfirmations > 0 && _numOfConfirmations <= _owners.length */\ntag_9:\n    /* \"Documents/EthDev/Projects2/SolidityByExamples/MultiSigWallet/contracts/MultiSigWallet.sol\":1719:1827  require(_numOfConfirmations > 0 && _numOfConfirmations <= _owners.length, \"Invalid Number of Confirmations\") */\n  tag_10\n  jumpi\n  mload(0x40)\n  0x08c379a000000000000000000000000000000000000000000000000000000000\n  dup2\n  mstore\n  0x04\n  add\n  tag_11\n  swap1\n  tag_12\n  jump\t// in\ntag_11:\n  mload(0x40)\n  dup1\n  swap2\n  sub\n  swap1\n  revert\ntag_10:\n    /* \"Documents/EthDev/Projects2/SolidityByExamples/MultiSigWallet/contracts/MultiSigWallet.sol\":1845:1851  uint i */\n  0x00\n    /* \"Documents/EthDev/Projects2/SolidityByExamples/MultiSigWallet/contracts/MultiSigWallet.sol\":1840:2149  for (uint i; i<_owners.length; i++) {... */\ntag_13:\n    /* \"Documents/EthDev/Projects2/SolidityByExamples/MultiSigWallet/contracts/MultiSigWallet.sol\":1855:1862  _owners */\n  dup3\n    /* \"Documents/EthDev/Projects2/SolidityByExamples/MultiSigWallet/contracts/MultiSigWallet.sol\":1855:1869  _owners.length */\n  mload\n    /* \"Documents/EthDev/Projects2/SolidityByExamples/MultiSigWallet/contracts/MultiSigWallet.sol\":1853:1854  i */\n  dup2\n    /* \"Documents/EthDev/Projects2/SolidityByExamples/MultiSigWallet/contracts/MultiSigWallet.sol\":1853:1869  i<_owners.length */\n  lt\n    /* \"Documents/EthDev/Projects2/SolidityByExamples/MultiSigWallet/contracts/MultiSigWallet.sol\":1840:2149  for (uint i; i<_owners.length; i++) {... */\n  iszero\n  tag_14\n  jumpi\n    /* \"Documents/EthDev/Projects2/SolidityByExamples/MultiSigWallet/contracts/MultiSigWallet.sol\":1891:1904  address owner */\n  0x00\n    /* \"Documents/EthDev/Projects2/SolidityByExamples/MultiSigWallet/contracts/MultiSigWallet.sol\":1907:1914  _owners */\n  dup4\n    /* \"Documents/EthDev/Projects2/SolidityByExamples/MultiSigWallet/contracts/MultiSigWallet.sol\":1915:1916  i */\n  dup3\n    /* \"Documents/EthDev/Projects2/SolidityByExamples/MultiSigWallet/contracts/MultiSigWallet.sol\":1907:1917  _owners[i] */\n  dup2\n  mload\n  dup2\n  lt\n  tag_16\n  jumpi\n  tag_17\n  tag_18\n  jump\t// in\ntag_17:\ntag_16:\n  0x20\n  mul\n  0x20\n  add\n  add\n  mload\n    /* \"Documents/EthDev/Projects2/SolidityByExamples/MultiSigWallet/contracts/MultiSigWallet.sol\":1891:1917  address owner = _owners[i] */\n  swap1\n  pop\n    /* \"Documents/EthDev/Projects2/SolidityByExamples/MultiSigWallet/contracts/MultiSigWallet.sol\":1957:1958  0 */\n  0x00\n    /* \"Documents/EthDev/Projects2/SolidityByExamples/MultiSigWallet/contracts/MultiSigWallet.sol\":1940:1959  owner != address(0) */\n  0xffffffffffffffffffffffffffffffffffffffff\n  and\n    /* \"Documents/EthDev/Projects2/SolidityByExamples/MultiSigWallet/contracts/MultiSigWallet.sol\":1940:1945  owner */\n  dup2\n    /* \"Documents/EthDev/Projects2/SolidityByExamples/MultiSigWallet/contracts/MultiSigWallet.sol\":1940:1959  owner != address(0) */\n  0xffffffffffffffffffffffffffffffffffffffff\n  and\n  eq\n  iszero\n    /* \"Documents/EthDev/Projects2/SolidityByExamples/MultiSigWallet/contracts/MultiSigWallet.sol\":1932:1995  require(owner != address(0), \"Cant have Zero address as owner\") */\n  tag_19\n  jumpi\n  mload(0x40)\n  0x08c379a000000000000000000000000000000000000000000000000000000000\n  dup2\n  mstore\n  0x04\n  add\n  tag_20\n  swap1\n  tag_21\n  jump\t// in\ntag_20:\n  mload(0x40)\n  dup1\n  swap2\n  sub\n  swap1\n  revert\ntag_19:\n    /* \"Documents/EthDev/Projects2/SolidityByExamples/MultiSigWallet/contracts/MultiSigWallet.sol\":2019:2026  isOwner */\n  0x01\n    /* \"Documents/EthDev/Projects2/SolidityByExamples/MultiSigWallet/contracts/MultiSigWallet.sol\":2019:2033  isOwner[owner] */\n  0x00\n    /* \"Documents/EthDev/Projects2/SolidityByExamples/MultiSigWallet/contracts/MultiSigWallet.sol\":2027:2032  owner */\n  dup3\n    /* \"Documents/EthDev/Projects2/SolidityByExamples/MultiSigWallet/contracts/MultiSigWallet.sol\":2019:2033  isOwner[owner] */\n  0xffffffffffffffffffffffffffffffffffffffff\n  and\n  0xffffffffffffffffffffffffffffffffffffffff\n  and\n  dup2\n  mstore\n  0x20\n  add\n  swap1\n  dup2\n  mstore\n  0x20\n  add\n  0x00\n  keccak256\n  0x00\n  swap1\n  sload\n  swap1\n  0x0100\n  exp\n  swap1\n  div\n  0xff\n  and\n    /* \"Documents/EthDev/Projects2/SolidityByExamples/MultiSigWallet/contracts/MultiSigWallet.sol\":2018:2033  !isOwner[owner] */\n  iszero\n    /* \"Documents/EthDev/Projects2/SolidityByExamples/MultiSigWallet/contracts/MultiSigWallet.sol\":2010:2066  require(!isOwner[owner], \"Duplicate Owner not allowed!\") */\n  tag_22\n  jumpi\n  mload(0x40)\n  0x08c379a000000000000000000000000000000000000000000000000000000000\n  dup2\n  mstore\n  0x04\n  add\n  tag_23\n  swap1\n  tag_24\n  jump\t// in\ntag_23:\n  mload(0x40)\n  dup1\n  swap2\n  sub\n  swap1\n  revert\ntag_22:\n    /* \"Documents/EthDev/Projects2/SolidityByExamples/MultiSigWallet/contracts/MultiSigWallet.sol\":2100:2104  true */\n  0x01\n    /* \"Documents/EthDev/Projects2/SolidityByExamples/MultiSigWallet/contracts/MultiSigWallet.sol\":2083:2090  isOwner */\n  dup1\n    /* \"Documents/EthDev/Projects2/SolidityByExamples/MultiSigWallet/contracts/MultiSigWallet.sol\":2083:2097  isOwner[owner] */\n  0x00\n    /* \"Documents/EthDev/Projects2/SolidityByExamples/MultiSigWallet/contracts/MultiSigWallet.sol\":2091:2096  owner */\n  dup4\n    /* \"Documents/EthDev/Projects2/SolidityByExamples/MultiSigWallet/contracts/MultiSigWallet.sol\":2083:2097  isOwner[owner] */\n  0xffffffffffffffffffffffffffffffffffffffff\n  and\n  0xffffffffffffffffffffffffffffffffffffffff\n  and\n  dup2\n  mstore\n  0x20\n  add\n  swap1\n  dup2\n  mstore\n  0x20\n  add\n  0x00\n  keccak256\n  0x00\n    /* \"Documents/EthDev/Projects2/SolidityByExamples/MultiSigWallet/contracts/MultiSigWallet.sol\":2083:2104  isOwner[owner] = true */\n  0x0100\n  exp\n  dup2\n  sload\n  dup2\n  0xff\n  mul\n  not\n  and\n  swap1\n  dup4\n  iszero\n  iszero\n  mul\n  or\n  swap1\n  sstore\n  pop\n    /* \"Documents/EthDev/Projects2/SolidityByExamples/MultiSigWallet/contracts/MultiSigWallet.sol\":2119:2125  owners */\n  0x00\n    /* \"Documents/EthDev/Projects2/SolidityByExamples/MultiSigWallet/contracts/MultiSigWallet.sol\":2131:2136  owner */\n  dup2\n    /* \"Documents/EthDev/Projects2/SolidityByExamples/MultiSigWallet/contracts/MultiSigWallet.sol\":2119:2137  owners.push(owner) */\n  swap1\n  dup1\n  0x01\n  dup2\n  sload\n  add\n  dup1\n  dup3\n  sstore\n  dup1\n  swap2\n  pop\n  pop\n  0x01\n  swap1\n  sub\n  swap1\n  0x00\n  mstore\n  keccak256(0x00, 0x20)\n  add\n  0x00\n  swap1\n  swap2\n  swap1\n  swap2\n  swap1\n  swap2\n  0x0100\n  exp\n  dup2\n  sload\n  dup2\n  0xffffffffffffffffffffffffffffffffffffffff\n  mul\n  not\n  and\n  swap1\n  dup4\n  0xffffffffffffffffffffffffffffffffffffffff\n  and\n  mul\n  or\n  swap1\n  sstore\n  pop\n    /* \"Documents/EthDev/Projects2/SolidityByExamples/MultiSigWallet/contracts/MultiSigWallet.sol\":1876:2149  {... */\n  pop\n    /* \"Documents/EthDev/Projects2/SolidityByExamples/MultiSigWallet/contracts/MultiSigWallet.sol\":1871:1874  i++ */\n  dup1\n  dup1\n  tag_26\n  swap1\n  tag_27\n  jump\t// in\ntag_26:\n  swap2\n  pop\n  pop\n    /* \"Documents/EthDev/Projects2/SolidityByExamples/MultiSigWallet/contracts/MultiSigWallet.sol\":1840:2149  for (uint i; i<_owners.length; i++) {... */\n  jump(tag_13)\ntag_14:\n  pop\n    /* \"Documents/EthDev/Projects2/SolidityByExamples/MultiSigWallet/contracts/MultiSigWallet.sol\":2182:2201  _numOfConfirmations */\n  dup1\n    /* \"Documents/EthDev/Projects2/SolidityByExamples/MultiSigWallet/contracts/MultiSigWallet.sol\":2161:2179  numOfConfirmations */\n  0x04\n    /* \"Documents/EthDev/Projects2/SolidityByExamples/MultiSigWallet/contracts/MultiSigWallet.sol\":2161:2201  numOfConfirmations = _numOfConfirmations */\n  dup2\n  swap1\n  sstore\n  pop\n    /* \"Documents/EthDev/Projects2/SolidityByExamples/MultiSigWallet/contracts/MultiSigWallet.sol\":1583:2209  constructor(address[] memory _owners, uint _numOfConfirmations) {... */\n  pop\n  pop\n    /* \"Documents/EthDev/Projects2/SolidityByExamples/MultiSigWallet/contracts/MultiSigWallet.sol\":61:3919  contract MultiSigWallet {... */\n  jump(tag_28)\n    /* \"#utility.yul\":7:82   */\ntag_29:\n    /* \"#utility.yul\":40:46   */\n  0x00\n    /* \"#utility.yul\":73:75   */\n  0x40\n    /* \"#utility.yul\":67:76   */\n  mload\n    /* \"#utility.yul\":57:76   */\n  swap1\n  pop\n    /* \"#utility.yul\":7:82   */\n  swap1\n  jump\t// out\n    /* \"#utility.yul\":88:205   */\ntag_30:\n    /* \"#utility.yul\":197:198   */\n  0x00\n    /* \"#utility.yul\":194:195   */\n  dup1\n    /* \"#utility.yul\":187:199   */\n  revert\n    /* \"#utility.yul\":211:328   */\ntag_31:\n    /* \"#utility.yul\":320:321   */\n  0x00\n    /* \"#utility.yul\":317:318   */\n  dup1\n    /* \"#utility.yul\":310:322   */\n  revert\n    /* \"#utility.yul\":334:451   */\ntag_32:\n    /* \"#utility.yul\":443:444   */\n  0x00\n    /* \"#utility.yul\":440:441   */\n  dup1\n    /* \"#utility.yul\":433:445   */\n  revert\n    /* \"#utility.yul\":457:559   */\ntag_33:\n    /* \"#utility.yul\":498:504   */\n  0x00\n    /* \"#utility.yul\":549:551   */\n  0x1f\n    /* \"#utility.yul\":545:552   */\n  not\n    /* \"#utility.yul\":540:542   */\n  0x1f\n    /* \"#utility.yul\":533:538   */\n  dup4\n    /* \"#utility.yul\":529:543   */\n  add\n    /* \"#utility.yul\":525:553   */\n  and\n    /* \"#utility.yul\":515:553   */\n  swap1\n  pop\n    /* \"#utility.yul\":457:559   */\n  swap2\n  swap1\n  pop\n  jump\t// out\n    /* \"#utility.yul\":565:745   */\ntag_34:\n    /* \"#utility.yul\":613:690   */\n  0x4e487b7100000000000000000000000000000000000000000000000000000000\n    /* \"#utility.yul\":610:611   */\n  0x00\n    /* \"#utility.yul\":603:691   */\n  mstore\n    /* \"#utility.yul\":710:714   */\n  0x41\n    /* \"#utility.yul\":707:708   */\n  0x04\n    /* \"#utility.yul\":700:715   */\n  mstore\n    /* \"#utility.yul\":734:738   */\n  0x24\n    /* \"#utility.yul\":731:732   */\n  0x00\n    /* \"#utility.yul\":724:739   */\n  revert\n    /* \"#utility.yul\":751:1032   */\ntag_35:\n    /* \"#utility.yul\":834:861   */\n  tag_66\n    /* \"#utility.yul\":856:860   */\n  dup3\n    /* \"#utility.yul\":834:861   */\n  tag_33\n  jump\t// in\ntag_66:\n    /* \"#utility.yul\":826:832   */\n  dup2\n    /* \"#utility.yul\":822:862   */\n  add\n    /* \"#utility.yul\":964:970   */\n  dup2\n    /* \"#utility.yul\":952:962   */\n  dup2\n    /* \"#utility.yul\":949:971   */\n  lt\n    /* \"#utility.yul\":928:946   */\n  0xffffffffffffffff\n    /* \"#utility.yul\":916:926   */\n  dup3\n    /* \"#utility.yul\":913:947   */\n  gt\n    /* \"#utility.yul\":910:972   */\n  or\n    /* \"#utility.yul\":907:995   */\n  iszero\n  tag_67\n  jumpi\n    /* \"#utility.yul\":975:993   */\n  tag_68\n  tag_34\n  jump\t// in\ntag_68:\n    /* \"#utility.yul\":907:995   */\ntag_67:\n    /* \"#utility.yul\":1015:1025   */\n  dup1\n    /* \"#utility.yul\":1011:1013   */\n  0x40\n    /* \"#utility.yul\":1004:1026   */\n  mstore\n    /* \"#utility.yul\":794:1032   */\n  pop\n    /* \"#utility.yul\":751:1032   */\n  pop\n  pop\n  jump\t// out\n    /* \"#utility.yul\":1038:1167   */\ntag_36:\n    /* \"#utility.yul\":1072:1078   */\n  0x00\n    /* \"#utility.yul\":1099:1119   */\n  tag_70\n  tag_29\n  jump\t// in\ntag_70:\n    /* \"#utility.yul\":1089:1119   */\n  swap1\n  pop\n    /* \"#utility.yul\":1128:1161   */\n  tag_71\n    /* \"#utility.yul\":1156:1160   */\n  dup3\n    /* \"#utility.yul\":1148:1154   */\n  dup3\n    /* \"#utility.yul\":1128:1161   */\n  tag_35\n  jump\t// in\ntag_71:\n    /* \"#utility.yul\":1038:1167   */\n  swap2\n  swap1\n  pop\n  jump\t// out\n    /* \"#utility.yul\":1173:1484   */\ntag_37:\n    /* \"#utility.yul\":1250:1254   */\n  0x00\n    /* \"#utility.yul\":1340:1358   */\n  0xffffffffffffffff\n    /* \"#utility.yul\":1332:1338   */\n  dup3\n    /* \"#utility.yul\":1329:1359   */\n  gt\n    /* \"#utility.yul\":1326:1382   */\n  iszero\n  tag_73\n  jumpi\n    /* \"#utility.yul\":1362:1380   */\n  tag_74\n  tag_34\n  jump\t// in\ntag_74:\n    /* \"#utility.yul\":1326:1382   */\ntag_73:\n    /* \"#utility.yul\":1412:1416   */\n  0x20\n    /* \"#utility.yul\":1404:1410   */\n  dup3\n    /* \"#utility.yul\":1400:1417   */\n  mul\n    /* \"#utility.yul\":1392:1417   */\n  swap1\n  pop\n    /* \"#utility.yul\":1472:1476   */\n  0x20\n    /* \"#utility.yul\":1466:1470   */\n  dup2\n    /* \"#utility.yul\":1462:1477   */\n  add\n    /* \"#utility.yul\":1454:1477   */\n  swap1\n  pop\n    /* \"#utility.yul\":1173:1484   */\n  swap2\n  swap1\n  pop\n  jump\t// out\n    /* \"#utility.yul\":1490:1607   */\ntag_38:\n    /* \"#utility.yul\":1599:1600   */\n  0x00\n    /* \"#utility.yul\":1596:1597   */\n  dup1\n    /* \"#utility.yul\":1589:1601   */\n  revert\n    /* \"#utility.yul\":1613:1739   */\ntag_39:\n    /* \"#utility.yul\":1650:1657   */\n  0x00\n    /* \"#utility.yul\":1690:1732   */\n  0xffffffffffffffffffffffffffffffffffffffff\n    /* \"#utility.yul\":1683:1688   */\n  dup3\n    /* \"#utility.yul\":1679:1733   */\n  and\n    /* \"#utility.yul\":1668:1733   */\n  swap1\n  pop\n    /* \"#utility.yul\":1613:1739   */\n  swap2\n  swap1\n  pop\n  jump\t// out\n    /* \"#utility.yul\":1745:1841   */\ntag_40:\n    /* \"#utility.yul\":1782:1789   */\n  0x00\n    /* \"#utility.yul\":1811:1835   */\n  tag_78\n    /* \"#utility.yul\":1829:1834   */\n  dup3\n    /* \"#utility.yul\":1811:1835   */\n  tag_39\n  jump\t// in\ntag_78:\n    /* \"#utility.yul\":1800:1835   */\n  swap1\n  pop\n    /* \"#utility.yul\":1745:1841   */\n  swap2\n  swap1\n  pop\n  jump\t// out\n    /* \"#utility.yul\":1847:1969   */\ntag_41:\n    /* \"#utility.yul\":1920:1944   */\n  tag_80\n    /* \"#utility.yul\":1938:1943   */\n  dup2\n    /* \"#utility.yul\":1920:1944   */\n  tag_40\n  jump\t// in\ntag_80:\n    /* \"#utility.yul\":1913:1918   */\n  dup2\n    /* \"#utility.yul\":1910:1945   */\n  eq\n    /* \"#utility.yul\":1900:1963   */\n  tag_81\n  jumpi\n    /* \"#utility.yul\":1959:1960   */\n  0x00\n    /* \"#utility.yul\":1956:1957   */\n  dup1\n    /* \"#utility.yul\":1949:1961   */\n  revert\n    /* \"#utility.yul\":1900:1963   */\ntag_81:\n    /* \"#utility.yul\":1847:1969   */\n  pop\n  jump\t// out\n    /* \"#utility.yul\":1975:2118   */\ntag_42:\n    /* \"#utility.yul\":2032:2037   */\n  0x00\n    /* \"#utility.yul\":2063:2069   */\n  dup2\n    /* \"#utility.yul\":2057:2070   */\n  mload\n    /* \"#utility.yul\":2048:2070   */\n  swap1\n  pop\n    /* \"#utility.yul\":2079:2112   */\n  tag_83\n    /* \"#utility.yul\":2106:2111   */\n  dup2\n    /* \"#utility.yul\":2079:2112   */\n  tag_41\n  jump\t// in\ntag_83:\n    /* \"#utility.yul\":1975:2118   */\n  swap3\n  swap2\n  pop\n  pop\n  jump\t// out\n    /* \"#utility.yul\":2141:2873   */\ntag_43:\n    /* \"#utility.yul\":2248:2253   */\n  0x00\n    /* \"#utility.yul\":2273:2354   */\n  tag_85\n    /* \"#utility.yul\":2289:2353   */\n  tag_86\n    /* \"#utility.yul\":2346:2352   */\n  dup5\n    /* \"#utility.yul\":2289:2353   */\n  tag_37\n  jump\t// in\ntag_86:\n    /* \"#utility.yul\":2273:2354   */\n  tag_36\n  jump\t// in\ntag_85:\n    /* \"#utility.yul\":2264:2354   */\n  swap1\n  pop\n    /* \"#utility.yul\":2374:2379   */\n  dup1\n    /* \"#utility.yul\":2403:2409   */\n  dup4\n    /* \"#utility.yul\":2396:2401   */\n  dup3\n    /* \"#utility.yul\":2389:2410   */\n  mstore\n    /* \"#utility.yul\":2437:2441   */\n  0x20\n    /* \"#utility.yul\":2430:2435   */\n  dup3\n    /* \"#utility.yul\":2426:2442   */\n  add\n    /* \"#utility.yul\":2419:2442   */\n  swap1\n  pop\n    /* \"#utility.yul\":2490:2494   */\n  0x20\n    /* \"#utility.yul\":2482:2488   */\n  dup5\n    /* \"#utility.yul\":2478:2495   */\n  mul\n    /* \"#utility.yul\":2470:2476   */\n  dup4\n    /* \"#utility.yul\":2466:2496   */\n  add\n    /* \"#utility.yul\":2519:2522   */\n  dup6\n    /* \"#utility.yul\":2511:2517   */\n  dup2\n    /* \"#utility.yul\":2508:2523   */\n  gt\n    /* \"#utility.yul\":2505:2627   */\n  iszero\n  tag_87\n  jumpi\n    /* \"#utility.yul\":2538:2617   */\n  tag_88\n  tag_38\n  jump\t// in\ntag_88:\n    /* \"#utility.yul\":2505:2627   */\ntag_87:\n    /* \"#utility.yul\":2653:2659   */\n  dup4\n    /* \"#utility.yul\":2636:2867   */\ntag_89:\n    /* \"#utility.yul\":2670:2676   */\n  dup2\n    /* \"#utility.yul\":2665:2668   */\n  dup2\n    /* \"#utility.yul\":2662:2677   */\n  lt\n    /* \"#utility.yul\":2636:2867   */\n  iszero\n  tag_91\n  jumpi\n    /* \"#utility.yul\":2745:2748   */\n  dup1\n    /* \"#utility.yul\":2774:2822   */\n  tag_92\n    /* \"#utility.yul\":2818:2821   */\n  dup9\n    /* \"#utility.yul\":2806:2816   */\n  dup3\n    /* \"#utility.yul\":2774:2822   */\n  tag_42\n  jump\t// in\ntag_92:\n    /* \"#utility.yul\":2769:2772   */\n  dup5\n    /* \"#utility.yul\":2762:2823   */\n  mstore\n    /* \"#utility.yul\":2852:2856   */\n  0x20\n    /* \"#utility.yul\":2847:2850   */\n  dup5\n    /* \"#utility.yul\":2843:2857   */\n  add\n    /* \"#utility.yul\":2836:2857   */\n  swap4\n  pop\n    /* \"#utility.yul\":2712:2867   */\n  pop\n    /* \"#utility.yul\":2696:2700   */\n  0x20\n    /* \"#utility.yul\":2691:2694   */\n  dup2\n    /* \"#utility.yul\":2687:2701   */\n  add\n    /* \"#utility.yul\":2680:2701   */\n  swap1\n  pop\n    /* \"#utility.yul\":2636:2867   */\n  jump(tag_89)\ntag_91:\n    /* \"#utility.yul\":2640:2661   */\n  pop\n    /* \"#utility.yul\":2254:2873   */\n  pop\n  pop\n    /* \"#utility.yul\":2141:2873   */\n  swap4\n  swap3\n  pop\n  pop\n  pop\n  jump\t// out\n    /* \"#utility.yul\":2896:3281   */\ntag_44:\n    /* \"#utility.yul\":2978:2983   */\n  0x00\n    /* \"#utility.yul\":3027:3030   */\n  dup3\n    /* \"#utility.yul\":3020:3024   */\n  0x1f\n    /* \"#utility.yul\":3012:3018   */\n  dup4\n    /* \"#utility.yul\":3008:3025   */\n  add\n    /* \"#utility.yul\":3004:3031   */\n  slt\n    /* \"#utility.yul\":2994:3116   */\n  tag_94\n  jumpi\n    /* \"#utility.yul\":3035:3114   */\n  tag_95\n  tag_32\n  jump\t// in\ntag_95:\n    /* \"#utility.yul\":2994:3116   */\ntag_94:\n    /* \"#utility.yul\":3145:3151   */\n  dup2\n    /* \"#utility.yul\":3139:3152   */\n  mload\n    /* \"#utility.yul\":3170:3275   */\n  tag_96\n    /* \"#utility.yul\":3271:3274   */\n  dup5\n    /* \"#utility.yul\":3263:3269   */\n  dup3\n    /* \"#utility.yul\":3256:3260   */\n  0x20\n    /* \"#utility.yul\":3248:3254   */\n  dup7\n    /* \"#utility.yul\":3244:3261   */\n  add\n    /* \"#utility.yul\":3170:3275   */\n  tag_43\n  jump\t// in\ntag_96:\n    /* \"#utility.yul\":3161:3275   */\n  swap2\n  pop\n    /* \"#utility.yul\":2984:3281   */\n  pop\n    /* \"#utility.yul\":2896:3281   */\n  swap3\n  swap2\n  pop\n  pop\n  jump\t// out\n    /* \"#utility.yul\":3287:3364   */\ntag_45:\n    /* \"#utility.yul\":3324:3331   */\n  0x00\n    /* \"#utility.yul\":3353:3358   */\n  dup2\n    /* \"#utility.yul\":3342:3358   */\n  swap1\n  pop\n    /* \"#utility.yul\":3287:3364   */\n  swap2\n  swap1\n  pop\n  jump\t// out\n    /* \"#utility.yul\":3370:3492   */\ntag_46:\n    /* \"#utility.yul\":3443:3467   */\n  tag_99\n    /* \"#utility.yul\":3461:3466   */\n  dup2\n    /* \"#utility.yul\":3443:3467   */\n  tag_45\n  jump\t// in\ntag_99:\n    /* \"#utility.yul\":3436:3441   */\n  dup2\n    /* \"#utility.yul\":3433:3468   */\n  eq\n    /* \"#utility.yul\":3423:3486   */\n  tag_100\n  jumpi\n    /* \"#utility.yul\":3482:3483   */\n  0x00\n    /* \"#utility.yul\":3479:3480   */\n  dup1\n    /* \"#utility.yul\":3472:3484   */\n  revert\n    /* \"#utility.yul\":3423:3486   */\ntag_100:\n    /* \"#utility.yul\":3370:3492   */\n  pop\n  jump\t// out\n    /* \"#utility.yul\":3498:3641   */\ntag_47:\n    /* \"#utility.yul\":3555:3560   */\n  0x00\n    /* \"#utility.yul\":3586:3592   */\n  dup2\n    /* \"#utility.yul\":3580:3593   */\n  mload\n    /* \"#utility.yul\":3571:3593   */\n  swap1\n  pop\n    /* \"#utility.yul\":3602:3635   */\n  tag_102\n    /* \"#utility.yul\":3629:3634   */\n  dup2\n    /* \"#utility.yul\":3602:3635   */\n  tag_46\n  jump\t// in\ntag_102:\n    /* \"#utility.yul\":3498:3641   */\n  swap3\n  swap2\n  pop\n  pop\n  jump\t// out\n    /* \"#utility.yul\":3647:4357   */\ntag_3:\n    /* \"#utility.yul\":3751:3757   */\n  0x00\n    /* \"#utility.yul\":3759:3765   */\n  dup1\n    /* \"#utility.yul\":3808:3810   */\n  0x40\n    /* \"#utility.yul\":3796:3805   */\n  dup4\n    /* \"#utility.yul\":3787:3794   */\n  dup6\n    /* \"#utility.yul\":3783:3806   */\n  sub\n    /* \"#utility.yul\":3779:3811   */\n  slt\n    /* \"#utility.yul\":3776:3895   */\n  iszero\n  tag_104\n  jumpi\n    /* \"#utility.yul\":3814:3893   */\n  tag_105\n  tag_30\n  jump\t// in\ntag_105:\n    /* \"#utility.yul\":3776:3895   */\ntag_104:\n    /* \"#utility.yul\":3955:3956   */\n  0x00\n    /* \"#utility.yul\":3944:3953   */\n  dup4\n    /* \"#utility.yul\":3940:3957   */\n  add\n    /* \"#utility.yul\":3934:3958   */\n  mload\n    /* \"#utility.yul\":3985:4003   */\n  0xffffffffffffffff\n    /* \"#utility.yul\":3977:3983   */\n  dup2\n    /* \"#utility.yul\":3974:4004   */\n  gt\n    /* \"#utility.yul\":3971:4088   */\n  iszero\n  tag_106\n  jumpi\n    /* \"#utility.yul\":4007:4086   */\n  tag_107\n  tag_31\n  jump\t// in\ntag_107:\n    /* \"#utility.yul\":3971:4088   */\ntag_106:\n    /* \"#utility.yul\":4112:4201   */\n  tag_108\n    /* \"#utility.yul\":4193:4200   */\n  dup6\n    /* \"#utility.yul\":4184:4190   */\n  dup3\n    /* \"#utility.yul\":4173:4182   */\n  dup7\n    /* \"#utility.yul\":4169:4191   */\n  add\n    /* \"#utility.yul\":4112:4201   */\n  tag_44\n  jump\t// in\ntag_108:\n    /* \"#utility.yul\":4102:4201   */\n  swap3\n  pop\n    /* \"#utility.yul\":3905:4211   */\n  pop\n    /* \"#utility.yul\":4250:4252   */\n  0x20\n    /* \"#utility.yul\":4276:4340   */\n  tag_109\n    /* \"#utility.yul\":4332:4339   */\n  dup6\n    /* \"#utility.yul\":4323:4329   */\n  dup3\n    /* \"#utility.yul\":4312:4321   */\n  dup7\n    /* \"#utility.yul\":4308:4330   */\n  add\n    /* \"#utility.yul\":4276:4340   */\n  tag_47\n  jump\t// in\ntag_109:\n    /* \"#utility.yul\":4266:4340   */\n  swap2\n  pop\n    /* \"#utility.yul\":4221:4350   */\n  pop\n    /* \"#utility.yul\":3647:4357   */\n  swap3\n  pop\n  swap3\n  swap1\n  pop\n  jump\t// out\n    /* \"#utility.yul\":4363:4532   */\ntag_48:\n    /* \"#utility.yul\":4447:4458   */\n  0x00\n    /* \"#utility.yul\":4481:4487   */\n  dup3\n    /* \"#utility.yul\":4476:4479   */\n  dup3\n    /* \"#utility.yul\":4469:4488   */\n  mstore\n    /* \"#utility.yul\":4521:4525   */\n  0x20\n    /* \"#utility.yul\":4516:4519   */\n  dup3\n    /* \"#utility.yul\":4512:4526   */\n  add\n    /* \"#utility.yul\":4497:4526   */\n  swap1\n  pop\n    /* \"#utility.yul\":4363:4532   */\n  swap3\n  swap2\n  pop\n  pop\n  jump\t// out\n    /* \"#utility.yul\":4538:4707   */\ntag_49:\n    /* \"#utility.yul\":4678:4699   */\n  0x4d7573742068617665203e31206f776e65727300000000000000000000000000\n    /* \"#utility.yul\":4674:4675   */\n  0x00\n    /* \"#utility.yul\":4666:4672   */\n  dup3\n    /* \"#utility.yul\":4662:4676   */\n  add\n    /* \"#utility.yul\":4655:4700   */\n  mstore\n    /* \"#utility.yul\":4538:4707   */\n  pop\n  jump\t// out\n    /* \"#utility.yul\":4713:5079   */\ntag_50:\n    /* \"#utility.yul\":4855:4858   */\n  0x00\n    /* \"#utility.yul\":4876:4943   */\n  tag_113\n    /* \"#utility.yul\":4940:4942   */\n  0x13\n    /* \"#utility.yul\":4935:4938   */\n  dup4\n    /* \"#utility.yul\":4876:4943   */\n  tag_48\n  jump\t// in\ntag_113:\n    /* \"#utility.yul\":4869:4943   */\n  swap2\n  pop\n    /* \"#utility.yul\":4952:5045   */\n  tag_114\n    /* \"#utility.yul\":5041:5044   */\n  dup3\n    /* \"#utility.yul\":4952:5045   */\n  tag_49\n  jump\t// in\ntag_114:\n    /* \"#utility.yul\":5070:5072   */\n  0x20\n    /* \"#utility.yul\":5065:5068   */\n  dup3\n    /* \"#utility.yul\":5061:5073   */\n  add\n    /* \"#utility.yul\":5054:5073   */\n  swap1\n  pop\n    /* \"#utility.yul\":4713:5079   */\n  swap2\n  swap1\n  pop\n  jump\t// out\n    /* \"#utility.yul\":5085:5504   */\ntag_8:\n    /* \"#utility.yul\":5251:5255   */\n  0x00\n    /* \"#utility.yul\":5289:5291   */\n  0x20\n    /* \"#utility.yul\":5278:5287   */\n  dup3\n    /* \"#utility.yul\":5274:5292   */\n  add\n    /* \"#utility.yul\":5266:5292   */\n  swap1\n  pop\n    /* \"#utility.yul\":5338:5347   */\n  dup2\n    /* \"#utility.yul\":5332:5336   */\n  dup2\n    /* \"#utility.yul\":5328:5348   */\n  sub\n    /* \"#utility.yul\":5324:5325   */\n  0x00\n    /* \"#utility.yul\":5313:5322   */\n  dup4\n    /* \"#utility.yul\":5309:5326   */\n  add\n    /* \"#utility.yul\":5302:5349   */\n  mstore\n    /* \"#utility.yul\":5366:5497   */\n  tag_116\n    /* \"#utility.yul\":5492:5496   */\n  dup2\n    /* \"#utility.yul\":5366:5497   */\n  tag_50\n  jump\t// in\ntag_116:\n    /* \"#utility.yul\":5358:5497   */\n  swap1\n  pop\n    /* \"#utility.yul\":5085:5504   */\n  swap2\n  swap1\n  pop\n  jump\t// out\n    /* \"#utility.yul\":5510:5691   */\ntag_51:\n    /* \"#utility.yul\":5650:5683   */\n  0x496e76616c6964204e756d626572206f6620436f6e6669726d6174696f6e7300\n    /* \"#utility.yul\":5646:5647   */\n  0x00\n    /* \"#utility.yul\":5638:5644   */\n  dup3\n    /* \"#utility.yul\":5634:5648   */\n  add\n    /* \"#utility.yul\":5627:5684   */\n  mstore\n    /* \"#utility.yul\":5510:5691   */\n  pop\n  jump\t// out\n    /* \"#utility.yul\":5697:6063   */\ntag_52:\n    /* \"#utility.yul\":5839:5842   */\n  0x00\n    /* \"#utility.yul\":5860:5927   */\n  tag_119\n    /* \"#utility.yul\":5924:5926   */\n  0x1f\n    /* \"#utility.yul\":5919:5922   */\n  dup4\n    /* \"#utility.yul\":5860:5927   */\n  tag_48\n  jump\t// in\ntag_119:\n    /* \"#utility.yul\":5853:5927   */\n  swap2\n  pop\n    /* \"#utility.yul\":5936:6029   */\n  tag_120\n    /* \"#utility.yul\":6025:6028   */\n  dup3\n    /* \"#utility.yul\":5936:6029   */\n  tag_51\n  jump\t// in\ntag_120:\n    /* \"#utility.yul\":6054:6056   */\n  0x20\n    /* \"#utility.yul\":6049:6052   */\n  dup3\n    /* \"#utility.yul\":6045:6057   */\n  add\n    /* \"#utility.yul\":6038:6057   */\n  swap1\n  pop\n    /* \"#utility.yul\":5697:6063   */\n  swap2\n  swap1\n  pop\n  jump\t// out\n    /* \"#utility.yul\":6069:6488   */\ntag_12:\n    /* \"#utility.yul\":6235:6239   */\n  0x00\n    /* \"#utility.yul\":6273:6275   */\n  0x20\n    /* \"#utility.yul\":6262:6271   */\n  dup3\n    /* \"#utility.yul\":6258:6276   */\n  add\n    /* \"#utility.yul\":6250:6276   */\n  swap1\n  pop\n    /* \"#utility.yul\":6322:6331   */\n  dup2\n    /* \"#utility.yul\":6316:6320   */\n  dup2\n    /* \"#utility.yul\":6312:6332   */\n  sub\n    /* \"#utility.yul\":6308:6309   */\n  0x00\n    /* \"#utility.yul\":6297:6306   */\n  dup4\n    /* \"#utility.yul\":6293:6310   */\n  add\n    /* \"#utility.yul\":6286:6333   */\n  mstore\n    /* \"#utility.yul\":6350:6481   */\n  tag_122\n    /* \"#utility.yul\":6476:6480   */\n  dup2\n    /* \"#utility.yul\":6350:6481   */\n  tag_52\n  jump\t// in\ntag_122:\n    /* \"#utility.yul\":6342:6481   */\n  swap1\n  pop\n    /* \"#utility.yul\":6069:6488   */\n  swap2\n  swap1\n  pop\n  jump\t// out\n    /* \"#utility.yul\":6494:6674   */\ntag_18:\n    /* \"#utility.yul\":6542:6619   */\n  0x4e487b7100000000000000000000000000000000000000000000000000000000\n    /* \"#utility.yul\":6539:6540   */\n  0x00\n    /* \"#utility.yul\":6532:6620   */\n  mstore\n    /* \"#utility.yul\":6639:6643   */\n  0x32\n    /* \"#utility.yul\":6636:6637   */\n  0x04\n    /* \"#utility.yul\":6629:6644   */\n  mstore\n    /* \"#utility.yul\":6663:6667   */\n  0x24\n    /* \"#utility.yul\":6660:6661   */\n  0x00\n    /* \"#utility.yul\":6653:6668   */\n  revert\n    /* \"#utility.yul\":6680:6861   */\ntag_53:\n    /* \"#utility.yul\":6820:6853   */\n  0x43616e742068617665205a65726f2061646472657373206173206f776e657200\n    /* \"#utility.yul\":6816:6817   */\n  0x00\n    /* \"#utility.yul\":6808:6814   */\n  dup3\n    /* \"#utility.yul\":6804:6818   */\n  add\n    /* \"#utility.yul\":6797:6854   */\n  mstore\n    /* \"#utility.yul\":6680:6861   */\n  pop\n  jump\t// out\n    /* \"#utility.yul\":6867:7233   */\ntag_54:\n    /* \"#utility.yul\":7009:7012   */\n  0x00\n    /* \"#utility.yul\":7030:7097   */\n  tag_126\n    /* \"#utility.yul\":7094:7096   */\n  0x1f\n    /* \"#utility.yul\":7089:7092   */\n  dup4\n    /* \"#utility.yul\":7030:7097   */\n  tag_48\n  jump\t// in\ntag_126:\n    /* \"#utility.yul\":7023:7097   */\n  swap2\n  pop\n    /* \"#utility.yul\":7106:7199   */\n  tag_127\n    /* \"#utility.yul\":7195:7198   */\n  dup3\n    /* \"#utility.yul\":7106:7199   */\n  tag_53\n  jump\t// in\ntag_127:\n    /* \"#utility.yul\":7224:7226   */\n  0x20\n    /* \"#utility.yul\":7219:7222   */\n  dup3\n    /* \"#utility.yul\":7215:7227   */\n  add\n    /* \"#utility.yul\":7208:7227   */\n  swap1\n  pop\n    /* \"#utility.yul\":6867:7233   */\n  swap2\n  swap1\n  pop\n  jump\t// out\n    /* \"#utility.yul\":7239:7658   */\ntag_21:\n    /* \"#utility.yul\":7405:7409   */\n  0x00\n    /* \"#utility.yul\":7443:7445   */\n  0x20\n    /* \"#utility.yul\":7432:7441   */\n  dup3\n    /* \"#utility.yul\":7428:7446   */\n  add\n    /* \"#utility.yul\":7420:7446   */\n  swap1\n  pop\n    /* \"#utility.yul\":7492:7501   */\n  dup2\n    /* \"#utility.yul\":7486:7490   */\n  dup2\n    /* \"#utility.yul\":7482:7502   */\n  sub\n    /* \"#utility.yul\":7478:7479   */\n  0x00\n    /* \"#utility.yul\":7467:7476   */\n  dup4\n    /* \"#utility.yul\":7463:7480   */\n  add\n    /* \"#utility.yul\":7456:7503   */\n  mstore\n    /* \"#utility.yul\":7520:7651   */\n  tag_129\n    /* \"#utility.yul\":7646:7650   */\n  dup2\n    /* \"#utility.yul\":7520:7651   */\n  tag_54\n  jump\t// in\ntag_129:\n    /* \"#utility.yul\":7512:7651   */\n  swap1\n  pop\n    /* \"#utility.yul\":7239:7658   */\n  swap2\n  swap1\n  pop\n  jump\t// out\n    /* \"#utility.yul\":7664:7842   */\ntag_55:\n    /* \"#utility.yul\":7804:7834   */\n  0x4475706c6963617465204f776e6572206e6f7420616c6c6f7765642100000000\n    /* \"#utility.yul\":7800:7801   */\n  0x00\n    /* \"#utility.yul\":7792:7798   */\n  dup3\n    /* \"#utility.yul\":7788:7802   */\n  add\n    /* \"#utility.yul\":7781:7835   */\n  mstore\n    /* \"#utility.yul\":7664:7842   */\n  pop\n  jump\t// out\n    /* \"#utility.yul\":7848:8214   */\ntag_56:\n    /* \"#utility.yul\":7990:7993   */\n  0x00\n    /* \"#utility.yul\":8011:8078   */\n  tag_132\n    /* \"#utility.yul\":8075:8077   */\n  0x1c\n    /* \"#utility.yul\":8070:8073   */\n  dup4\n    /* \"#utility.yul\":8011:8078   */\n  tag_48\n  jump\t// in\ntag_132:\n    /* \"#utility.yul\":8004:8078   */\n  swap2\n  pop\n    /* \"#utility.yul\":8087:8180   */\n  tag_133\n    /* \"#utility.yul\":8176:8179   */\n  dup3\n    /* \"#utility.yul\":8087:8180   */\n  tag_55\n  jump\t// in\ntag_133:\n    /* \"#utility.yul\":8205:8207   */\n  0x20\n    /* \"#utility.yul\":8200:8203   */\n  dup3\n    /* \"#utility.yul\":8196:8208   */\n  add\n    /* \"#utility.yul\":8189:8208   */\n  swap1\n  pop\n    /* \"#utility.yul\":7848:8214   */\n  swap2\n  swap1\n  pop\n  jump\t// out\n    /* \"#utility.yul\":8220:8639   */\ntag_24:\n    /* \"#utility.yul\":8386:8390   */\n  0x00\n    /* \"#utility.yul\":8424:8426   */\n  0x20\n    /* \"#utility.yul\":8413:8422   */\n  dup3\n    /* \"#utility.yul\":8409:8427   */\n  add\n    /* \"#utility.yul\":8401:8427   */\n  swap1\n  pop\n    /* \"#utility.yul\":8473:8482   */\n  dup2\n    /* \"#utility.yul\":8467:8471   */\n  dup2\n    /* \"#utility.yul\":8463:8483   */\n  sub\n    /* \"#utility.yul\":8459:8460   */\n  0x00\n    /* \"#utility.yul\":8448:8457   */\n  dup4\n    /* \"#utility.yul\":8444:8461   */\n  add\n    /* \"#utility.yul\":8437:8484   */\n  mstore\n    /* \"#utility.yul\":8501:8632   */\n  tag_135\n    /* \"#utility.yul\":8627:8631   */\n  dup2\n    /* \"#utility.yul\":8501:8632   */\n  tag_56\n  jump\t// in\ntag_135:\n    /* \"#utility.yul\":8493:8632   */\n  swap1\n  pop\n    /* \"#utility.yul\":8220:8639   */\n  swap2\n  swap1\n  pop\n  jump\t// out\n    /* \"#utility.yul\":8645:8825   */\ntag_57:\n    /* \"#utility.yul\":8693:8770   */\n  0x4e487b7100000000000000000000000000000000000000000000000000000000\n    /* \"#utility.yul\":8690:8691   */\n  0x00\n    /* \"#utility.yul\":8683:8771   */\n  mstore\n    /* \"#utility.yul\":8790:8794   */\n  0x11\n    /* \"#utility.yul\":8787:8788   */\n  0x04\n    /* \"#utility.yul\":8780:8795   */\n  mstore\n    /* \"#utility.yul\":8814:8818   */\n  0x24\n    /* \"#utility.yul\":8811:8812   */\n  0x00\n    /* \"#utility.yul\":8804:8819   */\n  revert\n    /* \"#utility.yul\":8831:9064   */\ntag_27:\n    /* \"#utility.yul\":8870:8873   */\n  0x00\n    /* \"#utility.yul\":8893:8917   */\n  tag_138\n    /* \"#utility.yul\":8911:8916   */\n  dup3\n    /* \"#utility.yul\":8893:8917   */\n  tag_45\n  jump\t// in\ntag_138:\n    /* \"#utility.yul\":8884:8917   */\n  swap2\n  pop\n    /* \"#utility.yul\":8939:9005   */\n  0xffffffffffffffffffffffffffffffffffffffffffffffffffffffffffffffff\n    /* \"#utility.yul\":8932:8937   */\n  dup3\n    /* \"#utility.yul\":8929:9006   */\n  eq\n    /* \"#utility.yul\":8926:9029   */\n  iszero\n  tag_139\n  jumpi\n    /* \"#utility.yul\":9009:9027   */\n  tag_140\n  tag_57\n  jump\t// in\ntag_140:\n    /* \"#utility.yul\":8926:9029   */\ntag_139:\n    /* \"#utility.yul\":9056:9057   */\n  0x01\n    /* \"#utility.yul\":9049:9054   */\n  dup3\n    /* \"#utility.yul\":9045:9058   */\n  add\n    /* \"#utility.yul\":9038:9058   */\n  swap1\n  pop\n    /* \"#utility.yul\":8831:9064   */\n  swap2\n  swap1\n  pop\n  jump\t// out\n    /* \"Documents/EthDev/Projects2/SolidityByExamples/MultiSigWallet/contracts/MultiSigWallet.sol\":61:3919  contract MultiSigWallet {... */\ntag_28:\n  dataSize(sub_0)\n  dup1\n  dataOffset(sub_0)\n  0x00\n  codecopy\n  0x00\n  return\nstop\n\nsub_0: assembly {\n        /* \"Documents/EthDev/Projects2/SolidityByExamples/MultiSigWallet/contracts/MultiSigWallet.sol\":61:3919  contract MultiSigWallet {... */\n      mstore(0x40, 0x80)\n      jumpi(tag_1, lt(calldatasize, 0x04))\n      shr(0xe0, calldataload(0x00))\n      dup1\n      0x9ace38c2\n      gt\n      tag_12\n      jumpi\n      dup1\n      0x9ace38c2\n      eq\n      tag_7\n      jumpi\n      dup1\n      0x9ba83e1b\n      eq\n      tag_8\n      jumpi\n      dup1\n      0xb032e075\n      eq\n      tag_9\n      jumpi\n      dup1\n      0xc6427474\n      eq\n      tag_10\n      jumpi\n      dup1\n      0xee22610b\n      eq\n      tag_11\n      jumpi\n      jump(tag_2)\n    tag_12:\n      dup1\n      0x025e7c27\n      eq\n      tag_3\n      jumpi\n      dup1\n      0x242232d1\n      eq\n      tag_4\n      jumpi\n      dup1\n      0x2f54bf6e\n      eq\n      tag_5\n      jumpi\n      dup1\n      0x735631ad\n      eq\n      tag_6\n      jumpi\n      jump(tag_2)\n    tag_1:\n      jumpi(tag_2, calldatasize)\n        /* \"Documents/EthDev/Projects2/SolidityByExamples/MultiSigWallet/contracts/MultiSigWallet.sol\":2300:2310  msg.sender */\n      caller\n        /* \"Documents/EthDev/Projects2/SolidityByExamples/MultiSigWallet/contracts/MultiSigWallet.sol\":2292:2345  Deposit(msg.sender, msg.value, address(this).balance) */\n      0xffffffffffffffffffffffffffffffffffffffff\n      and\n      0x90890809c654f11d6e72a28fa60149770a0d11ec6c92319d6ceb2bb0a4ea1a15\n        /* \"Documents/EthDev/Projects2/SolidityByExamples/MultiSigWallet/contracts/MultiSigWallet.sol\":2312:2321  msg.value */\n      callvalue\n        /* \"Documents/EthDev/Projects2/SolidityByExamples/MultiSigWallet/contracts/MultiSigWallet.sol\":2323:2344  address(this).balance */\n      selfbalance\n        /* \"Documents/EthDev/Projects2/SolidityByExamples/MultiSigWallet/contracts/MultiSigWallet.sol\":2292:2345  Deposit(msg.sender, msg.value, address(this).balance) */\n      mload(0x40)\n      tag_15\n      swap3\n      swap2\n      swap1\n      tag_16\n      jump\t// in\n    tag_15:\n      mload(0x40)\n      dup1\n      swap2\n      sub\n      swap1\n      log2\n        /* \"Documents/EthDev/Projects2/SolidityByExamples/MultiSigWallet/contracts/MultiSigWallet.sol\":61:3919  contract MultiSigWallet {... */\n      stop\n    tag_2:\n      0x00\n      dup1\n      revert\n        /* \"Documents/EthDev/Projects2/SolidityByExamples/MultiSigWallet/contracts/MultiSigWallet.sol\":494:517  address[] public owners */\n    tag_3:\n      callvalue\n      dup1\n      iszero\n      tag_17\n      jumpi\n      0x00\n      dup1\n      revert\n    tag_17:\n      pop\n      tag_18\n      0x04\n      dup1\n      calldatasize\n      sub\n      dup2\n      add\n      swap1\n      tag_19\n      swap2\n      swap1\n      tag_20\n      jump\t// in\n    tag_19:\n      tag_21\n      jump\t// in\n    tag_18:\n      mload(0x40)\n      tag_22\n      swap2\n      swap1\n      tag_23\n      jump\t// in\n    tag_22:\n      mload(0x40)\n      dup1\n      swap2\n      sub\n      swap1\n      return\n        /* \"Documents/EthDev/Projects2/SolidityByExamples/MultiSigWallet/contracts/MultiSigWallet.sol\":2647:2972  function approveTransaction(uint _txId) public onlyOwner isTransaction(_txId) isNotConfirmed(_txId) isNotExecuted(_txId) {... */\n    tag_4:\n      callvalue\n      dup1\n      iszero\n      tag_24\n      jumpi\n      0x00\n      dup1\n      revert\n    tag_24:\n      pop\n      tag_25\n      0x04\n      dup1\n      calldatasize\n      sub\n      dup2\n      add\n      swap1\n      tag_26\n      swap2\n      swap1\n      tag_20\n      jump\t// in\n    tag_26:\n      tag_27\n      jump\t// in\n    tag_25:\n      stop\n        /* \"Documents/EthDev/Projects2/SolidityByExamples/MultiSigWallet/contracts/MultiSigWallet.sol\":731:770  mapping(address => bool) public isOwner */\n    tag_5:\n      callvalue\n      dup1\n      iszero\n      tag_28\n      jumpi\n      0x00\n      dup1\n      revert\n    tag_28:\n      pop\n      tag_29\n      0x04\n      dup1\n      calldatasize\n      sub\n      dup2\n      add\n      swap1\n      tag_30\n      swap2\n      swap1\n      tag_31\n      jump\t// in\n    tag_30:\n      tag_32\n      jump\t// in\n    tag_29:\n      mload(0x40)\n      tag_33\n      swap2\n      swap1\n      tag_34\n      jump\t// in\n    tag_33:\n      mload(0x40)\n      dup1\n      swap2\n      sub\n      swap1\n      return\n        /* \"Documents/EthDev/Projects2/SolidityByExamples/MultiSigWallet/contracts/MultiSigWallet.sol\":3523:3913  function revokeTransaction(uint _txId) public onlyOwner isTransaction(_txId) isNotExecuted(_txId) {... */\n    tag_6:\n      callvalue\n      dup1\n      iszero\n      tag_35\n      jumpi\n      0x00\n      dup1\n      revert\n    tag_35:\n      pop\n      tag_36\n      0x04\n      dup1\n      calldatasize\n      sub\n      dup2\n      add\n      swap1\n      tag_37\n      swap2\n      swap1\n      tag_20\n      jump\t// in\n    tag_37:\n      tag_38\n      jump\t// in\n    tag_36:\n      stop\n        /* \"Documents/EthDev/Projects2/SolidityByExamples/MultiSigWallet/contracts/MultiSigWallet.sol\":943:976  Transaction[] public transactions */\n    tag_7:\n      callvalue\n      dup1\n      iszero\n      tag_39\n      jumpi\n      0x00\n      dup1\n      revert\n    tag_39:\n      pop\n      tag_40\n      0x04\n      dup1\n      calldatasize\n      sub\n      dup2\n      add\n      swap1\n      tag_41\n      swap2\n      swap1\n      tag_20\n      jump\t// in\n    tag_41:\n      tag_42\n      jump\t// in\n    tag_40:\n      mload(0x40)\n      tag_43\n      swap6\n      swap5\n      swap4\n      swap3\n      swap2\n      swap1\n      tag_44\n      jump\t// in\n    tag_43:\n      mload(0x40)\n      dup1\n      swap2\n      sub\n      swap1\n      return\n        /* \"Documents/EthDev/Projects2/SolidityByExamples/MultiSigWallet/contracts/MultiSigWallet.sol\":860:918  mapping(uint => mapping(address => bool)) public isConfirm */\n    tag_8:\n      callvalue\n      dup1\n      iszero\n      tag_45\n      jumpi\n      0x00\n      dup1\n      revert\n    tag_45:\n      pop\n      tag_46\n      0x04\n      dup1\n      calldatasize\n      sub\n      dup2\n      add\n      swap1\n      tag_47\n      swap2\n      swap1\n      tag_48\n      jump\t// in\n    tag_47:\n      tag_49\n      jump\t// in\n    tag_46:\n      mload(0x40)\n      tag_50\n      swap2\n      swap1\n      tag_34\n      jump\t// in\n    tag_50:\n      mload(0x40)\n      dup1\n      swap2\n      sub\n      swap1\n      return\n        /* \"Documents/EthDev/Projects2/SolidityByExamples/MultiSigWallet/contracts/MultiSigWallet.sol\":985:1015  uint public numOfConfirmations */\n    tag_9:\n      callvalue\n      dup1\n      iszero\n      tag_51\n      jumpi\n      0x00\n      dup1\n      revert\n    tag_51:\n      pop\n      tag_52\n      tag_53\n      jump\t// in\n    tag_52:\n      mload(0x40)\n      tag_54\n      swap2\n      swap1\n      tag_55\n      jump\t// in\n    tag_54:\n      mload(0x40)\n      dup1\n      swap2\n      sub\n      swap1\n      return\n        /* \"Documents/EthDev/Projects2/SolidityByExamples/MultiSigWallet/contracts/MultiSigWallet.sol\":2361:2639  function submitTransaction(address _to, uint _value, bytes memory _data) public onlyOwner {... */\n    tag_10:\n      callvalue\n      dup1\n      iszero\n      tag_56\n      jumpi\n      0x00\n      dup1\n      revert\n    tag_56:\n      pop\n      tag_57\n      0x04\n      dup1\n      calldatasize\n      sub\n      dup2\n      add\n      swap1\n      tag_58\n      swap2\n      swap1\n      tag_59\n      jump\t// in\n    tag_58:\n      tag_60\n      jump\t// in\n    tag_57:\n      stop\n        /* \"Documents/EthDev/Projects2/SolidityByExamples/MultiSigWallet/contracts/MultiSigWallet.sol\":2980:3515  function executeTransaction(uint _txId) public isTransaction(_txId) isNotExecuted(_txId) {... */\n    tag_11:\n      callvalue\n      dup1\n      iszero\n      tag_61\n      jumpi\n      0x00\n      dup1\n      revert\n    tag_61:\n      pop\n      tag_62\n      0x04\n      dup1\n      calldatasize\n      sub\n      dup2\n      add\n      swap1\n      tag_63\n      swap2\n      swap1\n      tag_20\n      jump\t// in\n    tag_63:\n      tag_64\n      jump\t// in\n    tag_62:\n      stop\n        /* \"Documents/EthDev/Projects2/SolidityByExamples/MultiSigWallet/contracts/MultiSigWallet.sol\":494:517  address[] public owners */\n    tag_21:\n      0x00\n      dup2\n      dup2\n      sload\n      dup2\n      lt\n      tag_65\n      jumpi\n      0x00\n      dup1\n      revert\n    tag_65:\n      swap1\n      0x00\n      mstore\n      keccak256(0x00, 0x20)\n      add\n      0x00\n      swap2\n      pop\n      sload\n      swap1\n      0x0100\n      exp\n      swap1\n      div\n      0xffffffffffffffffffffffffffffffffffffffff\n      and\n      dup2\n      jump\t// out\n        /* \"Documents/EthDev/Projects2/SolidityByExamples/MultiSigWallet/contracts/MultiSigWallet.sol\":2647:2972  function approveTransaction(uint _txId) public onlyOwner isTransaction(_txId) isNotConfirmed(_txId) isNotExecuted(_txId) {... */\n    tag_27:\n        /* \"Documents/EthDev/Projects2/SolidityByExamples/MultiSigWallet/contracts/MultiSigWallet.sol\":1064:1071  isOwner */\n      0x01\n        /* \"Documents/EthDev/Projects2/SolidityByExamples/MultiSigWallet/contracts/MultiSigWallet.sol\":1064:1083  isOwner[msg.sender] */\n      0x00\n        /* \"Documents/EthDev/Projects2/SolidityByExamples/MultiSigWallet/contracts/MultiSigWallet.sol\":1072:1082  msg.sender */\n      caller\n        /* \"Documents/EthDev/Projects2/SolidityByExamples/MultiSigWallet/contracts/MultiSigWallet.sol\":1064:1083  isOwner[msg.sender] */\n      0xffffffffffffffffffffffffffffffffffffffff\n      and\n      0xffffffffffffffffffffffffffffffffffffffff\n      and\n      dup2\n      mstore\n      0x20\n      add\n      swap1\n      dup2\n      mstore\n      0x20\n      add\n      0x00\n      keccak256\n      0x00\n      swap1\n      sload\n      swap1\n      0x0100\n      exp\n      swap1\n      div\n      0xff\n      and\n        /* \"Documents/EthDev/Projects2/SolidityByExamples/MultiSigWallet/contracts/MultiSigWallet.sol\":1056:1129  require(isOwner[msg.sender], \"Only Owners can access this functionality\") */\n      tag_68\n      jumpi\n      mload(0x40)\n      0x08c379a000000000000000000000000000000000000000000000000000000000\n      dup2\n      mstore\n      0x04\n      add\n      tag_69\n      swap1\n      tag_70\n      jump\t// in\n    tag_69:\n      mload(0x40)\n      dup1\n      swap2\n      sub\n      swap1\n      revert\n    tag_68:\n        /* \"Documents/EthDev/Projects2/SolidityByExamples/MultiSigWallet/contracts/MultiSigWallet.sol\":2718:2723  _txId */\n      dup1\n        /* \"Documents/EthDev/Projects2/SolidityByExamples/MultiSigWallet/contracts/MultiSigWallet.sol\":1217:1229  transactions */\n      0x03\n        /* \"Documents/EthDev/Projects2/SolidityByExamples/MultiSigWallet/contracts/MultiSigWallet.sol\":1217:1236  transactions.length */\n      dup1\n      sload\n      swap1\n      pop\n        /* \"Documents/EthDev/Projects2/SolidityByExamples/MultiSigWallet/contracts/MultiSigWallet.sol\":1210:1214  txId */\n      dup2\n        /* \"Documents/EthDev/Projects2/SolidityByExamples/MultiSigWallet/contracts/MultiSigWallet.sol\":1210:1236  txId < transactions.length */\n      lt\n        /* \"Documents/EthDev/Projects2/SolidityByExamples/MultiSigWallet/contracts/MultiSigWallet.sol\":1202:1253  require(txId < transactions.length, \"Invalid TxId\") */\n      tag_72\n      jumpi\n      mload(0x40)\n      0x08c379a000000000000000000000000000000000000000000000000000000000\n      dup2\n      mstore\n      0x04\n      add\n      tag_73\n      swap1\n      tag_74\n      jump\t// in\n    tag_73:\n      mload(0x40)\n      dup1\n      swap2\n      sub\n      swap1\n      revert\n    tag_72:\n        /* \"Documents/EthDev/Projects2/SolidityByExamples/MultiSigWallet/contracts/MultiSigWallet.sol\":2740:2745  _txId */\n      dup2\n        /* \"Documents/EthDev/Projects2/SolidityByExamples/MultiSigWallet/contracts/MultiSigWallet.sol\":1370:1388  numOfConfirmations */\n      sload(0x04)\n        /* \"Documents/EthDev/Projects2/SolidityByExamples/MultiSigWallet/contracts/MultiSigWallet.sol\":1335:1347  transactions */\n      0x03\n        /* \"Documents/EthDev/Projects2/SolidityByExamples/MultiSigWallet/contracts/MultiSigWallet.sol\":1348:1352  txId */\n      dup3\n        /* \"Documents/EthDev/Projects2/SolidityByExamples/MultiSigWallet/contracts/MultiSigWallet.sol\":1335:1353  transactions[txId] */\n      dup2\n      sload\n      dup2\n      lt\n      tag_76\n      jumpi\n      tag_77\n      tag_78\n      jump\t// in\n    tag_77:\n    tag_76:\n      swap1\n      0x00\n      mstore\n      keccak256(0x00, 0x20)\n      swap1\n      0x05\n      mul\n      add\n        /* \"Documents/EthDev/Projects2/SolidityByExamples/MultiSigWallet/contracts/MultiSigWallet.sol\":1335:1367  transactions[txId].confirmations */\n      0x04\n      add\n      sload\n        /* \"Documents/EthDev/Projects2/SolidityByExamples/MultiSigWallet/contracts/MultiSigWallet.sol\":1335:1388  transactions[txId].confirmations < numOfConfirmations */\n      lt\n        /* \"Documents/EthDev/Projects2/SolidityByExamples/MultiSigWallet/contracts/MultiSigWallet.sol\":1327:1422  require(transactions[txId].confirmations < numOfConfirmations, \"Transaction already confirmed\") */\n      tag_80\n      jumpi\n      mload(0x40)\n      0x08c379a000000000000000000000000000000000000000000000000000000000\n      dup2\n      mstore\n      0x04\n      add\n      tag_81\n      swap1\n      tag_82\n      jump\t// in\n    tag_81:\n      mload(0x40)\n      dup1\n      swap2\n      sub\n      swap1\n      revert\n    tag_80:\n        /* \"Documents/EthDev/Projects2/SolidityByExamples/MultiSigWallet/contracts/MultiSigWallet.sol\":2761:2766  _txId */\n      dup3\n        /* \"Documents/EthDev/Projects2/SolidityByExamples/MultiSigWallet/contracts/MultiSigWallet.sol\":1504:1516  transactions */\n      0x03\n        /* \"Documents/EthDev/Projects2/SolidityByExamples/MultiSigWallet/contracts/MultiSigWallet.sol\":1517:1521  txId */\n      dup2\n        /* \"Documents/EthDev/Projects2/SolidityByExamples/MultiSigWallet/contracts/MultiSigWallet.sol\":1504:1522  transactions[txId] */\n      dup2\n      sload\n      dup2\n      lt\n      tag_84\n      jumpi\n      tag_85\n      tag_78\n      jump\t// in\n    tag_85:\n    tag_84:\n      swap1\n      0x00\n      mstore\n      keccak256(0x00, 0x20)\n      swap1\n      0x05\n      mul\n      add\n        /* \"Documents/EthDev/Projects2/SolidityByExamples/MultiSigWallet/contracts/MultiSigWallet.sol\":1504:1531  transactions[txId].executed */\n      0x03\n      add\n      0x00\n      swap1\n      sload\n      swap1\n      0x0100\n      exp\n      swap1\n      div\n      0xff\n      and\n        /* \"Documents/EthDev/Projects2/SolidityByExamples/MultiSigWallet/contracts/MultiSigWallet.sol\":1503:1531  !transactions[txId].executed */\n      iszero\n        /* \"Documents/EthDev/Projects2/SolidityByExamples/MultiSigWallet/contracts/MultiSigWallet.sol\":1495:1555  require(!transactions[txId].executed, \"Tx already executed\") */\n      tag_87\n      jumpi\n      mload(0x40)\n      0x08c379a000000000000000000000000000000000000000000000000000000000\n      dup2\n      mstore\n      0x04\n      add\n      tag_88\n      swap1\n      tag_89\n      jump\t// in\n    tag_88:\n      mload(0x40)\n      dup1\n      swap2\n      sub\n      swap1\n      revert\n    tag_87:\n        /* \"Documents/EthDev/Projects2/SolidityByExamples/MultiSigWallet/contracts/MultiSigWallet.sol\":2779:2810  Transaction storage transaction */\n      0x00\n        /* \"Documents/EthDev/Projects2/SolidityByExamples/MultiSigWallet/contracts/MultiSigWallet.sol\":2813:2825  transactions */\n      0x03\n        /* \"Documents/EthDev/Projects2/SolidityByExamples/MultiSigWallet/contracts/MultiSigWallet.sol\":2826:2831  _txId */\n      dup6\n        /* \"Documents/EthDev/Projects2/SolidityByExamples/MultiSigWallet/contracts/MultiSigWallet.sol\":2813:2832  transactions[_txId] */\n      dup2\n      sload\n      dup2\n      lt\n      tag_91\n      jumpi\n      tag_92\n      tag_78\n      jump\t// in\n    tag_92:\n    tag_91:\n      swap1\n      0x00\n      mstore\n      keccak256(0x00, 0x20)\n      swap1\n      0x05\n      mul\n      add\n        /* \"Documents/EthDev/Projects2/SolidityByExamples/MultiSigWallet/contracts/MultiSigWallet.sol\":2779:2832  Transaction storage transaction = transactions[_txId] */\n      swap1\n      pop\n        /* \"Documents/EthDev/Projects2/SolidityByExamples/MultiSigWallet/contracts/MultiSigWallet.sol\":2845:2856  transaction */\n      dup1\n        /* \"Documents/EthDev/Projects2/SolidityByExamples/MultiSigWallet/contracts/MultiSigWallet.sol\":2845:2870  transaction.confirmations */\n      0x04\n      add\n      0x00\n        /* \"Documents/EthDev/Projects2/SolidityByExamples/MultiSigWallet/contracts/MultiSigWallet.sol\":2845:2872  transaction.confirmations++ */\n      dup2\n      sload\n      dup1\n      swap3\n      swap2\n      swap1\n      tag_94\n      swap1\n      tag_95\n      jump\t// in\n    tag_94:\n      swap2\n      swap1\n      pop\n      sstore\n      pop\n        /* \"Documents/EthDev/Projects2/SolidityByExamples/MultiSigWallet/contracts/MultiSigWallet.sol\":2914:2918  true */\n      0x01\n        /* \"Documents/EthDev/Projects2/SolidityByExamples/MultiSigWallet/contracts/MultiSigWallet.sol\":2883:2892  isConfirm */\n      0x02\n        /* \"Documents/EthDev/Projects2/SolidityByExamples/MultiSigWallet/contracts/MultiSigWallet.sol\":2883:2899  isConfirm[_txId] */\n      0x00\n        /* \"Documents/EthDev/Projects2/SolidityByExamples/MultiSigWallet/contracts/MultiSigWallet.sol\":2893:2898  _txId */\n      dup8\n        /* \"Documents/EthDev/Projects2/SolidityByExamples/MultiSigWallet/contracts/MultiSigWallet.sol\":2883:2899  isConfirm[_txId] */\n      dup2\n      mstore\n      0x20\n      add\n      swap1\n      dup2\n      mstore\n      0x20\n      add\n      0x00\n      keccak256\n        /* \"Documents/EthDev/Projects2/SolidityByExamples/MultiSigWallet/contracts/MultiSigWallet.sol\":2883:2911  isConfirm[_txId][msg.sender] */\n      0x00\n        /* \"Documents/EthDev/Projects2/SolidityByExamples/MultiSigWallet/contracts/MultiSigWallet.sol\":2900:2910  msg.sender */\n      caller\n        /* \"Documents/EthDev/Projects2/SolidityByExamples/MultiSigWallet/contracts/MultiSigWallet.sol\":2883:2911  isConfirm[_txId][msg.sender] */\n      0xffffffffffffffffffffffffffffffffffffffff\n      and\n      0xffffffffffffffffffffffffffffffffffffffff\n      and\n      dup2\n      mstore\n      0x20\n      add\n      swap1\n      dup2\n      mstore\n      0x20\n      add\n      0x00\n      keccak256\n      0x00\n        /* \"Documents/EthDev/Projects2/SolidityByExamples/MultiSigWallet/contracts/MultiSigWallet.sol\":2883:2918  isConfirm[_txId][msg.sender] = true */\n      0x0100\n      exp\n      dup2\n      sload\n      dup2\n      0xff\n      mul\n      not\n      and\n      swap1\n      dup4\n      iszero\n      iszero\n      mul\n      or\n      swap1\n      sstore\n      pop\n        /* \"Documents/EthDev/Projects2/SolidityByExamples/MultiSigWallet/contracts/MultiSigWallet.sol\":2958:2963  _txId */\n      dup5\n        /* \"Documents/EthDev/Projects2/SolidityByExamples/MultiSigWallet/contracts/MultiSigWallet.sol\":2946:2956  msg.sender */\n      caller\n        /* \"Documents/EthDev/Projects2/SolidityByExamples/MultiSigWallet/contracts/MultiSigWallet.sol\":2936:2964  Confirmed(msg.sender, _txId) */\n      0xffffffffffffffffffffffffffffffffffffffff\n      and\n      0xab825bb15a80ddd6248dab50c44299ab366e0658b16d6c37ceda8018f5b1adde\n      mload(0x40)\n      mload(0x40)\n      dup1\n      swap2\n      sub\n      swap1\n      log3\n        /* \"Documents/EthDev/Projects2/SolidityByExamples/MultiSigWallet/contracts/MultiSigWallet.sol\":2768:2972  {... */\n      pop\n        /* \"Documents/EthDev/Projects2/SolidityByExamples/MultiSigWallet/contracts/MultiSigWallet.sol\":1433:1434  _ */\n      pop\n        /* \"Documents/EthDev/Projects2/SolidityByExamples/MultiSigWallet/contracts/MultiSigWallet.sol\":1264:1265  _ */\n      pop\n        /* \"Documents/EthDev/Projects2/SolidityByExamples/MultiSigWallet/contracts/MultiSigWallet.sol\":1140:1141  _ */\n      pop\n        /* \"Documents/EthDev/Projects2/SolidityByExamples/MultiSigWallet/contracts/MultiSigWallet.sol\":2647:2972  function approveTransaction(uint _txId) public onlyOwner isTransaction(_txId) isNotConfirmed(_txId) isNotExecuted(_txId) {... */\n      pop\n      jump\t// out\n        /* \"Documents/EthDev/Projects2/SolidityByExamples/MultiSigWallet/contracts/MultiSigWallet.sol\":731:770  mapping(address => bool) public isOwner */\n    tag_32:\n      mstore(0x20, 0x01)\n      dup1\n      0x00\n      mstore\n      keccak256(0x00, 0x40)\n      0x00\n      swap2\n      pop\n      sload\n      swap1\n      0x0100\n      exp\n      swap1\n      div\n      0xff\n      and\n      dup2\n      jump\t// out\n        /* \"Documents/EthDev/Projects2/SolidityByExamples/MultiSigWallet/contracts/MultiSigWallet.sol\":3523:3913  function revokeTransaction(uint _txId) public onlyOwner isTransaction(_txId) isNotExecuted(_txId) {... */\n    tag_38:\n        /* \"Documents/EthDev/Projects2/SolidityByExamples/MultiSigWallet/contracts/MultiSigWallet.sol\":1064:1071  isOwner */\n      0x01\n        /* \"Documents/EthDev/Projects2/SolidityByExamples/MultiSigWallet/contracts/MultiSigWallet.sol\":1064:1083  isOwner[msg.sender] */\n      0x00\n        /* \"Documents/EthDev/Projects2/SolidityByExamples/MultiSigWallet/contracts/MultiSigWallet.sol\":1072:1082  msg.sender */\n      caller\n        /* \"Documents/EthDev/Projects2/SolidityByExamples/MultiSigWallet/contracts/MultiSigWallet.sol\":1064:1083  isOwner[msg.sender] */\n      0xffffffffffffffffffffffffffffffffffffffff\n      and\n      0xffffffffffffffffffffffffffffffffffffffff\n      and\n      dup2\n      mstore\n      0x20\n      add\n      swap1\n      dup2\n      mstore\n      0x20\n      add\n      0x00\n      keccak256\n      0x00\n      swap1\n      sload\n      swap1\n      0x0100\n      exp\n      swap1\n      div\n      0xff\n      and\n        /* \"Documents/EthDev/Projects2/SolidityByExamples/MultiSigWallet/contracts/MultiSigWallet.sol\":1056:1129  require(isOwner[msg.sender], \"Only Owners can access this functionality\") */\n      tag_97\n      jumpi\n      mload(0x40)\n      0x08c379a000000000000000000000000000000000000000000000000000000000\n      dup2\n      mstore\n      0x04\n      add\n      tag_98\n      swap1\n      tag_70\n      jump\t// in\n    tag_98:\n      mload(0x40)\n      dup1\n      swap2\n      sub\n      swap1\n      revert\n    tag_97:\n        /* \"Documents/EthDev/Projects2/SolidityByExamples/MultiSigWallet/contracts/MultiSigWallet.sol\":3593:3598  _txId */\n      dup1\n        /* \"Documents/EthDev/Projects2/SolidityByExamples/MultiSigWallet/contracts/MultiSigWallet.sol\":1217:1229  transactions */\n      0x03\n        /* \"Documents/EthDev/Projects2/SolidityByExamples/MultiSigWallet/contracts/MultiSigWallet.sol\":1217:1236  transactions.length */\n      dup1\n      sload\n      swap1\n      pop\n        /* \"Documents/EthDev/Projects2/SolidityByExamples/MultiSigWallet/contracts/MultiSigWallet.sol\":1210:1214  txId */\n      dup2\n        /* \"Documents/EthDev/Projects2/SolidityByExamples/MultiSigWallet/contracts/MultiSigWallet.sol\":1210:1236  txId < transactions.length */\n      lt\n        /* \"Documents/EthDev/Projects2/SolidityByExamples/MultiSigWallet/contracts/MultiSigWallet.sol\":1202:1253  require(txId < transactions.length, \"Invalid TxId\") */\n      tag_100\n      jumpi\n      mload(0x40)\n      0x08c379a000000000000000000000000000000000000000000000000000000000\n      dup2\n      mstore\n      0x04\n      add\n      tag_101\n      swap1\n      tag_74\n      jump\t// in\n    tag_101:\n      mload(0x40)\n      dup1\n      swap2\n      sub\n      swap1\n      revert\n    tag_100:\n        /* \"Documents/EthDev/Projects2/SolidityByExamples/MultiSigWallet/contracts/MultiSigWallet.sol\":3614:3619  _txId */\n      dup2\n        /* \"Documents/EthDev/Projects2/SolidityByExamples/MultiSigWallet/contracts/MultiSigWallet.sol\":1504:1516  transactions */\n      0x03\n        /* \"Documents/EthDev/Projects2/SolidityByExamples/MultiSigWallet/contracts/MultiSigWallet.sol\":1517:1521  txId */\n      dup2\n        /* \"Documents/EthDev/Projects2/SolidityByExamples/MultiSigWallet/contracts/MultiSigWallet.sol\":1504:1522  transactions[txId] */\n      dup2\n      sload\n      dup2\n      lt\n      tag_103\n      jumpi\n      tag_104\n      tag_78\n      jump\t// in\n    tag_104:\n    tag_103:\n      swap1\n      0x00\n      mstore\n      keccak256(0x00, 0x20)\n      swap1\n      0x05\n      mul\n      add\n        /* \"Documents/EthDev/Projects2/SolidityByExamples/MultiSigWallet/contracts/MultiSigWallet.sol\":1504:1531  transactions[txId].executed */\n      0x03\n      add\n      0x00\n      swap1\n      sload\n      swap1\n      0x0100\n      exp\n      swap1\n      div\n      0xff\n      and\n        /* \"Documents/EthDev/Projects2/SolidityByExamples/MultiSigWallet/contracts/MultiSigWallet.sol\":1503:1531  !transactions[txId].executed */\n      iszero\n        /* \"Documents/EthDev/Projects2/SolidityByExamples/MultiSigWallet/contracts/MultiSigWallet.sol\":1495:1555  require(!transactions[txId].executed, \"Tx already executed\") */\n      tag_106\n      jumpi\n      mload(0x40)\n      0x08c379a000000000000000000000000000000000000000000000000000000000\n      dup2\n      mstore\n      0x04\n      add\n      tag_107\n      swap1\n      tag_89\n      jump\t// in\n    tag_107:\n      mload(0x40)\n      dup1\n      swap2\n      sub\n      swap1\n      revert\n    tag_106:\n        /* \"Documents/EthDev/Projects2/SolidityByExamples/MultiSigWallet/contracts/MultiSigWallet.sol\":3640:3649  isConfirm */\n      0x02\n        /* \"Documents/EthDev/Projects2/SolidityByExamples/MultiSigWallet/contracts/MultiSigWallet.sol\":3640:3656  isConfirm[_txId] */\n      0x00\n        /* \"Documents/EthDev/Projects2/SolidityByExamples/MultiSigWallet/contracts/MultiSigWallet.sol\":3650:3655  _txId */\n      dup5\n        /* \"Documents/EthDev/Projects2/SolidityByExamples/MultiSigWallet/contracts/MultiSigWallet.sol\":3640:3656  isConfirm[_txId] */\n      dup2\n      mstore\n      0x20\n      add\n      swap1\n      dup2\n      mstore\n      0x20\n      add\n      0x00\n      keccak256\n        /* \"Documents/EthDev/Projects2/SolidityByExamples/MultiSigWallet/contracts/MultiSigWallet.sol\":3640:3668  isConfirm[_txId][msg.sender] */\n      0x00\n        /* \"Documents/EthDev/Projects2/SolidityByExamples/MultiSigWallet/contracts/MultiSigWallet.sol\":3657:3667  msg.sender */\n      caller\n        /* \"Documents/EthDev/Projects2/SolidityByExamples/MultiSigWallet/contracts/MultiSigWallet.sol\":3640:3668  isConfirm[_txId][msg.sender] */\n      0xffffffffffffffffffffffffffffffffffffffff\n      and\n      0xffffffffffffffffffffffffffffffffffffffff\n      and\n      dup2\n      mstore\n      0x20\n      add\n      swap1\n      dup2\n      mstore\n      0x20\n      add\n      0x00\n      keccak256\n      0x00\n      swap1\n      sload\n      swap1\n      0x0100\n      exp\n      swap1\n      div\n      0xff\n      and\n        /* \"Documents/EthDev/Projects2/SolidityByExamples/MultiSigWallet/contracts/MultiSigWallet.sol\":3632:3708  require(isConfirm[_txId][msg.sender], \"Owner already have not confirmed tx\") */\n      tag_109\n      jumpi\n      mload(0x40)\n      0x08c379a000000000000000000000000000000000000000000000000000000000\n      dup2\n      mstore\n      0x04\n      add\n      tag_110\n      swap1\n      tag_111\n      jump\t// in\n    tag_110:\n      mload(0x40)\n      dup1\n      swap2\n      sub\n      swap1\n      revert\n    tag_109:\n        /* \"Documents/EthDev/Projects2/SolidityByExamples/MultiSigWallet/contracts/MultiSigWallet.sol\":3721:3752  Transaction storage transaction */\n      0x00\n        /* \"Documents/EthDev/Projects2/SolidityByExamples/MultiSigWallet/contracts/MultiSigWallet.sol\":3755:3767  transactions */\n      0x03\n        /* \"Documents/EthDev/Projects2/SolidityByExamples/MultiSigWallet/contracts/MultiSigWallet.sol\":3768:3773  _txId */\n      dup5\n        /* \"Documents/EthDev/Projects2/SolidityByExamples/MultiSigWallet/contracts/MultiSigWallet.sol\":3755:3774  transactions[_txId] */\n      dup2\n      sload\n      dup2\n      lt\n      tag_112\n      jumpi\n      tag_113\n      tag_78\n      jump\t// in\n    tag_113:\n    tag_112:\n      swap1\n      0x00\n      mstore\n      keccak256(0x00, 0x20)\n      swap1\n      0x05\n      mul\n      add\n        /* \"Documents/EthDev/Projects2/SolidityByExamples/MultiSigWallet/contracts/MultiSigWallet.sol\":3721:3774  Transaction storage transaction = transactions[_txId] */\n      swap1\n      pop\n        /* \"Documents/EthDev/Projects2/SolidityByExamples/MultiSigWallet/contracts/MultiSigWallet.sol\":3787:3798  transaction */\n      dup1\n        /* \"Documents/EthDev/Projects2/SolidityByExamples/MultiSigWallet/contracts/MultiSigWallet.sol\":3787:3812  transaction.confirmations */\n      0x04\n      add\n      0x00\n        /* \"Documents/EthDev/Projects2/SolidityByExamples/MultiSigWallet/contracts/MultiSigWallet.sol\":3787:3814  transaction.confirmations-- */\n      dup2\n      sload\n      dup1\n      swap3\n      swap2\n      swap1\n      tag_115\n      swap1\n      tag_116\n      jump\t// in\n    tag_115:\n      swap2\n      swap1\n      pop\n      sstore\n      pop\n        /* \"Documents/EthDev/Projects2/SolidityByExamples/MultiSigWallet/contracts/MultiSigWallet.sol\":3856:3861  false */\n      0x00\n        /* \"Documents/EthDev/Projects2/SolidityByExamples/MultiSigWallet/contracts/MultiSigWallet.sol\":3825:3834  isConfirm */\n      0x02\n        /* \"Documents/EthDev/Projects2/SolidityByExamples/MultiSigWallet/contracts/MultiSigWallet.sol\":3825:3841  isConfirm[_txId] */\n      0x00\n        /* \"Documents/EthDev/Projects2/SolidityByExamples/MultiSigWallet/contracts/MultiSigWallet.sol\":3835:3840  _txId */\n      dup7\n        /* \"Documents/EthDev/Projects2/SolidityByExamples/MultiSigWallet/contracts/MultiSigWallet.sol\":3825:3841  isConfirm[_txId] */\n      dup2\n      mstore\n      0x20\n      add\n      swap1\n      dup2\n      mstore\n      0x20\n      add\n      0x00\n      keccak256\n        /* \"Documents/EthDev/Projects2/SolidityByExamples/MultiSigWallet/contracts/MultiSigWallet.sol\":3825:3853  isConfirm[_txId][msg.sender] */\n      0x00\n        /* \"Documents/EthDev/Projects2/SolidityByExamples/MultiSigWallet/contracts/MultiSigWallet.sol\":3842:3852  msg.sender */\n      caller\n        /* \"Documents/EthDev/Projects2/SolidityByExamples/MultiSigWallet/contracts/MultiSigWallet.sol\":3825:3853  isConfirm[_txId][msg.sender] */\n      0xffffffffffffffffffffffffffffffffffffffff\n      and\n      0xffffffffffffffffffffffffffffffffffffffff\n      and\n      dup2\n      mstore\n      0x20\n      add\n      swap1\n      dup2\n      mstore\n      0x20\n      add\n      0x00\n      keccak256\n      0x00\n        /* \"Documents/EthDev/Projects2/SolidityByExamples/MultiSigWallet/contracts/MultiSigWallet.sol\":3825:3861  isConfirm[_txId][msg.sender] = false */\n      0x0100\n      exp\n      dup2\n      sload\n      dup2\n      0xff\n      mul\n      not\n      and\n      swap1\n      dup4\n      iszero\n      iszero\n      mul\n      or\n      swap1\n      sstore\n      pop\n        /* \"Documents/EthDev/Projects2/SolidityByExamples/MultiSigWallet/contracts/MultiSigWallet.sol\":3899:3904  _txId */\n      dup4\n        /* \"Documents/EthDev/Projects2/SolidityByExamples/MultiSigWallet/contracts/MultiSigWallet.sol\":3887:3897  msg.sender */\n      caller\n        /* \"Documents/EthDev/Projects2/SolidityByExamples/MultiSigWallet/contracts/MultiSigWallet.sol\":3879:3905  Revoked(msg.sender, _txId) */\n      0xffffffffffffffffffffffffffffffffffffffff\n      and\n      0x713b90881ad62c4fa8ab6bd9197fa86481fc0c11b2edba60026514281b2dbac4\n      mload(0x40)\n      mload(0x40)\n      dup1\n      swap2\n      sub\n      swap1\n      log3\n        /* \"Documents/EthDev/Projects2/SolidityByExamples/MultiSigWallet/contracts/MultiSigWallet.sol\":3621:3913  {... */\n      pop\n        /* \"Documents/EthDev/Projects2/SolidityByExamples/MultiSigWallet/contracts/MultiSigWallet.sol\":1264:1265  _ */\n      pop\n        /* \"Documents/EthDev/Projects2/SolidityByExamples/MultiSigWallet/contracts/MultiSigWallet.sol\":1140:1141  _ */\n      pop\n        /* \"Documents/EthDev/Projects2/SolidityByExamples/MultiSigWallet/contracts/MultiSigWallet.sol\":3523:3913  function revokeTransaction(uint _txId) public onlyOwner isTransaction(_txId) isNotExecuted(_txId) {... */\n      pop\n      jump\t// out\n        /* \"Documents/EthDev/Projects2/SolidityByExamples/MultiSigWallet/contracts/MultiSigWallet.sol\":943:976  Transaction[] public transactions */\n    tag_42:\n      0x03\n      dup2\n      dup2\n      sload\n      dup2\n      lt\n      tag_117\n      jumpi\n      0x00\n      dup1\n      revert\n    tag_117:\n      swap1\n      0x00\n      mstore\n      keccak256(0x00, 0x20)\n      swap1\n      0x05\n      mul\n      add\n      0x00\n      swap2\n      pop\n      swap1\n      pop\n      dup1\n      0x00\n      add\n      0x00\n      swap1\n      sload\n      swap1\n      0x0100\n      exp\n      swap1\n      div\n      0xffffffffffffffffffffffffffffffffffffffff\n      and\n      swap1\n      dup1\n      0x01\n      add\n      sload\n      swap1\n      dup1\n      0x02\n      add\n      dup1\n      sload\n      tag_119\n      swap1\n      tag_120\n      jump\t// in\n    tag_119:\n      dup1\n      0x1f\n      add\n      0x20\n      dup1\n      swap2\n      div\n      mul\n      0x20\n      add\n      mload(0x40)\n      swap1\n      dup2\n      add\n      0x40\n      mstore\n      dup1\n      swap3\n      swap2\n      swap1\n      dup2\n      dup2\n      mstore\n      0x20\n      add\n      dup3\n      dup1\n      sload\n      tag_121\n      swap1\n      tag_120\n      jump\t// in\n    tag_121:\n      dup1\n      iszero\n      tag_122\n      jumpi\n      dup1\n      0x1f\n      lt\n      tag_123\n      jumpi\n      0x0100\n      dup1\n      dup4\n      sload\n      div\n      mul\n      dup4\n      mstore\n      swap2\n      0x20\n      add\n      swap2\n      jump(tag_122)\n    tag_123:\n      dup3\n      add\n      swap2\n      swap1\n      0x00\n      mstore\n      keccak256(0x00, 0x20)\n      swap1\n    tag_124:\n      dup2\n      sload\n      dup2\n      mstore\n      swap1\n      0x01\n      add\n      swap1\n      0x20\n      add\n      dup1\n      dup4\n      gt\n      tag_124\n      jumpi\n      dup3\n      swap1\n      sub\n      0x1f\n      and\n      dup3\n      add\n      swap2\n    tag_122:\n      pop\n      pop\n      pop\n      pop\n      pop\n      swap1\n      dup1\n      0x03\n      add\n      0x00\n      swap1\n      sload\n      swap1\n      0x0100\n      exp\n      swap1\n      div\n      0xff\n      and\n      swap1\n      dup1\n      0x04\n      add\n      sload\n      swap1\n      pop\n      dup6\n      jump\t// out\n        /* \"Documents/EthDev/Projects2/SolidityByExamples/MultiSigWallet/contracts/MultiSigWallet.sol\":860:918  mapping(uint => mapping(address => bool)) public isConfirm */\n    tag_49:\n      mstore(0x20, 0x02)\n      dup2\n      0x00\n      mstore\n      mstore(0x20, keccak256(0x00, 0x40))\n      dup1\n      0x00\n      mstore\n      keccak256(0x00, 0x40)\n      0x00\n      swap2\n      pop\n      swap2\n      pop\n      swap1\n      sload\n      swap1\n      0x0100\n      exp\n      swap1\n      div\n      0xff\n      and\n      dup2\n      jump\t// out\n        /* \"Documents/EthDev/Projects2/SolidityByExamples/MultiSigWallet/contracts/MultiSigWallet.sol\":985:1015  uint public numOfConfirmations */\n    tag_53:\n      sload(0x04)\n      dup2\n      jump\t// out\n        /* \"Documents/EthDev/Projects2/SolidityByExamples/MultiSigWallet/contracts/MultiSigWallet.sol\":2361:2639  function submitTransaction(address _to, uint _value, bytes memory _data) public onlyOwner {... */\n    tag_60:\n        /* \"Documents/EthDev/Projects2/SolidityByExamples/MultiSigWallet/contracts/MultiSigWallet.sol\":1064:1071  isOwner */\n      0x01\n        /* \"Documents/EthDev/Projects2/SolidityByExamples/MultiSigWallet/contracts/MultiSigWallet.sol\":1064:1083  isOwner[msg.sender] */\n      0x00\n        /* \"Documents/EthDev/Projects2/SolidityByExamples/MultiSigWallet/contracts/MultiSigWallet.sol\":1072:1082  msg.sender */\n      caller\n        /* \"Documents/EthDev/Projects2/SolidityByExamples/MultiSigWallet/contracts/MultiSigWallet.sol\":1064:1083  isOwner[msg.sender] */\n      0xffffffffffffffffffffffffffffffffffffffff\n      and\n      0xffffffffffffffffffffffffffffffffffffffff\n      and\n      dup2\n      mstore\n      0x20\n      add\n      swap1\n      dup2\n      mstore\n      0x20\n      add\n      0x00\n      keccak256\n      0x00\n      swap1\n      sload\n      swap1\n      0x0100\n      exp\n      swap1\n      div\n      0xff\n      and\n        /* \"Documents/EthDev/Projects2/SolidityByExamples/MultiSigWallet/contracts/MultiSigWallet.sol\":1056:1129  require(isOwner[msg.sender], \"Only Owners can access this functionality\") */\n      tag_126\n      jumpi\n      mload(0x40)\n      0x08c379a000000000000000000000000000000000000000000000000000000000\n      dup2\n      mstore\n      0x04\n      add\n      tag_127\n      swap1\n      tag_70\n      jump\t// in\n    tag_127:\n      mload(0x40)\n      dup1\n      swap2\n      sub\n      swap1\n      revert\n    tag_126:\n        /* \"Documents/EthDev/Projects2/SolidityByExamples/MultiSigWallet/contracts/MultiSigWallet.sol\":2462:2471  uint txId */\n      0x00\n        /* \"Documents/EthDev/Projects2/SolidityByExamples/MultiSigWallet/contracts/MultiSigWallet.sol\":2474:2486  transactions */\n      0x03\n        /* \"Documents/EthDev/Projects2/SolidityByExamples/MultiSigWallet/contracts/MultiSigWallet.sol\":2474:2493  transactions.length */\n      dup1\n      sload\n      swap1\n      pop\n        /* \"Documents/EthDev/Projects2/SolidityByExamples/MultiSigWallet/contracts/MultiSigWallet.sol\":2462:2493  uint txId = transactions.length */\n      swap1\n      pop\n        /* \"Documents/EthDev/Projects2/SolidityByExamples/MultiSigWallet/contracts/MultiSigWallet.sol\":2506:2518  transactions */\n      0x03\n        /* \"Documents/EthDev/Projects2/SolidityByExamples/MultiSigWallet/contracts/MultiSigWallet.sol\":2524:2565  Transaction(_to, _value, _data, false, 0) */\n      mload(0x40)\n      dup1\n      0xa0\n      add\n      0x40\n      mstore\n      dup1\n        /* \"Documents/EthDev/Projects2/SolidityByExamples/MultiSigWallet/contracts/MultiSigWallet.sol\":2536:2539  _to */\n      dup7\n        /* \"Documents/EthDev/Projects2/SolidityByExamples/MultiSigWallet/contracts/MultiSigWallet.sol\":2524:2565  Transaction(_to, _value, _data, false, 0) */\n      0xffffffffffffffffffffffffffffffffffffffff\n      and\n      dup2\n      mstore\n      0x20\n      add\n        /* \"Documents/EthDev/Projects2/SolidityByExamples/MultiSigWallet/contracts/MultiSigWallet.sol\":2541:2547  _value */\n      dup6\n        /* \"Documents/EthDev/Projects2/SolidityByExamples/MultiSigWallet/contracts/MultiSigWallet.sol\":2524:2565  Transaction(_to, _value, _data, false, 0) */\n      dup2\n      mstore\n      0x20\n      add\n        /* \"Documents/EthDev/Projects2/SolidityByExamples/MultiSigWallet/contracts/MultiSigWallet.sol\":2549:2554  _data */\n      dup5\n        /* \"Documents/EthDev/Projects2/SolidityByExamples/MultiSigWallet/contracts/MultiSigWallet.sol\":2524:2565  Transaction(_to, _value, _data, false, 0) */\n      dup2\n      mstore\n      0x20\n      add\n        /* \"Documents/EthDev/Projects2/SolidityByExamples/MultiSigWallet/contracts/MultiSigWallet.sol\":2556:2561  false */\n      0x00\n        /* \"Documents/EthDev/Projects2/SolidityByExamples/MultiSigWallet/contracts/MultiSigWallet.sol\":2524:2565  Transaction(_to, _value, _data, false, 0) */\n      iszero\n      iszero\n      dup2\n      mstore\n      0x20\n      add\n        /* \"Documents/EthDev/Projects2/SolidityByExamples/MultiSigWallet/contracts/MultiSigWallet.sol\":2563:2564  0 */\n      0x00\n        /* \"Documents/EthDev/Projects2/SolidityByExamples/MultiSigWallet/contracts/MultiSigWallet.sol\":2524:2565  Transaction(_to, _value, _data, false, 0) */\n      dup2\n      mstore\n      pop\n        /* \"Documents/EthDev/Projects2/SolidityByExamples/MultiSigWallet/contracts/MultiSigWallet.sol\":2506:2566  transactions.push(Transaction(_to, _value, _data, false, 0)) */\n      swap1\n      dup1\n      0x01\n      dup2\n      sload\n      add\n      dup1\n      dup3\n      sstore\n      dup1\n      swap2\n      pop\n      pop\n      0x01\n      swap1\n      sub\n      swap1\n      0x00\n      mstore\n      keccak256(0x00, 0x20)\n      swap1\n      0x05\n      mul\n      add\n      0x00\n      swap1\n      swap2\n      swap1\n      swap2\n      swap1\n      swap2\n      pop\n      0x00\n      dup3\n      add\n      mload\n      dup2\n      0x00\n      add\n      exp(0x0100, 0x00)\n      dup2\n      sload\n      dup2\n      0xffffffffffffffffffffffffffffffffffffffff\n      mul\n      not\n      and\n      swap1\n      dup4\n      0xffffffffffffffffffffffffffffffffffffffff\n      and\n      mul\n      or\n      swap1\n      sstore\n      pop\n      0x20\n      dup3\n      add\n      mload\n      dup2\n      0x01\n      add\n      sstore\n      0x40\n      dup3\n      add\n      mload\n      dup2\n      0x02\n      add\n      swap1\n      dup1\n      mload\n      swap1\n      0x20\n      add\n      swap1\n      tag_130\n      swap3\n      swap2\n      swap1\n      tag_131\n      jump\t// in\n    tag_130:\n      pop\n      0x60\n      dup3\n      add\n      mload\n      dup2\n      0x03\n      add\n      exp(0x0100, 0x00)\n      dup2\n      sload\n      dup2\n      0xff\n      mul\n      not\n      and\n      swap1\n      dup4\n      iszero\n      iszero\n      mul\n      or\n      swap1\n      sstore\n      pop\n      0x80\n      dup3\n      add\n      mload\n      dup2\n      0x04\n      add\n      sstore\n      pop\n      pop\n        /* \"Documents/EthDev/Projects2/SolidityByExamples/MultiSigWallet/contracts/MultiSigWallet.sol\":2611:2615  txId */\n      dup1\n        /* \"Documents/EthDev/Projects2/SolidityByExamples/MultiSigWallet/contracts/MultiSigWallet.sol\":2606:2609  _to */\n      dup5\n        /* \"Documents/EthDev/Projects2/SolidityByExamples/MultiSigWallet/contracts/MultiSigWallet.sol\":2584:2631  Submitted(msg.sender, _to, txId, _value, _data) */\n      0xffffffffffffffffffffffffffffffffffffffff\n      and\n        /* \"Documents/EthDev/Projects2/SolidityByExamples/MultiSigWallet/contracts/MultiSigWallet.sol\":2594:2604  msg.sender */\n      caller\n        /* \"Documents/EthDev/Projects2/SolidityByExamples/MultiSigWallet/contracts/MultiSigWallet.sol\":2584:2631  Submitted(msg.sender, _to, txId, _value, _data) */\n      0xffffffffffffffffffffffffffffffffffffffff\n      and\n      0xc70c0c0ff6c60f55d0dab9fa570f029325751f9edcd8d1a8df81dc4528c5d68a\n        /* \"Documents/EthDev/Projects2/SolidityByExamples/MultiSigWallet/contracts/MultiSigWallet.sol\":2617:2623  _value */\n      dup7\n        /* \"Documents/EthDev/Projects2/SolidityByExamples/MultiSigWallet/contracts/MultiSigWallet.sol\":2625:2630  _data */\n      dup7\n        /* \"Documents/EthDev/Projects2/SolidityByExamples/MultiSigWallet/contracts/MultiSigWallet.sol\":2584:2631  Submitted(msg.sender, _to, txId, _value, _data) */\n      mload(0x40)\n      tag_132\n      swap3\n      swap2\n      swap1\n      tag_133\n      jump\t// in\n    tag_132:\n      mload(0x40)\n      dup1\n      swap2\n      sub\n      swap1\n      log4\n        /* \"Documents/EthDev/Projects2/SolidityByExamples/MultiSigWallet/contracts/MultiSigWallet.sol\":2451:2639  {... */\n      pop\n        /* \"Documents/EthDev/Projects2/SolidityByExamples/MultiSigWallet/contracts/MultiSigWallet.sol\":2361:2639  function submitTransaction(address _to, uint _value, bytes memory _data) public onlyOwner {... */\n      pop\n      pop\n      pop\n      jump\t// out\n        /* \"Documents/EthDev/Projects2/SolidityByExamples/MultiSigWallet/contracts/MultiSigWallet.sol\":2980:3515  function executeTransaction(uint _txId) public isTransaction(_txId) isNotExecuted(_txId) {... */\n    tag_64:\n        /* \"Documents/EthDev/Projects2/SolidityByExamples/MultiSigWallet/contracts/MultiSigWallet.sol\":3041:3046  _txId */\n      dup1\n        /* \"Documents/EthDev/Projects2/SolidityByExamples/MultiSigWallet/contracts/MultiSigWallet.sol\":1217:1229  transactions */\n      0x03\n        /* \"Documents/EthDev/Projects2/SolidityByExamples/MultiSigWallet/contracts/MultiSigWallet.sol\":1217:1236  transactions.length */\n      dup1\n      sload\n      swap1\n      pop\n        /* \"Documents/EthDev/Projects2/SolidityByExamples/MultiSigWallet/contracts/MultiSigWallet.sol\":1210:1214  txId */\n      dup2\n        /* \"Documents/EthDev/Projects2/SolidityByExamples/MultiSigWallet/contracts/MultiSigWallet.sol\":1210:1236  txId < transactions.length */\n      lt\n        /* \"Documents/EthDev/Projects2/SolidityByExamples/MultiSigWallet/contracts/MultiSigWallet.sol\":1202:1253  require(txId < transactions.length, \"Invalid TxId\") */\n      tag_135\n      jumpi\n      mload(0x40)\n      0x08c379a000000000000000000000000000000000000000000000000000000000\n      dup2\n      mstore\n      0x04\n      add\n      tag_136\n      swap1\n      tag_74\n      jump\t// in\n    tag_136:\n      mload(0x40)\n      dup1\n      swap2\n      sub\n      swap1\n      revert\n    tag_135:\n        /* \"Documents/EthDev/Projects2/SolidityByExamples/MultiSigWallet/contracts/MultiSigWallet.sol\":3062:3067  _txId */\n      dup2\n        /* \"Documents/EthDev/Projects2/SolidityByExamples/MultiSigWallet/contracts/MultiSigWallet.sol\":1504:1516  transactions */\n      0x03\n        /* \"Documents/EthDev/Projects2/SolidityByExamples/MultiSigWallet/contracts/MultiSigWallet.sol\":1517:1521  txId */\n      dup2\n        /* \"Documents/EthDev/Projects2/SolidityByExamples/MultiSigWallet/contracts/MultiSigWallet.sol\":1504:1522  transactions[txId] */\n      dup2\n      sload\n      dup2\n      lt\n      tag_138\n      jumpi\n      tag_139\n      tag_78\n      jump\t// in\n    tag_139:\n    tag_138:\n      swap1\n      0x00\n      mstore\n      keccak256(0x00, 0x20)\n      swap1\n      0x05\n      mul\n      add\n        /* \"Documents/EthDev/Projects2/SolidityByExamples/MultiSigWallet/contracts/MultiSigWallet.sol\":1504:1531  transactions[txId].executed */\n      0x03\n      add\n      0x00\n      swap1\n      sload\n      swap1\n      0x0100\n      exp\n      swap1\n      div\n      0xff\n      and\n        /* \"Documents/EthDev/Projects2/SolidityByExamples/MultiSigWallet/contracts/MultiSigWallet.sol\":1503:1531  !transactions[txId].executed */\n      iszero\n        /* \"Documents/EthDev/Projects2/SolidityByExamples/MultiSigWallet/contracts/MultiSigWallet.sol\":1495:1555  require(!transactions[txId].executed, \"Tx already executed\") */\n      tag_141\n      jumpi\n      mload(0x40)\n      0x08c379a000000000000000000000000000000000000000000000000000000000\n      dup2\n      mstore\n      0x04\n      add\n      tag_142\n      swap1\n      tag_89\n      jump\t// in\n    tag_142:\n      mload(0x40)\n      dup1\n      swap2\n      sub\n      swap1\n      revert\n    tag_141:\n        /* \"Documents/EthDev/Projects2/SolidityByExamples/MultiSigWallet/contracts/MultiSigWallet.sol\":3080:3111  Transaction storage transaction */\n      0x00\n        /* \"Documents/EthDev/Projects2/SolidityByExamples/MultiSigWallet/contracts/MultiSigWallet.sol\":3114:3126  transactions */\n      0x03\n        /* \"Documents/EthDev/Projects2/SolidityByExamples/MultiSigWallet/contracts/MultiSigWallet.sol\":3127:3132  _txId */\n      dup5\n        /* \"Documents/EthDev/Projects2/SolidityByExamples/MultiSigWallet/contracts/MultiSigWallet.sol\":3114:3133  transactions[_txId] */\n      dup2\n      sload\n      dup2\n      lt\n      tag_144\n      jumpi\n      tag_145\n      tag_78\n      jump\t// in\n    tag_145:\n    tag_144:\n      swap1\n      0x00\n      mstore\n      keccak256(0x00, 0x20)\n      swap1\n      0x05\n      mul\n      add\n        /* \"Documents/EthDev/Projects2/SolidityByExamples/MultiSigWallet/contracts/MultiSigWallet.sol\":3080:3133  Transaction storage transaction = transactions[_txId] */\n      swap1\n      pop\n        /* \"Documents/EthDev/Projects2/SolidityByExamples/MultiSigWallet/contracts/MultiSigWallet.sol\":3197:3215  numOfConfirmations */\n      sload(0x04)\n        /* \"Documents/EthDev/Projects2/SolidityByExamples/MultiSigWallet/contracts/MultiSigWallet.sol\":3168:3179  transaction */\n      dup2\n        /* \"Documents/EthDev/Projects2/SolidityByExamples/MultiSigWallet/contracts/MultiSigWallet.sol\":3168:3193  transaction.confirmations */\n      0x04\n      add\n      sload\n        /* \"Documents/EthDev/Projects2/SolidityByExamples/MultiSigWallet/contracts/MultiSigWallet.sol\":3168:3215  transaction.confirmations >= numOfConfirmations */\n      lt\n      iszero\n        /* \"Documents/EthDev/Projects2/SolidityByExamples/MultiSigWallet/contracts/MultiSigWallet.sol\":3146:3260  require(... */\n      tag_147\n      jumpi\n      mload(0x40)\n      0x08c379a000000000000000000000000000000000000000000000000000000000\n      dup2\n      mstore\n      0x04\n      add\n      tag_148\n      swap1\n      tag_149\n      jump\t// in\n    tag_148:\n      mload(0x40)\n      dup1\n      swap2\n      sub\n      swap1\n      revert\n    tag_147:\n        /* \"Documents/EthDev/Projects2/SolidityByExamples/MultiSigWallet/contracts/MultiSigWallet.sol\":3304:3308  true */\n      0x01\n        /* \"Documents/EthDev/Projects2/SolidityByExamples/MultiSigWallet/contracts/MultiSigWallet.sol\":3281:3292  transaction */\n      dup2\n        /* \"Documents/EthDev/Projects2/SolidityByExamples/MultiSigWallet/contracts/MultiSigWallet.sol\":3281:3301  transaction.executed */\n      0x03\n      add\n      0x00\n        /* \"Documents/EthDev/Projects2/SolidityByExamples/MultiSigWallet/contracts/MultiSigWallet.sol\":3281:3308  transaction.executed = true */\n      0x0100\n      exp\n      dup2\n      sload\n      dup2\n      0xff\n      mul\n      not\n      and\n      swap1\n      dup4\n      iszero\n      iszero\n      mul\n      or\n      swap1\n      sstore\n      pop\n        /* \"Documents/EthDev/Projects2/SolidityByExamples/MultiSigWallet/contracts/MultiSigWallet.sol\":3322:3334  bool success */\n      0x00\n        /* \"Documents/EthDev/Projects2/SolidityByExamples/MultiSigWallet/contracts/MultiSigWallet.sol\":3340:3351  transaction */\n      dup2\n        /* \"Documents/EthDev/Projects2/SolidityByExamples/MultiSigWallet/contracts/MultiSigWallet.sol\":3340:3354  transaction.to */\n      0x00\n      add\n      0x00\n      swap1\n      sload\n      swap1\n      0x0100\n      exp\n      swap1\n      div\n      0xffffffffffffffffffffffffffffffffffffffff\n      and\n        /* \"Documents/EthDev/Projects2/SolidityByExamples/MultiSigWallet/contracts/MultiSigWallet.sol\":3340:3359  transaction.to.call */\n      0xffffffffffffffffffffffffffffffffffffffff\n      and\n        /* \"Documents/EthDev/Projects2/SolidityByExamples/MultiSigWallet/contracts/MultiSigWallet.sol\":3367:3378  transaction */\n      dup3\n        /* \"Documents/EthDev/Projects2/SolidityByExamples/MultiSigWallet/contracts/MultiSigWallet.sol\":3367:3384  transaction.value */\n      0x01\n      add\n      sload\n        /* \"Documents/EthDev/Projects2/SolidityByExamples/MultiSigWallet/contracts/MultiSigWallet.sol\":3386:3397  transaction */\n      dup4\n        /* \"Documents/EthDev/Projects2/SolidityByExamples/MultiSigWallet/contracts/MultiSigWallet.sol\":3386:3402  transaction.data */\n      0x02\n      add\n        /* \"Documents/EthDev/Projects2/SolidityByExamples/MultiSigWallet/contracts/MultiSigWallet.sol\":3340:3403  transaction.to.call{value: transaction.value}(transaction.data) */\n      mload(0x40)\n      tag_150\n      swap2\n      swap1\n      tag_151\n      jump\t// in\n    tag_150:\n      0x00\n      mload(0x40)\n      dup1\n      dup4\n      sub\n      dup2\n      dup6\n      dup8\n      gas\n      call\n      swap3\n      pop\n      pop\n      pop\n      returndatasize\n      dup1\n      0x00\n      dup2\n      eq\n      tag_154\n      jumpi\n      mload(0x40)\n      swap2\n      pop\n      and(add(returndatasize, 0x3f), not(0x1f))\n      dup3\n      add\n      0x40\n      mstore\n      returndatasize\n      dup3\n      mstore\n      returndatasize\n      0x00\n      0x20\n      dup5\n      add\n      returndatacopy\n      jump(tag_153)\n    tag_154:\n      0x60\n      swap2\n      pop\n    tag_153:\n      pop\n        /* \"Documents/EthDev/Projects2/SolidityByExamples/MultiSigWallet/contracts/MultiSigWallet.sol\":3321:3403  (bool success, ) = transaction.to.call{value: transaction.value}(transaction.data) */\n      pop\n      swap1\n      pop\n        /* \"Documents/EthDev/Projects2/SolidityByExamples/MultiSigWallet/contracts/MultiSigWallet.sol\":3422:3429  success */\n      dup1\n        /* \"Documents/EthDev/Projects2/SolidityByExamples/MultiSigWallet/contracts/MultiSigWallet.sol\":3414:3462  require(success, \"Transaction execution failed\") */\n      tag_155\n      jumpi\n      mload(0x40)\n      0x08c379a000000000000000000000000000000000000000000000000000000000\n      dup2\n      mstore\n      0x04\n      add\n      tag_156\n      swap1\n      tag_157\n      jump\t// in\n    tag_156:\n      mload(0x40)\n      dup1\n      swap2\n      sub\n      swap1\n      revert\n    tag_155:\n        /* \"Documents/EthDev/Projects2/SolidityByExamples/MultiSigWallet/contracts/MultiSigWallet.sol\":3501:3506  _txId */\n      dup5\n        /* \"Documents/EthDev/Projects2/SolidityByExamples/MultiSigWallet/contracts/MultiSigWallet.sol\":3489:3499  msg.sender */\n      caller\n        /* \"Documents/EthDev/Projects2/SolidityByExamples/MultiSigWallet/contracts/MultiSigWallet.sol\":3480:3507  Executed(msg.sender, _txId) */\n      0xffffffffffffffffffffffffffffffffffffffff\n      and\n      0x6f6c6d78a4851d4c222c8404fc92372ee84b7b81054305ae8ea3c83c2dabd42e\n      mload(0x40)\n      mload(0x40)\n      dup1\n      swap2\n      sub\n      swap1\n      log3\n        /* \"Documents/EthDev/Projects2/SolidityByExamples/MultiSigWallet/contracts/MultiSigWallet.sol\":3069:3515  {... */\n      pop\n      pop\n        /* \"Documents/EthDev/Projects2/SolidityByExamples/MultiSigWallet/contracts/MultiSigWallet.sol\":1264:1265  _ */\n      pop\n        /* \"Documents/EthDev/Projects2/SolidityByExamples/MultiSigWallet/contracts/MultiSigWallet.sol\":2980:3515  function executeTransaction(uint _txId) public isTransaction(_txId) isNotExecuted(_txId) {... */\n      pop\n      pop\n      jump\t// out\n    tag_131:\n      dup3\n      dup1\n      sload\n      tag_158\n      swap1\n      tag_120\n      jump\t// in\n    tag_158:\n      swap1\n      0x00\n      mstore\n      keccak256(0x00, 0x20)\n      swap1\n      0x1f\n      add\n      0x20\n      swap1\n      div\n      dup2\n      add\n      swap3\n      dup3\n      tag_160\n      jumpi\n      0x00\n      dup6\n      sstore\n      jump(tag_159)\n    tag_160:\n      dup3\n      0x1f\n      lt\n      tag_161\n      jumpi\n      dup1\n      mload\n      not(0xff)\n      and\n      dup4\n      dup1\n      add\n      or\n      dup6\n      sstore\n      jump(tag_159)\n    tag_161:\n      dup3\n      dup1\n      add\n      0x01\n      add\n      dup6\n      sstore\n      dup3\n      iszero\n      tag_159\n      jumpi\n      swap2\n      dup3\n      add\n    tag_162:\n      dup3\n      dup2\n      gt\n      iszero\n      tag_163\n      jumpi\n      dup3\n      mload\n      dup3\n      sstore\n      swap2\n      0x20\n      add\n      swap2\n      swap1\n      0x01\n      add\n      swap1\n      jump(tag_162)\n    tag_163:\n    tag_159:\n      pop\n      swap1\n      pop\n      tag_164\n      swap2\n      swap1\n      tag_165\n      jump\t// in\n    tag_164:\n      pop\n      swap1\n      jump\t// out\n    tag_165:\n    tag_166:\n      dup1\n      dup3\n      gt\n      iszero\n      tag_167\n      jumpi\n      0x00\n      dup2\n      0x00\n      swap1\n      sstore\n      pop\n      0x01\n      add\n      jump(tag_166)\n    tag_167:\n      pop\n      swap1\n      jump\t// out\n        /* \"#utility.yul\":7:84   */\n    tag_168:\n        /* \"#utility.yul\":44:51   */\n      0x00\n        /* \"#utility.yul\":73:78   */\n      dup2\n        /* \"#utility.yul\":62:78   */\n      swap1\n      pop\n        /* \"#utility.yul\":7:84   */\n      swap2\n      swap1\n      pop\n      jump\t// out\n        /* \"#utility.yul\":90:208   */\n    tag_169:\n        /* \"#utility.yul\":177:201   */\n      tag_219\n        /* \"#utility.yul\":195:200   */\n      dup2\n        /* \"#utility.yul\":177:201   */\n      tag_168\n      jump\t// in\n    tag_219:\n        /* \"#utility.yul\":172:175   */\n      dup3\n        /* \"#utility.yul\":165:202   */\n      mstore\n        /* \"#utility.yul\":90:208   */\n      pop\n      pop\n      jump\t// out\n        /* \"#utility.yul\":214:546   */\n    tag_16:\n        /* \"#utility.yul\":335:339   */\n      0x00\n        /* \"#utility.yul\":373:375   */\n      0x40\n        /* \"#utility.yul\":362:371   */\n      dup3\n        /* \"#utility.yul\":358:376   */\n      add\n        /* \"#utility.yul\":350:376   */\n      swap1\n      pop\n        /* \"#utility.yul\":386:457   */\n      tag_221\n        /* \"#utility.yul\":454:455   */\n      0x00\n        /* \"#utility.yul\":443:452   */\n      dup4\n        /* \"#utility.yul\":439:456   */\n      add\n        /* \"#utility.yul\":430:436   */\n      dup6\n        /* \"#utility.yul\":386:457   */\n      tag_169\n      jump\t// in\n    tag_221:\n        /* \"#utility.yul\":467:539   */\n      tag_222\n        /* \"#utility.yul\":535:537   */\n      0x20\n        /* \"#utility.yul\":524:533   */\n      dup4\n        /* \"#utility.yul\":520:538   */\n      add\n        /* \"#utility.yul\":511:517   */\n      dup5\n        /* \"#utility.yul\":467:539   */\n      tag_169\n      jump\t// in\n    tag_222:\n        /* \"#utility.yul\":214:546   */\n      swap4\n      swap3\n      pop\n      pop\n      pop\n      jump\t// out\n        /* \"#utility.yul\":552:627   */\n    tag_170:\n        /* \"#utility.yul\":585:591   */\n      0x00\n        /* \"#utility.yul\":618:620   */\n      0x40\n        /* \"#utility.yul\":612:621   */\n      mload\n        /* \"#utility.yul\":602:621   */\n      swap1\n      pop\n        /* \"#utility.yul\":552:627   */\n      swap1\n      jump\t// out\n        /* \"#utility.yul\":633:750   */\n    tag_171:\n        /* \"#utility.yul\":742:743   */\n      0x00\n        /* \"#utility.yul\":739:740   */\n      dup1\n        /* \"#utility.yul\":732:744   */\n      revert\n        /* \"#utility.yul\":756:873   */\n    tag_172:\n        /* \"#utility.yul\":865:866   */\n      0x00\n        /* \"#utility.yul\":862:863   */\n      dup1\n        /* \"#utility.yul\":855:867   */\n      revert\n        /* \"#utility.yul\":879:1001   */\n    tag_173:\n        /* \"#utility.yul\":952:976   */\n      tag_227\n        /* \"#utility.yul\":970:975   */\n      dup2\n        /* \"#utility.yul\":952:976   */\n      tag_168\n      jump\t// in\n    tag_227:\n        /* \"#utility.yul\":945:950   */\n      dup2\n        /* \"#utility.yul\":942:977   */\n      eq\n        /* \"#utility.yul\":932:995   */\n      tag_228\n      jumpi\n        /* \"#utility.yul\":991:992   */\n      0x00\n        /* \"#utility.yul\":988:989   */\n      dup1\n        /* \"#utility.yul\":981:993   */\n      revert\n        /* \"#utility.yul\":932:995   */\n    tag_228:\n        /* \"#utility.yul\":879:1001   */\n      pop\n      jump\t// out\n        /* \"#utility.yul\":1007:1146   */\n    tag_174:\n        /* \"#utility.yul\":1053:1058   */\n      0x00\n        /* \"#utility.yul\":1091:1097   */\n      dup2\n        /* \"#utility.yul\":1078:1098   */\n      calldataload\n        /* \"#utility.yul\":1069:1098   */\n      swap1\n      pop\n        /* \"#utility.yul\":1107:1140   */\n      tag_230\n        /* \"#utility.yul\":1134:1139   */\n      dup2\n        /* \"#utility.yul\":1107:1140   */\n      tag_173\n      jump\t// in\n    tag_230:\n        /* \"#utility.yul\":1007:1146   */\n      swap3\n      swap2\n      pop\n      pop\n      jump\t// out\n        /* \"#utility.yul\":1152:1481   */\n    tag_20:\n        /* \"#utility.yul\":1211:1217   */\n      0x00\n        /* \"#utility.yul\":1260:1262   */\n      0x20\n        /* \"#utility.yul\":1248:1257   */\n      dup3\n        /* \"#utility.yul\":1239:1246   */\n      dup5\n        /* \"#utility.yul\":1235:1258   */\n      sub\n        /* \"#utility.yul\":1231:1263   */\n      slt\n        /* \"#utility.yul\":1228:1347   */\n      iszero\n      tag_232\n      jumpi\n        /* \"#utility.yul\":1266:1345   */\n      tag_233\n      tag_171\n      jump\t// in\n    tag_233:\n        /* \"#utility.yul\":1228:1347   */\n    tag_232:\n        /* \"#utility.yul\":1386:1387   */\n      0x00\n        /* \"#utility.yul\":1411:1464   */\n      tag_234\n        /* \"#utility.yul\":1456:1463   */\n      dup5\n        /* \"#utility.yul\":1447:1453   */\n      dup3\n        /* \"#utility.yul\":1436:1445   */\n      dup6\n        /* \"#utility.yul\":1432:1454   */\n      add\n        /* \"#utility.yul\":1411:1464   */\n      tag_174\n      jump\t// in\n    tag_234:\n        /* \"#utility.yul\":1401:1464   */\n      swap2\n      pop\n        /* \"#utility.yul\":1357:1474   */\n      pop\n        /* \"#utility.yul\":1152:1481   */\n      swap3\n      swap2\n      pop\n      pop\n      jump\t// out\n        /* \"#utility.yul\":1487:1613   */\n    tag_175:\n        /* \"#utility.yul\":1524:1531   */\n      0x00\n        /* \"#utility.yul\":1564:1606   */\n      0xffffffffffffffffffffffffffffffffffffffff\n        /* \"#utility.yul\":1557:1562   */\n      dup3\n        /* \"#utility.yul\":1553:1607   */\n      and\n        /* \"#utility.yul\":1542:1607   */\n      swap1\n      pop\n        /* \"#utility.yul\":1487:1613   */\n      swap2\n      swap1\n      pop\n      jump\t// out\n        /* \"#utility.yul\":1619:1715   */\n    tag_176:\n        /* \"#utility.yul\":1656:1663   */\n      0x00\n        /* \"#utility.yul\":1685:1709   */\n      tag_237\n        /* \"#utility.yul\":1703:1708   */\n      dup3\n        /* \"#utility.yul\":1685:1709   */\n      tag_175\n      jump\t// in\n    tag_237:\n        /* \"#utility.yul\":1674:1709   */\n      swap1\n      pop\n        /* \"#utility.yul\":1619:1715   */\n      swap2\n      swap1\n      pop\n      jump\t// out\n        /* \"#utility.yul\":1721:1839   */\n    tag_177:\n        /* \"#utility.yul\":1808:1832   */\n      tag_239\n        /* \"#utility.yul\":1826:1831   */\n      dup2\n        /* \"#utility.yul\":1808:1832   */\n      tag_176\n      jump\t// in\n    tag_239:\n        /* \"#utility.yul\":1803:1806   */\n      dup3\n        /* \"#utility.yul\":1796:1833   */\n      mstore\n        /* \"#utility.yul\":1721:1839   */\n      pop\n      pop\n      jump\t// out\n        /* \"#utility.yul\":1845:2067   */\n    tag_23:\n        /* \"#utility.yul\":1938:1942   */\n      0x00\n        /* \"#utility.yul\":1976:1978   */\n      0x20\n        /* \"#utility.yul\":1965:1974   */\n      dup3\n        /* \"#utility.yul\":1961:1979   */\n      add\n        /* \"#utility.yul\":1953:1979   */\n      swap1\n      pop\n        /* \"#utility.yul\":1989:2060   */\n      tag_241\n        /* \"#utility.yul\":2057:2058   */\n      0x00\n        /* \"#utility.yul\":2046:2055   */\n      dup4\n        /* \"#utility.yul\":2042:2059   */\n      add\n        /* \"#utility.yul\":2033:2039   */\n      dup5\n        /* \"#utility.yul\":1989:2060   */\n      tag_177\n      jump\t// in\n    tag_241:\n        /* \"#utility.yul\":1845:2067   */\n      swap3\n      swap2\n      pop\n      pop\n      jump\t// out\n        /* \"#utility.yul\":2073:2195   */\n    tag_178:\n        /* \"#utility.yul\":2146:2170   */\n      tag_243\n        /* \"#utility.yul\":2164:2169   */\n      dup2\n        /* \"#utility.yul\":2146:2170   */\n      tag_176\n      jump\t// in\n    tag_243:\n        /* \"#utility.yul\":2139:2144   */\n      dup2\n        /* \"#utility.yul\":2136:2171   */\n      eq\n        /* \"#utility.yul\":2126:2189   */\n      tag_244\n      jumpi\n        /* \"#utility.yul\":2185:2186   */\n      0x00\n        /* \"#utility.yul\":2182:2183   */\n      dup1\n        /* \"#utility.yul\":2175:2187   */\n      revert\n        /* \"#utility.yul\":2126:2189   */\n    tag_244:\n        /* \"#utility.yul\":2073:2195   */\n      pop\n      jump\t// out\n        /* \"#utility.yul\":2201:2340   */\n    tag_179:\n        /* \"#utility.yul\":2247:2252   */\n      0x00\n        /* \"#utility.yul\":2285:2291   */\n      dup2\n        /* \"#utility.yul\":2272:2292   */\n      calldataload\n        /* \"#utility.yul\":2263:2292   */\n      swap1\n      pop\n        /* \"#utility.yul\":2301:2334   */\n      tag_246\n        /* \"#utility.yul\":2328:2333   */\n      dup2\n        /* \"#utility.yul\":2301:2334   */\n      tag_178\n      jump\t// in\n    tag_246:\n        /* \"#utility.yul\":2201:2340   */\n      swap3\n      swap2\n      pop\n      pop\n      jump\t// out\n        /* \"#utility.yul\":2346:2675   */\n    tag_31:\n        /* \"#utility.yul\":2405:2411   */\n      0x00\n        /* \"#utility.yul\":2454:2456   */\n      0x20\n        /* \"#utility.yul\":2442:2451   */\n      dup3\n        /* \"#utility.yul\":2433:2440   */\n      dup5\n        /* \"#utility.yul\":2429:2452   */\n      sub\n        /* \"#utility.yul\":2425:2457   */\n      slt\n        /* \"#utility.yul\":2422:2541   */\n      iszero\n      tag_248\n      jumpi\n        /* \"#utility.yul\":2460:2539   */\n      tag_249\n      tag_171\n      jump\t// in\n    tag_249:\n        /* \"#utility.yul\":2422:2541   */\n    tag_248:\n        /* \"#utility.yul\":2580:2581   */\n      0x00\n        /* \"#utility.yul\":2605:2658   */\n      tag_250\n        /* \"#utility.yul\":2650:2657   */\n      dup5\n        /* \"#utility.yul\":2641:2647   */\n      dup3\n        /* \"#utility.yul\":2630:2639   */\n      dup6\n        /* \"#utility.yul\":2626:2648   */\n      add\n        /* \"#utility.yul\":2605:2658   */\n      tag_179\n      jump\t// in\n    tag_250:\n        /* \"#utility.yul\":2595:2658   */\n      swap2\n      pop\n        /* \"#utility.yul\":2551:2668   */\n      pop\n        /* \"#utility.yul\":2346:2675   */\n      swap3\n      swap2\n      pop\n      pop\n      jump\t// out\n        /* \"#utility.yul\":2681:2771   */\n    tag_180:\n        /* \"#utility.yul\":2715:2722   */\n      0x00\n        /* \"#utility.yul\":2758:2763   */\n      dup2\n        /* \"#utility.yul\":2751:2764   */\n      iszero\n        /* \"#utility.yul\":2744:2765   */\n      iszero\n        /* \"#utility.yul\":2733:2765   */\n      swap1\n      pop\n        /* \"#utility.yul\":2681:2771   */\n      swap2\n      swap1\n      pop\n      jump\t// out\n        /* \"#utility.yul\":2777:2886   */\n    tag_181:\n        /* \"#utility.yul\":2858:2879   */\n      tag_253\n        /* \"#utility.yul\":2873:2878   */\n      dup2\n        /* \"#utility.yul\":2858:2879   */\n      tag_180\n      jump\t// in\n    tag_253:\n        /* \"#utility.yul\":2853:2856   */\n      dup3\n        /* \"#utility.yul\":2846:2880   */\n      mstore\n        /* \"#utility.yul\":2777:2886   */\n      pop\n      pop\n      jump\t// out\n        /* \"#utility.yul\":2892:3102   */\n    tag_34:\n        /* \"#utility.yul\":2979:2983   */\n      0x00\n        /* \"#utility.yul\":3017:3019   */\n      0x20\n        /* \"#utility.yul\":3006:3015   */\n      dup3\n        /* \"#utility.yul\":3002:3020   */\n      add\n        /* \"#utility.yul\":2994:3020   */\n      swap1\n      pop\n        /* \"#utility.yul\":3030:3095   */\n      tag_255\n        /* \"#utility.yul\":3092:3093   */\n      0x00\n        /* \"#utility.yul\":3081:3090   */\n      dup4\n        /* \"#utility.yul\":3077:3094   */\n      add\n        /* \"#utility.yul\":3068:3074   */\n      dup5\n        /* \"#utility.yul\":3030:3095   */\n      tag_181\n      jump\t// in\n    tag_255:\n        /* \"#utility.yul\":2892:3102   */\n      swap3\n      swap2\n      pop\n      pop\n      jump\t// out\n        /* \"#utility.yul\":3108:3206   */\n    tag_182:\n        /* \"#utility.yul\":3159:3165   */\n      0x00\n        /* \"#utility.yul\":3193:3198   */\n      dup2\n        /* \"#utility.yul\":3187:3199   */\n      mload\n        /* \"#utility.yul\":3177:3199   */\n      swap1\n      pop\n        /* \"#utility.yul\":3108:3206   */\n      swap2\n      swap1\n      pop\n      jump\t// out\n        /* \"#utility.yul\":3212:3380   */\n    tag_183:\n        /* \"#utility.yul\":3295:3306   */\n      0x00\n        /* \"#utility.yul\":3329:3335   */\n      dup3\n        /* \"#utility.yul\":3324:3327   */\n      dup3\n        /* \"#utility.yul\":3317:3336   */\n      mstore\n        /* \"#utility.yul\":3369:3373   */\n      0x20\n        /* \"#utility.yul\":3364:3367   */\n      dup3\n        /* \"#utility.yul\":3360:3374   */\n      add\n        /* \"#utility.yul\":3345:3374   */\n      swap1\n      pop\n        /* \"#utility.yul\":3212:3380   */\n      swap3\n      swap2\n      pop\n      pop\n      jump\t// out\n        /* \"#utility.yul\":3386:3693   */\n    tag_184:\n        /* \"#utility.yul\":3454:3455   */\n      0x00\n        /* \"#utility.yul\":3464:3577   */\n    tag_259:\n        /* \"#utility.yul\":3478:3484   */\n      dup4\n        /* \"#utility.yul\":3475:3476   */\n      dup2\n        /* \"#utility.yul\":3472:3485   */\n      lt\n        /* \"#utility.yul\":3464:3577   */\n      iszero\n      tag_261\n      jumpi\n        /* \"#utility.yul\":3563:3564   */\n      dup1\n        /* \"#utility.yul\":3558:3561   */\n      dup3\n        /* \"#utility.yul\":3554:3565   */\n      add\n        /* \"#utility.yul\":3548:3566   */\n      mload\n        /* \"#utility.yul\":3544:3545   */\n      dup2\n        /* \"#utility.yul\":3539:3542   */\n      dup5\n        /* \"#utility.yul\":3535:3546   */\n      add\n        /* \"#utility.yul\":3528:3567   */\n      mstore\n        /* \"#utility.yul\":3500:3502   */\n      0x20\n        /* \"#utility.yul\":3497:3498   */\n      dup2\n        /* \"#utility.yul\":3493:3503   */\n      add\n        /* \"#utility.yul\":3488:3503   */\n      swap1\n      pop\n        /* \"#utility.yul\":3464:3577   */\n      jump(tag_259)\n    tag_261:\n        /* \"#utility.yul\":3595:3601   */\n      dup4\n        /* \"#utility.yul\":3592:3593   */\n      dup2\n        /* \"#utility.yul\":3589:3602   */\n      gt\n        /* \"#utility.yul\":3586:3687   */\n      iszero\n      tag_262\n      jumpi\n        /* \"#utility.yul\":3675:3676   */\n      0x00\n        /* \"#utility.yul\":3666:3672   */\n      dup5\n        /* \"#utility.yul\":3661:3664   */\n      dup5\n        /* \"#utility.yul\":3657:3673   */\n      add\n        /* \"#utility.yul\":3650:3677   */\n      mstore\n        /* \"#utility.yul\":3586:3687   */\n    tag_262:\n        /* \"#utility.yul\":3435:3693   */\n      pop\n        /* \"#utility.yul\":3386:3693   */\n      pop\n      pop\n      pop\n      jump\t// out\n        /* \"#utility.yul\":3699:3801   */\n    tag_185:\n        /* \"#utility.yul\":3740:3746   */\n      0x00\n        /* \"#utility.yul\":3791:3793   */\n      0x1f\n        /* \"#utility.yul\":3787:3794   */\n      not\n        /* \"#utility.yul\":3782:3784   */\n      0x1f\n        /* \"#utility.yul\":3775:3780   */\n      dup4\n        /* \"#utility.yul\":3771:3785   */\n      add\n        /* \"#utility.yul\":3767:3795   */\n      and\n        /* \"#utility.yul\":3757:3795   */\n      swap1\n      pop\n        /* \"#utility.yul\":3699:3801   */\n      swap2\n      swap1\n      pop\n      jump\t// out\n        /* \"#utility.yul\":3807:4167   */\n    tag_186:\n        /* \"#utility.yul\":3893:3896   */\n      0x00\n        /* \"#utility.yul\":3921:3959   */\n      tag_265\n        /* \"#utility.yul\":3953:3958   */\n      dup3\n        /* \"#utility.yul\":3921:3959   */\n      tag_182\n      jump\t// in\n    tag_265:\n        /* \"#utility.yul\":3975:4045   */\n      tag_266\n        /* \"#utility.yul\":4038:4044   */\n      dup2\n        /* \"#utility.yul\":4033:4036   */\n      dup6\n        /* \"#utility.yul\":3975:4045   */\n      tag_183\n      jump\t// in\n    tag_266:\n        /* \"#utility.yul\":3968:4045   */\n      swap4\n      pop\n        /* \"#utility.yul\":4054:4106   */\n      tag_267\n        /* \"#utility.yul\":4099:4105   */\n      dup2\n        /* \"#utility.yul\":4094:4097   */\n      dup6\n        /* \"#utility.yul\":4087:4091   */\n      0x20\n        /* \"#utility.yul\":4080:4085   */\n      dup7\n        /* \"#utility.yul\":4076:4092   */\n      add\n        /* \"#utility.yul\":4054:4106   */\n      tag_184\n      jump\t// in\n    tag_267:\n        /* \"#utility.yul\":4131:4160   */\n      tag_268\n        /* \"#utility.yul\":4153:4159   */\n      dup2\n        /* \"#utility.yul\":4131:4160   */\n      tag_185\n      jump\t// in\n    tag_268:\n        /* \"#utility.yul\":4126:4129   */\n      dup5\n        /* \"#utility.yul\":4122:4161   */\n      add\n        /* \"#utility.yul\":4115:4161   */\n      swap2\n      pop\n        /* \"#utility.yul\":3897:4167   */\n      pop\n        /* \"#utility.yul\":3807:4167   */\n      swap3\n      swap2\n      pop\n      pop\n      jump\t// out\n        /* \"#utility.yul\":4173:4912   */\n    tag_44:\n        /* \"#utility.yul\":4390:4394   */\n      0x00\n        /* \"#utility.yul\":4428:4431   */\n      0xa0\n        /* \"#utility.yul\":4417:4426   */\n      dup3\n        /* \"#utility.yul\":4413:4432   */\n      add\n        /* \"#utility.yul\":4405:4432   */\n      swap1\n      pop\n        /* \"#utility.yul\":4442:4513   */\n      tag_270\n        /* \"#utility.yul\":4510:4511   */\n      0x00\n        /* \"#utility.yul\":4499:4508   */\n      dup4\n        /* \"#utility.yul\":4495:4512   */\n      add\n        /* \"#utility.yul\":4486:4492   */\n      dup9\n        /* \"#utility.yul\":4442:4513   */\n      tag_177\n      jump\t// in\n    tag_270:\n        /* \"#utility.yul\":4523:4595   */\n      tag_271\n        /* \"#utility.yul\":4591:4593   */\n      0x20\n        /* \"#utility.yul\":4580:4589   */\n      dup4\n        /* \"#utility.yul\":4576:4594   */\n      add\n        /* \"#utility.yul\":4567:4573   */\n      dup8\n        /* \"#utility.yul\":4523:4595   */\n      tag_169\n      jump\t// in\n    tag_271:\n        /* \"#utility.yul\":4642:4651   */\n      dup2\n        /* \"#utility.yul\":4636:4640   */\n      dup2\n        /* \"#utility.yul\":4632:4652   */\n      sub\n        /* \"#utility.yul\":4627:4629   */\n      0x40\n        /* \"#utility.yul\":4616:4625   */\n      dup4\n        /* \"#utility.yul\":4612:4630   */\n      add\n        /* \"#utility.yul\":4605:4653   */\n      mstore\n        /* \"#utility.yul\":4670:4746   */\n      tag_272\n        /* \"#utility.yul\":4741:4745   */\n      dup2\n        /* \"#utility.yul\":4732:4738   */\n      dup7\n        /* \"#utility.yul\":4670:4746   */\n      tag_186\n      jump\t// in\n    tag_272:\n        /* \"#utility.yul\":4662:4746   */\n      swap1\n      pop\n        /* \"#utility.yul\":4756:4822   */\n      tag_273\n        /* \"#utility.yul\":4818:4820   */\n      0x60\n        /* \"#utility.yul\":4807:4816   */\n      dup4\n        /* \"#utility.yul\":4803:4821   */\n      add\n        /* \"#utility.yul\":4794:4800   */\n      dup6\n        /* \"#utility.yul\":4756:4822   */\n      tag_181\n      jump\t// in\n    tag_273:\n        /* \"#utility.yul\":4832:4905   */\n      tag_274\n        /* \"#utility.yul\":4900:4903   */\n      0x80\n        /* \"#utility.yul\":4889:4898   */\n      dup4\n        /* \"#utility.yul\":4885:4904   */\n      add\n        /* \"#utility.yul\":4876:4882   */\n      dup5\n        /* \"#utility.yul\":4832:4905   */\n      tag_169\n      jump\t// in\n    tag_274:\n        /* \"#utility.yul\":4173:4912   */\n      swap7\n      swap6\n      pop\n      pop\n      pop\n      pop\n      pop\n      pop\n      jump\t// out\n        /* \"#utility.yul\":4918:5392   */\n    tag_48:\n        /* \"#utility.yul\":4986:4992   */\n      0x00\n        /* \"#utility.yul\":4994:5000   */\n      dup1\n        /* \"#utility.yul\":5043:5045   */\n      0x40\n        /* \"#utility.yul\":5031:5040   */\n      dup4\n        /* \"#utility.yul\":5022:5029   */\n      dup6\n        /* \"#utility.yul\":5018:5041   */\n      sub\n        /* \"#utility.yul\":5014:5046   */\n      slt\n        /* \"#utility.yul\":5011:5130   */\n      iszero\n      tag_276\n      jumpi\n        /* \"#utility.yul\":5049:5128   */\n      tag_277\n      tag_171\n      jump\t// in\n    tag_277:\n        /* \"#utility.yul\":5011:5130   */\n    tag_276:\n        /* \"#utility.yul\":5169:5170   */\n      0x00\n        /* \"#utility.yul\":5194:5247   */\n      tag_278\n        /* \"#utility.yul\":5239:5246   */\n      dup6\n        /* \"#utility.yul\":5230:5236   */\n      dup3\n        /* \"#utility.yul\":5219:5228   */\n      dup7\n        /* \"#utility.yul\":5215:5237   */\n      add\n        /* \"#utility.yul\":5194:5247   */\n      tag_174\n      jump\t// in\n    tag_278:\n        /* \"#utility.yul\":5184:5247   */\n      swap3\n      pop\n        /* \"#utility.yul\":5140:5257   */\n      pop\n        /* \"#utility.yul\":5296:5298   */\n      0x20\n        /* \"#utility.yul\":5322:5375   */\n      tag_279\n        /* \"#utility.yul\":5367:5374   */\n      dup6\n        /* \"#utility.yul\":5358:5364   */\n      dup3\n        /* \"#utility.yul\":5347:5356   */\n      dup7\n        /* \"#utility.yul\":5343:5365   */\n      add\n        /* \"#utility.yul\":5322:5375   */\n      tag_179\n      jump\t// in\n    tag_279:\n        /* \"#utility.yul\":5312:5375   */\n      swap2\n      pop\n        /* \"#utility.yul\":5267:5385   */\n      pop\n        /* \"#utility.yul\":4918:5392   */\n      swap3\n      pop\n      swap3\n      swap1\n      pop\n      jump\t// out\n        /* \"#utility.yul\":5398:5620   */\n    tag_55:\n        /* \"#utility.yul\":5491:5495   */\n      0x00\n        /* \"#utility.yul\":5529:5531   */\n      0x20\n        /* \"#utility.yul\":5518:5527   */\n      dup3\n        /* \"#utility.yul\":5514:5532   */\n      add\n        /* \"#utility.yul\":5506:5532   */\n      swap1\n      pop\n        /* \"#utility.yul\":5542:5613   */\n      tag_281\n        /* \"#utility.yul\":5610:5611   */\n      0x00\n        /* \"#utility.yul\":5599:5608   */\n      dup4\n        /* \"#utility.yul\":5595:5612   */\n      add\n        /* \"#utility.yul\":5586:5592   */\n      dup5\n        /* \"#utility.yul\":5542:5613   */\n      tag_169\n      jump\t// in\n    tag_281:\n        /* \"#utility.yul\":5398:5620   */\n      swap3\n      swap2\n      pop\n      pop\n      jump\t// out\n        /* \"#utility.yul\":5626:5743   */\n    tag_187:\n        /* \"#utility.yul\":5735:5736   */\n      0x00\n        /* \"#utility.yul\":5732:5733   */\n      dup1\n        /* \"#utility.yul\":5725:5737   */\n      revert\n        /* \"#utility.yul\":5749:5866   */\n    tag_188:\n        /* \"#utility.yul\":5858:5859   */\n      0x00\n        /* \"#utility.yul\":5855:5856   */\n      dup1\n        /* \"#utility.yul\":5848:5860   */\n      revert\n        /* \"#utility.yul\":5872:6052   */\n    tag_189:\n        /* \"#utility.yul\":5920:5997   */\n      0x4e487b7100000000000000000000000000000000000000000000000000000000\n        /* \"#utility.yul\":5917:5918   */\n      0x00\n        /* \"#utility.yul\":5910:5998   */\n      mstore\n        /* \"#utility.yul\":6017:6021   */\n      0x41\n        /* \"#utility.yul\":6014:6015   */\n      0x04\n        /* \"#utility.yul\":6007:6022   */\n      mstore\n        /* \"#utility.yul\":6041:6045   */\n      0x24\n        /* \"#utility.yul\":6038:6039   */\n      0x00\n        /* \"#utility.yul\":6031:6046   */\n      revert\n        /* \"#utility.yul\":6058:6339   */\n    tag_190:\n        /* \"#utility.yul\":6141:6168   */\n      tag_286\n        /* \"#utility.yul\":6163:6167   */\n      dup3\n        /* \"#utility.yul\":6141:6168   */\n      tag_185\n      jump\t// in\n    tag_286:\n        /* \"#utility.yul\":6133:6139   */\n      dup2\n        /* \"#utility.yul\":6129:6169   */\n      add\n        /* \"#utility.yul\":6271:6277   */\n      dup2\n        /* \"#utility.yul\":6259:6269   */\n      dup2\n        /* \"#utility.yul\":6256:6278   */\n      lt\n        /* \"#utility.yul\":6235:6253   */\n      0xffffffffffffffff\n        /* \"#utility.yul\":6223:6233   */\n      dup3\n        /* \"#utility.yul\":6220:6254   */\n      gt\n        /* \"#utility.yul\":6217:6279   */\n      or\n        /* \"#utility.yul\":6214:6302   */\n      iszero\n      tag_287\n      jumpi\n        /* \"#utility.yul\":6282:6300   */\n      tag_288\n      tag_189\n      jump\t// in\n    tag_288:\n        /* \"#utility.yul\":6214:6302   */\n    tag_287:\n        /* \"#utility.yul\":6322:6332   */\n      dup1\n        /* \"#utility.yul\":6318:6320   */\n      0x40\n        /* \"#utility.yul\":6311:6333   */\n      mstore\n        /* \"#utility.yul\":6101:6339   */\n      pop\n        /* \"#utility.yul\":6058:6339   */\n      pop\n      pop\n      jump\t// out\n        /* \"#utility.yul\":6345:6474   */\n    tag_191:\n        /* \"#utility.yul\":6379:6385   */\n      0x00\n        /* \"#utility.yul\":6406:6426   */\n      tag_290\n      tag_170\n      jump\t// in\n    tag_290:\n        /* \"#utility.yul\":6396:6426   */\n      swap1\n      pop\n        /* \"#utility.yul\":6435:6468   */\n      tag_291\n        /* \"#utility.yul\":6463:6467   */\n      dup3\n        /* \"#utility.yul\":6455:6461   */\n      dup3\n        /* \"#utility.yul\":6435:6468   */\n      tag_190\n      jump\t// in\n    tag_291:\n        /* \"#utility.yul\":6345:6474   */\n      swap2\n      swap1\n      pop\n      jump\t// out\n        /* \"#utility.yul\":6480:6787   */\n    tag_192:\n        /* \"#utility.yul\":6541:6545   */\n      0x00\n        /* \"#utility.yul\":6631:6649   */\n      0xffffffffffffffff\n        /* \"#utility.yul\":6623:6629   */\n      dup3\n        /* \"#utility.yul\":6620:6650   */\n      gt\n        /* \"#utility.yul\":6617:6673   */\n      iszero\n      tag_293\n      jumpi\n        /* \"#utility.yul\":6653:6671   */\n      tag_294\n      tag_189\n      jump\t// in\n    tag_294:\n        /* \"#utility.yul\":6617:6673   */\n    tag_293:\n        /* \"#utility.yul\":6691:6720   */\n      tag_295\n        /* \"#utility.yul\":6713:6719   */\n      dup3\n        /* \"#utility.yul\":6691:6720   */\n      tag_185\n      jump\t// in\n    tag_295:\n        /* \"#utility.yul\":6683:6720   */\n      swap1\n      pop\n        /* \"#utility.yul\":6775:6779   */\n      0x20\n        /* \"#utility.yul\":6769:6773   */\n      dup2\n        /* \"#utility.yul\":6765:6780   */\n      add\n        /* \"#utility.yul\":6757:6780   */\n      swap1\n      pop\n        /* \"#utility.yul\":6480:6787   */\n      swap2\n      swap1\n      pop\n      jump\t// out\n        /* \"#utility.yul\":6793:6947   */\n    tag_193:\n        /* \"#utility.yul\":6877:6883   */\n      dup3\n        /* \"#utility.yul\":6872:6875   */\n      dup2\n        /* \"#utility.yul\":6867:6870   */\n      dup4\n        /* \"#utility.yul\":6854:6884   */\n      calldatacopy\n        /* \"#utility.yul\":6939:6940   */\n      0x00\n        /* \"#utility.yul\":6930:6936   */\n      dup4\n        /* \"#utility.yul\":6925:6928   */\n      dup4\n        /* \"#utility.yul\":6921:6937   */\n      add\n        /* \"#utility.yul\":6914:6941   */\n      mstore\n        /* \"#utility.yul\":6793:6947   */\n      pop\n      pop\n      pop\n      jump\t// out\n        /* \"#utility.yul\":6953:7363   */\n    tag_194:\n        /* \"#utility.yul\":7030:7035   */\n      0x00\n        /* \"#utility.yul\":7055:7120   */\n      tag_298\n        /* \"#utility.yul\":7071:7119   */\n      tag_299\n        /* \"#utility.yul\":7112:7118   */\n      dup5\n        /* \"#utility.yul\":7071:7119   */\n      tag_192\n      jump\t// in\n    tag_299:\n        /* \"#utility.yul\":7055:7120   */\n      tag_191\n      jump\t// in\n    tag_298:\n        /* \"#utility.yul\":7046:7120   */\n      swap1\n      pop\n        /* \"#utility.yul\":7143:7149   */\n      dup3\n        /* \"#utility.yul\":7136:7141   */\n      dup2\n        /* \"#utility.yul\":7129:7150   */\n      mstore\n        /* \"#utility.yul\":7181:7185   */\n      0x20\n        /* \"#utility.yul\":7174:7179   */\n      dup2\n        /* \"#utility.yul\":7170:7186   */\n      add\n        /* \"#utility.yul\":7219:7222   */\n      dup5\n        /* \"#utility.yul\":7210:7216   */\n      dup5\n        /* \"#utility.yul\":7205:7208   */\n      dup5\n        /* \"#utility.yul\":7201:7217   */\n      add\n        /* \"#utility.yul\":7198:7223   */\n      gt\n        /* \"#utility.yul\":7195:7307   */\n      iszero\n      tag_300\n      jumpi\n        /* \"#utility.yul\":7226:7305   */\n      tag_301\n      tag_188\n      jump\t// in\n    tag_301:\n        /* \"#utility.yul\":7195:7307   */\n    tag_300:\n        /* \"#utility.yul\":7316:7357   */\n      tag_302\n        /* \"#utility.yul\":7350:7356   */\n      dup5\n        /* \"#utility.yul\":7345:7348   */\n      dup3\n        /* \"#utility.yul\":7340:7343   */\n      dup6\n        /* \"#utility.yul\":7316:7357   */\n      tag_193\n      jump\t// in\n    tag_302:\n        /* \"#utility.yul\":7036:7363   */\n      pop\n        /* \"#utility.yul\":6953:7363   */\n      swap4\n      swap3\n      pop\n      pop\n      pop\n      jump\t// out\n        /* \"#utility.yul\":7382:7720   */\n    tag_195:\n        /* \"#utility.yul\":7437:7442   */\n      0x00\n        /* \"#utility.yul\":7486:7489   */\n      dup3\n        /* \"#utility.yul\":7479:7483   */\n      0x1f\n        /* \"#utility.yul\":7471:7477   */\n      dup4\n        /* \"#utility.yul\":7467:7484   */\n      add\n        /* \"#utility.yul\":7463:7490   */\n      slt\n        /* \"#utility.yul\":7453:7575   */\n      tag_304\n      jumpi\n        /* \"#utility.yul\":7494:7573   */\n      tag_305\n      tag_187\n      jump\t// in\n    tag_305:\n        /* \"#utility.yul\":7453:7575   */\n    tag_304:\n        /* \"#utility.yul\":7611:7617   */\n      dup2\n        /* \"#utility.yul\":7598:7618   */\n      calldataload\n        /* \"#utility.yul\":7636:7714   */\n      tag_306\n        /* \"#utility.yul\":7710:7713   */\n      dup5\n        /* \"#utility.yul\":7702:7708   */\n      dup3\n        /* \"#utility.yul\":7695:7699   */\n      0x20\n        /* \"#utility.yul\":7687:7693   */\n      dup7\n        /* \"#utility.yul\":7683:7700   */\n      add\n        /* \"#utility.yul\":7636:7714   */\n      tag_194\n      jump\t// in\n    tag_306:\n        /* \"#utility.yul\":7627:7714   */\n      swap2\n      pop\n        /* \"#utility.yul\":7443:7720   */\n      pop\n        /* \"#utility.yul\":7382:7720   */\n      swap3\n      swap2\n      pop\n      pop\n      jump\t// out\n        /* \"#utility.yul\":7726:8523   */\n    tag_59:\n        /* \"#utility.yul\":7812:7818   */\n      0x00\n        /* \"#utility.yul\":7820:7826   */\n      dup1\n        /* \"#utility.yul\":7828:7834   */\n      0x00\n        /* \"#utility.yul\":7877:7879   */\n      0x60\n        /* \"#utility.yul\":7865:7874   */\n      dup5\n        /* \"#utility.yul\":7856:7863   */\n      dup7\n        /* \"#utility.yul\":7852:7875   */\n      sub\n        /* \"#utility.yul\":7848:7880   */\n      slt\n        /* \"#utility.yul\":7845:7964   */\n      iszero\n      tag_308\n      jumpi\n        /* \"#utility.yul\":7883:7962   */\n      tag_309\n      tag_171\n      jump\t// in\n    tag_309:\n        /* \"#utility.yul\":7845:7964   */\n    tag_308:\n        /* \"#utility.yul\":8003:8004   */\n      0x00\n        /* \"#utility.yul\":8028:8081   */\n      tag_310\n        /* \"#utility.yul\":8073:8080   */\n      dup7\n        /* \"#utility.yul\":8064:8070   */\n      dup3\n        /* \"#utility.yul\":8053:8062   */\n      dup8\n        /* \"#utility.yul\":8049:8071   */\n      add\n        /* \"#utility.yul\":8028:8081   */\n      tag_179\n      jump\t// in\n    tag_310:\n        /* \"#utility.yul\":8018:8081   */\n      swap4\n      pop\n        /* \"#utility.yul\":7974:8091   */\n      pop\n        /* \"#utility.yul\":8130:8132   */\n      0x20\n        /* \"#utility.yul\":8156:8209   */\n      tag_311\n        /* \"#utility.yul\":8201:8208   */\n      dup7\n        /* \"#utility.yul\":8192:8198   */\n      dup3\n        /* \"#utility.yul\":8181:8190   */\n      dup8\n        /* \"#utility.yul\":8177:8199   */\n      add\n        /* \"#utility.yul\":8156:8209   */\n      tag_174\n      jump\t// in\n    tag_311:\n        /* \"#utility.yul\":8146:8209   */\n      swap3\n      pop\n        /* \"#utility.yul\":8101:8219   */\n      pop\n        /* \"#utility.yul\":8286:8288   */\n      0x40\n        /* \"#utility.yul\":8275:8284   */\n      dup5\n        /* \"#utility.yul\":8271:8289   */\n      add\n        /* \"#utility.yul\":8258:8290   */\n      calldataload\n        /* \"#utility.yul\":8317:8335   */\n      0xffffffffffffffff\n        /* \"#utility.yul\":8309:8315   */\n      dup2\n        /* \"#utility.yul\":8306:8336   */\n      gt\n        /* \"#utility.yul\":8303:8420   */\n      iszero\n      tag_312\n      jumpi\n        /* \"#utility.yul\":8339:8418   */\n      tag_313\n      tag_172\n      jump\t// in\n    tag_313:\n        /* \"#utility.yul\":8303:8420   */\n    tag_312:\n        /* \"#utility.yul\":8444:8506   */\n      tag_314\n        /* \"#utility.yul\":8498:8505   */\n      dup7\n        /* \"#utility.yul\":8489:8495   */\n      dup3\n        /* \"#utility.yul\":8478:8487   */\n      dup8\n        /* \"#utility.yul\":8474:8496   */\n      add\n        /* \"#utility.yul\":8444:8506   */\n      tag_195\n      jump\t// in\n    tag_314:\n        /* \"#utility.yul\":8434:8506   */\n      swap2\n      pop\n        /* \"#utility.yul\":8229:8516   */\n      pop\n        /* \"#utility.yul\":7726:8523   */\n      swap3\n      pop\n      swap3\n      pop\n      swap3\n      jump\t// out\n        /* \"#utility.yul\":8529:8698   */\n    tag_196:\n        /* \"#utility.yul\":8613:8624   */\n      0x00\n        /* \"#utility.yul\":8647:8653   */\n      dup3\n        /* \"#utility.yul\":8642:8645   */\n      dup3\n        /* \"#utility.yul\":8635:8654   */\n      mstore\n        /* \"#utility.yul\":8687:8691   */\n      0x20\n        /* \"#utility.yul\":8682:8685   */\n      dup3\n        /* \"#utility.yul\":8678:8692   */\n      add\n        /* \"#utility.yul\":8663:8692   */\n      swap1\n      pop\n        /* \"#utility.yul\":8529:8698   */\n      swap3\n      swap2\n      pop\n      pop\n      jump\t// out\n        /* \"#utility.yul\":8704:8932   */\n    tag_197:\n        /* \"#utility.yul\":8844:8878   */\n      0x4f6e6c79204f776e6572732063616e2061636365737320746869732066756e63\n        /* \"#utility.yul\":8840:8841   */\n      0x00\n        /* \"#utility.yul\":8832:8838   */\n      dup3\n        /* \"#utility.yul\":8828:8842   */\n      add\n        /* \"#utility.yul\":8821:8879   */\n      mstore\n        /* \"#utility.yul\":8913:8924   */\n      0x74696f6e616c6974790000000000000000000000000000000000000000000000\n        /* \"#utility.yul\":8908:8910   */\n      0x20\n        /* \"#utility.yul\":8900:8906   */\n      dup3\n        /* \"#utility.yul\":8896:8911   */\n      add\n        /* \"#utility.yul\":8889:8925   */\n      mstore\n        /* \"#utility.yul\":8704:8932   */\n      pop\n      jump\t// out\n        /* \"#utility.yul\":8938:9304   */\n    tag_198:\n        /* \"#utility.yul\":9080:9083   */\n      0x00\n        /* \"#utility.yul\":9101:9168   */\n      tag_318\n        /* \"#utility.yul\":9165:9167   */\n      0x29\n        /* \"#utility.yul\":9160:9163   */\n      dup4\n        /* \"#utility.yul\":9101:9168   */\n      tag_196\n      jump\t// in\n    tag_318:\n        /* \"#utility.yul\":9094:9168   */\n      swap2\n      pop\n        /* \"#utility.yul\":9177:9270   */\n      tag_319\n        /* \"#utility.yul\":9266:9269   */\n      dup3\n        /* \"#utility.yul\":9177:9270   */\n      tag_197\n      jump\t// in\n    tag_319:\n        /* \"#utility.yul\":9295:9297   */\n      0x40\n        /* \"#utility.yul\":9290:9293   */\n      dup3\n        /* \"#utility.yul\":9286:9298   */\n      add\n        /* \"#utility.yul\":9279:9298   */\n      swap1\n      pop\n        /* \"#utility.yul\":8938:9304   */\n      swap2\n      swap1\n      pop\n      jump\t// out\n        /* \"#utility.yul\":9310:9729   */\n    tag_70:\n        /* \"#utility.yul\":9476:9480   */\n      0x00\n        /* \"#utility.yul\":9514:9516   */\n      0x20\n        /* \"#utility.yul\":9503:9512   */\n      dup3\n        /* \"#utility.yul\":9499:9517   */\n      add\n        /* \"#utility.yul\":9491:9517   */\n      swap1\n      pop\n        /* \"#utility.yul\":9563:9572   */\n      dup2\n        /* \"#utility.yul\":9557:9561   */\n      dup2\n        /* \"#utility.yul\":9553:9573   */\n      sub\n        /* \"#utility.yul\":9549:9550   */\n      0x00\n        /* \"#utility.yul\":9538:9547   */\n      dup4\n        /* \"#utility.yul\":9534:9551   */\n      add\n        /* \"#utility.yul\":9527:9574   */\n      mstore\n        /* \"#utility.yul\":9591:9722   */\n      tag_321\n        /* \"#utility.yul\":9717:9721   */\n      dup2\n        /* \"#utility.yul\":9591:9722   */\n      tag_198\n      jump\t// in\n    tag_321:\n        /* \"#utility.yul\":9583:9722   */\n      swap1\n      pop\n        /* \"#utility.yul\":9310:9729   */\n      swap2\n      swap1\n      pop\n      jump\t// out\n        /* \"#utility.yul\":9735:9897   */\n    tag_199:\n        /* \"#utility.yul\":9875:9889   */\n      0x496e76616c696420547849640000000000000000000000000000000000000000\n        /* \"#utility.yul\":9871:9872   */\n      0x00\n        /* \"#utility.yul\":9863:9869   */\n      dup3\n        /* \"#utility.yul\":9859:9873   */\n      add\n        /* \"#utility.yul\":9852:9890   */\n      mstore\n        /* \"#utility.yul\":9735:9897   */\n      pop\n      jump\t// out\n        /* \"#utility.yul\":9903:10269   */\n    tag_200:\n        /* \"#utility.yul\":10045:10048   */\n      0x00\n        /* \"#utility.yul\":10066:10133   */\n      tag_324\n        /* \"#utility.yul\":10130:10132   */\n      0x0c\n        /* \"#utility.yul\":10125:10128   */\n      dup4\n        /* \"#utility.yul\":10066:10133   */\n      tag_196\n      jump\t// in\n    tag_324:\n        /* \"#utility.yul\":10059:10133   */\n      swap2\n      pop\n        /* \"#utility.yul\":10142:10235   */\n      tag_325\n        /* \"#utility.yul\":10231:10234   */\n      dup3\n        /* \"#utility.yul\":10142:10235   */\n      tag_199\n      jump\t// in\n    tag_325:\n        /* \"#utility.yul\":10260:10262   */\n      0x20\n        /* \"#utility.yul\":10255:10258   */\n      dup3\n        /* \"#utility.yul\":10251:10263   */\n      add\n        /* \"#utility.yul\":10244:10263   */\n      swap1\n      pop\n        /* \"#utility.yul\":9903:10269   */\n      swap2\n      swap1\n      pop\n      jump\t// out\n        /* \"#utility.yul\":10275:10694   */\n    tag_74:\n        /* \"#utility.yul\":10441:10445   */\n      0x00\n        /* \"#utility.yul\":10479:10481   */\n      0x20\n        /* \"#utility.yul\":10468:10477   */\n      dup3\n        /* \"#utility.yul\":10464:10482   */\n      add\n        /* \"#utility.yul\":10456:10482   */\n      swap1\n      pop\n        /* \"#utility.yul\":10528:10537   */\n      dup2\n        /* \"#utility.yul\":10522:10526   */\n      dup2\n        /* \"#utility.yul\":10518:10538   */\n      sub\n        /* \"#utility.yul\":10514:10515   */\n      0x00\n        /* \"#utility.yul\":10503:10512   */\n      dup4\n        /* \"#utility.yul\":10499:10516   */\n      add\n        /* \"#utility.yul\":10492:10539   */\n      mstore\n        /* \"#utility.yul\":10556:10687   */\n      tag_327\n        /* \"#utility.yul\":10682:10686   */\n      dup2\n        /* \"#utility.yul\":10556:10687   */\n      tag_200\n      jump\t// in\n    tag_327:\n        /* \"#utility.yul\":10548:10687   */\n      swap1\n      pop\n        /* \"#utility.yul\":10275:10694   */\n      swap2\n      swap1\n      pop\n      jump\t// out\n        /* \"#utility.yul\":10700:10880   */\n    tag_78:\n        /* \"#utility.yul\":10748:10825   */\n      0x4e487b7100000000000000000000000000000000000000000000000000000000\n        /* \"#utility.yul\":10745:10746   */\n      0x00\n        /* \"#utility.yul\":10738:10826   */\n      mstore\n        /* \"#utility.yul\":10845:10849   */\n      0x32\n        /* \"#utility.yul\":10842:10843   */\n      0x04\n        /* \"#utility.yul\":10835:10850   */\n      mstore\n        /* \"#utility.yul\":10869:10873   */\n      0x24\n        /* \"#utility.yul\":10866:10867   */\n      0x00\n        /* \"#utility.yul\":10859:10874   */\n      revert\n        /* \"#utility.yul\":10886:11065   */\n    tag_201:\n        /* \"#utility.yul\":11026:11057   */\n      0x5472616e73616374696f6e20616c726561647920636f6e6669726d6564000000\n        /* \"#utility.yul\":11022:11023   */\n      0x00\n        /* \"#utility.yul\":11014:11020   */\n      dup3\n        /* \"#utility.yul\":11010:11024   */\n      add\n        /* \"#utility.yul\":11003:11058   */\n      mstore\n        /* \"#utility.yul\":10886:11065   */\n      pop\n      jump\t// out\n        /* \"#utility.yul\":11071:11437   */\n    tag_202:\n        /* \"#utility.yul\":11213:11216   */\n      0x00\n        /* \"#utility.yul\":11234:11301   */\n      tag_331\n        /* \"#utility.yul\":11298:11300   */\n      0x1d\n        /* \"#utility.yul\":11293:11296   */\n      dup4\n        /* \"#utility.yul\":11234:11301   */\n      tag_196\n      jump\t// in\n    tag_331:\n        /* \"#utility.yul\":11227:11301   */\n      swap2\n      pop\n        /* \"#utility.yul\":11310:11403   */\n      tag_332\n        /* \"#utility.yul\":11399:11402   */\n      dup3\n        /* \"#utility.yul\":11310:11403   */\n      tag_201\n      jump\t// in\n    tag_332:\n        /* \"#utility.yul\":11428:11430   */\n      0x20\n        /* \"#utility.yul\":11423:11426   */\n      dup3\n        /* \"#utility.yul\":11419:11431   */\n      add\n        /* \"#utility.yul\":11412:11431   */\n      swap1\n      pop\n        /* \"#utility.yul\":11071:11437   */\n      swap2\n      swap1\n      pop\n      jump\t// out\n        /* \"#utility.yul\":11443:11862   */\n    tag_82:\n        /* \"#utility.yul\":11609:11613   */\n      0x00\n        /* \"#utility.yul\":11647:11649   */\n      0x20\n        /* \"#utility.yul\":11636:11645   */\n      dup3\n        /* \"#utility.yul\":11632:11650   */\n      add\n        /* \"#utility.yul\":11624:11650   */\n      swap1\n      pop\n        /* \"#utility.yul\":11696:11705   */\n      dup2\n        /* \"#utility.yul\":11690:11694   */\n      dup2\n        /* \"#utility.yul\":11686:11706   */\n      sub\n        /* \"#utility.yul\":11682:11683   */\n      0x00\n        /* \"#utility.yul\":11671:11680   */\n      dup4\n        /* \"#utility.yul\":11667:11684   */\n      add\n        /* \"#utility.yul\":11660:11707   */\n      mstore\n        /* \"#utility.yul\":11724:11855   */\n      tag_334\n        /* \"#utility.yul\":11850:11854   */\n      dup2\n        /* \"#utility.yul\":11724:11855   */\n      tag_202\n      jump\t// in\n    tag_334:\n        /* \"#utility.yul\":11716:11855   */\n      swap1\n      pop\n        /* \"#utility.yul\":11443:11862   */\n      swap2\n      swap1\n      pop\n      jump\t// out\n        /* \"#utility.yul\":11868:12037   */\n    tag_203:\n        /* \"#utility.yul\":12008:12029   */\n      0x547820616c726561647920657865637574656400000000000000000000000000\n        /* \"#utility.yul\":12004:12005   */\n      0x00\n        /* \"#utility.yul\":11996:12002   */\n      dup3\n        /* \"#utility.yul\":11992:12006   */\n      add\n        /* \"#utility.yul\":11985:12030   */\n      mstore\n        /* \"#utility.yul\":11868:12037   */\n      pop\n      jump\t// out\n        /* \"#utility.yul\":12043:12409   */\n    tag_204:\n        /* \"#utility.yul\":12185:12188   */\n      0x00\n        /* \"#utility.yul\":12206:12273   */\n      tag_337\n        /* \"#utility.yul\":12270:12272   */\n      0x13\n        /* \"#utility.yul\":12265:12268   */\n      dup4\n        /* \"#utility.yul\":12206:12273   */\n      tag_196\n      jump\t// in\n    tag_337:\n        /* \"#utility.yul\":12199:12273   */\n      swap2\n      pop\n        /* \"#utility.yul\":12282:12375   */\n      tag_338\n        /* \"#utility.yul\":12371:12374   */\n      dup3\n        /* \"#utility.yul\":12282:12375   */\n      tag_203\n      jump\t// in\n    tag_338:\n        /* \"#utility.yul\":12400:12402   */\n      0x20\n        /* \"#utility.yul\":12395:12398   */\n      dup3\n        /* \"#utility.yul\":12391:12403   */\n      add\n        /* \"#utility.yul\":12384:12403   */\n      swap1\n      pop\n        /* \"#utility.yul\":12043:12409   */\n      swap2\n      swap1\n      pop\n      jump\t// out\n        /* \"#utility.yul\":12415:12834   */\n    tag_89:\n        /* \"#utility.yul\":12581:12585   */\n      0x00\n        /* \"#utility.yul\":12619:12621   */\n      0x20\n        /* \"#utility.yul\":12608:12617   */\n      dup3\n        /* \"#utility.yul\":12604:12622   */\n      add\n        /* \"#utility.yul\":12596:12622   */\n      swap1\n      pop\n        /* \"#utility.yul\":12668:12677   */\n      dup2\n        /* \"#utility.yul\":12662:12666   */\n      dup2\n        /* \"#utility.yul\":12658:12678   */\n      sub\n        /* \"#utility.yul\":12654:12655   */\n      0x00\n        /* \"#utility.yul\":12643:12652   */\n      dup4\n        /* \"#utility.yul\":12639:12656   */\n      add\n        /* \"#utility.yul\":12632:12679   */\n      mstore\n        /* \"#utility.yul\":12696:12827   */\n      tag_340\n        /* \"#utility.yul\":12822:12826   */\n      dup2\n        /* \"#utility.yul\":12696:12827   */\n      tag_204\n      jump\t// in\n    tag_340:\n        /* \"#utility.yul\":12688:12827   */\n      swap1\n      pop\n        /* \"#utility.yul\":12415:12834   */\n      swap2\n      swap1\n      pop\n      jump\t// out\n        /* \"#utility.yul\":12840:13020   */\n    tag_205:\n        /* \"#utility.yul\":12888:12965   */\n      0x4e487b7100000000000000000000000000000000000000000000000000000000\n        /* \"#utility.yul\":12885:12886   */\n      0x00\n        /* \"#utility.yul\":12878:12966   */\n      mstore\n        /* \"#utility.yul\":12985:12989   */\n      0x11\n        /* \"#utility.yul\":12982:12983   */\n      0x04\n        /* \"#utility.yul\":12975:12990   */\n      mstore\n        /* \"#utility.yul\":13009:13013   */\n      0x24\n        /* \"#utility.yul\":13006:13007   */\n      0x00\n        /* \"#utility.yul\":12999:13014   */\n      revert\n        /* \"#utility.yul\":13026:13259   */\n    tag_95:\n        /* \"#utility.yul\":13065:13068   */\n      0x00\n        /* \"#utility.yul\":13088:13112   */\n      tag_343\n        /* \"#utility.yul\":13106:13111   */\n      dup3\n        /* \"#utility.yul\":13088:13112   */\n      tag_168\n      jump\t// in\n    tag_343:\n        /* \"#utility.yul\":13079:13112   */\n      swap2\n      pop\n        /* \"#utility.yul\":13134:13200   */\n      0xffffffffffffffffffffffffffffffffffffffffffffffffffffffffffffffff\n        /* \"#utility.yul\":13127:13132   */\n      dup3\n        /* \"#utility.yul\":13124:13201   */\n      eq\n        /* \"#utility.yul\":13121:13224   */\n      iszero\n      tag_344\n      jumpi\n        /* \"#utility.yul\":13204:13222   */\n      tag_345\n      tag_205\n      jump\t// in\n    tag_345:\n        /* \"#utility.yul\":13121:13224   */\n    tag_344:\n        /* \"#utility.yul\":13251:13252   */\n      0x01\n        /* \"#utility.yul\":13244:13249   */\n      dup3\n        /* \"#utility.yul\":13240:13253   */\n      add\n        /* \"#utility.yul\":13233:13253   */\n      swap1\n      pop\n        /* \"#utility.yul\":13026:13259   */\n      swap2\n      swap1\n      pop\n      jump\t// out\n        /* \"#utility.yul\":13265:13487   */\n    tag_206:\n        /* \"#utility.yul\":13405:13439   */\n      0x4f776e657220616c72656164792068617665206e6f7420636f6e6669726d6564\n        /* \"#utility.yul\":13401:13402   */\n      0x00\n        /* \"#utility.yul\":13393:13399   */\n      dup3\n        /* \"#utility.yul\":13389:13403   */\n      add\n        /* \"#utility.yul\":13382:13440   */\n      mstore\n        /* \"#utility.yul\":13474:13479   */\n      0x2074780000000000000000000000000000000000000000000000000000000000\n        /* \"#utility.yul\":13469:13471   */\n      0x20\n        /* \"#utility.yul\":13461:13467   */\n      dup3\n        /* \"#utility.yul\":13457:13472   */\n      add\n        /* \"#utility.yul\":13450:13480   */\n      mstore\n        /* \"#utility.yul\":13265:13487   */\n      pop\n      jump\t// out\n        /* \"#utility.yul\":13493:13859   */\n    tag_207:\n        /* \"#utility.yul\":13635:13638   */\n      0x00\n        /* \"#utility.yul\":13656:13723   */\n      tag_348\n        /* \"#utility.yul\":13720:13722   */\n      0x23\n        /* \"#utility.yul\":13715:13718   */\n      dup4\n        /* \"#utility.yul\":13656:13723   */\n      tag_196\n      jump\t// in\n    tag_348:\n        /* \"#utility.yul\":13649:13723   */\n      swap2\n      pop\n        /* \"#utility.yul\":13732:13825   */\n      tag_349\n        /* \"#utility.yul\":13821:13824   */\n      dup3\n        /* \"#utility.yul\":13732:13825   */\n      tag_206\n      jump\t// in\n    tag_349:\n        /* \"#utility.yul\":13850:13852   */\n      0x40\n        /* \"#utility.yul\":13845:13848   */\n      dup3\n        /* \"#utility.yul\":13841:13853   */\n      add\n        /* \"#utility.yul\":13834:13853   */\n      swap1\n      pop\n        /* \"#utility.yul\":13493:13859   */\n      swap2\n      swap1\n      pop\n      jump\t// out\n        /* \"#utility.yul\":13865:14284   */\n    tag_111:\n        /* \"#utility.yul\":14031:14035   */\n      0x00\n        /* \"#utility.yul\":14069:14071   */\n      0x20\n        /* \"#utility.yul\":14058:14067   */\n      dup3\n        /* \"#utility.yul\":14054:14072   */\n      add\n        /* \"#utility.yul\":14046:14072   */\n      swap1\n      pop\n        /* \"#utility.yul\":14118:14127   */\n      dup2\n        /* \"#utility.yul\":14112:14116   */\n      dup2\n        /* \"#utility.yul\":14108:14128   */\n      sub\n        /* \"#utility.yul\":14104:14105   */\n      0x00\n        /* \"#utility.yul\":14093:14102   */\n      dup4\n        /* \"#utility.yul\":14089:14106   */\n      add\n        /* \"#utility.yul\":14082:14129   */\n      mstore\n        /* \"#utility.yul\":14146:14277   */\n      tag_351\n        /* \"#utility.yul\":14272:14276   */\n      dup2\n        /* \"#utility.yul\":14146:14277   */\n      tag_207\n      jump\t// in\n    tag_351:\n        /* \"#utility.yul\":14138:14277   */\n      swap1\n      pop\n        /* \"#utility.yul\":13865:14284   */\n      swap2\n      swap1\n      pop\n      jump\t// out\n        /* \"#utility.yul\":14290:14461   */\n    tag_116:\n        /* \"#utility.yul\":14329:14332   */\n      0x00\n        /* \"#utility.yul\":14352:14376   */\n      tag_353\n        /* \"#utility.yul\":14370:14375   */\n      dup3\n        /* \"#utility.yul\":14352:14376   */\n      tag_168\n      jump\t// in\n    tag_353:\n        /* \"#utility.yul\":14343:14376   */\n      swap2\n      pop\n        /* \"#utility.yul\":14398:14402   */\n      0x00\n        /* \"#utility.yul\":14391:14396   */\n      dup3\n        /* \"#utility.yul\":14388:14403   */\n      eq\n        /* \"#utility.yul\":14385:14426   */\n      iszero\n      tag_354\n      jumpi\n        /* \"#utility.yul\":14406:14424   */\n      tag_355\n      tag_205\n      jump\t// in\n    tag_355:\n        /* \"#utility.yul\":14385:14426   */\n    tag_354:\n        /* \"#utility.yul\":14453:14454   */\n      0x01\n        /* \"#utility.yul\":14446:14451   */\n      dup3\n        /* \"#utility.yul\":14442:14455   */\n      sub\n        /* \"#utility.yul\":14435:14455   */\n      swap1\n      pop\n        /* \"#utility.yul\":14290:14461   */\n      swap2\n      swap1\n      pop\n      jump\t// out\n        /* \"#utility.yul\":14467:14647   */\n    tag_208:\n        /* \"#utility.yul\":14515:14592   */\n      0x4e487b7100000000000000000000000000000000000000000000000000000000\n        /* \"#utility.yul\":14512:14513   */\n      0x00\n        /* \"#utility.yul\":14505:14593   */\n      mstore\n        /* \"#utility.yul\":14612:14616   */\n      0x22\n        /* \"#utility.yul\":14609:14610   */\n      0x04\n        /* \"#utility.yul\":14602:14617   */\n      mstore\n        /* \"#utility.yul\":14636:14640   */\n      0x24\n        /* \"#utility.yul\":14633:14634   */\n      0x00\n        /* \"#utility.yul\":14626:14641   */\n      revert\n        /* \"#utility.yul\":14653:14973   */\n    tag_120:\n        /* \"#utility.yul\":14697:14703   */\n      0x00\n        /* \"#utility.yul\":14734:14735   */\n      0x02\n        /* \"#utility.yul\":14728:14732   */\n      dup3\n        /* \"#utility.yul\":14724:14736   */\n      div\n        /* \"#utility.yul\":14714:14736   */\n      swap1\n      pop\n        /* \"#utility.yul\":14781:14782   */\n      0x01\n        /* \"#utility.yul\":14775:14779   */\n      dup3\n        /* \"#utility.yul\":14771:14783   */\n      and\n        /* \"#utility.yul\":14802:14820   */\n      dup1\n        /* \"#utility.yul\":14792:14873   */\n      tag_358\n      jumpi\n        /* \"#utility.yul\":14858:14862   */\n      0x7f\n        /* \"#utility.yul\":14850:14856   */\n      dup3\n        /* \"#utility.yul\":14846:14863   */\n      and\n        /* \"#utility.yul\":14836:14863   */\n      swap2\n      pop\n        /* \"#utility.yul\":14792:14873   */\n    tag_358:\n        /* \"#utility.yul\":14920:14922   */\n      0x20\n        /* \"#utility.yul\":14912:14918   */\n      dup3\n        /* \"#utility.yul\":14909:14923   */\n      lt\n        /* \"#utility.yul\":14889:14907   */\n      dup2\n        /* \"#utility.yul\":14886:14924   */\n      eq\n        /* \"#utility.yul\":14883:14967   */\n      iszero\n      tag_359\n      jumpi\n        /* \"#utility.yul\":14939:14957   */\n      tag_360\n      tag_208\n      jump\t// in\n    tag_360:\n        /* \"#utility.yul\":14883:14967   */\n    tag_359:\n        /* \"#utility.yul\":14704:14973   */\n      pop\n        /* \"#utility.yul\":14653:14973   */\n      swap2\n      swap1\n      pop\n      jump\t// out\n        /* \"#utility.yul\":14979:15398   */\n    tag_133:\n        /* \"#utility.yul\":15118:15122   */\n      0x00\n        /* \"#utility.yul\":15156:15158   */\n      0x40\n        /* \"#utility.yul\":15145:15154   */\n      dup3\n        /* \"#utility.yul\":15141:15159   */\n      add\n        /* \"#utility.yul\":15133:15159   */\n      swap1\n      pop\n        /* \"#utility.yul\":15169:15240   */\n      tag_362\n        /* \"#utility.yul\":15237:15238   */\n      0x00\n        /* \"#utility.yul\":15226:15235   */\n      dup4\n        /* \"#utility.yul\":15222:15239   */\n      add\n        /* \"#utility.yul\":15213:15219   */\n      dup6\n        /* \"#utility.yul\":15169:15240   */\n      tag_169\n      jump\t// in\n    tag_362:\n        /* \"#utility.yul\":15287:15296   */\n      dup2\n        /* \"#utility.yul\":15281:15285   */\n      dup2\n        /* \"#utility.yul\":15277:15297   */\n      sub\n        /* \"#utility.yul\":15272:15274   */\n      0x20\n        /* \"#utility.yul\":15261:15270   */\n      dup4\n        /* \"#utility.yul\":15257:15275   */\n      add\n        /* \"#utility.yul\":15250:15298   */\n      mstore\n        /* \"#utility.yul\":15315:15391   */\n      tag_363\n        /* \"#utility.yul\":15386:15390   */\n      dup2\n        /* \"#utility.yul\":15377:15383   */\n      dup5\n        /* \"#utility.yul\":15315:15391   */\n      tag_186\n      jump\t// in\n    tag_363:\n        /* \"#utility.yul\":15307:15391   */\n      swap1\n      pop\n        /* \"#utility.yul\":14979:15398   */\n      swap4\n      swap3\n      pop\n      pop\n      pop\n      jump\t// out\n        /* \"#utility.yul\":15404:15571   */\n    tag_209:\n        /* \"#utility.yul\":15544:15563   */\n      0x63616e6e6f742065786563757465207478000000000000000000000000000000\n        /* \"#utility.yul\":15540:15541   */\n      0x00\n        /* \"#utility.yul\":15532:15538   */\n      dup3\n        /* \"#utility.yul\":15528:15542   */\n      add\n        /* \"#utility.yul\":15521:15564   */\n      mstore\n        /* \"#utility.yul\":15404:15571   */\n      pop\n      jump\t// out\n        /* \"#utility.yul\":15577:15943   */\n    tag_210:\n        /* \"#utility.yul\":15719:15722   */\n      0x00\n        /* \"#utility.yul\":15740:15807   */\n      tag_366\n        /* \"#utility.yul\":15804:15806   */\n      0x11\n        /* \"#utility.yul\":15799:15802   */\n      dup4\n        /* \"#utility.yul\":15740:15807   */\n      tag_196\n      jump\t// in\n    tag_366:\n        /* \"#utility.yul\":15733:15807   */\n      swap2\n      pop\n        /* \"#utility.yul\":15816:15909   */\n      tag_367\n        /* \"#utility.yul\":15905:15908   */\n      dup3\n        /* \"#utility.yul\":15816:15909   */\n      tag_209\n      jump\t// in\n    tag_367:\n        /* \"#utility.yul\":15934:15936   */\n      0x20\n        /* \"#utility.yul\":15929:15932   */\n      dup3\n        /* \"#utility.yul\":15925:15937   */\n      add\n        /* \"#utility.yul\":15918:15937   */\n      swap1\n      pop\n        /* \"#utility.yul\":15577:15943   */\n      swap2\n      swap1\n      pop\n      jump\t// out\n        /* \"#utility.yul\":15949:16368   */\n    tag_149:\n        /* \"#utility.yul\":16115:16119   */\n      0x00\n        /* \"#utility.yul\":16153:16155   */\n      0x20\n        /* \"#utility.yul\":16142:16151   */\n      dup3\n        /* \"#utility.yul\":16138:16156   */\n      add\n        /* \"#utility.yul\":16130:16156   */\n      swap1\n      pop\n        /* \"#utility.yul\":16202:16211   */\n      dup2\n        /* \"#utility.yul\":16196:16200   */\n      dup2\n        /* \"#utility.yul\":16192:16212   */\n      sub\n        /* \"#utility.yul\":16188:16189   */\n      0x00\n        /* \"#utility.yul\":16177:16186   */\n      dup4\n        /* \"#utility.yul\":16173:16190   */\n      add\n        /* \"#utility.yul\":16166:16213   */\n      mstore\n        /* \"#utility.yul\":16230:16361   */\n      tag_369\n        /* \"#utility.yul\":16356:16360   */\n      dup2\n        /* \"#utility.yul\":16230:16361   */\n      tag_210\n      jump\t// in\n    tag_369:\n        /* \"#utility.yul\":16222:16361   */\n      swap1\n      pop\n        /* \"#utility.yul\":15949:16368   */\n      swap2\n      swap1\n      pop\n      jump\t// out\n        /* \"#utility.yul\":16374:16521   */\n    tag_211:\n        /* \"#utility.yul\":16475:16486   */\n      0x00\n        /* \"#utility.yul\":16512:16515   */\n      dup2\n        /* \"#utility.yul\":16497:16515   */\n      swap1\n      pop\n        /* \"#utility.yul\":16374:16521   */\n      swap3\n      swap2\n      pop\n      pop\n      jump\t// out\n        /* \"#utility.yul\":16527:16667   */\n    tag_212:\n        /* \"#utility.yul\":16575:16579   */\n      0x00\n        /* \"#utility.yul\":16598:16601   */\n      dup2\n        /* \"#utility.yul\":16590:16601   */\n      swap1\n      pop\n        /* \"#utility.yul\":16621:16624   */\n      dup2\n        /* \"#utility.yul\":16618:16619   */\n      0x00\n        /* \"#utility.yul\":16611:16625   */\n      mstore\n        /* \"#utility.yul\":16655:16659   */\n      0x20\n        /* \"#utility.yul\":16652:16653   */\n      0x00\n        /* \"#utility.yul\":16642:16660   */\n      keccak256\n        /* \"#utility.yul\":16634:16660   */\n      swap1\n      pop\n        /* \"#utility.yul\":16527:16667   */\n      swap2\n      swap1\n      pop\n      jump\t// out\n        /* \"#utility.yul\":16695:17536   */\n    tag_213:\n        /* \"#utility.yul\":16796:16799   */\n      0x00\n        /* \"#utility.yul\":16833:16838   */\n      dup2\n        /* \"#utility.yul\":16827:16839   */\n      sload\n        /* \"#utility.yul\":16862:16898   */\n      tag_373\n        /* \"#utility.yul\":16888:16897   */\n      dup2\n        /* \"#utility.yul\":16862:16898   */\n      tag_120\n      jump\t// in\n    tag_373:\n        /* \"#utility.yul\":16914:17002   */\n      tag_374\n        /* \"#utility.yul\":16995:17001   */\n      dup2\n        /* \"#utility.yul\":16990:16993   */\n      dup7\n        /* \"#utility.yul\":16914:17002   */\n      tag_211\n      jump\t// in\n    tag_374:\n        /* \"#utility.yul\":16907:17002   */\n      swap5\n      pop\n        /* \"#utility.yul\":17033:17034   */\n      0x01\n        /* \"#utility.yul\":17022:17031   */\n      dup3\n        /* \"#utility.yul\":17018:17035   */\n      and\n        /* \"#utility.yul\":17049:17050   */\n      0x00\n        /* \"#utility.yul\":17044:17181   */\n      dup2\n      eq\n      tag_376\n      jumpi\n        /* \"#utility.yul\":17195:17196   */\n      0x01\n        /* \"#utility.yul\":17190:17530   */\n      dup2\n      eq\n      tag_377\n      jumpi\n        /* \"#utility.yul\":17011:17530   */\n      jump(tag_375)\n        /* \"#utility.yul\":17044:17181   */\n    tag_376:\n        /* \"#utility.yul\":17128:17132   */\n      0xff\n        /* \"#utility.yul\":17124:17133   */\n      not\n        /* \"#utility.yul\":17113:17122   */\n      dup4\n        /* \"#utility.yul\":17109:17134   */\n      and\n        /* \"#utility.yul\":17104:17107   */\n      dup7\n        /* \"#utility.yul\":17097:17135   */\n      mstore\n        /* \"#utility.yul\":17164:17170   */\n      dup2\n        /* \"#utility.yul\":17159:17162   */\n      dup7\n        /* \"#utility.yul\":17155:17171   */\n      add\n        /* \"#utility.yul\":17148:17171   */\n      swap4\n      pop\n        /* \"#utility.yul\":17044:17181   */\n      jump(tag_375)\n        /* \"#utility.yul\":17190:17530   */\n    tag_377:\n        /* \"#utility.yul\":17257:17294   */\n      tag_378\n        /* \"#utility.yul\":17288:17293   */\n      dup6\n        /* \"#utility.yul\":17257:17294   */\n      tag_212\n      jump\t// in\n    tag_378:\n        /* \"#utility.yul\":17316:17317   */\n      0x00\n        /* \"#utility.yul\":17330:17484   */\n    tag_379:\n        /* \"#utility.yul\":17344:17350   */\n      dup4\n        /* \"#utility.yul\":17341:17342   */\n      dup2\n        /* \"#utility.yul\":17338:17351   */\n      lt\n        /* \"#utility.yul\":17330:17484   */\n      iszero\n      tag_381\n      jumpi\n        /* \"#utility.yul\":17418:17425   */\n      dup2\n        /* \"#utility.yul\":17412:17426   */\n      sload\n        /* \"#utility.yul\":17408:17409   */\n      dup2\n        /* \"#utility.yul\":17403:17406   */\n      dup10\n        /* \"#utility.yul\":17399:17410   */\n      add\n        /* \"#utility.yul\":17392:17427   */\n      mstore\n        /* \"#utility.yul\":17468:17469   */\n      0x01\n        /* \"#utility.yul\":17459:17466   */\n      dup3\n        /* \"#utility.yul\":17455:17470   */\n      add\n        /* \"#utility.yul\":17444:17470   */\n      swap2\n      pop\n        /* \"#utility.yul\":17366:17370   */\n      0x20\n        /* \"#utility.yul\":17363:17364   */\n      dup2\n        /* \"#utility.yul\":17359:17371   */\n      add\n        /* \"#utility.yul\":17354:17371   */\n      swap1\n      pop\n        /* \"#utility.yul\":17330:17484   */\n      jump(tag_379)\n    tag_381:\n        /* \"#utility.yul\":17513:17519   */\n      dup4\n        /* \"#utility.yul\":17508:17511   */\n      dup9\n        /* \"#utility.yul\":17504:17520   */\n      add\n        /* \"#utility.yul\":17497:17520   */\n      swap6\n      pop\n        /* \"#utility.yul\":17197:17530   */\n      pop\n      pop\n        /* \"#utility.yul\":17011:17530   */\n    tag_375:\n      pop\n        /* \"#utility.yul\":16800:17536   */\n      pop\n      pop\n        /* \"#utility.yul\":16695:17536   */\n      swap3\n      swap2\n      pop\n      pop\n      jump\t// out\n        /* \"#utility.yul\":17542:17807   */\n    tag_151:\n        /* \"#utility.yul\":17669:17672   */\n      0x00\n        /* \"#utility.yul\":17691:17781   */\n      tag_383\n        /* \"#utility.yul\":17777:17780   */\n      dup3\n        /* \"#utility.yul\":17768:17774   */\n      dup5\n        /* \"#utility.yul\":17691:17781   */\n      tag_213\n      jump\t// in\n    tag_383:\n        /* \"#utility.yul\":17684:17781   */\n      swap2\n      pop\n        /* \"#utility.yul\":17798:17801   */\n      dup2\n        /* \"#utility.yul\":17791:17801   */\n      swap1\n      pop\n        /* \"#utility.yul\":17542:17807   */\n      swap3\n      swap2\n      pop\n      pop\n      jump\t// out\n        /* \"#utility.yul\":17813:17991   */\n    tag_214:\n        /* \"#utility.yul\":17953:17983   */\n      0x5472616e73616374696f6e20657865637574696f6e206661696c656400000000\n        /* \"#utility.yul\":17949:17950   */\n      0x00\n        /* \"#utility.yul\":17941:17947   */\n      dup3\n        /* \"#utility.yul\":17937:17951   */\n      add\n        /* \"#utility.yul\":17930:17984   */\n      mstore\n        /* \"#utility.yul\":17813:17991   */\n      pop\n      jump\t// out\n        /* \"#utility.yul\":17997:18363   */\n    tag_215:\n        /* \"#utility.yul\":18139:18142   */\n      0x00\n        /* \"#utility.yul\":18160:18227   */\n      tag_386\n        /* \"#utility.yul\":18224:18226   */\n      0x1c\n        /* \"#utility.yul\":18219:18222   */\n      dup4\n        /* \"#utility.yul\":18160:18227   */\n      tag_196\n      jump\t// in\n    tag_386:\n        /* \"#utility.yul\":18153:18227   */\n      swap2\n      pop\n        /* \"#utility.yul\":18236:18329   */\n      tag_387\n        /* \"#utility.yul\":18325:18328   */\n      dup3\n        /* \"#utility.yul\":18236:18329   */\n      tag_214\n      jump\t// in\n    tag_387:\n        /* \"#utility.yul\":18354:18356   */\n      0x20\n        /* \"#utility.yul\":18349:18352   */\n      dup3\n        /* \"#utility.yul\":18345:18357   */\n      add\n        /* \"#utility.yul\":18338:18357   */\n      swap1\n      pop\n        /* \"#utility.yul\":17997:18363   */\n      swap2\n      swap1\n      pop\n      jump\t// out\n        /* \"#utility.yul\":18369:18788   */\n    tag_157:\n        /* \"#utility.yul\":18535:18539   */\n      0x00\n        /* \"#utility.yul\":18573:18575   */\n      0x20\n        /* \"#utility.yul\":18562:18571   */\n      dup3\n        /* \"#utility.yul\":18558:18576   */\n      add\n        /* \"#utility.yul\":18550:18576   */\n      swap1\n      pop\n        /* \"#utility.yul\":18622:18631   */\n      dup2\n        /* \"#utility.yul\":18616:18620   */\n      dup2\n        /* \"#utility.yul\":18612:18632   */\n      sub\n        /* \"#utility.yul\":18608:18609   */\n      0x00\n        /* \"#utility.yul\":18597:18606   */\n      dup4\n        /* \"#utility.yul\":18593:18610   */\n      add\n        /* \"#utility.yul\":18586:18633   */\n      mstore\n        /* \"#utility.yul\":18650:18781   */\n      tag_389\n        /* \"#utility.yul\":18776:18780   */\n      dup2\n        /* \"#utility.yul\":18650:18781   */\n      tag_215\n      jump\t// in\n    tag_389:\n        /* \"#utility.yul\":18642:18781   */\n      swap1\n      pop\n        /* \"#utility.yul\":18369:18788   */\n      swap2\n      swap1\n      pop\n      jump\t// out\n\n    auxdata: 0xa2646970667358221220adcc8af2ba80bf1113890ae3b4da4cba56b1851b1c75f25aaf3e341f78b763a264736f6c634300080a0033\n}\n",
				"bytecode": {
					"linkReferences": {},
					"object": "60806040523480156200001157600080fd5b50604051620021073803806200210783398181016040528101906200003791906200050e565b60008251116200007e576040517f08c379a00000000000000000000000000000000000000000000000000000000081526004016200007590620005d5565b60405180910390fd5b60008111801562000090575081518111155b620000d2576040517f08c379a0000000000000000000000000000000000000000000000000000000008152600401620000c99062000647565b60405180910390fd5b60005b8251811015620002d5576000838281518110620000f757620000f662000669565b5b60200260200101519050600073ffffffffffffffffffffffffffffffffffffffff168173ffffffffffffffffffffffffffffffffffffffff16141562000174576040517f08c379a00000000000000000000000000000000000000000000000000000000081526004016200016b90620006e8565b60405180910390fd5b600160008273ffffffffffffffffffffffffffffffffffffffff1673ffffffffffffffffffffffffffffffffffffffff16815260200190815260200160002060009054906101000a900460ff161562000204576040517f08c379a0000000000000000000000000000000000000000000000000000000008152600401620001fb906200075a565b60405180910390fd5b60018060008373ffffffffffffffffffffffffffffffffffffffff1673ffffffffffffffffffffffffffffffffffffffff16815260200190815260200160002060006101000a81548160ff0219169083151502179055506000819080600181540180825580915050600190039060005260206000200160009091909190916101000a81548173ffffffffffffffffffffffffffffffffffffffff021916908373ffffffffffffffffffffffffffffffffffffffff160217905550508080620002cc90620007ab565b915050620000d5565b50806004819055505050620007f9565b6000604051905090565b600080fd5b600080fd5b600080fd5b6000601f19601f8301169050919050565b7f4e487b7100000000000000000000000000000000000000000000000000000000600052604160045260246000fd5b6200034982620002fe565b810181811067ffffffffffffffff821117156200036b576200036a6200030f565b5b80604052505050565b600062000380620002e5565b90506200038e82826200033e565b919050565b600067ffffffffffffffff821115620003b157620003b06200030f565b5b602082029050602081019050919050565b600080fd5b600073ffffffffffffffffffffffffffffffffffffffff82169050919050565b6000620003f482620003c7565b9050919050565b6200040681620003e7565b81146200041257600080fd5b50565b6000815190506200042681620003fb565b92915050565b6000620004436200043d8462000393565b62000374565b90508083825260208201905060208402830185811115620004695762000468620003c2565b5b835b8181101562000496578062000481888262000415565b8452602084019350506020810190506200046b565b5050509392505050565b600082601f830112620004b857620004b7620002f9565b5b8151620004ca8482602086016200042c565b91505092915050565b6000819050919050565b620004e881620004d3565b8114620004f457600080fd5b50565b6000815190506200050881620004dd565b92915050565b60008060408385031215620005285762000527620002ef565b5b600083015167ffffffffffffffff811115620005495762000548620002f4565b5b6200055785828601620004a0565b92505060206200056a85828601620004f7565b9150509250929050565b600082825260208201905092915050565b7f4d7573742068617665203e31206f776e65727300000000000000000000000000600082015250565b6000620005bd60138362000574565b9150620005ca8262000585565b602082019050919050565b60006020820190508181036000830152620005f081620005ae565b9050919050565b7f496e76616c6964204e756d626572206f6620436f6e6669726d6174696f6e7300600082015250565b60006200062f601f8362000574565b91506200063c82620005f7565b602082019050919050565b60006020820190508181036000830152620006628162000620565b9050919050565b7f4e487b7100000000000000000000000000000000000000000000000000000000600052603260045260246000fd5b7f43616e742068617665205a65726f2061646472657373206173206f776e657200600082015250565b6000620006d0601f8362000574565b9150620006dd8262000698565b602082019050919050565b600060208201905081810360008301526200070381620006c1565b9050919050565b7f4475706c6963617465204f776e6572206e6f7420616c6c6f7765642100000000600082015250565b600062000742601c8362000574565b91506200074f826200070a565b602082019050919050565b60006020820190508181036000830152620007758162000733565b9050919050565b7f4e487b7100000000000000000000000000000000000000000000000000000000600052601160045260246000fd5b6000620007b882620004d3565b91507fffffffffffffffffffffffffffffffffffffffffffffffffffffffffffffffff821415620007ee57620007ed6200077c565b5b600182019050919050565b6118fe80620008096000396000f3fe60806040526004361061008a5760003560e01c80639ace38c2116100595780639ace38c2146101b25780639ba83e1b146101f3578063b032e07514610230578063c64274741461025b578063ee22610b14610284576100e1565b8063025e7c27146100e6578063242232d1146101235780632f54bf6e1461014c578063735631ad14610189576100e1565b366100e1573373ffffffffffffffffffffffffffffffffffffffff167f90890809c654f11d6e72a28fa60149770a0d11ec6c92319d6ceb2bb0a4ea1a1534476040516100d7929190610eec565b60405180910390a2005b600080fd5b3480156100f257600080fd5b5061010d60048036038101906101089190610f55565b6102ad565b60405161011a9190610fc3565b60405180910390f35b34801561012f57600080fd5b5061014a60048036038101906101459190610f55565b6102ec565b005b34801561015857600080fd5b50610173600480360381019061016e919061100a565b610592565b6040516101809190611052565b60405180910390f35b34801561019557600080fd5b506101b060048036038101906101ab9190610f55565b6105b2565b005b3480156101be57600080fd5b506101d960048036038101906101d49190610f55565b61088a565b6040516101ea959493929190611106565b60405180910390f35b3480156101ff57600080fd5b5061021a60048036038101906102159190611160565b610985565b6040516102279190611052565b60405180910390f35b34801561023c57600080fd5b506102456109b4565b60405161025291906111a0565b60405180910390f35b34801561026757600080fd5b50610282600480360381019061027d91906112f0565b6109ba565b005b34801561029057600080fd5b506102ab60048036038101906102a69190610f55565b610bc4565b005b600081815481106102bd57600080fd5b906000526020600020016000915054906101000a900473ffffffffffffffffffffffffffffffffffffffff1681565b600160003373ffffffffffffffffffffffffffffffffffffffff1673ffffffffffffffffffffffffffffffffffffffff16815260200190815260200160002060009054906101000a900460ff16610378576040517f08c379a000000000000000000000000000000000000000000000000000000000815260040161036f906113e2565b60405180910390fd5b8060038054905081106103c0576040517f08c379a00000000000000000000000000000000000000000000000000000000081526004016103b79061144e565b60405180910390fd5b81600454600382815481106103d8576103d761146e565b5b9060005260206000209060050201600401541061042a576040517f08c379a0000000000000000000000000000000000000000000000000000000008152600401610421906114e9565b60405180910390fd5b826003818154811061043f5761043e61146e565b5b906000526020600020906005020160030160009054906101000a900460ff161561049e576040517f08c379a000000000000000000000000000000000000000000000000000000000815260040161049590611555565b60405180910390fd5b6000600385815481106104b4576104b361146e565b5b906000526020600020906005020190508060040160008154809291906104d9906115a4565b919050555060016002600087815260200190815260200160002060003373ffffffffffffffffffffffffffffffffffffffff1673ffffffffffffffffffffffffffffffffffffffff16815260200190815260200160002060006101000a81548160ff021916908315150217905550843373ffffffffffffffffffffffffffffffffffffffff167fab825bb15a80ddd6248dab50c44299ab366e0658b16d6c37ceda8018f5b1adde60405160405180910390a35050505050565b60016020528060005260406000206000915054906101000a900460ff1681565b600160003373ffffffffffffffffffffffffffffffffffffffff1673ffffffffffffffffffffffffffffffffffffffff16815260200190815260200160002060009054906101000a900460ff1661063e576040517f08c379a0000000000000000000000000000000000000000000000000000000008152600401610635906113e2565b60405180910390fd5b806003805490508110610686576040517f08c379a000000000000000000000000000000000000000000000000000000000815260040161067d9061144e565b60405180910390fd5b816003818154811061069b5761069a61146e565b5b906000526020600020906005020160030160009054906101000a900460ff16156106fa576040517f08c379a00000000000000000000000000000000000000000000000000000000081526004016106f190611555565b60405180910390fd5b6002600084815260200190815260200160002060003373ffffffffffffffffffffffffffffffffffffffff1673ffffffffffffffffffffffffffffffffffffffff16815260200190815260200160002060009054906101000a900460ff16610797576040517f08c379a000000000000000000000000000000000000000000000000000000000815260040161078e9061165f565b60405180910390fd5b6000600384815481106107ad576107ac61146e565b5b906000526020600020906005020190508060040160008154809291906107d29061167f565b919050555060006002600086815260200190815260200160002060003373ffffffffffffffffffffffffffffffffffffffff1673ffffffffffffffffffffffffffffffffffffffff16815260200190815260200160002060006101000a81548160ff021916908315150217905550833373ffffffffffffffffffffffffffffffffffffffff167f713b90881ad62c4fa8ab6bd9197fa86481fc0c11b2edba60026514281b2dbac460405160405180910390a350505050565b6003818154811061089a57600080fd5b90600052602060002090600502016000915090508060000160009054906101000a900473ffffffffffffffffffffffffffffffffffffffff16908060010154908060020180546108e9906116d8565b80601f0160208091040260200160405190810160405280929190818152602001828054610915906116d8565b80156109625780601f1061093757610100808354040283529160200191610962565b820191906000526020600020905b81548152906001019060200180831161094557829003601f168201915b5050505050908060030160009054906101000a900460ff16908060040154905085565b60026020528160005260406000206020528060005260406000206000915091509054906101000a900460ff1681565b60045481565b600160003373ffffffffffffffffffffffffffffffffffffffff1673ffffffffffffffffffffffffffffffffffffffff16815260200190815260200160002060009054906101000a900460ff16610a46576040517f08c379a0000000000000000000000000000000000000000000000000000000008152600401610a3d906113e2565b60405180910390fd5b6000600380549050905060036040518060a001604052808673ffffffffffffffffffffffffffffffffffffffff1681526020018581526020018481526020016000151581526020016000815250908060018154018082558091505060019003906000526020600020906005020160009091909190915060008201518160000160006101000a81548173ffffffffffffffffffffffffffffffffffffffff021916908373ffffffffffffffffffffffffffffffffffffffff160217905550602082015181600101556040820151816002019080519060200190610b29929190610e30565b5060608201518160030160006101000a81548160ff021916908315150217905550608082015181600401555050808473ffffffffffffffffffffffffffffffffffffffff163373ffffffffffffffffffffffffffffffffffffffff167fc70c0c0ff6c60f55d0dab9fa570f029325751f9edcd8d1a8df81dc4528c5d68a8686604051610bb692919061170a565b60405180910390a450505050565b806003805490508110610c0c576040517f08c379a0000000000000000000000000000000000000000000000000000000008152600401610c039061144e565b60405180910390fd5b8160038181548110610c2157610c2061146e565b5b906000526020600020906005020160030160009054906101000a900460ff1615610c80576040517f08c379a0000000000000000000000000000000000000000000000000000000008152600401610c7790611555565b60405180910390fd5b600060038481548110610c9657610c9561146e565b5b9060005260206000209060050201905060045481600401541015610cef576040517f08c379a0000000000000000000000000000000000000000000000000000000008152600401610ce690611786565b60405180910390fd5b60018160030160006101000a81548160ff02191690831515021790555060008160000160009054906101000a900473ffffffffffffffffffffffffffffffffffffffff1673ffffffffffffffffffffffffffffffffffffffff16826001015483600201604051610d5f9190611845565b60006040518083038185875af1925050503d8060008114610d9c576040519150601f19603f3d011682016040523d82523d6000602084013e610da1565b606091505b5050905080610de5576040517f08c379a0000000000000000000000000000000000000000000000000000000008152600401610ddc906118a8565b60405180910390fd5b843373ffffffffffffffffffffffffffffffffffffffff167f6f6c6d78a4851d4c222c8404fc92372ee84b7b81054305ae8ea3c83c2dabd42e60405160405180910390a35050505050565b828054610e3c906116d8565b90600052602060002090601f016020900481019282610e5e5760008555610ea5565b82601f10610e7757805160ff1916838001178555610ea5565b82800160010185558215610ea5579182015b82811115610ea4578251825591602001919060010190610e89565b5b509050610eb29190610eb6565b5090565b5b80821115610ecf576000816000905550600101610eb7565b5090565b6000819050919050565b610ee681610ed3565b82525050565b6000604082019050610f016000830185610edd565b610f0e6020830184610edd565b9392505050565b6000604051905090565b600080fd5b600080fd5b610f3281610ed3565b8114610f3d57600080fd5b50565b600081359050610f4f81610f29565b92915050565b600060208284031215610f6b57610f6a610f1f565b5b6000610f7984828501610f40565b91505092915050565b600073ffffffffffffffffffffffffffffffffffffffff82169050919050565b6000610fad82610f82565b9050919050565b610fbd81610fa2565b82525050565b6000602082019050610fd86000830184610fb4565b92915050565b610fe781610fa2565b8114610ff257600080fd5b50565b60008135905061100481610fde565b92915050565b6000602082840312156110205761101f610f1f565b5b600061102e84828501610ff5565b91505092915050565b60008115159050919050565b61104c81611037565b82525050565b60006020820190506110676000830184611043565b92915050565b600081519050919050565b600082825260208201905092915050565b60005b838110156110a757808201518184015260208101905061108c565b838111156110b6576000848401525b50505050565b6000601f19601f8301169050919050565b60006110d88261106d565b6110e28185611078565b93506110f2818560208601611089565b6110fb816110bc565b840191505092915050565b600060a08201905061111b6000830188610fb4565b6111286020830187610edd565b818103604083015261113a81866110cd565b90506111496060830185611043565b6111566080830184610edd565b9695505050505050565b6000806040838503121561117757611176610f1f565b5b600061118585828601610f40565b925050602061119685828601610ff5565b9150509250929050565b60006020820190506111b56000830184610edd565b92915050565b600080fd5b600080fd5b7f4e487b7100000000000000000000000000000000000000000000000000000000600052604160045260246000fd5b6111fd826110bc565b810181811067ffffffffffffffff8211171561121c5761121b6111c5565b5b80604052505050565b600061122f610f15565b905061123b82826111f4565b919050565b600067ffffffffffffffff82111561125b5761125a6111c5565b5b611264826110bc565b9050602081019050919050565b82818337600083830152505050565b600061129361128e84611240565b611225565b9050828152602081018484840111156112af576112ae6111c0565b5b6112ba848285611271565b509392505050565b600082601f8301126112d7576112d66111bb565b5b81356112e7848260208601611280565b91505092915050565b60008060006060848603121561130957611308610f1f565b5b600061131786828701610ff5565b935050602061132886828701610f40565b925050604084013567ffffffffffffffff81111561134957611348610f24565b5b611355868287016112c2565b9150509250925092565b600082825260208201905092915050565b7f4f6e6c79204f776e6572732063616e2061636365737320746869732066756e6360008201527f74696f6e616c6974790000000000000000000000000000000000000000000000602082015250565b60006113cc60298361135f565b91506113d782611370565b604082019050919050565b600060208201905081810360008301526113fb816113bf565b9050919050565b7f496e76616c696420547849640000000000000000000000000000000000000000600082015250565b6000611438600c8361135f565b915061144382611402565b602082019050919050565b600060208201905081810360008301526114678161142b565b9050919050565b7f4e487b7100000000000000000000000000000000000000000000000000000000600052603260045260246000fd5b7f5472616e73616374696f6e20616c726561647920636f6e6669726d6564000000600082015250565b60006114d3601d8361135f565b91506114de8261149d565b602082019050919050565b60006020820190508181036000830152611502816114c6565b9050919050565b7f547820616c726561647920657865637574656400000000000000000000000000600082015250565b600061153f60138361135f565b915061154a82611509565b602082019050919050565b6000602082019050818103600083015261156e81611532565b9050919050565b7f4e487b7100000000000000000000000000000000000000000000000000000000600052601160045260246000fd5b60006115af82610ed3565b91507fffffffffffffffffffffffffffffffffffffffffffffffffffffffffffffffff8214156115e2576115e1611575565b5b600182019050919050565b7f4f776e657220616c72656164792068617665206e6f7420636f6e6669726d656460008201527f2074780000000000000000000000000000000000000000000000000000000000602082015250565b600061164960238361135f565b9150611654826115ed565b604082019050919050565b600060208201905081810360008301526116788161163c565b9050919050565b600061168a82610ed3565b9150600082141561169e5761169d611575565b5b600182039050919050565b7f4e487b7100000000000000000000000000000000000000000000000000000000600052602260045260246000fd5b600060028204905060018216806116f057607f821691505b60208210811415611704576117036116a9565b5b50919050565b600060408201905061171f6000830185610edd565b818103602083015261173181846110cd565b90509392505050565b7f63616e6e6f742065786563757465207478000000000000000000000000000000600082015250565b600061177060118361135f565b915061177b8261173a565b602082019050919050565b6000602082019050818103600083015261179f81611763565b9050919050565b600081905092915050565b60008190508160005260206000209050919050565b600081546117d3816116d8565b6117dd81866117a6565b945060018216600081146117f857600181146118095761183c565b60ff1983168652818601935061183c565b611812856117b1565b60005b8381101561183457815481890152600182019150602081019050611815565b838801955050505b50505092915050565b600061185182846117c6565b915081905092915050565b7f5472616e73616374696f6e20657865637574696f6e206661696c656400000000600082015250565b6000611892601c8361135f565b915061189d8261185c565b602082019050919050565b600060208201905081810360008301526118c181611885565b905091905056fea2646970667358221220adcc8af2ba80bf1113890ae3b4da4cba56b1851b1c75f25aaf3e341f78b763a264736f6c634300080a0033",
					"opcodes": "PUSH1 0x80 PUSH1 0x40 MSTORE CALLVALUE DUP1 ISZERO PUSH3 0x11 JUMPI PUSH1 0x0 DUP1 REVERT JUMPDEST POP PUSH1 0x40 MLOAD PUSH3 0x2107 CODESIZE SUB DUP1 PUSH3 0x2107 DUP4 CODECOPY DUP2 DUP2 ADD PUSH1 0x40 MSTORE DUP2 ADD SWAP1 PUSH3 0x37 SWAP2 SWAP1 PUSH3 0x50E JUMP JUMPDEST PUSH1 0x0 DUP3 MLOAD GT PUSH3 0x7E JUMPI PUSH1 0x40 MLOAD PUSH32 0x8C379A000000000000000000000000000000000000000000000000000000000 DUP2 MSTORE PUSH1 0x4 ADD PUSH3 0x75 SWAP1 PUSH3 0x5D5 JUMP JUMPDEST PUSH1 0x40 MLOAD DUP1 SWAP2 SUB SWAP1 REVERT JUMPDEST PUSH1 0x0 DUP2 GT DUP1 ISZERO PUSH3 0x90 JUMPI POP DUP2 MLOAD DUP2 GT ISZERO JUMPDEST PUSH3 0xD2 JUMPI PUSH1 0x40 MLOAD PUSH32 0x8C379A000000000000000000000000000000000000000000000000000000000 DUP2 MSTORE PUSH1 0x4 ADD PUSH3 0xC9 SWAP1 PUSH3 0x647 JUMP JUMPDEST PUSH1 0x40 MLOAD DUP1 SWAP2 SUB SWAP1 REVERT JUMPDEST PUSH1 0x0 JUMPDEST DUP3 MLOAD DUP2 LT ISZERO PUSH3 0x2D5 JUMPI PUSH1 0x0 DUP4 DUP3 DUP2 MLOAD DUP2 LT PUSH3 0xF7 JUMPI PUSH3 0xF6 PUSH3 0x669 JUMP JUMPDEST JUMPDEST PUSH1 0x20 MUL PUSH1 0x20 ADD ADD MLOAD SWAP1 POP PUSH1 0x0 PUSH20 0xFFFFFFFFFFFFFFFFFFFFFFFFFFFFFFFFFFFFFFFF AND DUP2 PUSH20 0xFFFFFFFFFFFFFFFFFFFFFFFFFFFFFFFFFFFFFFFF AND EQ ISZERO PUSH3 0x174 JUMPI PUSH1 0x40 MLOAD PUSH32 0x8C379A000000000000000000000000000000000000000000000000000000000 DUP2 MSTORE PUSH1 0x4 ADD PUSH3 0x16B SWAP1 PUSH3 0x6E8 JUMP JUMPDEST PUSH1 0x40 MLOAD DUP1 SWAP2 SUB SWAP1 REVERT JUMPDEST PUSH1 0x1 PUSH1 0x0 DUP3 PUSH20 0xFFFFFFFFFFFFFFFFFFFFFFFFFFFFFFFFFFFFFFFF AND PUSH20 0xFFFFFFFFFFFFFFFFFFFFFFFFFFFFFFFFFFFFFFFF AND DUP2 MSTORE PUSH1 0x20 ADD SWAP1 DUP2 MSTORE PUSH1 0x20 ADD PUSH1 0x0 KECCAK256 PUSH1 0x0 SWAP1 SLOAD SWAP1 PUSH2 0x100 EXP SWAP1 DIV PUSH1 0xFF AND ISZERO PUSH3 0x204 JUMPI PUSH1 0x40 MLOAD PUSH32 0x8C379A000000000000000000000000000000000000000000000000000000000 DUP2 MSTORE PUSH1 0x4 ADD PUSH3 0x1FB SWAP1 PUSH3 0x75A JUMP JUMPDEST PUSH1 0x40 MLOAD DUP1 SWAP2 SUB SWAP1 REVERT JUMPDEST PUSH1 0x1 DUP1 PUSH1 0x0 DUP4 PUSH20 0xFFFFFFFFFFFFFFFFFFFFFFFFFFFFFFFFFFFFFFFF AND PUSH20 0xFFFFFFFFFFFFFFFFFFFFFFFFFFFFFFFFFFFFFFFF AND DUP2 MSTORE PUSH1 0x20 ADD SWAP1 DUP2 MSTORE PUSH1 0x20 ADD PUSH1 0x0 KECCAK256 PUSH1 0x0 PUSH2 0x100 EXP DUP2 SLOAD DUP2 PUSH1 0xFF MUL NOT AND SWAP1 DUP4 ISZERO ISZERO MUL OR SWAP1 SSTORE POP PUSH1 0x0 DUP2 SWAP1 DUP1 PUSH1 0x1 DUP2 SLOAD ADD DUP1 DUP3 SSTORE DUP1 SWAP2 POP POP PUSH1 0x1 SWAP1 SUB SWAP1 PUSH1 0x0 MSTORE PUSH1 0x20 PUSH1 0x0 KECCAK256 ADD PUSH1 0x0 SWAP1 SWAP2 SWAP1 SWAP2 SWAP1 SWAP2 PUSH2 0x100 EXP DUP2 SLOAD DUP2 PUSH20 0xFFFFFFFFFFFFFFFFFFFFFFFFFFFFFFFFFFFFFFFF MUL NOT AND SWAP1 DUP4 PUSH20 0xFFFFFFFFFFFFFFFFFFFFFFFFFFFFFFFFFFFFFFFF AND MUL OR SWAP1 SSTORE POP POP DUP1 DUP1 PUSH3 0x2CC SWAP1 PUSH3 0x7AB JUMP JUMPDEST SWAP2 POP POP PUSH3 0xD5 JUMP JUMPDEST POP DUP1 PUSH1 0x4 DUP2 SWAP1 SSTORE POP POP POP PUSH3 0x7F9 JUMP JUMPDEST PUSH1 0x0 PUSH1 0x40 MLOAD SWAP1 POP SWAP1 JUMP JUMPDEST PUSH1 0x0 DUP1 REVERT JUMPDEST PUSH1 0x0 DUP1 REVERT JUMPDEST PUSH1 0x0 DUP1 REVERT JUMPDEST PUSH1 0x0 PUSH1 0x1F NOT PUSH1 0x1F DUP4 ADD AND SWAP1 POP SWAP2 SWAP1 POP JUMP JUMPDEST PUSH32 0x4E487B7100000000000000000000000000000000000000000000000000000000 PUSH1 0x0 MSTORE PUSH1 0x41 PUSH1 0x4 MSTORE PUSH1 0x24 PUSH1 0x0 REVERT JUMPDEST PUSH3 0x349 DUP3 PUSH3 0x2FE JUMP JUMPDEST DUP2 ADD DUP2 DUP2 LT PUSH8 0xFFFFFFFFFFFFFFFF DUP3 GT OR ISZERO PUSH3 0x36B JUMPI PUSH3 0x36A PUSH3 0x30F JUMP JUMPDEST JUMPDEST DUP1 PUSH1 0x40 MSTORE POP POP POP JUMP JUMPDEST PUSH1 0x0 PUSH3 0x380 PUSH3 0x2E5 JUMP JUMPDEST SWAP1 POP PUSH3 0x38E DUP3 DUP3 PUSH3 0x33E JUMP JUMPDEST SWAP2 SWAP1 POP JUMP JUMPDEST PUSH1 0x0 PUSH8 0xFFFFFFFFFFFFFFFF DUP3 GT ISZERO PUSH3 0x3B1 JUMPI PUSH3 0x3B0 PUSH3 0x30F JUMP JUMPDEST JUMPDEST PUSH1 0x20 DUP3 MUL SWAP1 POP PUSH1 0x20 DUP2 ADD SWAP1 POP SWAP2 SWAP1 POP JUMP JUMPDEST PUSH1 0x0 DUP1 REVERT JUMPDEST PUSH1 0x0 PUSH20 0xFFFFFFFFFFFFFFFFFFFFFFFFFFFFFFFFFFFFFFFF DUP3 AND SWAP1 POP SWAP2 SWAP1 POP JUMP JUMPDEST PUSH1 0x0 PUSH3 0x3F4 DUP3 PUSH3 0x3C7 JUMP JUMPDEST SWAP1 POP SWAP2 SWAP1 POP JUMP JUMPDEST PUSH3 0x406 DUP2 PUSH3 0x3E7 JUMP JUMPDEST DUP2 EQ PUSH3 0x412 JUMPI PUSH1 0x0 DUP1 REVERT JUMPDEST POP JUMP JUMPDEST PUSH1 0x0 DUP2 MLOAD SWAP1 POP PUSH3 0x426 DUP2 PUSH3 0x3FB JUMP JUMPDEST SWAP3 SWAP2 POP POP JUMP JUMPDEST PUSH1 0x0 PUSH3 0x443 PUSH3 0x43D DUP5 PUSH3 0x393 JUMP JUMPDEST PUSH3 0x374 JUMP JUMPDEST SWAP1 POP DUP1 DUP4 DUP3 MSTORE PUSH1 0x20 DUP3 ADD SWAP1 POP PUSH1 0x20 DUP5 MUL DUP4 ADD DUP6 DUP2 GT ISZERO PUSH3 0x469 JUMPI PUSH3 0x468 PUSH3 0x3C2 JUMP JUMPDEST JUMPDEST DUP4 JUMPDEST DUP2 DUP2 LT ISZERO PUSH3 0x496 JUMPI DUP1 PUSH3 0x481 DUP9 DUP3 PUSH3 0x415 JUMP JUMPDEST DUP5 MSTORE PUSH1 0x20 DUP5 ADD SWAP4 POP POP PUSH1 0x20 DUP2 ADD SWAP1 POP PUSH3 0x46B JUMP JUMPDEST POP POP POP SWAP4 SWAP3 POP POP POP JUMP JUMPDEST PUSH1 0x0 DUP3 PUSH1 0x1F DUP4 ADD SLT PUSH3 0x4B8 JUMPI PUSH3 0x4B7 PUSH3 0x2F9 JUMP JUMPDEST JUMPDEST DUP2 MLOAD PUSH3 0x4CA DUP5 DUP3 PUSH1 0x20 DUP7 ADD PUSH3 0x42C JUMP JUMPDEST SWAP2 POP POP SWAP3 SWAP2 POP POP JUMP JUMPDEST PUSH1 0x0 DUP2 SWAP1 POP SWAP2 SWAP1 POP JUMP JUMPDEST PUSH3 0x4E8 DUP2 PUSH3 0x4D3 JUMP JUMPDEST DUP2 EQ PUSH3 0x4F4 JUMPI PUSH1 0x0 DUP1 REVERT JUMPDEST POP JUMP JUMPDEST PUSH1 0x0 DUP2 MLOAD SWAP1 POP PUSH3 0x508 DUP2 PUSH3 0x4DD JUMP JUMPDEST SWAP3 SWAP2 POP POP JUMP JUMPDEST PUSH1 0x0 DUP1 PUSH1 0x40 DUP4 DUP6 SUB SLT ISZERO PUSH3 0x528 JUMPI PUSH3 0x527 PUSH3 0x2EF JUMP JUMPDEST JUMPDEST PUSH1 0x0 DUP4 ADD MLOAD PUSH8 0xFFFFFFFFFFFFFFFF DUP2 GT ISZERO PUSH3 0x549 JUMPI PUSH3 0x548 PUSH3 0x2F4 JUMP JUMPDEST JUMPDEST PUSH3 0x557 DUP6 DUP3 DUP7 ADD PUSH3 0x4A0 JUMP JUMPDEST SWAP3 POP POP PUSH1 0x20 PUSH3 0x56A DUP6 DUP3 DUP7 ADD PUSH3 0x4F7 JUMP JUMPDEST SWAP2 POP POP SWAP3 POP SWAP3 SWAP1 POP JUMP JUMPDEST PUSH1 0x0 DUP3 DUP3 MSTORE PUSH1 0x20 DUP3 ADD SWAP1 POP SWAP3 SWAP2 POP POP JUMP JUMPDEST PUSH32 0x4D7573742068617665203E31206F776E65727300000000000000000000000000 PUSH1 0x0 DUP3 ADD MSTORE POP JUMP JUMPDEST PUSH1 0x0 PUSH3 0x5BD PUSH1 0x13 DUP4 PUSH3 0x574 JUMP JUMPDEST SWAP2 POP PUSH3 0x5CA DUP3 PUSH3 0x585 JUMP JUMPDEST PUSH1 0x20 DUP3 ADD SWAP1 POP SWAP2 SWAP1 POP JUMP JUMPDEST PUSH1 0x0 PUSH1 0x20 DUP3 ADD SWAP1 POP DUP2 DUP2 SUB PUSH1 0x0 DUP4 ADD MSTORE PUSH3 0x5F0 DUP2 PUSH3 0x5AE JUMP JUMPDEST SWAP1 POP SWAP2 SWAP1 POP JUMP JUMPDEST PUSH32 0x496E76616C6964204E756D626572206F6620436F6E6669726D6174696F6E7300 PUSH1 0x0 DUP3 ADD MSTORE POP JUMP JUMPDEST PUSH1 0x0 PUSH3 0x62F PUSH1 0x1F DUP4 PUSH3 0x574 JUMP JUMPDEST SWAP2 POP PUSH3 0x63C DUP3 PUSH3 0x5F7 JUMP JUMPDEST PUSH1 0x20 DUP3 ADD SWAP1 POP SWAP2 SWAP1 POP JUMP JUMPDEST PUSH1 0x0 PUSH1 0x20 DUP3 ADD SWAP1 POP DUP2 DUP2 SUB PUSH1 0x0 DUP4 ADD MSTORE PUSH3 0x662 DUP2 PUSH3 0x620 JUMP JUMPDEST SWAP1 POP SWAP2 SWAP1 POP JUMP JUMPDEST PUSH32 0x4E487B7100000000000000000000000000000000000000000000000000000000 PUSH1 0x0 MSTORE PUSH1 0x32 PUSH1 0x4 MSTORE PUSH1 0x24 PUSH1 0x0 REVERT JUMPDEST PUSH32 0x43616E742068617665205A65726F2061646472657373206173206F776E657200 PUSH1 0x0 DUP3 ADD MSTORE POP JUMP JUMPDEST PUSH1 0x0 PUSH3 0x6D0 PUSH1 0x1F DUP4 PUSH3 0x574 JUMP JUMPDEST SWAP2 POP PUSH3 0x6DD DUP3 PUSH3 0x698 JUMP JUMPDEST PUSH1 0x20 DUP3 ADD SWAP1 POP SWAP2 SWAP1 POP JUMP JUMPDEST PUSH1 0x0 PUSH1 0x20 DUP3 ADD SWAP1 POP DUP2 DUP2 SUB PUSH1 0x0 DUP4 ADD MSTORE PUSH3 0x703 DUP2 PUSH3 0x6C1 JUMP JUMPDEST SWAP1 POP SWAP2 SWAP1 POP JUMP JUMPDEST PUSH32 0x4475706C6963617465204F776E6572206E6F7420616C6C6F7765642100000000 PUSH1 0x0 DUP3 ADD MSTORE POP JUMP JUMPDEST PUSH1 0x0 PUSH3 0x742 PUSH1 0x1C DUP4 PUSH3 0x574 JUMP JUMPDEST SWAP2 POP PUSH3 0x74F DUP3 PUSH3 0x70A JUMP JUMPDEST PUSH1 0x20 DUP3 ADD SWAP1 POP SWAP2 SWAP1 POP JUMP JUMPDEST PUSH1 0x0 PUSH1 0x20 DUP3 ADD SWAP1 POP DUP2 DUP2 SUB PUSH1 0x0 DUP4 ADD MSTORE PUSH3 0x775 DUP2 PUSH3 0x733 JUMP JUMPDEST SWAP1 POP SWAP2 SWAP1 POP JUMP JUMPDEST PUSH32 0x4E487B7100000000000000000000000000000000000000000000000000000000 PUSH1 0x0 MSTORE PUSH1 0x11 PUSH1 0x4 MSTORE PUSH1 0x24 PUSH1 0x0 REVERT JUMPDEST PUSH1 0x0 PUSH3 0x7B8 DUP3 PUSH3 0x4D3 JUMP JUMPDEST SWAP2 POP PUSH32 0xFFFFFFFFFFFFFFFFFFFFFFFFFFFFFFFFFFFFFFFFFFFFFFFFFFFFFFFFFFFFFFFF DUP3 EQ ISZERO PUSH3 0x7EE JUMPI PUSH3 0x7ED PUSH3 0x77C JUMP JUMPDEST JUMPDEST PUSH1 0x1 DUP3 ADD SWAP1 POP SWAP2 SWAP1 POP JUMP JUMPDEST PUSH2 0x18FE DUP1 PUSH3 0x809 PUSH1 0x0 CODECOPY PUSH1 0x0 RETURN INVALID PUSH1 0x80 PUSH1 0x40 MSTORE PUSH1 0x4 CALLDATASIZE LT PUSH2 0x8A JUMPI PUSH1 0x0 CALLDATALOAD PUSH1 0xE0 SHR DUP1 PUSH4 0x9ACE38C2 GT PUSH2 0x59 JUMPI DUP1 PUSH4 0x9ACE38C2 EQ PUSH2 0x1B2 JUMPI DUP1 PUSH4 0x9BA83E1B EQ PUSH2 0x1F3 JUMPI DUP1 PUSH4 0xB032E075 EQ PUSH2 0x230 JUMPI DUP1 PUSH4 0xC6427474 EQ PUSH2 0x25B JUMPI DUP1 PUSH4 0xEE22610B EQ PUSH2 0x284 JUMPI PUSH2 0xE1 JUMP JUMPDEST DUP1 PUSH4 0x25E7C27 EQ PUSH2 0xE6 JUMPI DUP1 PUSH4 0x242232D1 EQ PUSH2 0x123 JUMPI DUP1 PUSH4 0x2F54BF6E EQ PUSH2 0x14C JUMPI DUP1 PUSH4 0x735631AD EQ PUSH2 0x189 JUMPI PUSH2 0xE1 JUMP JUMPDEST CALLDATASIZE PUSH2 0xE1 JUMPI CALLER PUSH20 0xFFFFFFFFFFFFFFFFFFFFFFFFFFFFFFFFFFFFFFFF AND PUSH32 0x90890809C654F11D6E72A28FA60149770A0D11EC6C92319D6CEB2BB0A4EA1A15 CALLVALUE SELFBALANCE PUSH1 0x40 MLOAD PUSH2 0xD7 SWAP3 SWAP2 SWAP1 PUSH2 0xEEC JUMP JUMPDEST PUSH1 0x40 MLOAD DUP1 SWAP2 SUB SWAP1 LOG2 STOP JUMPDEST PUSH1 0x0 DUP1 REVERT JUMPDEST CALLVALUE DUP1 ISZERO PUSH2 0xF2 JUMPI PUSH1 0x0 DUP1 REVERT JUMPDEST POP PUSH2 0x10D PUSH1 0x4 DUP1 CALLDATASIZE SUB DUP2 ADD SWAP1 PUSH2 0x108 SWAP2 SWAP1 PUSH2 0xF55 JUMP JUMPDEST PUSH2 0x2AD JUMP JUMPDEST PUSH1 0x40 MLOAD PUSH2 0x11A SWAP2 SWAP1 PUSH2 0xFC3 JUMP JUMPDEST PUSH1 0x40 MLOAD DUP1 SWAP2 SUB SWAP1 RETURN JUMPDEST CALLVALUE DUP1 ISZERO PUSH2 0x12F JUMPI PUSH1 0x0 DUP1 REVERT JUMPDEST POP PUSH2 0x14A PUSH1 0x4 DUP1 CALLDATASIZE SUB DUP2 ADD SWAP1 PUSH2 0x145 SWAP2 SWAP1 PUSH2 0xF55 JUMP JUMPDEST PUSH2 0x2EC JUMP JUMPDEST STOP JUMPDEST CALLVALUE DUP1 ISZERO PUSH2 0x158 JUMPI PUSH1 0x0 DUP1 REVERT JUMPDEST POP PUSH2 0x173 PUSH1 0x4 DUP1 CALLDATASIZE SUB DUP2 ADD SWAP1 PUSH2 0x16E SWAP2 SWAP1 PUSH2 0x100A JUMP JUMPDEST PUSH2 0x592 JUMP JUMPDEST PUSH1 0x40 MLOAD PUSH2 0x180 SWAP2 SWAP1 PUSH2 0x1052 JUMP JUMPDEST PUSH1 0x40 MLOAD DUP1 SWAP2 SUB SWAP1 RETURN JUMPDEST CALLVALUE DUP1 ISZERO PUSH2 0x195 JUMPI PUSH1 0x0 DUP1 REVERT JUMPDEST POP PUSH2 0x1B0 PUSH1 0x4 DUP1 CALLDATASIZE SUB DUP2 ADD SWAP1 PUSH2 0x1AB SWAP2 SWAP1 PUSH2 0xF55 JUMP JUMPDEST PUSH2 0x5B2 JUMP JUMPDEST STOP JUMPDEST CALLVALUE DUP1 ISZERO PUSH2 0x1BE JUMPI PUSH1 0x0 DUP1 REVERT JUMPDEST POP PUSH2 0x1D9 PUSH1 0x4 DUP1 CALLDATASIZE SUB DUP2 ADD SWAP1 PUSH2 0x1D4 SWAP2 SWAP1 PUSH2 0xF55 JUMP JUMPDEST PUSH2 0x88A JUMP JUMPDEST PUSH1 0x40 MLOAD PUSH2 0x1EA SWAP6 SWAP5 SWAP4 SWAP3 SWAP2 SWAP1 PUSH2 0x1106 JUMP JUMPDEST PUSH1 0x40 MLOAD DUP1 SWAP2 SUB SWAP1 RETURN JUMPDEST CALLVALUE DUP1 ISZERO PUSH2 0x1FF JUMPI PUSH1 0x0 DUP1 REVERT JUMPDEST POP PUSH2 0x21A PUSH1 0x4 DUP1 CALLDATASIZE SUB DUP2 ADD SWAP1 PUSH2 0x215 SWAP2 SWAP1 PUSH2 0x1160 JUMP JUMPDEST PUSH2 0x985 JUMP JUMPDEST PUSH1 0x40 MLOAD PUSH2 0x227 SWAP2 SWAP1 PUSH2 0x1052 JUMP JUMPDEST PUSH1 0x40 MLOAD DUP1 SWAP2 SUB SWAP1 RETURN JUMPDEST CALLVALUE DUP1 ISZERO PUSH2 0x23C JUMPI PUSH1 0x0 DUP1 REVERT JUMPDEST POP PUSH2 0x245 PUSH2 0x9B4 JUMP JUMPDEST PUSH1 0x40 MLOAD PUSH2 0x252 SWAP2 SWAP1 PUSH2 0x11A0 JUMP JUMPDEST PUSH1 0x40 MLOAD DUP1 SWAP2 SUB SWAP1 RETURN JUMPDEST CALLVALUE DUP1 ISZERO PUSH2 0x267 JUMPI PUSH1 0x0 DUP1 REVERT JUMPDEST POP PUSH2 0x282 PUSH1 0x4 DUP1 CALLDATASIZE SUB DUP2 ADD SWAP1 PUSH2 0x27D SWAP2 SWAP1 PUSH2 0x12F0 JUMP JUMPDEST PUSH2 0x9BA JUMP JUMPDEST STOP JUMPDEST CALLVALUE DUP1 ISZERO PUSH2 0x290 JUMPI PUSH1 0x0 DUP1 REVERT JUMPDEST POP PUSH2 0x2AB PUSH1 0x4 DUP1 CALLDATASIZE SUB DUP2 ADD SWAP1 PUSH2 0x2A6 SWAP2 SWAP1 PUSH2 0xF55 JUMP JUMPDEST PUSH2 0xBC4 JUMP JUMPDEST STOP JUMPDEST PUSH1 0x0 DUP2 DUP2 SLOAD DUP2 LT PUSH2 0x2BD JUMPI PUSH1 0x0 DUP1 REVERT JUMPDEST SWAP1 PUSH1 0x0 MSTORE PUSH1 0x20 PUSH1 0x0 KECCAK256 ADD PUSH1 0x0 SWAP2 POP SLOAD SWAP1 PUSH2 0x100 EXP SWAP1 DIV PUSH20 0xFFFFFFFFFFFFFFFFFFFFFFFFFFFFFFFFFFFFFFFF AND DUP2 JUMP JUMPDEST PUSH1 0x1 PUSH1 0x0 CALLER PUSH20 0xFFFFFFFFFFFFFFFFFFFFFFFFFFFFFFFFFFFFFFFF AND PUSH20 0xFFFFFFFFFFFFFFFFFFFFFFFFFFFFFFFFFFFFFFFF AND DUP2 MSTORE PUSH1 0x20 ADD SWAP1 DUP2 MSTORE PUSH1 0x20 ADD PUSH1 0x0 KECCAK256 PUSH1 0x0 SWAP1 SLOAD SWAP1 PUSH2 0x100 EXP SWAP1 DIV PUSH1 0xFF AND PUSH2 0x378 JUMPI PUSH1 0x40 MLOAD PUSH32 0x8C379A000000000000000000000000000000000000000000000000000000000 DUP2 MSTORE PUSH1 0x4 ADD PUSH2 0x36F SWAP1 PUSH2 0x13E2 JUMP JUMPDEST PUSH1 0x40 MLOAD DUP1 SWAP2 SUB SWAP1 REVERT JUMPDEST DUP1 PUSH1 0x3 DUP1 SLOAD SWAP1 POP DUP2 LT PUSH2 0x3C0 JUMPI PUSH1 0x40 MLOAD PUSH32 0x8C379A000000000000000000000000000000000000000000000000000000000 DUP2 MSTORE PUSH1 0x4 ADD PUSH2 0x3B7 SWAP1 PUSH2 0x144E JUMP JUMPDEST PUSH1 0x40 MLOAD DUP1 SWAP2 SUB SWAP1 REVERT JUMPDEST DUP2 PUSH1 0x4 SLOAD PUSH1 0x3 DUP3 DUP2 SLOAD DUP2 LT PUSH2 0x3D8 JUMPI PUSH2 0x3D7 PUSH2 0x146E JUMP JUMPDEST JUMPDEST SWAP1 PUSH1 0x0 MSTORE PUSH1 0x20 PUSH1 0x0 KECCAK256 SWAP1 PUSH1 0x5 MUL ADD PUSH1 0x4 ADD SLOAD LT PUSH2 0x42A JUMPI PUSH1 0x40 MLOAD PUSH32 0x8C379A000000000000000000000000000000000000000000000000000000000 DUP2 MSTORE PUSH1 0x4 ADD PUSH2 0x421 SWAP1 PUSH2 0x14E9 JUMP JUMPDEST PUSH1 0x40 MLOAD DUP1 SWAP2 SUB SWAP1 REVERT JUMPDEST DUP3 PUSH1 0x3 DUP2 DUP2 SLOAD DUP2 LT PUSH2 0x43F JUMPI PUSH2 0x43E PUSH2 0x146E JUMP JUMPDEST JUMPDEST SWAP1 PUSH1 0x0 MSTORE PUSH1 0x20 PUSH1 0x0 KECCAK256 SWAP1 PUSH1 0x5 MUL ADD PUSH1 0x3 ADD PUSH1 0x0 SWAP1 SLOAD SWAP1 PUSH2 0x100 EXP SWAP1 DIV PUSH1 0xFF AND ISZERO PUSH2 0x49E JUMPI PUSH1 0x40 MLOAD PUSH32 0x8C379A000000000000000000000000000000000000000000000000000000000 DUP2 MSTORE PUSH1 0x4 ADD PUSH2 0x495 SWAP1 PUSH2 0x1555 JUMP JUMPDEST PUSH1 0x40 MLOAD DUP1 SWAP2 SUB SWAP1 REVERT JUMPDEST PUSH1 0x0 PUSH1 0x3 DUP6 DUP2 SLOAD DUP2 LT PUSH2 0x4B4 JUMPI PUSH2 0x4B3 PUSH2 0x146E JUMP JUMPDEST JUMPDEST SWAP1 PUSH1 0x0 MSTORE PUSH1 0x20 PUSH1 0x0 KECCAK256 SWAP1 PUSH1 0x5 MUL ADD SWAP1 POP DUP1 PUSH1 0x4 ADD PUSH1 0x0 DUP2 SLOAD DUP1 SWAP3 SWAP2 SWAP1 PUSH2 0x4D9 SWAP1 PUSH2 0x15A4 JUMP JUMPDEST SWAP2 SWAP1 POP SSTORE POP PUSH1 0x1 PUSH1 0x2 PUSH1 0x0 DUP8 DUP2 MSTORE PUSH1 0x20 ADD SWAP1 DUP2 MSTORE PUSH1 0x20 ADD PUSH1 0x0 KECCAK256 PUSH1 0x0 CALLER PUSH20 0xFFFFFFFFFFFFFFFFFFFFFFFFFFFFFFFFFFFFFFFF AND PUSH20 0xFFFFFFFFFFFFFFFFFFFFFFFFFFFFFFFFFFFFFFFF AND DUP2 MSTORE PUSH1 0x20 ADD SWAP1 DUP2 MSTORE PUSH1 0x20 ADD PUSH1 0x0 KECCAK256 PUSH1 0x0 PUSH2 0x100 EXP DUP2 SLOAD DUP2 PUSH1 0xFF MUL NOT AND SWAP1 DUP4 ISZERO ISZERO MUL OR SWAP1 SSTORE POP DUP5 CALLER PUSH20 0xFFFFFFFFFFFFFFFFFFFFFFFFFFFFFFFFFFFFFFFF AND PUSH32 0xAB825BB15A80DDD6248DAB50C44299AB366E0658B16D6C37CEDA8018F5B1ADDE PUSH1 0x40 MLOAD PUSH1 0x40 MLOAD DUP1 SWAP2 SUB SWAP1 LOG3 POP POP POP POP POP JUMP JUMPDEST PUSH1 0x1 PUSH1 0x20 MSTORE DUP1 PUSH1 0x0 MSTORE PUSH1 0x40 PUSH1 0x0 KECCAK256 PUSH1 0x0 SWAP2 POP SLOAD SWAP1 PUSH2 0x100 EXP SWAP1 DIV PUSH1 0xFF AND DUP2 JUMP JUMPDEST PUSH1 0x1 PUSH1 0x0 CALLER PUSH20 0xFFFFFFFFFFFFFFFFFFFFFFFFFFFFFFFFFFFFFFFF AND PUSH20 0xFFFFFFFFFFFFFFFFFFFFFFFFFFFFFFFFFFFFFFFF AND DUP2 MSTORE PUSH1 0x20 ADD SWAP1 DUP2 MSTORE PUSH1 0x20 ADD PUSH1 0x0 KECCAK256 PUSH1 0x0 SWAP1 SLOAD SWAP1 PUSH2 0x100 EXP SWAP1 DIV PUSH1 0xFF AND PUSH2 0x63E JUMPI PUSH1 0x40 MLOAD PUSH32 0x8C379A000000000000000000000000000000000000000000000000000000000 DUP2 MSTORE PUSH1 0x4 ADD PUSH2 0x635 SWAP1 PUSH2 0x13E2 JUMP JUMPDEST PUSH1 0x40 MLOAD DUP1 SWAP2 SUB SWAP1 REVERT JUMPDEST DUP1 PUSH1 0x3 DUP1 SLOAD SWAP1 POP DUP2 LT PUSH2 0x686 JUMPI PUSH1 0x40 MLOAD PUSH32 0x8C379A000000000000000000000000000000000000000000000000000000000 DUP2 MSTORE PUSH1 0x4 ADD PUSH2 0x67D SWAP1 PUSH2 0x144E JUMP JUMPDEST PUSH1 0x40 MLOAD DUP1 SWAP2 SUB SWAP1 REVERT JUMPDEST DUP2 PUSH1 0x3 DUP2 DUP2 SLOAD DUP2 LT PUSH2 0x69B JUMPI PUSH2 0x69A PUSH2 0x146E JUMP JUMPDEST JUMPDEST SWAP1 PUSH1 0x0 MSTORE PUSH1 0x20 PUSH1 0x0 KECCAK256 SWAP1 PUSH1 0x5 MUL ADD PUSH1 0x3 ADD PUSH1 0x0 SWAP1 SLOAD SWAP1 PUSH2 0x100 EXP SWAP1 DIV PUSH1 0xFF AND ISZERO PUSH2 0x6FA JUMPI PUSH1 0x40 MLOAD PUSH32 0x8C379A000000000000000000000000000000000000000000000000000000000 DUP2 MSTORE PUSH1 0x4 ADD PUSH2 0x6F1 SWAP1 PUSH2 0x1555 JUMP JUMPDEST PUSH1 0x40 MLOAD DUP1 SWAP2 SUB SWAP1 REVERT JUMPDEST PUSH1 0x2 PUSH1 0x0 DUP5 DUP2 MSTORE PUSH1 0x20 ADD SWAP1 DUP2 MSTORE PUSH1 0x20 ADD PUSH1 0x0 KECCAK256 PUSH1 0x0 CALLER PUSH20 0xFFFFFFFFFFFFFFFFFFFFFFFFFFFFFFFFFFFFFFFF AND PUSH20 0xFFFFFFFFFFFFFFFFFFFFFFFFFFFFFFFFFFFFFFFF AND DUP2 MSTORE PUSH1 0x20 ADD SWAP1 DUP2 MSTORE PUSH1 0x20 ADD PUSH1 0x0 KECCAK256 PUSH1 0x0 SWAP1 SLOAD SWAP1 PUSH2 0x100 EXP SWAP1 DIV PUSH1 0xFF AND PUSH2 0x797 JUMPI PUSH1 0x40 MLOAD PUSH32 0x8C379A000000000000000000000000000000000000000000000000000000000 DUP2 MSTORE PUSH1 0x4 ADD PUSH2 0x78E SWAP1 PUSH2 0x165F JUMP JUMPDEST PUSH1 0x40 MLOAD DUP1 SWAP2 SUB SWAP1 REVERT JUMPDEST PUSH1 0x0 PUSH1 0x3 DUP5 DUP2 SLOAD DUP2 LT PUSH2 0x7AD JUMPI PUSH2 0x7AC PUSH2 0x146E JUMP JUMPDEST JUMPDEST SWAP1 PUSH1 0x0 MSTORE PUSH1 0x20 PUSH1 0x0 KECCAK256 SWAP1 PUSH1 0x5 MUL ADD SWAP1 POP DUP1 PUSH1 0x4 ADD PUSH1 0x0 DUP2 SLOAD DUP1 SWAP3 SWAP2 SWAP1 PUSH2 0x7D2 SWAP1 PUSH2 0x167F JUMP JUMPDEST SWAP2 SWAP1 POP SSTORE POP PUSH1 0x0 PUSH1 0x2 PUSH1 0x0 DUP7 DUP2 MSTORE PUSH1 0x20 ADD SWAP1 DUP2 MSTORE PUSH1 0x20 ADD PUSH1 0x0 KECCAK256 PUSH1 0x0 CALLER PUSH20 0xFFFFFFFFFFFFFFFFFFFFFFFFFFFFFFFFFFFFFFFF AND PUSH20 0xFFFFFFFFFFFFFFFFFFFFFFFFFFFFFFFFFFFFFFFF AND DUP2 MSTORE PUSH1 0x20 ADD SWAP1 DUP2 MSTORE PUSH1 0x20 ADD PUSH1 0x0 KECCAK256 PUSH1 0x0 PUSH2 0x100 EXP DUP2 SLOAD DUP2 PUSH1 0xFF MUL NOT AND SWAP1 DUP4 ISZERO ISZERO MUL OR SWAP1 SSTORE POP DUP4 CALLER PUSH20 0xFFFFFFFFFFFFFFFFFFFFFFFFFFFFFFFFFFFFFFFF AND PUSH32 0x713B90881AD62C4FA8AB6BD9197FA86481FC0C11B2EDBA60026514281B2DBAC4 PUSH1 0x40 MLOAD PUSH1 0x40 MLOAD DUP1 SWAP2 SUB SWAP1 LOG3 POP POP POP POP JUMP JUMPDEST PUSH1 0x3 DUP2 DUP2 SLOAD DUP2 LT PUSH2 0x89A JUMPI PUSH1 0x0 DUP1 REVERT JUMPDEST SWAP1 PUSH1 0x0 MSTORE PUSH1 0x20 PUSH1 0x0 KECCAK256 SWAP1 PUSH1 0x5 MUL ADD PUSH1 0x0 SWAP2 POP SWAP1 POP DUP1 PUSH1 0x0 ADD PUSH1 0x0 SWAP1 SLOAD SWAP1 PUSH2 0x100 EXP SWAP1 DIV PUSH20 0xFFFFFFFFFFFFFFFFFFFFFFFFFFFFFFFFFFFFFFFF AND SWAP1 DUP1 PUSH1 0x1 ADD SLOAD SWAP1 DUP1 PUSH1 0x2 ADD DUP1 SLOAD PUSH2 0x8E9 SWAP1 PUSH2 0x16D8 JUMP JUMPDEST DUP1 PUSH1 0x1F ADD PUSH1 0x20 DUP1 SWAP2 DIV MUL PUSH1 0x20 ADD PUSH1 0x40 MLOAD SWAP1 DUP2 ADD PUSH1 0x40 MSTORE DUP1 SWAP3 SWAP2 SWAP1 DUP2 DUP2 MSTORE PUSH1 0x20 ADD DUP3 DUP1 SLOAD PUSH2 0x915 SWAP1 PUSH2 0x16D8 JUMP JUMPDEST DUP1 ISZERO PUSH2 0x962 JUMPI DUP1 PUSH1 0x1F LT PUSH2 0x937 JUMPI PUSH2 0x100 DUP1 DUP4 SLOAD DIV MUL DUP4 MSTORE SWAP2 PUSH1 0x20 ADD SWAP2 PUSH2 0x962 JUMP JUMPDEST DUP3 ADD SWAP2 SWAP1 PUSH1 0x0 MSTORE PUSH1 0x20 PUSH1 0x0 KECCAK256 SWAP1 JUMPDEST DUP2 SLOAD DUP2 MSTORE SWAP1 PUSH1 0x1 ADD SWAP1 PUSH1 0x20 ADD DUP1 DUP4 GT PUSH2 0x945 JUMPI DUP3 SWAP1 SUB PUSH1 0x1F AND DUP3 ADD SWAP2 JUMPDEST POP POP POP POP POP SWAP1 DUP1 PUSH1 0x3 ADD PUSH1 0x0 SWAP1 SLOAD SWAP1 PUSH2 0x100 EXP SWAP1 DIV PUSH1 0xFF AND SWAP1 DUP1 PUSH1 0x4 ADD SLOAD SWAP1 POP DUP6 JUMP JUMPDEST PUSH1 0x2 PUSH1 0x20 MSTORE DUP2 PUSH1 0x0 MSTORE PUSH1 0x40 PUSH1 0x0 KECCAK256 PUSH1 0x20 MSTORE DUP1 PUSH1 0x0 MSTORE PUSH1 0x40 PUSH1 0x0 KECCAK256 PUSH1 0x0 SWAP2 POP SWAP2 POP SWAP1 SLOAD SWAP1 PUSH2 0x100 EXP SWAP1 DIV PUSH1 0xFF AND DUP2 JUMP JUMPDEST PUSH1 0x4 SLOAD DUP2 JUMP JUMPDEST PUSH1 0x1 PUSH1 0x0 CALLER PUSH20 0xFFFFFFFFFFFFFFFFFFFFFFFFFFFFFFFFFFFFFFFF AND PUSH20 0xFFFFFFFFFFFFFFFFFFFFFFFFFFFFFFFFFFFFFFFF AND DUP2 MSTORE PUSH1 0x20 ADD SWAP1 DUP2 MSTORE PUSH1 0x20 ADD PUSH1 0x0 KECCAK256 PUSH1 0x0 SWAP1 SLOAD SWAP1 PUSH2 0x100 EXP SWAP1 DIV PUSH1 0xFF AND PUSH2 0xA46 JUMPI PUSH1 0x40 MLOAD PUSH32 0x8C379A000000000000000000000000000000000000000000000000000000000 DUP2 MSTORE PUSH1 0x4 ADD PUSH2 0xA3D SWAP1 PUSH2 0x13E2 JUMP JUMPDEST PUSH1 0x40 MLOAD DUP1 SWAP2 SUB SWAP1 REVERT JUMPDEST PUSH1 0x0 PUSH1 0x3 DUP1 SLOAD SWAP1 POP SWAP1 POP PUSH1 0x3 PUSH1 0x40 MLOAD DUP1 PUSH1 0xA0 ADD PUSH1 0x40 MSTORE DUP1 DUP7 PUSH20 0xFFFFFFFFFFFFFFFFFFFFFFFFFFFFFFFFFFFFFFFF AND DUP2 MSTORE PUSH1 0x20 ADD DUP6 DUP2 MSTORE PUSH1 0x20 ADD DUP5 DUP2 MSTORE PUSH1 0x20 ADD PUSH1 0x0 ISZERO ISZERO DUP2 MSTORE PUSH1 0x20 ADD PUSH1 0x0 DUP2 MSTORE POP SWAP1 DUP1 PUSH1 0x1 DUP2 SLOAD ADD DUP1 DUP3 SSTORE DUP1 SWAP2 POP POP PUSH1 0x1 SWAP1 SUB SWAP1 PUSH1 0x0 MSTORE PUSH1 0x20 PUSH1 0x0 KECCAK256 SWAP1 PUSH1 0x5 MUL ADD PUSH1 0x0 SWAP1 SWAP2 SWAP1 SWAP2 SWAP1 SWAP2 POP PUSH1 0x0 DUP3 ADD MLOAD DUP2 PUSH1 0x0 ADD PUSH1 0x0 PUSH2 0x100 EXP DUP2 SLOAD DUP2 PUSH20 0xFFFFFFFFFFFFFFFFFFFFFFFFFFFFFFFFFFFFFFFF MUL NOT AND SWAP1 DUP4 PUSH20 0xFFFFFFFFFFFFFFFFFFFFFFFFFFFFFFFFFFFFFFFF AND MUL OR SWAP1 SSTORE POP PUSH1 0x20 DUP3 ADD MLOAD DUP2 PUSH1 0x1 ADD SSTORE PUSH1 0x40 DUP3 ADD MLOAD DUP2 PUSH1 0x2 ADD SWAP1 DUP1 MLOAD SWAP1 PUSH1 0x20 ADD SWAP1 PUSH2 0xB29 SWAP3 SWAP2 SWAP1 PUSH2 0xE30 JUMP JUMPDEST POP PUSH1 0x60 DUP3 ADD MLOAD DUP2 PUSH1 0x3 ADD PUSH1 0x0 PUSH2 0x100 EXP DUP2 SLOAD DUP2 PUSH1 0xFF MUL NOT AND SWAP1 DUP4 ISZERO ISZERO MUL OR SWAP1 SSTORE POP PUSH1 0x80 DUP3 ADD MLOAD DUP2 PUSH1 0x4 ADD SSTORE POP POP DUP1 DUP5 PUSH20 0xFFFFFFFFFFFFFFFFFFFFFFFFFFFFFFFFFFFFFFFF AND CALLER PUSH20 0xFFFFFFFFFFFFFFFFFFFFFFFFFFFFFFFFFFFFFFFF AND PUSH32 0xC70C0C0FF6C60F55D0DAB9FA570F029325751F9EDCD8D1A8DF81DC4528C5D68A DUP7 DUP7 PUSH1 0x40 MLOAD PUSH2 0xBB6 SWAP3 SWAP2 SWAP1 PUSH2 0x170A JUMP JUMPDEST PUSH1 0x40 MLOAD DUP1 SWAP2 SUB SWAP1 LOG4 POP POP POP POP JUMP JUMPDEST DUP1 PUSH1 0x3 DUP1 SLOAD SWAP1 POP DUP2 LT PUSH2 0xC0C JUMPI PUSH1 0x40 MLOAD PUSH32 0x8C379A000000000000000000000000000000000000000000000000000000000 DUP2 MSTORE PUSH1 0x4 ADD PUSH2 0xC03 SWAP1 PUSH2 0x144E JUMP JUMPDEST PUSH1 0x40 MLOAD DUP1 SWAP2 SUB SWAP1 REVERT JUMPDEST DUP2 PUSH1 0x3 DUP2 DUP2 SLOAD DUP2 LT PUSH2 0xC21 JUMPI PUSH2 0xC20 PUSH2 0x146E JUMP JUMPDEST JUMPDEST SWAP1 PUSH1 0x0 MSTORE PUSH1 0x20 PUSH1 0x0 KECCAK256 SWAP1 PUSH1 0x5 MUL ADD PUSH1 0x3 ADD PUSH1 0x0 SWAP1 SLOAD SWAP1 PUSH2 0x100 EXP SWAP1 DIV PUSH1 0xFF AND ISZERO PUSH2 0xC80 JUMPI PUSH1 0x40 MLOAD PUSH32 0x8C379A000000000000000000000000000000000000000000000000000000000 DUP2 MSTORE PUSH1 0x4 ADD PUSH2 0xC77 SWAP1 PUSH2 0x1555 JUMP JUMPDEST PUSH1 0x40 MLOAD DUP1 SWAP2 SUB SWAP1 REVERT JUMPDEST PUSH1 0x0 PUSH1 0x3 DUP5 DUP2 SLOAD DUP2 LT PUSH2 0xC96 JUMPI PUSH2 0xC95 PUSH2 0x146E JUMP JUMPDEST JUMPDEST SWAP1 PUSH1 0x0 MSTORE PUSH1 0x20 PUSH1 0x0 KECCAK256 SWAP1 PUSH1 0x5 MUL ADD SWAP1 POP PUSH1 0x4 SLOAD DUP2 PUSH1 0x4 ADD SLOAD LT ISZERO PUSH2 0xCEF JUMPI PUSH1 0x40 MLOAD PUSH32 0x8C379A000000000000000000000000000000000000000000000000000000000 DUP2 MSTORE PUSH1 0x4 ADD PUSH2 0xCE6 SWAP1 PUSH2 0x1786 JUMP JUMPDEST PUSH1 0x40 MLOAD DUP1 SWAP2 SUB SWAP1 REVERT JUMPDEST PUSH1 0x1 DUP2 PUSH1 0x3 ADD PUSH1 0x0 PUSH2 0x100 EXP DUP2 SLOAD DUP2 PUSH1 0xFF MUL NOT AND SWAP1 DUP4 ISZERO ISZERO MUL OR SWAP1 SSTORE POP PUSH1 0x0 DUP2 PUSH1 0x0 ADD PUSH1 0x0 SWAP1 SLOAD SWAP1 PUSH2 0x100 EXP SWAP1 DIV PUSH20 0xFFFFFFFFFFFFFFFFFFFFFFFFFFFFFFFFFFFFFFFF AND PUSH20 0xFFFFFFFFFFFFFFFFFFFFFFFFFFFFFFFFFFFFFFFF AND DUP3 PUSH1 0x1 ADD SLOAD DUP4 PUSH1 0x2 ADD PUSH1 0x40 MLOAD PUSH2 0xD5F SWAP2 SWAP1 PUSH2 0x1845 JUMP JUMPDEST PUSH1 0x0 PUSH1 0x40 MLOAD DUP1 DUP4 SUB DUP2 DUP6 DUP8 GAS CALL SWAP3 POP POP POP RETURNDATASIZE DUP1 PUSH1 0x0 DUP2 EQ PUSH2 0xD9C JUMPI PUSH1 0x40 MLOAD SWAP2 POP PUSH1 0x1F NOT PUSH1 0x3F RETURNDATASIZE ADD AND DUP3 ADD PUSH1 0x40 MSTORE RETURNDATASIZE DUP3 MSTORE RETURNDATASIZE PUSH1 0x0 PUSH1 0x20 DUP5 ADD RETURNDATACOPY PUSH2 0xDA1 JUMP JUMPDEST PUSH1 0x60 SWAP2 POP JUMPDEST POP POP SWAP1 POP DUP1 PUSH2 0xDE5 JUMPI PUSH1 0x40 MLOAD PUSH32 0x8C379A000000000000000000000000000000000000000000000000000000000 DUP2 MSTORE PUSH1 0x4 ADD PUSH2 0xDDC SWAP1 PUSH2 0x18A8 JUMP JUMPDEST PUSH1 0x40 MLOAD DUP1 SWAP2 SUB SWAP1 REVERT JUMPDEST DUP5 CALLER PUSH20 0xFFFFFFFFFFFFFFFFFFFFFFFFFFFFFFFFFFFFFFFF AND PUSH32 0x6F6C6D78A4851D4C222C8404FC92372EE84B7B81054305AE8EA3C83C2DABD42E PUSH1 0x40 MLOAD PUSH1 0x40 MLOAD DUP1 SWAP2 SUB SWAP1 LOG3 POP POP POP POP POP JUMP JUMPDEST DUP3 DUP1 SLOAD PUSH2 0xE3C SWAP1 PUSH2 0x16D8 JUMP JUMPDEST SWAP1 PUSH1 0x0 MSTORE PUSH1 0x20 PUSH1 0x0 KECCAK256 SWAP1 PUSH1 0x1F ADD PUSH1 0x20 SWAP1 DIV DUP2 ADD SWAP3 DUP3 PUSH2 0xE5E JUMPI PUSH1 0x0 DUP6 SSTORE PUSH2 0xEA5 JUMP JUMPDEST DUP3 PUSH1 0x1F LT PUSH2 0xE77 JUMPI DUP1 MLOAD PUSH1 0xFF NOT AND DUP4 DUP1 ADD OR DUP6 SSTORE PUSH2 0xEA5 JUMP JUMPDEST DUP3 DUP1 ADD PUSH1 0x1 ADD DUP6 SSTORE DUP3 ISZERO PUSH2 0xEA5 JUMPI SWAP2 DUP3 ADD JUMPDEST DUP3 DUP2 GT ISZERO PUSH2 0xEA4 JUMPI DUP3 MLOAD DUP3 SSTORE SWAP2 PUSH1 0x20 ADD SWAP2 SWAP1 PUSH1 0x1 ADD SWAP1 PUSH2 0xE89 JUMP JUMPDEST JUMPDEST POP SWAP1 POP PUSH2 0xEB2 SWAP2 SWAP1 PUSH2 0xEB6 JUMP JUMPDEST POP SWAP1 JUMP JUMPDEST JUMPDEST DUP1 DUP3 GT ISZERO PUSH2 0xECF JUMPI PUSH1 0x0 DUP2 PUSH1 0x0 SWAP1 SSTORE POP PUSH1 0x1 ADD PUSH2 0xEB7 JUMP JUMPDEST POP SWAP1 JUMP JUMPDEST PUSH1 0x0 DUP2 SWAP1 POP SWAP2 SWAP1 POP JUMP JUMPDEST PUSH2 0xEE6 DUP2 PUSH2 0xED3 JUMP JUMPDEST DUP3 MSTORE POP POP JUMP JUMPDEST PUSH1 0x0 PUSH1 0x40 DUP3 ADD SWAP1 POP PUSH2 0xF01 PUSH1 0x0 DUP4 ADD DUP6 PUSH2 0xEDD JUMP JUMPDEST PUSH2 0xF0E PUSH1 0x20 DUP4 ADD DUP5 PUSH2 0xEDD JUMP JUMPDEST SWAP4 SWAP3 POP POP POP JUMP JUMPDEST PUSH1 0x0 PUSH1 0x40 MLOAD SWAP1 POP SWAP1 JUMP JUMPDEST PUSH1 0x0 DUP1 REVERT JUMPDEST PUSH1 0x0 DUP1 REVERT JUMPDEST PUSH2 0xF32 DUP2 PUSH2 0xED3 JUMP JUMPDEST DUP2 EQ PUSH2 0xF3D JUMPI PUSH1 0x0 DUP1 REVERT JUMPDEST POP JUMP JUMPDEST PUSH1 0x0 DUP2 CALLDATALOAD SWAP1 POP PUSH2 0xF4F DUP2 PUSH2 0xF29 JUMP JUMPDEST SWAP3 SWAP2 POP POP JUMP JUMPDEST PUSH1 0x0 PUSH1 0x20 DUP3 DUP5 SUB SLT ISZERO PUSH2 0xF6B JUMPI PUSH2 0xF6A PUSH2 0xF1F JUMP JUMPDEST JUMPDEST PUSH1 0x0 PUSH2 0xF79 DUP5 DUP3 DUP6 ADD PUSH2 0xF40 JUMP JUMPDEST SWAP2 POP POP SWAP3 SWAP2 POP POP JUMP JUMPDEST PUSH1 0x0 PUSH20 0xFFFFFFFFFFFFFFFFFFFFFFFFFFFFFFFFFFFFFFFF DUP3 AND SWAP1 POP SWAP2 SWAP1 POP JUMP JUMPDEST PUSH1 0x0 PUSH2 0xFAD DUP3 PUSH2 0xF82 JUMP JUMPDEST SWAP1 POP SWAP2 SWAP1 POP JUMP JUMPDEST PUSH2 0xFBD DUP2 PUSH2 0xFA2 JUMP JUMPDEST DUP3 MSTORE POP POP JUMP JUMPDEST PUSH1 0x0 PUSH1 0x20 DUP3 ADD SWAP1 POP PUSH2 0xFD8 PUSH1 0x0 DUP4 ADD DUP5 PUSH2 0xFB4 JUMP JUMPDEST SWAP3 SWAP2 POP POP JUMP JUMPDEST PUSH2 0xFE7 DUP2 PUSH2 0xFA2 JUMP JUMPDEST DUP2 EQ PUSH2 0xFF2 JUMPI PUSH1 0x0 DUP1 REVERT JUMPDEST POP JUMP JUMPDEST PUSH1 0x0 DUP2 CALLDATALOAD SWAP1 POP PUSH2 0x1004 DUP2 PUSH2 0xFDE JUMP JUMPDEST SWAP3 SWAP2 POP POP JUMP JUMPDEST PUSH1 0x0 PUSH1 0x20 DUP3 DUP5 SUB SLT ISZERO PUSH2 0x1020 JUMPI PUSH2 0x101F PUSH2 0xF1F JUMP JUMPDEST JUMPDEST PUSH1 0x0 PUSH2 0x102E DUP5 DUP3 DUP6 ADD PUSH2 0xFF5 JUMP JUMPDEST SWAP2 POP POP SWAP3 SWAP2 POP POP JUMP JUMPDEST PUSH1 0x0 DUP2 ISZERO ISZERO SWAP1 POP SWAP2 SWAP1 POP JUMP JUMPDEST PUSH2 0x104C DUP2 PUSH2 0x1037 JUMP JUMPDEST DUP3 MSTORE POP POP JUMP JUMPDEST PUSH1 0x0 PUSH1 0x20 DUP3 ADD SWAP1 POP PUSH2 0x1067 PUSH1 0x0 DUP4 ADD DUP5 PUSH2 0x1043 JUMP JUMPDEST SWAP3 SWAP2 POP POP JUMP JUMPDEST PUSH1 0x0 DUP2 MLOAD SWAP1 POP SWAP2 SWAP1 POP JUMP JUMPDEST PUSH1 0x0 DUP3 DUP3 MSTORE PUSH1 0x20 DUP3 ADD SWAP1 POP SWAP3 SWAP2 POP POP JUMP JUMPDEST PUSH1 0x0 JUMPDEST DUP4 DUP2 LT ISZERO PUSH2 0x10A7 JUMPI DUP1 DUP3 ADD MLOAD DUP2 DUP5 ADD MSTORE PUSH1 0x20 DUP2 ADD SWAP1 POP PUSH2 0x108C JUMP JUMPDEST DUP4 DUP2 GT ISZERO PUSH2 0x10B6 JUMPI PUSH1 0x0 DUP5 DUP5 ADD MSTORE JUMPDEST POP POP POP POP JUMP JUMPDEST PUSH1 0x0 PUSH1 0x1F NOT PUSH1 0x1F DUP4 ADD AND SWAP1 POP SWAP2 SWAP1 POP JUMP JUMPDEST PUSH1 0x0 PUSH2 0x10D8 DUP3 PUSH2 0x106D JUMP JUMPDEST PUSH2 0x10E2 DUP2 DUP6 PUSH2 0x1078 JUMP JUMPDEST SWAP4 POP PUSH2 0x10F2 DUP2 DUP6 PUSH1 0x20 DUP7 ADD PUSH2 0x1089 JUMP JUMPDEST PUSH2 0x10FB DUP2 PUSH2 0x10BC JUMP JUMPDEST DUP5 ADD SWAP2 POP POP SWAP3 SWAP2 POP POP JUMP JUMPDEST PUSH1 0x0 PUSH1 0xA0 DUP3 ADD SWAP1 POP PUSH2 0x111B PUSH1 0x0 DUP4 ADD DUP9 PUSH2 0xFB4 JUMP JUMPDEST PUSH2 0x1128 PUSH1 0x20 DUP4 ADD DUP8 PUSH2 0xEDD JUMP JUMPDEST DUP2 DUP2 SUB PUSH1 0x40 DUP4 ADD MSTORE PUSH2 0x113A DUP2 DUP7 PUSH2 0x10CD JUMP JUMPDEST SWAP1 POP PUSH2 0x1149 PUSH1 0x60 DUP4 ADD DUP6 PUSH2 0x1043 JUMP JUMPDEST PUSH2 0x1156 PUSH1 0x80 DUP4 ADD DUP5 PUSH2 0xEDD JUMP JUMPDEST SWAP7 SWAP6 POP POP POP POP POP POP JUMP JUMPDEST PUSH1 0x0 DUP1 PUSH1 0x40 DUP4 DUP6 SUB SLT ISZERO PUSH2 0x1177 JUMPI PUSH2 0x1176 PUSH2 0xF1F JUMP JUMPDEST JUMPDEST PUSH1 0x0 PUSH2 0x1185 DUP6 DUP3 DUP7 ADD PUSH2 0xF40 JUMP JUMPDEST SWAP3 POP POP PUSH1 0x20 PUSH2 0x1196 DUP6 DUP3 DUP7 ADD PUSH2 0xFF5 JUMP JUMPDEST SWAP2 POP POP SWAP3 POP SWAP3 SWAP1 POP JUMP JUMPDEST PUSH1 0x0 PUSH1 0x20 DUP3 ADD SWAP1 POP PUSH2 0x11B5 PUSH1 0x0 DUP4 ADD DUP5 PUSH2 0xEDD JUMP JUMPDEST SWAP3 SWAP2 POP POP JUMP JUMPDEST PUSH1 0x0 DUP1 REVERT JUMPDEST PUSH1 0x0 DUP1 REVERT JUMPDEST PUSH32 0x4E487B7100000000000000000000000000000000000000000000000000000000 PUSH1 0x0 MSTORE PUSH1 0x41 PUSH1 0x4 MSTORE PUSH1 0x24 PUSH1 0x0 REVERT JUMPDEST PUSH2 0x11FD DUP3 PUSH2 0x10BC JUMP JUMPDEST DUP2 ADD DUP2 DUP2 LT PUSH8 0xFFFFFFFFFFFFFFFF DUP3 GT OR ISZERO PUSH2 0x121C JUMPI PUSH2 0x121B PUSH2 0x11C5 JUMP JUMPDEST JUMPDEST DUP1 PUSH1 0x40 MSTORE POP POP POP JUMP JUMPDEST PUSH1 0x0 PUSH2 0x122F PUSH2 0xF15 JUMP JUMPDEST SWAP1 POP PUSH2 0x123B DUP3 DUP3 PUSH2 0x11F4 JUMP JUMPDEST SWAP2 SWAP1 POP JUMP JUMPDEST PUSH1 0x0 PUSH8 0xFFFFFFFFFFFFFFFF DUP3 GT ISZERO PUSH2 0x125B JUMPI PUSH2 0x125A PUSH2 0x11C5 JUMP JUMPDEST JUMPDEST PUSH2 0x1264 DUP3 PUSH2 0x10BC JUMP JUMPDEST SWAP1 POP PUSH1 0x20 DUP2 ADD SWAP1 POP SWAP2 SWAP1 POP JUMP JUMPDEST DUP3 DUP2 DUP4 CALLDATACOPY PUSH1 0x0 DUP4 DUP4 ADD MSTORE POP POP POP JUMP JUMPDEST PUSH1 0x0 PUSH2 0x1293 PUSH2 0x128E DUP5 PUSH2 0x1240 JUMP JUMPDEST PUSH2 0x1225 JUMP JUMPDEST SWAP1 POP DUP3 DUP2 MSTORE PUSH1 0x20 DUP2 ADD DUP5 DUP5 DUP5 ADD GT ISZERO PUSH2 0x12AF JUMPI PUSH2 0x12AE PUSH2 0x11C0 JUMP JUMPDEST JUMPDEST PUSH2 0x12BA DUP5 DUP3 DUP6 PUSH2 0x1271 JUMP JUMPDEST POP SWAP4 SWAP3 POP POP POP JUMP JUMPDEST PUSH1 0x0 DUP3 PUSH1 0x1F DUP4 ADD SLT PUSH2 0x12D7 JUMPI PUSH2 0x12D6 PUSH2 0x11BB JUMP JUMPDEST JUMPDEST DUP2 CALLDATALOAD PUSH2 0x12E7 DUP5 DUP3 PUSH1 0x20 DUP7 ADD PUSH2 0x1280 JUMP JUMPDEST SWAP2 POP POP SWAP3 SWAP2 POP POP JUMP JUMPDEST PUSH1 0x0 DUP1 PUSH1 0x0 PUSH1 0x60 DUP5 DUP7 SUB SLT ISZERO PUSH2 0x1309 JUMPI PUSH2 0x1308 PUSH2 0xF1F JUMP JUMPDEST JUMPDEST PUSH1 0x0 PUSH2 0x1317 DUP7 DUP3 DUP8 ADD PUSH2 0xFF5 JUMP JUMPDEST SWAP4 POP POP PUSH1 0x20 PUSH2 0x1328 DUP7 DUP3 DUP8 ADD PUSH2 0xF40 JUMP JUMPDEST SWAP3 POP POP PUSH1 0x40 DUP5 ADD CALLDATALOAD PUSH8 0xFFFFFFFFFFFFFFFF DUP2 GT ISZERO PUSH2 0x1349 JUMPI PUSH2 0x1348 PUSH2 0xF24 JUMP JUMPDEST JUMPDEST PUSH2 0x1355 DUP7 DUP3 DUP8 ADD PUSH2 0x12C2 JUMP JUMPDEST SWAP2 POP POP SWAP3 POP SWAP3 POP SWAP3 JUMP JUMPDEST PUSH1 0x0 DUP3 DUP3 MSTORE PUSH1 0x20 DUP3 ADD SWAP1 POP SWAP3 SWAP2 POP POP JUMP JUMPDEST PUSH32 0x4F6E6C79204F776E6572732063616E2061636365737320746869732066756E63 PUSH1 0x0 DUP3 ADD MSTORE PUSH32 0x74696F6E616C6974790000000000000000000000000000000000000000000000 PUSH1 0x20 DUP3 ADD MSTORE POP JUMP JUMPDEST PUSH1 0x0 PUSH2 0x13CC PUSH1 0x29 DUP4 PUSH2 0x135F JUMP JUMPDEST SWAP2 POP PUSH2 0x13D7 DUP3 PUSH2 0x1370 JUMP JUMPDEST PUSH1 0x40 DUP3 ADD SWAP1 POP SWAP2 SWAP1 POP JUMP JUMPDEST PUSH1 0x0 PUSH1 0x20 DUP3 ADD SWAP1 POP DUP2 DUP2 SUB PUSH1 0x0 DUP4 ADD MSTORE PUSH2 0x13FB DUP2 PUSH2 0x13BF JUMP JUMPDEST SWAP1 POP SWAP2 SWAP1 POP JUMP JUMPDEST PUSH32 0x496E76616C696420547849640000000000000000000000000000000000000000 PUSH1 0x0 DUP3 ADD MSTORE POP JUMP JUMPDEST PUSH1 0x0 PUSH2 0x1438 PUSH1 0xC DUP4 PUSH2 0x135F JUMP JUMPDEST SWAP2 POP PUSH2 0x1443 DUP3 PUSH2 0x1402 JUMP JUMPDEST PUSH1 0x20 DUP3 ADD SWAP1 POP SWAP2 SWAP1 POP JUMP JUMPDEST PUSH1 0x0 PUSH1 0x20 DUP3 ADD SWAP1 POP DUP2 DUP2 SUB PUSH1 0x0 DUP4 ADD MSTORE PUSH2 0x1467 DUP2 PUSH2 0x142B JUMP JUMPDEST SWAP1 POP SWAP2 SWAP1 POP JUMP JUMPDEST PUSH32 0x4E487B7100000000000000000000000000000000000000000000000000000000 PUSH1 0x0 MSTORE PUSH1 0x32 PUSH1 0x4 MSTORE PUSH1 0x24 PUSH1 0x0 REVERT JUMPDEST PUSH32 0x5472616E73616374696F6E20616C726561647920636F6E6669726D6564000000 PUSH1 0x0 DUP3 ADD MSTORE POP JUMP JUMPDEST PUSH1 0x0 PUSH2 0x14D3 PUSH1 0x1D DUP4 PUSH2 0x135F JUMP JUMPDEST SWAP2 POP PUSH2 0x14DE DUP3 PUSH2 0x149D JUMP JUMPDEST PUSH1 0x20 DUP3 ADD SWAP1 POP SWAP2 SWAP1 POP JUMP JUMPDEST PUSH1 0x0 PUSH1 0x20 DUP3 ADD SWAP1 POP DUP2 DUP2 SUB PUSH1 0x0 DUP4 ADD MSTORE PUSH2 0x1502 DUP2 PUSH2 0x14C6 JUMP JUMPDEST SWAP1 POP SWAP2 SWAP1 POP JUMP JUMPDEST PUSH32 0x547820616C726561647920657865637574656400000000000000000000000000 PUSH1 0x0 DUP3 ADD MSTORE POP JUMP JUMPDEST PUSH1 0x0 PUSH2 0x153F PUSH1 0x13 DUP4 PUSH2 0x135F JUMP JUMPDEST SWAP2 POP PUSH2 0x154A DUP3 PUSH2 0x1509 JUMP JUMPDEST PUSH1 0x20 DUP3 ADD SWAP1 POP SWAP2 SWAP1 POP JUMP JUMPDEST PUSH1 0x0 PUSH1 0x20 DUP3 ADD SWAP1 POP DUP2 DUP2 SUB PUSH1 0x0 DUP4 ADD MSTORE PUSH2 0x156E DUP2 PUSH2 0x1532 JUMP JUMPDEST SWAP1 POP SWAP2 SWAP1 POP JUMP JUMPDEST PUSH32 0x4E487B7100000000000000000000000000000000000000000000000000000000 PUSH1 0x0 MSTORE PUSH1 0x11 PUSH1 0x4 MSTORE PUSH1 0x24 PUSH1 0x0 REVERT JUMPDEST PUSH1 0x0 PUSH2 0x15AF DUP3 PUSH2 0xED3 JUMP JUMPDEST SWAP2 POP PUSH32 0xFFFFFFFFFFFFFFFFFFFFFFFFFFFFFFFFFFFFFFFFFFFFFFFFFFFFFFFFFFFFFFFF DUP3 EQ ISZERO PUSH2 0x15E2 JUMPI PUSH2 0x15E1 PUSH2 0x1575 JUMP JUMPDEST JUMPDEST PUSH1 0x1 DUP3 ADD SWAP1 POP SWAP2 SWAP1 POP JUMP JUMPDEST PUSH32 0x4F776E657220616C72656164792068617665206E6F7420636F6E6669726D6564 PUSH1 0x0 DUP3 ADD MSTORE PUSH32 0x2074780000000000000000000000000000000000000000000000000000000000 PUSH1 0x20 DUP3 ADD MSTORE POP JUMP JUMPDEST PUSH1 0x0 PUSH2 0x1649 PUSH1 0x23 DUP4 PUSH2 0x135F JUMP JUMPDEST SWAP2 POP PUSH2 0x1654 DUP3 PUSH2 0x15ED JUMP JUMPDEST PUSH1 0x40 DUP3 ADD SWAP1 POP SWAP2 SWAP1 POP JUMP JUMPDEST PUSH1 0x0 PUSH1 0x20 DUP3 ADD SWAP1 POP DUP2 DUP2 SUB PUSH1 0x0 DUP4 ADD MSTORE PUSH2 0x1678 DUP2 PUSH2 0x163C JUMP JUMPDEST SWAP1 POP SWAP2 SWAP1 POP JUMP JUMPDEST PUSH1 0x0 PUSH2 0x168A DUP3 PUSH2 0xED3 JUMP JUMPDEST SWAP2 POP PUSH1 0x0 DUP3 EQ ISZERO PUSH2 0x169E JUMPI PUSH2 0x169D PUSH2 0x1575 JUMP JUMPDEST JUMPDEST PUSH1 0x1 DUP3 SUB SWAP1 POP SWAP2 SWAP1 POP JUMP JUMPDEST PUSH32 0x4E487B7100000000000000000000000000000000000000000000000000000000 PUSH1 0x0 MSTORE PUSH1 0x22 PUSH1 0x4 MSTORE PUSH1 0x24 PUSH1 0x0 REVERT JUMPDEST PUSH1 0x0 PUSH1 0x2 DUP3 DIV SWAP1 POP PUSH1 0x1 DUP3 AND DUP1 PUSH2 0x16F0 JUMPI PUSH1 0x7F DUP3 AND SWAP2 POP JUMPDEST PUSH1 0x20 DUP3 LT DUP2 EQ ISZERO PUSH2 0x1704 JUMPI PUSH2 0x1703 PUSH2 0x16A9 JUMP JUMPDEST JUMPDEST POP SWAP2 SWAP1 POP JUMP JUMPDEST PUSH1 0x0 PUSH1 0x40 DUP3 ADD SWAP1 POP PUSH2 0x171F PUSH1 0x0 DUP4 ADD DUP6 PUSH2 0xEDD JUMP JUMPDEST DUP2 DUP2 SUB PUSH1 0x20 DUP4 ADD MSTORE PUSH2 0x1731 DUP2 DUP5 PUSH2 0x10CD JUMP JUMPDEST SWAP1 POP SWAP4 SWAP3 POP POP POP JUMP JUMPDEST PUSH32 0x63616E6E6F742065786563757465207478000000000000000000000000000000 PUSH1 0x0 DUP3 ADD MSTORE POP JUMP JUMPDEST PUSH1 0x0 PUSH2 0x1770 PUSH1 0x11 DUP4 PUSH2 0x135F JUMP JUMPDEST SWAP2 POP PUSH2 0x177B DUP3 PUSH2 0x173A JUMP JUMPDEST PUSH1 0x20 DUP3 ADD SWAP1 POP SWAP2 SWAP1 POP JUMP JUMPDEST PUSH1 0x0 PUSH1 0x20 DUP3 ADD SWAP1 POP DUP2 DUP2 SUB PUSH1 0x0 DUP4 ADD MSTORE PUSH2 0x179F DUP2 PUSH2 0x1763 JUMP JUMPDEST SWAP1 POP SWAP2 SWAP1 POP JUMP JUMPDEST PUSH1 0x0 DUP2 SWAP1 POP SWAP3 SWAP2 POP POP JUMP JUMPDEST PUSH1 0x0 DUP2 SWAP1 POP DUP2 PUSH1 0x0 MSTORE PUSH1 0x20 PUSH1 0x0 KECCAK256 SWAP1 POP SWAP2 SWAP1 POP JUMP JUMPDEST PUSH1 0x0 DUP2 SLOAD PUSH2 0x17D3 DUP2 PUSH2 0x16D8 JUMP JUMPDEST PUSH2 0x17DD DUP2 DUP7 PUSH2 0x17A6 JUMP JUMPDEST SWAP5 POP PUSH1 0x1 DUP3 AND PUSH1 0x0 DUP2 EQ PUSH2 0x17F8 JUMPI PUSH1 0x1 DUP2 EQ PUSH2 0x1809 JUMPI PUSH2 0x183C JUMP JUMPDEST PUSH1 0xFF NOT DUP4 AND DUP7 MSTORE DUP2 DUP7 ADD SWAP4 POP PUSH2 0x183C JUMP JUMPDEST PUSH2 0x1812 DUP6 PUSH2 0x17B1 JUMP JUMPDEST PUSH1 0x0 JUMPDEST DUP4 DUP2 LT ISZERO PUSH2 0x1834 JUMPI DUP2 SLOAD DUP2 DUP10 ADD MSTORE PUSH1 0x1 DUP3 ADD SWAP2 POP PUSH1 0x20 DUP2 ADD SWAP1 POP PUSH2 0x1815 JUMP JUMPDEST DUP4 DUP9 ADD SWAP6 POP POP POP JUMPDEST POP POP POP SWAP3 SWAP2 POP POP JUMP JUMPDEST PUSH1 0x0 PUSH2 0x1851 DUP3 DUP5 PUSH2 0x17C6 JUMP JUMPDEST SWAP2 POP DUP2 SWAP1 POP SWAP3 SWAP2 POP POP JUMP JUMPDEST PUSH32 0x5472616E73616374696F6E20657865637574696F6E206661696C656400000000 PUSH1 0x0 DUP3 ADD MSTORE POP JUMP JUMPDEST PUSH1 0x0 PUSH2 0x1892 PUSH1 0x1C DUP4 PUSH2 0x135F JUMP JUMPDEST SWAP2 POP PUSH2 0x189D DUP3 PUSH2 0x185C JUMP JUMPDEST PUSH1 0x20 DUP3 ADD SWAP1 POP SWAP2 SWAP1 POP JUMP JUMPDEST PUSH1 0x0 PUSH1 0x20 DUP3 ADD SWAP1 POP DUP2 DUP2 SUB PUSH1 0x0 DUP4 ADD MSTORE PUSH2 0x18C1 DUP2 PUSH2 0x1885 JUMP JUMPDEST SWAP1 POP SWAP2 SWAP1 POP JUMP INVALID LOG2 PUSH5 0x6970667358 0x22 SLT KECCAK256 0xAD 0xCC DUP11 CALLCODE 0xBA DUP1 0xBF GT SGT DUP10 EXP 0xE3 0xB4 0xDA 0x4C 0xBA JUMP 0xB1 DUP6 SHL SHR PUSH22 0xF25AAF3E341F78B763A264736F6C634300080A003300 "
				},
				"gasEstimates": {
					"creation": {
						"codeDepositCost": "1279600",
						"executionCost": "infinite",
						"totalCost": "infinite"
					},
					"external": {
						"approveTransaction(uint256)": "infinite",
						"executeTransaction(uint256)": "infinite",
						"isConfirm(uint256,address)": "3109",
						"isOwner(address)": "2890",
						"numOfConfirmations()": "2473",
						"owners(uint256)": "4957",
						"revokeTransaction(uint256)": "infinite",
						"submitTransaction(address,uint256,bytes)": "infinite",
						"transactions(uint256)": "infinite"
					}
				},
				"methodIdentifiers": {
					"approveTransaction(uint256)": "242232d1",
					"executeTransaction(uint256)": "ee22610b",
					"isConfirm(uint256,address)": "9ba83e1b",
					"isOwner(address)": "2f54bf6e",
					"numOfConfirmations()": "b032e075",
					"owners(uint256)": "025e7c27",
					"revokeTransaction(uint256)": "735631ad",
					"submitTransaction(address,uint256,bytes)": "c6427474",
					"transactions(uint256)": "9ace38c2"
				}
			},
			"userdoc": {
				"kind": "user",
				"methods": {},
				"version": 1
			}
		}
	}
}