{
	"Documents/EthDev/Projects2/SolidityByExamples/MultiSigWallet/contracts/MultiSigWallet.sol": {
		"MultiSigWallet": {
			"abi": [
				{
					"inputs": [
						{
							"internalType": "address[]",
							"name": "_owners",
							"type": "address[]"
						},
						{
							"internalType": "uint256",
							"name": "_numOfConfirmations",
							"type": "uint256"
						}
					],
					"stateMutability": "nonpayable",
					"type": "constructor"
				},
				{
					"anonymous": false,
					"inputs": [
						{
							"indexed": true,
							"internalType": "address",
							"name": "owner",
							"type": "address"
						},
						{
							"indexed": true,
							"internalType": "uint256",
							"name": "txId",
							"type": "uint256"
						}
					],
					"name": "Confirmed",
					"type": "event"
				},
				{
					"anonymous": false,
					"inputs": [
						{
							"indexed": true,
							"internalType": "address",
							"name": "sender",
							"type": "address"
						},
						{
							"indexed": false,
							"internalType": "uint256",
							"name": "amount",
							"type": "uint256"
						},
						{
							"indexed": false,
							"internalType": "uint256",
							"name": "balance",
							"type": "uint256"
						}
					],
					"name": "Deposit",
					"type": "event"
				},
				{
					"anonymous": false,
					"inputs": [
						{
							"indexed": true,
							"internalType": "address",
							"name": "executor",
							"type": "address"
						},
						{
							"indexed": true,
							"internalType": "uint256",
							"name": "txId",
							"type": "uint256"
						}
					],
					"name": "Executed",
					"type": "event"
				},
				{
					"anonymous": false,
					"inputs": [
						{
							"indexed": true,
							"internalType": "address",
							"name": "owner",
							"type": "address"
						},
						{
							"indexed": true,
							"internalType": "uint256",
							"name": "txId",
							"type": "uint256"
						}
					],
					"name": "Revoked",
					"type": "event"
				},
				{
					"anonymous": false,
					"inputs": [
						{
							"indexed": true,
							"internalType": "address",
							"name": "owner",
							"type": "address"
						},
						{
							"indexed": true,
							"internalType": "address",
							"name": "to",
							"type": "address"
						},
						{
							"indexed": true,
							"internalType": "uint256",
							"name": "txId",
							"type": "uint256"
						},
						{
							"indexed": false,
							"internalType": "uint256",
							"name": "value",
							"type": "uint256"
						},
						{
							"indexed": false,
							"internalType": "bytes",
							"name": "data",
							"type": "bytes"
						}
					],
					"name": "Submitted",
					"type": "event"
				},
				{
					"inputs": [
						{
							"internalType": "uint256",
							"name": "",
							"type": "uint256"
						},
						{
							"internalType": "address",
							"name": "",
							"type": "address"
						}
					],
					"name": "isConfirm",
					"outputs": [
						{
							"internalType": "bool",
							"name": "",
							"type": "bool"
						}
					],
					"stateMutability": "view",
					"type": "function"
				},
				{
					"inputs": [
						{
							"internalType": "address",
							"name": "",
							"type": "address"
						}
					],
					"name": "isOwner",
					"outputs": [
						{
							"internalType": "bool",
							"name": "",
							"type": "bool"
						}
					],
					"stateMutability": "view",
					"type": "function"
				},
				{
					"inputs": [],
					"name": "numOfConfirmations",
					"outputs": [
						{
							"internalType": "uint256",
							"name": "",
							"type": "uint256"
						}
					],
					"stateMutability": "view",
					"type": "function"
				},
				{
					"inputs": [
						{
							"internalType": "uint256",
							"name": "",
							"type": "uint256"
						}
					],
					"name": "owners",
					"outputs": [
						{
							"internalType": "address",
							"name": "",
							"type": "address"
						}
					],
					"stateMutability": "view",
					"type": "function"
				},
				{
					"inputs": [
						{
							"internalType": "address",
							"name": "_to",
							"type": "address"
						},
						{
							"internalType": "uint256",
							"name": "_value",
							"type": "uint256"
						},
						{
							"internalType": "bytes",
							"name": "_data",
							"type": "bytes"
						}
					],
					"name": "submitTransaction",
					"outputs": [],
					"stateMutability": "nonpayable",
					"type": "function"
				},
				{
					"inputs": [
						{
							"internalType": "uint256",
							"name": "",
							"type": "uint256"
						}
					],
					"name": "transactions",
					"outputs": [
						{
							"internalType": "address",
							"name": "to",
							"type": "address"
						},
						{
							"internalType": "uint256",
							"name": "value",
							"type": "uint256"
						},
						{
							"internalType": "bytes",
							"name": "data",
							"type": "bytes"
						},
						{
							"internalType": "bool",
							"name": "executed",
							"type": "bool"
						},
						{
							"internalType": "uint256",
							"name": "confirmations",
							"type": "uint256"
						}
					],
					"stateMutability": "view",
					"type": "function"
				},
				{
					"stateMutability": "payable",
					"type": "receive"
				}
			],
			"devdoc": {
				"kind": "dev",
				"methods": {},
				"version": 1
			},
			"evm": {
				"assembly": "    /* \"Documents/EthDev/Projects2/SolidityByExamples/MultiSigWallet/contracts/MultiSigWallet.sol\":61:2644  contract MultiSigWallet {... */\n  mstore(0x40, 0x80)\n    /* \"Documents/EthDev/Projects2/SolidityByExamples/MultiSigWallet/contracts/MultiSigWallet.sol\":1581:2207  constructor(address[] memory _owners, uint _numOfConfirmations) {... */\n  callvalue\n  dup1\n  iszero\n  tag_1\n  jumpi\n  0x00\n  dup1\n  revert\ntag_1:\n  pop\n  mload(0x40)\n  sub(codesize, bytecodeSize)\n  dup1\n  bytecodeSize\n  dup4\n  codecopy\n  dup2\n  dup2\n  add\n  0x40\n  mstore\n  dup2\n  add\n  swap1\n  tag_2\n  swap2\n  swap1\n  tag_3\n  jump\t// in\ntag_2:\n    /* \"Documents/EthDev/Projects2/SolidityByExamples/MultiSigWallet/contracts/MultiSigWallet.sol\":1681:1682  0 */\n  0x00\n    /* \"Documents/EthDev/Projects2/SolidityByExamples/MultiSigWallet/contracts/MultiSigWallet.sol\":1664:1671  _owners */\n  dup3\n    /* \"Documents/EthDev/Projects2/SolidityByExamples/MultiSigWallet/contracts/MultiSigWallet.sol\":1664:1678  _owners.length */\n  mload\n    /* \"Documents/EthDev/Projects2/SolidityByExamples/MultiSigWallet/contracts/MultiSigWallet.sol\":1664:1682  _owners.length > 0 */\n  gt\n    /* \"Documents/EthDev/Projects2/SolidityByExamples/MultiSigWallet/contracts/MultiSigWallet.sol\":1656:1706  require(_owners.length > 0, \"Must have >1 owners\") */\n  tag_6\n  jumpi\n  mload(0x40)\n  0x08c379a000000000000000000000000000000000000000000000000000000000\n  dup2\n  mstore\n  0x04\n  add\n  tag_7\n  swap1\n  tag_8\n  jump\t// in\ntag_7:\n  mload(0x40)\n  dup1\n  swap2\n  sub\n  swap1\n  revert\ntag_6:\n    /* \"Documents/EthDev/Projects2/SolidityByExamples/MultiSigWallet/contracts/MultiSigWallet.sol\":1747:1748  0 */\n  0x00\n    /* \"Documents/EthDev/Projects2/SolidityByExamples/MultiSigWallet/contracts/MultiSigWallet.sol\":1725:1744  _numOfConfirmations */\n  dup2\n    /* \"Documents/EthDev/Projects2/SolidityByExamples/MultiSigWallet/contracts/MultiSigWallet.sol\":1725:1748  _numOfConfirmations > 0 */\n  gt\n    /* \"Documents/EthDev/Projects2/SolidityByExamples/MultiSigWallet/contracts/MultiSigWallet.sol\":1725:1789  _numOfConfirmations > 0 && _numOfConfirmations <= _owners.length */\n  dup1\n  iszero\n  tag_9\n  jumpi\n  pop\n    /* \"Documents/EthDev/Projects2/SolidityByExamples/MultiSigWallet/contracts/MultiSigWallet.sol\":1775:1782  _owners */\n  dup2\n    /* \"Documents/EthDev/Projects2/SolidityByExamples/MultiSigWallet/contracts/MultiSigWallet.sol\":1775:1789  _owners.length */\n  mload\n    /* \"Documents/EthDev/Projects2/SolidityByExamples/MultiSigWallet/contracts/MultiSigWallet.sol\":1752:1771  _numOfConfirmations */\n  dup2\n    /* \"Documents/EthDev/Projects2/SolidityByExamples/MultiSigWallet/contracts/MultiSigWallet.sol\":1752:1789  _numOfConfirmations <= _owners.length */\n  gt\n  iszero\n    /* \"Documents/EthDev/Projects2/SolidityByExamples/MultiSigWallet/contracts/MultiSigWallet.sol\":1725:1789  _numOfConfirmations > 0 && _numOfConfirmations <= _owners.length */\ntag_9:\n    /* \"Documents/EthDev/Projects2/SolidityByExamples/MultiSigWallet/contracts/MultiSigWallet.sol\":1717:1825  require(_numOfConfirmations > 0 && _numOfConfirmations <= _owners.length, \"Invalid Number of Confirmations\") */\n  tag_10\n  jumpi\n  mload(0x40)\n  0x08c379a000000000000000000000000000000000000000000000000000000000\n  dup2\n  mstore\n  0x04\n  add\n  tag_11\n  swap1\n  tag_12\n  jump\t// in\ntag_11:\n  mload(0x40)\n  dup1\n  swap2\n  sub\n  swap1\n  revert\ntag_10:\n    /* \"Documents/EthDev/Projects2/SolidityByExamples/MultiSigWallet/contracts/MultiSigWallet.sol\":1843:1849  uint i */\n  0x00\n    /* \"Documents/EthDev/Projects2/SolidityByExamples/MultiSigWallet/contracts/MultiSigWallet.sol\":1838:2147  for (uint i; i<_owners.length; i++) {... */\ntag_13:\n    /* \"Documents/EthDev/Projects2/SolidityByExamples/MultiSigWallet/contracts/MultiSigWallet.sol\":1853:1860  _owners */\n  dup3\n    /* \"Documents/EthDev/Projects2/SolidityByExamples/MultiSigWallet/contracts/MultiSigWallet.sol\":1853:1867  _owners.length */\n  mload\n    /* \"Documents/EthDev/Projects2/SolidityByExamples/MultiSigWallet/contracts/MultiSigWallet.sol\":1851:1852  i */\n  dup2\n    /* \"Documents/EthDev/Projects2/SolidityByExamples/MultiSigWallet/contracts/MultiSigWallet.sol\":1851:1867  i<_owners.length */\n  lt\n    /* \"Documents/EthDev/Projects2/SolidityByExamples/MultiSigWallet/contracts/MultiSigWallet.sol\":1838:2147  for (uint i; i<_owners.length; i++) {... */\n  iszero\n  tag_14\n  jumpi\n    /* \"Documents/EthDev/Projects2/SolidityByExamples/MultiSigWallet/contracts/MultiSigWallet.sol\":1889:1902  address owner */\n  0x00\n    /* \"Documents/EthDev/Projects2/SolidityByExamples/MultiSigWallet/contracts/MultiSigWallet.sol\":1905:1912  _owners */\n  dup4\n    /* \"Documents/EthDev/Projects2/SolidityByExamples/MultiSigWallet/contracts/MultiSigWallet.sol\":1913:1914  i */\n  dup3\n    /* \"Documents/EthDev/Projects2/SolidityByExamples/MultiSigWallet/contracts/MultiSigWallet.sol\":1905:1915  _owners[i] */\n  dup2\n  mload\n  dup2\n  lt\n  tag_16\n  jumpi\n  tag_17\n  tag_18\n  jump\t// in\ntag_17:\ntag_16:\n  0x20\n  mul\n  0x20\n  add\n  add\n  mload\n    /* \"Documents/EthDev/Projects2/SolidityByExamples/MultiSigWallet/contracts/MultiSigWallet.sol\":1889:1915  address owner = _owners[i] */\n  swap1\n  pop\n    /* \"Documents/EthDev/Projects2/SolidityByExamples/MultiSigWallet/contracts/MultiSigWallet.sol\":1955:1956  0 */\n  0x00\n    /* \"Documents/EthDev/Projects2/SolidityByExamples/MultiSigWallet/contracts/MultiSigWallet.sol\":1938:1957  owner != address(0) */\n  0xffffffffffffffffffffffffffffffffffffffff\n  and\n    /* \"Documents/EthDev/Projects2/SolidityByExamples/MultiSigWallet/contracts/MultiSigWallet.sol\":1938:1943  owner */\n  dup2\n    /* \"Documents/EthDev/Projects2/SolidityByExamples/MultiSigWallet/contracts/MultiSigWallet.sol\":1938:1957  owner != address(0) */\n  0xffffffffffffffffffffffffffffffffffffffff\n  and\n  eq\n  iszero\n    /* \"Documents/EthDev/Projects2/SolidityByExamples/MultiSigWallet/contracts/MultiSigWallet.sol\":1930:1993  require(owner != address(0), \"Cant have Zero address as owner\") */\n  tag_19\n  jumpi\n  mload(0x40)\n  0x08c379a000000000000000000000000000000000000000000000000000000000\n  dup2\n  mstore\n  0x04\n  add\n  tag_20\n  swap1\n  tag_21\n  jump\t// in\ntag_20:\n  mload(0x40)\n  dup1\n  swap2\n  sub\n  swap1\n  revert\ntag_19:\n    /* \"Documents/EthDev/Projects2/SolidityByExamples/MultiSigWallet/contracts/MultiSigWallet.sol\":2017:2024  isOwner */\n  0x01\n    /* \"Documents/EthDev/Projects2/SolidityByExamples/MultiSigWallet/contracts/MultiSigWallet.sol\":2017:2031  isOwner[owner] */\n  0x00\n    /* \"Documents/EthDev/Projects2/SolidityByExamples/MultiSigWallet/contracts/MultiSigWallet.sol\":2025:2030  owner */\n  dup3\n    /* \"Documents/EthDev/Projects2/SolidityByExamples/MultiSigWallet/contracts/MultiSigWallet.sol\":2017:2031  isOwner[owner] */\n  0xffffffffffffffffffffffffffffffffffffffff\n  and\n  0xffffffffffffffffffffffffffffffffffffffff\n  and\n  dup2\n  mstore\n  0x20\n  add\n  swap1\n  dup2\n  mstore\n  0x20\n  add\n  0x00\n  keccak256\n  0x00\n  swap1\n  sload\n  swap1\n  0x0100\n  exp\n  swap1\n  div\n  0xff\n  and\n    /* \"Documents/EthDev/Projects2/SolidityByExamples/MultiSigWallet/contracts/MultiSigWallet.sol\":2016:2031  !isOwner[owner] */\n  iszero\n    /* \"Documents/EthDev/Projects2/SolidityByExamples/MultiSigWallet/contracts/MultiSigWallet.sol\":2008:2064  require(!isOwner[owner], \"Duplicate Owner not allowed!\") */\n  tag_22\n  jumpi\n  mload(0x40)\n  0x08c379a000000000000000000000000000000000000000000000000000000000\n  dup2\n  mstore\n  0x04\n  add\n  tag_23\n  swap1\n  tag_24\n  jump\t// in\ntag_23:\n  mload(0x40)\n  dup1\n  swap2\n  sub\n  swap1\n  revert\ntag_22:\n    /* \"Documents/EthDev/Projects2/SolidityByExamples/MultiSigWallet/contracts/MultiSigWallet.sol\":2098:2102  true */\n  0x01\n    /* \"Documents/EthDev/Projects2/SolidityByExamples/MultiSigWallet/contracts/MultiSigWallet.sol\":2081:2088  isOwner */\n  dup1\n    /* \"Documents/EthDev/Projects2/SolidityByExamples/MultiSigWallet/contracts/MultiSigWallet.sol\":2081:2095  isOwner[owner] */\n  0x00\n    /* \"Documents/EthDev/Projects2/SolidityByExamples/MultiSigWallet/contracts/MultiSigWallet.sol\":2089:2094  owner */\n  dup4\n    /* \"Documents/EthDev/Projects2/SolidityByExamples/MultiSigWallet/contracts/MultiSigWallet.sol\":2081:2095  isOwner[owner] */\n  0xffffffffffffffffffffffffffffffffffffffff\n  and\n  0xffffffffffffffffffffffffffffffffffffffff\n  and\n  dup2\n  mstore\n  0x20\n  add\n  swap1\n  dup2\n  mstore\n  0x20\n  add\n  0x00\n  keccak256\n  0x00\n    /* \"Documents/EthDev/Projects2/SolidityByExamples/MultiSigWallet/contracts/MultiSigWallet.sol\":2081:2102  isOwner[owner] = true */\n  0x0100\n  exp\n  dup2\n  sload\n  dup2\n  0xff\n  mul\n  not\n  and\n  swap1\n  dup4\n  iszero\n  iszero\n  mul\n  or\n  swap1\n  sstore\n  pop\n    /* \"Documents/EthDev/Projects2/SolidityByExamples/MultiSigWallet/contracts/MultiSigWallet.sol\":2117:2123  owners */\n  0x00\n    /* \"Documents/EthDev/Projects2/SolidityByExamples/MultiSigWallet/contracts/MultiSigWallet.sol\":2129:2134  owner */\n  dup2\n    /* \"Documents/EthDev/Projects2/SolidityByExamples/MultiSigWallet/contracts/MultiSigWallet.sol\":2117:2135  owners.push(owner) */\n  swap1\n  dup1\n  0x01\n  dup2\n  sload\n  add\n  dup1\n  dup3\n  sstore\n  dup1\n  swap2\n  pop\n  pop\n  0x01\n  swap1\n  sub\n  swap1\n  0x00\n  mstore\n  keccak256(0x00, 0x20)\n  add\n  0x00\n  swap1\n  swap2\n  swap1\n  swap2\n  swap1\n  swap2\n  0x0100\n  exp\n  dup2\n  sload\n  dup2\n  0xffffffffffffffffffffffffffffffffffffffff\n  mul\n  not\n  and\n  swap1\n  dup4\n  0xffffffffffffffffffffffffffffffffffffffff\n  and\n  mul\n  or\n  swap1\n  sstore\n  pop\n    /* \"Documents/EthDev/Projects2/SolidityByExamples/MultiSigWallet/contracts/MultiSigWallet.sol\":1874:2147  {... */\n  pop\n    /* \"Documents/EthDev/Projects2/SolidityByExamples/MultiSigWallet/contracts/MultiSigWallet.sol\":1869:1872  i++ */\n  dup1\n  dup1\n  tag_26\n  swap1\n  tag_27\n  jump\t// in\ntag_26:\n  swap2\n  pop\n  pop\n    /* \"Documents/EthDev/Projects2/SolidityByExamples/MultiSigWallet/contracts/MultiSigWallet.sol\":1838:2147  for (uint i; i<_owners.length; i++) {... */\n  jump(tag_13)\ntag_14:\n  pop\n    /* \"Documents/EthDev/Projects2/SolidityByExamples/MultiSigWallet/contracts/MultiSigWallet.sol\":2180:2199  _numOfConfirmations */\n  dup1\n    /* \"Documents/EthDev/Projects2/SolidityByExamples/MultiSigWallet/contracts/MultiSigWallet.sol\":2159:2177  numOfConfirmations */\n  0x04\n    /* \"Documents/EthDev/Projects2/SolidityByExamples/MultiSigWallet/contracts/MultiSigWallet.sol\":2159:2199  numOfConfirmations = _numOfConfirmations */\n  dup2\n  swap1\n  sstore\n  pop\n    /* \"Documents/EthDev/Projects2/SolidityByExamples/MultiSigWallet/contracts/MultiSigWallet.sol\":1581:2207  constructor(address[] memory _owners, uint _numOfConfirmations) {... */\n  pop\n  pop\n    /* \"Documents/EthDev/Projects2/SolidityByExamples/MultiSigWallet/contracts/MultiSigWallet.sol\":61:2644  contract MultiSigWallet {... */\n  jump(tag_28)\n    /* \"#utility.yul\":7:82   */\ntag_29:\n    /* \"#utility.yul\":40:46   */\n  0x00\n    /* \"#utility.yul\":73:75   */\n  0x40\n    /* \"#utility.yul\":67:76   */\n  mload\n    /* \"#utility.yul\":57:76   */\n  swap1\n  pop\n    /* \"#utility.yul\":7:82   */\n  swap1\n  jump\t// out\n    /* \"#utility.yul\":88:205   */\ntag_30:\n    /* \"#utility.yul\":197:198   */\n  0x00\n    /* \"#utility.yul\":194:195   */\n  dup1\n    /* \"#utility.yul\":187:199   */\n  revert\n    /* \"#utility.yul\":211:328   */\ntag_31:\n    /* \"#utility.yul\":320:321   */\n  0x00\n    /* \"#utility.yul\":317:318   */\n  dup1\n    /* \"#utility.yul\":310:322   */\n  revert\n    /* \"#utility.yul\":334:451   */\ntag_32:\n    /* \"#utility.yul\":443:444   */\n  0x00\n    /* \"#utility.yul\":440:441   */\n  dup1\n    /* \"#utility.yul\":433:445   */\n  revert\n    /* \"#utility.yul\":457:559   */\ntag_33:\n    /* \"#utility.yul\":498:504   */\n  0x00\n    /* \"#utility.yul\":549:551   */\n  0x1f\n    /* \"#utility.yul\":545:552   */\n  not\n    /* \"#utility.yul\":540:542   */\n  0x1f\n    /* \"#utility.yul\":533:538   */\n  dup4\n    /* \"#utility.yul\":529:543   */\n  add\n    /* \"#utility.yul\":525:553   */\n  and\n    /* \"#utility.yul\":515:553   */\n  swap1\n  pop\n    /* \"#utility.yul\":457:559   */\n  swap2\n  swap1\n  pop\n  jump\t// out\n    /* \"#utility.yul\":565:745   */\ntag_34:\n    /* \"#utility.yul\":613:690   */\n  0x4e487b7100000000000000000000000000000000000000000000000000000000\n    /* \"#utility.yul\":610:611   */\n  0x00\n    /* \"#utility.yul\":603:691   */\n  mstore\n    /* \"#utility.yul\":710:714   */\n  0x41\n    /* \"#utility.yul\":707:708   */\n  0x04\n    /* \"#utility.yul\":700:715   */\n  mstore\n    /* \"#utility.yul\":734:738   */\n  0x24\n    /* \"#utility.yul\":731:732   */\n  0x00\n    /* \"#utility.yul\":724:739   */\n  revert\n    /* \"#utility.yul\":751:1032   */\ntag_35:\n    /* \"#utility.yul\":834:861   */\n  tag_66\n    /* \"#utility.yul\":856:860   */\n  dup3\n    /* \"#utility.yul\":834:861   */\n  tag_33\n  jump\t// in\ntag_66:\n    /* \"#utility.yul\":826:832   */\n  dup2\n    /* \"#utility.yul\":822:862   */\n  add\n    /* \"#utility.yul\":964:970   */\n  dup2\n    /* \"#utility.yul\":952:962   */\n  dup2\n    /* \"#utility.yul\":949:971   */\n  lt\n    /* \"#utility.yul\":928:946   */\n  0xffffffffffffffff\n    /* \"#utility.yul\":916:926   */\n  dup3\n    /* \"#utility.yul\":913:947   */\n  gt\n    /* \"#utility.yul\":910:972   */\n  or\n    /* \"#utility.yul\":907:995   */\n  iszero\n  tag_67\n  jumpi\n    /* \"#utility.yul\":975:993   */\n  tag_68\n  tag_34\n  jump\t// in\ntag_68:\n    /* \"#utility.yul\":907:995   */\ntag_67:\n    /* \"#utility.yul\":1015:1025   */\n  dup1\n    /* \"#utility.yul\":1011:1013   */\n  0x40\n    /* \"#utility.yul\":1004:1026   */\n  mstore\n    /* \"#utility.yul\":794:1032   */\n  pop\n    /* \"#utility.yul\":751:1032   */\n  pop\n  pop\n  jump\t// out\n    /* \"#utility.yul\":1038:1167   */\ntag_36:\n    /* \"#utility.yul\":1072:1078   */\n  0x00\n    /* \"#utility.yul\":1099:1119   */\n  tag_70\n  tag_29\n  jump\t// in\ntag_70:\n    /* \"#utility.yul\":1089:1119   */\n  swap1\n  pop\n    /* \"#utility.yul\":1128:1161   */\n  tag_71\n    /* \"#utility.yul\":1156:1160   */\n  dup3\n    /* \"#utility.yul\":1148:1154   */\n  dup3\n    /* \"#utility.yul\":1128:1161   */\n  tag_35\n  jump\t// in\ntag_71:\n    /* \"#utility.yul\":1038:1167   */\n  swap2\n  swap1\n  pop\n  jump\t// out\n    /* \"#utility.yul\":1173:1484   */\ntag_37:\n    /* \"#utility.yul\":1250:1254   */\n  0x00\n    /* \"#utility.yul\":1340:1358   */\n  0xffffffffffffffff\n    /* \"#utility.yul\":1332:1338   */\n  dup3\n    /* \"#utility.yul\":1329:1359   */\n  gt\n    /* \"#utility.yul\":1326:1382   */\n  iszero\n  tag_73\n  jumpi\n    /* \"#utility.yul\":1362:1380   */\n  tag_74\n  tag_34\n  jump\t// in\ntag_74:\n    /* \"#utility.yul\":1326:1382   */\ntag_73:\n    /* \"#utility.yul\":1412:1416   */\n  0x20\n    /* \"#utility.yul\":1404:1410   */\n  dup3\n    /* \"#utility.yul\":1400:1417   */\n  mul\n    /* \"#utility.yul\":1392:1417   */\n  swap1\n  pop\n    /* \"#utility.yul\":1472:1476   */\n  0x20\n    /* \"#utility.yul\":1466:1470   */\n  dup2\n    /* \"#utility.yul\":1462:1477   */\n  add\n    /* \"#utility.yul\":1454:1477   */\n  swap1\n  pop\n    /* \"#utility.yul\":1173:1484   */\n  swap2\n  swap1\n  pop\n  jump\t// out\n    /* \"#utility.yul\":1490:1607   */\ntag_38:\n    /* \"#utility.yul\":1599:1600   */\n  0x00\n    /* \"#utility.yul\":1596:1597   */\n  dup1\n    /* \"#utility.yul\":1589:1601   */\n  revert\n    /* \"#utility.yul\":1613:1739   */\ntag_39:\n    /* \"#utility.yul\":1650:1657   */\n  0x00\n    /* \"#utility.yul\":1690:1732   */\n  0xffffffffffffffffffffffffffffffffffffffff\n    /* \"#utility.yul\":1683:1688   */\n  dup3\n    /* \"#utility.yul\":1679:1733   */\n  and\n    /* \"#utility.yul\":1668:1733   */\n  swap1\n  pop\n    /* \"#utility.yul\":1613:1739   */\n  swap2\n  swap1\n  pop\n  jump\t// out\n    /* \"#utility.yul\":1745:1841   */\ntag_40:\n    /* \"#utility.yul\":1782:1789   */\n  0x00\n    /* \"#utility.yul\":1811:1835   */\n  tag_78\n    /* \"#utility.yul\":1829:1834   */\n  dup3\n    /* \"#utility.yul\":1811:1835   */\n  tag_39\n  jump\t// in\ntag_78:\n    /* \"#utility.yul\":1800:1835   */\n  swap1\n  pop\n    /* \"#utility.yul\":1745:1841   */\n  swap2\n  swap1\n  pop\n  jump\t// out\n    /* \"#utility.yul\":1847:1969   */\ntag_41:\n    /* \"#utility.yul\":1920:1944   */\n  tag_80\n    /* \"#utility.yul\":1938:1943   */\n  dup2\n    /* \"#utility.yul\":1920:1944   */\n  tag_40\n  jump\t// in\ntag_80:\n    /* \"#utility.yul\":1913:1918   */\n  dup2\n    /* \"#utility.yul\":1910:1945   */\n  eq\n    /* \"#utility.yul\":1900:1963   */\n  tag_81\n  jumpi\n    /* \"#utility.yul\":1959:1960   */\n  0x00\n    /* \"#utility.yul\":1956:1957   */\n  dup1\n    /* \"#utility.yul\":1949:1961   */\n  revert\n    /* \"#utility.yul\":1900:1963   */\ntag_81:\n    /* \"#utility.yul\":1847:1969   */\n  pop\n  jump\t// out\n    /* \"#utility.yul\":1975:2118   */\ntag_42:\n    /* \"#utility.yul\":2032:2037   */\n  0x00\n    /* \"#utility.yul\":2063:2069   */\n  dup2\n    /* \"#utility.yul\":2057:2070   */\n  mload\n    /* \"#utility.yul\":2048:2070   */\n  swap1\n  pop\n    /* \"#utility.yul\":2079:2112   */\n  tag_83\n    /* \"#utility.yul\":2106:2111   */\n  dup2\n    /* \"#utility.yul\":2079:2112   */\n  tag_41\n  jump\t// in\ntag_83:\n    /* \"#utility.yul\":1975:2118   */\n  swap3\n  swap2\n  pop\n  pop\n  jump\t// out\n    /* \"#utility.yul\":2141:2873   */\ntag_43:\n    /* \"#utility.yul\":2248:2253   */\n  0x00\n    /* \"#utility.yul\":2273:2354   */\n  tag_85\n    /* \"#utility.yul\":2289:2353   */\n  tag_86\n    /* \"#utility.yul\":2346:2352   */\n  dup5\n    /* \"#utility.yul\":2289:2353   */\n  tag_37\n  jump\t// in\ntag_86:\n    /* \"#utility.yul\":2273:2354   */\n  tag_36\n  jump\t// in\ntag_85:\n    /* \"#utility.yul\":2264:2354   */\n  swap1\n  pop\n    /* \"#utility.yul\":2374:2379   */\n  dup1\n    /* \"#utility.yul\":2403:2409   */\n  dup4\n    /* \"#utility.yul\":2396:2401   */\n  dup3\n    /* \"#utility.yul\":2389:2410   */\n  mstore\n    /* \"#utility.yul\":2437:2441   */\n  0x20\n    /* \"#utility.yul\":2430:2435   */\n  dup3\n    /* \"#utility.yul\":2426:2442   */\n  add\n    /* \"#utility.yul\":2419:2442   */\n  swap1\n  pop\n    /* \"#utility.yul\":2490:2494   */\n  0x20\n    /* \"#utility.yul\":2482:2488   */\n  dup5\n    /* \"#utility.yul\":2478:2495   */\n  mul\n    /* \"#utility.yul\":2470:2476   */\n  dup4\n    /* \"#utility.yul\":2466:2496   */\n  add\n    /* \"#utility.yul\":2519:2522   */\n  dup6\n    /* \"#utility.yul\":2511:2517   */\n  dup2\n    /* \"#utility.yul\":2508:2523   */\n  gt\n    /* \"#utility.yul\":2505:2627   */\n  iszero\n  tag_87\n  jumpi\n    /* \"#utility.yul\":2538:2617   */\n  tag_88\n  tag_38\n  jump\t// in\ntag_88:\n    /* \"#utility.yul\":2505:2627   */\ntag_87:\n    /* \"#utility.yul\":2653:2659   */\n  dup4\n    /* \"#utility.yul\":2636:2867   */\ntag_89:\n    /* \"#utility.yul\":2670:2676   */\n  dup2\n    /* \"#utility.yul\":2665:2668   */\n  dup2\n    /* \"#utility.yul\":2662:2677   */\n  lt\n    /* \"#utility.yul\":2636:2867   */\n  iszero\n  tag_91\n  jumpi\n    /* \"#utility.yul\":2745:2748   */\n  dup1\n    /* \"#utility.yul\":2774:2822   */\n  tag_92\n    /* \"#utility.yul\":2818:2821   */\n  dup9\n    /* \"#utility.yul\":2806:2816   */\n  dup3\n    /* \"#utility.yul\":2774:2822   */\n  tag_42\n  jump\t// in\ntag_92:\n    /* \"#utility.yul\":2769:2772   */\n  dup5\n    /* \"#utility.yul\":2762:2823   */\n  mstore\n    /* \"#utility.yul\":2852:2856   */\n  0x20\n    /* \"#utility.yul\":2847:2850   */\n  dup5\n    /* \"#utility.yul\":2843:2857   */\n  add\n    /* \"#utility.yul\":2836:2857   */\n  swap4\n  pop\n    /* \"#utility.yul\":2712:2867   */\n  pop\n    /* \"#utility.yul\":2696:2700   */\n  0x20\n    /* \"#utility.yul\":2691:2694   */\n  dup2\n    /* \"#utility.yul\":2687:2701   */\n  add\n    /* \"#utility.yul\":2680:2701   */\n  swap1\n  pop\n    /* \"#utility.yul\":2636:2867   */\n  jump(tag_89)\ntag_91:\n    /* \"#utility.yul\":2640:2661   */\n  pop\n    /* \"#utility.yul\":2254:2873   */\n  pop\n  pop\n    /* \"#utility.yul\":2141:2873   */\n  swap4\n  swap3\n  pop\n  pop\n  pop\n  jump\t// out\n    /* \"#utility.yul\":2896:3281   */\ntag_44:\n    /* \"#utility.yul\":2978:2983   */\n  0x00\n    /* \"#utility.yul\":3027:3030   */\n  dup3\n    /* \"#utility.yul\":3020:3024   */\n  0x1f\n    /* \"#utility.yul\":3012:3018   */\n  dup4\n    /* \"#utility.yul\":3008:3025   */\n  add\n    /* \"#utility.yul\":3004:3031   */\n  slt\n    /* \"#utility.yul\":2994:3116   */\n  tag_94\n  jumpi\n    /* \"#utility.yul\":3035:3114   */\n  tag_95\n  tag_32\n  jump\t// in\ntag_95:\n    /* \"#utility.yul\":2994:3116   */\ntag_94:\n    /* \"#utility.yul\":3145:3151   */\n  dup2\n    /* \"#utility.yul\":3139:3152   */\n  mload\n    /* \"#utility.yul\":3170:3275   */\n  tag_96\n    /* \"#utility.yul\":3271:3274   */\n  dup5\n    /* \"#utility.yul\":3263:3269   */\n  dup3\n    /* \"#utility.yul\":3256:3260   */\n  0x20\n    /* \"#utility.yul\":3248:3254   */\n  dup7\n    /* \"#utility.yul\":3244:3261   */\n  add\n    /* \"#utility.yul\":3170:3275   */\n  tag_43\n  jump\t// in\ntag_96:\n    /* \"#utility.yul\":3161:3275   */\n  swap2\n  pop\n    /* \"#utility.yul\":2984:3281   */\n  pop\n    /* \"#utility.yul\":2896:3281   */\n  swap3\n  swap2\n  pop\n  pop\n  jump\t// out\n    /* \"#utility.yul\":3287:3364   */\ntag_45:\n    /* \"#utility.yul\":3324:3331   */\n  0x00\n    /* \"#utility.yul\":3353:3358   */\n  dup2\n    /* \"#utility.yul\":3342:3358   */\n  swap1\n  pop\n    /* \"#utility.yul\":3287:3364   */\n  swap2\n  swap1\n  pop\n  jump\t// out\n    /* \"#utility.yul\":3370:3492   */\ntag_46:\n    /* \"#utility.yul\":3443:3467   */\n  tag_99\n    /* \"#utility.yul\":3461:3466   */\n  dup2\n    /* \"#utility.yul\":3443:3467   */\n  tag_45\n  jump\t// in\ntag_99:\n    /* \"#utility.yul\":3436:3441   */\n  dup2\n    /* \"#utility.yul\":3433:3468   */\n  eq\n    /* \"#utility.yul\":3423:3486   */\n  tag_100\n  jumpi\n    /* \"#utility.yul\":3482:3483   */\n  0x00\n    /* \"#utility.yul\":3479:3480   */\n  dup1\n    /* \"#utility.yul\":3472:3484   */\n  revert\n    /* \"#utility.yul\":3423:3486   */\ntag_100:\n    /* \"#utility.yul\":3370:3492   */\n  pop\n  jump\t// out\n    /* \"#utility.yul\":3498:3641   */\ntag_47:\n    /* \"#utility.yul\":3555:3560   */\n  0x00\n    /* \"#utility.yul\":3586:3592   */\n  dup2\n    /* \"#utility.yul\":3580:3593   */\n  mload\n    /* \"#utility.yul\":3571:3593   */\n  swap1\n  pop\n    /* \"#utility.yul\":3602:3635   */\n  tag_102\n    /* \"#utility.yul\":3629:3634   */\n  dup2\n    /* \"#utility.yul\":3602:3635   */\n  tag_46\n  jump\t// in\ntag_102:\n    /* \"#utility.yul\":3498:3641   */\n  swap3\n  swap2\n  pop\n  pop\n  jump\t// out\n    /* \"#utility.yul\":3647:4357   */\ntag_3:\n    /* \"#utility.yul\":3751:3757   */\n  0x00\n    /* \"#utility.yul\":3759:3765   */\n  dup1\n    /* \"#utility.yul\":3808:3810   */\n  0x40\n    /* \"#utility.yul\":3796:3805   */\n  dup4\n    /* \"#utility.yul\":3787:3794   */\n  dup6\n    /* \"#utility.yul\":3783:3806   */\n  sub\n    /* \"#utility.yul\":3779:3811   */\n  slt\n    /* \"#utility.yul\":3776:3895   */\n  iszero\n  tag_104\n  jumpi\n    /* \"#utility.yul\":3814:3893   */\n  tag_105\n  tag_30\n  jump\t// in\ntag_105:\n    /* \"#utility.yul\":3776:3895   */\ntag_104:\n    /* \"#utility.yul\":3955:3956   */\n  0x00\n    /* \"#utility.yul\":3944:3953   */\n  dup4\n    /* \"#utility.yul\":3940:3957   */\n  add\n    /* \"#utility.yul\":3934:3958   */\n  mload\n    /* \"#utility.yul\":3985:4003   */\n  0xffffffffffffffff\n    /* \"#utility.yul\":3977:3983   */\n  dup2\n    /* \"#utility.yul\":3974:4004   */\n  gt\n    /* \"#utility.yul\":3971:4088   */\n  iszero\n  tag_106\n  jumpi\n    /* \"#utility.yul\":4007:4086   */\n  tag_107\n  tag_31\n  jump\t// in\ntag_107:\n    /* \"#utility.yul\":3971:4088   */\ntag_106:\n    /* \"#utility.yul\":4112:4201   */\n  tag_108\n    /* \"#utility.yul\":4193:4200   */\n  dup6\n    /* \"#utility.yul\":4184:4190   */\n  dup3\n    /* \"#utility.yul\":4173:4182   */\n  dup7\n    /* \"#utility.yul\":4169:4191   */\n  add\n    /* \"#utility.yul\":4112:4201   */\n  tag_44\n  jump\t// in\ntag_108:\n    /* \"#utility.yul\":4102:4201   */\n  swap3\n  pop\n    /* \"#utility.yul\":3905:4211   */\n  pop\n    /* \"#utility.yul\":4250:4252   */\n  0x20\n    /* \"#utility.yul\":4276:4340   */\n  tag_109\n    /* \"#utility.yul\":4332:4339   */\n  dup6\n    /* \"#utility.yul\":4323:4329   */\n  dup3\n    /* \"#utility.yul\":4312:4321   */\n  dup7\n    /* \"#utility.yul\":4308:4330   */\n  add\n    /* \"#utility.yul\":4276:4340   */\n  tag_47\n  jump\t// in\ntag_109:\n    /* \"#utility.yul\":4266:4340   */\n  swap2\n  pop\n    /* \"#utility.yul\":4221:4350   */\n  pop\n    /* \"#utility.yul\":3647:4357   */\n  swap3\n  pop\n  swap3\n  swap1\n  pop\n  jump\t// out\n    /* \"#utility.yul\":4363:4532   */\ntag_48:\n    /* \"#utility.yul\":4447:4458   */\n  0x00\n    /* \"#utility.yul\":4481:4487   */\n  dup3\n    /* \"#utility.yul\":4476:4479   */\n  dup3\n    /* \"#utility.yul\":4469:4488   */\n  mstore\n    /* \"#utility.yul\":4521:4525   */\n  0x20\n    /* \"#utility.yul\":4516:4519   */\n  dup3\n    /* \"#utility.yul\":4512:4526   */\n  add\n    /* \"#utility.yul\":4497:4526   */\n  swap1\n  pop\n    /* \"#utility.yul\":4363:4532   */\n  swap3\n  swap2\n  pop\n  pop\n  jump\t// out\n    /* \"#utility.yul\":4538:4707   */\ntag_49:\n    /* \"#utility.yul\":4678:4699   */\n  0x4d7573742068617665203e31206f776e65727300000000000000000000000000\n    /* \"#utility.yul\":4674:4675   */\n  0x00\n    /* \"#utility.yul\":4666:4672   */\n  dup3\n    /* \"#utility.yul\":4662:4676   */\n  add\n    /* \"#utility.yul\":4655:4700   */\n  mstore\n    /* \"#utility.yul\":4538:4707   */\n  pop\n  jump\t// out\n    /* \"#utility.yul\":4713:5079   */\ntag_50:\n    /* \"#utility.yul\":4855:4858   */\n  0x00\n    /* \"#utility.yul\":4876:4943   */\n  tag_113\n    /* \"#utility.yul\":4940:4942   */\n  0x13\n    /* \"#utility.yul\":4935:4938   */\n  dup4\n    /* \"#utility.yul\":4876:4943   */\n  tag_48\n  jump\t// in\ntag_113:\n    /* \"#utility.yul\":4869:4943   */\n  swap2\n  pop\n    /* \"#utility.yul\":4952:5045   */\n  tag_114\n    /* \"#utility.yul\":5041:5044   */\n  dup3\n    /* \"#utility.yul\":4952:5045   */\n  tag_49\n  jump\t// in\ntag_114:\n    /* \"#utility.yul\":5070:5072   */\n  0x20\n    /* \"#utility.yul\":5065:5068   */\n  dup3\n    /* \"#utility.yul\":5061:5073   */\n  add\n    /* \"#utility.yul\":5054:5073   */\n  swap1\n  pop\n    /* \"#utility.yul\":4713:5079   */\n  swap2\n  swap1\n  pop\n  jump\t// out\n    /* \"#utility.yul\":5085:5504   */\ntag_8:\n    /* \"#utility.yul\":5251:5255   */\n  0x00\n    /* \"#utility.yul\":5289:5291   */\n  0x20\n    /* \"#utility.yul\":5278:5287   */\n  dup3\n    /* \"#utility.yul\":5274:5292   */\n  add\n    /* \"#utility.yul\":5266:5292   */\n  swap1\n  pop\n    /* \"#utility.yul\":5338:5347   */\n  dup2\n    /* \"#utility.yul\":5332:5336   */\n  dup2\n    /* \"#utility.yul\":5328:5348   */\n  sub\n    /* \"#utility.yul\":5324:5325   */\n  0x00\n    /* \"#utility.yul\":5313:5322   */\n  dup4\n    /* \"#utility.yul\":5309:5326   */\n  add\n    /* \"#utility.yul\":5302:5349   */\n  mstore\n    /* \"#utility.yul\":5366:5497   */\n  tag_116\n    /* \"#utility.yul\":5492:5496   */\n  dup2\n    /* \"#utility.yul\":5366:5497   */\n  tag_50\n  jump\t// in\ntag_116:\n    /* \"#utility.yul\":5358:5497   */\n  swap1\n  pop\n    /* \"#utility.yul\":5085:5504   */\n  swap2\n  swap1\n  pop\n  jump\t// out\n    /* \"#utility.yul\":5510:5691   */\ntag_51:\n    /* \"#utility.yul\":5650:5683   */\n  0x496e76616c6964204e756d626572206f6620436f6e6669726d6174696f6e7300\n    /* \"#utility.yul\":5646:5647   */\n  0x00\n    /* \"#utility.yul\":5638:5644   */\n  dup3\n    /* \"#utility.yul\":5634:5648   */\n  add\n    /* \"#utility.yul\":5627:5684   */\n  mstore\n    /* \"#utility.yul\":5510:5691   */\n  pop\n  jump\t// out\n    /* \"#utility.yul\":5697:6063   */\ntag_52:\n    /* \"#utility.yul\":5839:5842   */\n  0x00\n    /* \"#utility.yul\":5860:5927   */\n  tag_119\n    /* \"#utility.yul\":5924:5926   */\n  0x1f\n    /* \"#utility.yul\":5919:5922   */\n  dup4\n    /* \"#utility.yul\":5860:5927   */\n  tag_48\n  jump\t// in\ntag_119:\n    /* \"#utility.yul\":5853:5927   */\n  swap2\n  pop\n    /* \"#utility.yul\":5936:6029   */\n  tag_120\n    /* \"#utility.yul\":6025:6028   */\n  dup3\n    /* \"#utility.yul\":5936:6029   */\n  tag_51\n  jump\t// in\ntag_120:\n    /* \"#utility.yul\":6054:6056   */\n  0x20\n    /* \"#utility.yul\":6049:6052   */\n  dup3\n    /* \"#utility.yul\":6045:6057   */\n  add\n    /* \"#utility.yul\":6038:6057   */\n  swap1\n  pop\n    /* \"#utility.yul\":5697:6063   */\n  swap2\n  swap1\n  pop\n  jump\t// out\n    /* \"#utility.yul\":6069:6488   */\ntag_12:\n    /* \"#utility.yul\":6235:6239   */\n  0x00\n    /* \"#utility.yul\":6273:6275   */\n  0x20\n    /* \"#utility.yul\":6262:6271   */\n  dup3\n    /* \"#utility.yul\":6258:6276   */\n  add\n    /* \"#utility.yul\":6250:6276   */\n  swap1\n  pop\n    /* \"#utility.yul\":6322:6331   */\n  dup2\n    /* \"#utility.yul\":6316:6320   */\n  dup2\n    /* \"#utility.yul\":6312:6332   */\n  sub\n    /* \"#utility.yul\":6308:6309   */\n  0x00\n    /* \"#utility.yul\":6297:6306   */\n  dup4\n    /* \"#utility.yul\":6293:6310   */\n  add\n    /* \"#utility.yul\":6286:6333   */\n  mstore\n    /* \"#utility.yul\":6350:6481   */\n  tag_122\n    /* \"#utility.yul\":6476:6480   */\n  dup2\n    /* \"#utility.yul\":6350:6481   */\n  tag_52\n  jump\t// in\ntag_122:\n    /* \"#utility.yul\":6342:6481   */\n  swap1\n  pop\n    /* \"#utility.yul\":6069:6488   */\n  swap2\n  swap1\n  pop\n  jump\t// out\n    /* \"#utility.yul\":6494:6674   */\ntag_18:\n    /* \"#utility.yul\":6542:6619   */\n  0x4e487b7100000000000000000000000000000000000000000000000000000000\n    /* \"#utility.yul\":6539:6540   */\n  0x00\n    /* \"#utility.yul\":6532:6620   */\n  mstore\n    /* \"#utility.yul\":6639:6643   */\n  0x32\n    /* \"#utility.yul\":6636:6637   */\n  0x04\n    /* \"#utility.yul\":6629:6644   */\n  mstore\n    /* \"#utility.yul\":6663:6667   */\n  0x24\n    /* \"#utility.yul\":6660:6661   */\n  0x00\n    /* \"#utility.yul\":6653:6668   */\n  revert\n    /* \"#utility.yul\":6680:6861   */\ntag_53:\n    /* \"#utility.yul\":6820:6853   */\n  0x43616e742068617665205a65726f2061646472657373206173206f776e657200\n    /* \"#utility.yul\":6816:6817   */\n  0x00\n    /* \"#utility.yul\":6808:6814   */\n  dup3\n    /* \"#utility.yul\":6804:6818   */\n  add\n    /* \"#utility.yul\":6797:6854   */\n  mstore\n    /* \"#utility.yul\":6680:6861   */\n  pop\n  jump\t// out\n    /* \"#utility.yul\":6867:7233   */\ntag_54:\n    /* \"#utility.yul\":7009:7012   */\n  0x00\n    /* \"#utility.yul\":7030:7097   */\n  tag_126\n    /* \"#utility.yul\":7094:7096   */\n  0x1f\n    /* \"#utility.yul\":7089:7092   */\n  dup4\n    /* \"#utility.yul\":7030:7097   */\n  tag_48\n  jump\t// in\ntag_126:\n    /* \"#utility.yul\":7023:7097   */\n  swap2\n  pop\n    /* \"#utility.yul\":7106:7199   */\n  tag_127\n    /* \"#utility.yul\":7195:7198   */\n  dup3\n    /* \"#utility.yul\":7106:7199   */\n  tag_53\n  jump\t// in\ntag_127:\n    /* \"#utility.yul\":7224:7226   */\n  0x20\n    /* \"#utility.yul\":7219:7222   */\n  dup3\n    /* \"#utility.yul\":7215:7227   */\n  add\n    /* \"#utility.yul\":7208:7227   */\n  swap1\n  pop\n    /* \"#utility.yul\":6867:7233   */\n  swap2\n  swap1\n  pop\n  jump\t// out\n    /* \"#utility.yul\":7239:7658   */\ntag_21:\n    /* \"#utility.yul\":7405:7409   */\n  0x00\n    /* \"#utility.yul\":7443:7445   */\n  0x20\n    /* \"#utility.yul\":7432:7441   */\n  dup3\n    /* \"#utility.yul\":7428:7446   */\n  add\n    /* \"#utility.yul\":7420:7446   */\n  swap1\n  pop\n    /* \"#utility.yul\":7492:7501   */\n  dup2\n    /* \"#utility.yul\":7486:7490   */\n  dup2\n    /* \"#utility.yul\":7482:7502   */\n  sub\n    /* \"#utility.yul\":7478:7479   */\n  0x00\n    /* \"#utility.yul\":7467:7476   */\n  dup4\n    /* \"#utility.yul\":7463:7480   */\n  add\n    /* \"#utility.yul\":7456:7503   */\n  mstore\n    /* \"#utility.yul\":7520:7651   */\n  tag_129\n    /* \"#utility.yul\":7646:7650   */\n  dup2\n    /* \"#utility.yul\":7520:7651   */\n  tag_54\n  jump\t// in\ntag_129:\n    /* \"#utility.yul\":7512:7651   */\n  swap1\n  pop\n    /* \"#utility.yul\":7239:7658   */\n  swap2\n  swap1\n  pop\n  jump\t// out\n    /* \"#utility.yul\":7664:7842   */\ntag_55:\n    /* \"#utility.yul\":7804:7834   */\n  0x4475706c6963617465204f776e6572206e6f7420616c6c6f7765642100000000\n    /* \"#utility.yul\":7800:7801   */\n  0x00\n    /* \"#utility.yul\":7792:7798   */\n  dup3\n    /* \"#utility.yul\":7788:7802   */\n  add\n    /* \"#utility.yul\":7781:7835   */\n  mstore\n    /* \"#utility.yul\":7664:7842   */\n  pop\n  jump\t// out\n    /* \"#utility.yul\":7848:8214   */\ntag_56:\n    /* \"#utility.yul\":7990:7993   */\n  0x00\n    /* \"#utility.yul\":8011:8078   */\n  tag_132\n    /* \"#utility.yul\":8075:8077   */\n  0x1c\n    /* \"#utility.yul\":8070:8073   */\n  dup4\n    /* \"#utility.yul\":8011:8078   */\n  tag_48\n  jump\t// in\ntag_132:\n    /* \"#utility.yul\":8004:8078   */\n  swap2\n  pop\n    /* \"#utility.yul\":8087:8180   */\n  tag_133\n    /* \"#utility.yul\":8176:8179   */\n  dup3\n    /* \"#utility.yul\":8087:8180   */\n  tag_55\n  jump\t// in\ntag_133:\n    /* \"#utility.yul\":8205:8207   */\n  0x20\n    /* \"#utility.yul\":8200:8203   */\n  dup3\n    /* \"#utility.yul\":8196:8208   */\n  add\n    /* \"#utility.yul\":8189:8208   */\n  swap1\n  pop\n    /* \"#utility.yul\":7848:8214   */\n  swap2\n  swap1\n  pop\n  jump\t// out\n    /* \"#utility.yul\":8220:8639   */\ntag_24:\n    /* \"#utility.yul\":8386:8390   */\n  0x00\n    /* \"#utility.yul\":8424:8426   */\n  0x20\n    /* \"#utility.yul\":8413:8422   */\n  dup3\n    /* \"#utility.yul\":8409:8427   */\n  add\n    /* \"#utility.yul\":8401:8427   */\n  swap1\n  pop\n    /* \"#utility.yul\":8473:8482   */\n  dup2\n    /* \"#utility.yul\":8467:8471   */\n  dup2\n    /* \"#utility.yul\":8463:8483   */\n  sub\n    /* \"#utility.yul\":8459:8460   */\n  0x00\n    /* \"#utility.yul\":8448:8457   */\n  dup4\n    /* \"#utility.yul\":8444:8461   */\n  add\n    /* \"#utility.yul\":8437:8484   */\n  mstore\n    /* \"#utility.yul\":8501:8632   */\n  tag_135\n    /* \"#utility.yul\":8627:8631   */\n  dup2\n    /* \"#utility.yul\":8501:8632   */\n  tag_56\n  jump\t// in\ntag_135:\n    /* \"#utility.yul\":8493:8632   */\n  swap1\n  pop\n    /* \"#utility.yul\":8220:8639   */\n  swap2\n  swap1\n  pop\n  jump\t// out\n    /* \"#utility.yul\":8645:8825   */\ntag_57:\n    /* \"#utility.yul\":8693:8770   */\n  0x4e487b7100000000000000000000000000000000000000000000000000000000\n    /* \"#utility.yul\":8690:8691   */\n  0x00\n    /* \"#utility.yul\":8683:8771   */\n  mstore\n    /* \"#utility.yul\":8790:8794   */\n  0x11\n    /* \"#utility.yul\":8787:8788   */\n  0x04\n    /* \"#utility.yul\":8780:8795   */\n  mstore\n    /* \"#utility.yul\":8814:8818   */\n  0x24\n    /* \"#utility.yul\":8811:8812   */\n  0x00\n    /* \"#utility.yul\":8804:8819   */\n  revert\n    /* \"#utility.yul\":8831:9064   */\ntag_27:\n    /* \"#utility.yul\":8870:8873   */\n  0x00\n    /* \"#utility.yul\":8893:8917   */\n  tag_138\n    /* \"#utility.yul\":8911:8916   */\n  dup3\n    /* \"#utility.yul\":8893:8917   */\n  tag_45\n  jump\t// in\ntag_138:\n    /* \"#utility.yul\":8884:8917   */\n  swap2\n  pop\n    /* \"#utility.yul\":8939:9005   */\n  0xffffffffffffffffffffffffffffffffffffffffffffffffffffffffffffffff\n    /* \"#utility.yul\":8932:8937   */\n  dup3\n    /* \"#utility.yul\":8929:9006   */\n  eq\n    /* \"#utility.yul\":8926:9029   */\n  iszero\n  tag_139\n  jumpi\n    /* \"#utility.yul\":9009:9027   */\n  tag_140\n  tag_57\n  jump\t// in\ntag_140:\n    /* \"#utility.yul\":8926:9029   */\ntag_139:\n    /* \"#utility.yul\":9056:9057   */\n  0x01\n    /* \"#utility.yul\":9049:9054   */\n  dup3\n    /* \"#utility.yul\":9045:9058   */\n  add\n    /* \"#utility.yul\":9038:9058   */\n  swap1\n  pop\n    /* \"#utility.yul\":8831:9064   */\n  swap2\n  swap1\n  pop\n  jump\t// out\n    /* \"Documents/EthDev/Projects2/SolidityByExamples/MultiSigWallet/contracts/MultiSigWallet.sol\":61:2644  contract MultiSigWallet {... */\ntag_28:\n  dataSize(sub_0)\n  dup1\n  dataOffset(sub_0)\n  0x00\n  codecopy\n  0x00\n  return\nstop\n\nsub_0: assembly {\n        /* \"Documents/EthDev/Projects2/SolidityByExamples/MultiSigWallet/contracts/MultiSigWallet.sol\":61:2644  contract MultiSigWallet {... */\n      mstore(0x40, 0x80)\n      jumpi(tag_1, lt(calldatasize, 0x04))\n      shr(0xe0, calldataload(0x00))\n      dup1\n      0x025e7c27\n      eq\n      tag_3\n      jumpi\n      dup1\n      0x2f54bf6e\n      eq\n      tag_4\n      jumpi\n      dup1\n      0x9ace38c2\n      eq\n      tag_5\n      jumpi\n      dup1\n      0x9ba83e1b\n      eq\n      tag_6\n      jumpi\n      dup1\n      0xb032e075\n      eq\n      tag_7\n      jumpi\n      dup1\n      0xc6427474\n      eq\n      tag_8\n      jumpi\n      jump(tag_2)\n    tag_1:\n      jumpi(tag_2, calldatasize)\n        /* \"Documents/EthDev/Projects2/SolidityByExamples/MultiSigWallet/contracts/MultiSigWallet.sol\":2298:2308  msg.sender */\n      caller\n        /* \"Documents/EthDev/Projects2/SolidityByExamples/MultiSigWallet/contracts/MultiSigWallet.sol\":2290:2343  Deposit(msg.sender, msg.value, address(this).balance) */\n      0xffffffffffffffffffffffffffffffffffffffff\n      and\n      0x90890809c654f11d6e72a28fa60149770a0d11ec6c92319d6ceb2bb0a4ea1a15\n        /* \"Documents/EthDev/Projects2/SolidityByExamples/MultiSigWallet/contracts/MultiSigWallet.sol\":2310:2319  msg.value */\n      callvalue\n        /* \"Documents/EthDev/Projects2/SolidityByExamples/MultiSigWallet/contracts/MultiSigWallet.sol\":2321:2342  address(this).balance */\n      selfbalance\n        /* \"Documents/EthDev/Projects2/SolidityByExamples/MultiSigWallet/contracts/MultiSigWallet.sol\":2290:2343  Deposit(msg.sender, msg.value, address(this).balance) */\n      mload(0x40)\n      tag_11\n      swap3\n      swap2\n      swap1\n      tag_12\n      jump\t// in\n    tag_11:\n      mload(0x40)\n      dup1\n      swap2\n      sub\n      swap1\n      log2\n        /* \"Documents/EthDev/Projects2/SolidityByExamples/MultiSigWallet/contracts/MultiSigWallet.sol\":61:2644  contract MultiSigWallet {... */\n      stop\n    tag_2:\n      0x00\n      dup1\n      revert\n        /* \"Documents/EthDev/Projects2/SolidityByExamples/MultiSigWallet/contracts/MultiSigWallet.sol\":494:517  address[] public owners */\n    tag_3:\n      callvalue\n      dup1\n      iszero\n      tag_13\n      jumpi\n      0x00\n      dup1\n      revert\n    tag_13:\n      pop\n      tag_14\n      0x04\n      dup1\n      calldatasize\n      sub\n      dup2\n      add\n      swap1\n      tag_15\n      swap2\n      swap1\n      tag_16\n      jump\t// in\n    tag_15:\n      tag_17\n      jump\t// in\n    tag_14:\n      mload(0x40)\n      tag_18\n      swap2\n      swap1\n      tag_19\n      jump\t// in\n    tag_18:\n      mload(0x40)\n      dup1\n      swap2\n      sub\n      swap1\n      return\n        /* \"Documents/EthDev/Projects2/SolidityByExamples/MultiSigWallet/contracts/MultiSigWallet.sol\":731:770  mapping(address => bool) public isOwner */\n    tag_4:\n      callvalue\n      dup1\n      iszero\n      tag_20\n      jumpi\n      0x00\n      dup1\n      revert\n    tag_20:\n      pop\n      tag_21\n      0x04\n      dup1\n      calldatasize\n      sub\n      dup2\n      add\n      swap1\n      tag_22\n      swap2\n      swap1\n      tag_23\n      jump\t// in\n    tag_22:\n      tag_24\n      jump\t// in\n    tag_21:\n      mload(0x40)\n      tag_25\n      swap2\n      swap1\n      tag_26\n      jump\t// in\n    tag_25:\n      mload(0x40)\n      dup1\n      swap2\n      sub\n      swap1\n      return\n        /* \"Documents/EthDev/Projects2/SolidityByExamples/MultiSigWallet/contracts/MultiSigWallet.sol\":943:976  Transaction[] public transactions */\n    tag_5:\n      callvalue\n      dup1\n      iszero\n      tag_27\n      jumpi\n      0x00\n      dup1\n      revert\n    tag_27:\n      pop\n      tag_28\n      0x04\n      dup1\n      calldatasize\n      sub\n      dup2\n      add\n      swap1\n      tag_29\n      swap2\n      swap1\n      tag_16\n      jump\t// in\n    tag_29:\n      tag_30\n      jump\t// in\n    tag_28:\n      mload(0x40)\n      tag_31\n      swap6\n      swap5\n      swap4\n      swap3\n      swap2\n      swap1\n      tag_32\n      jump\t// in\n    tag_31:\n      mload(0x40)\n      dup1\n      swap2\n      sub\n      swap1\n      return\n        /* \"Documents/EthDev/Projects2/SolidityByExamples/MultiSigWallet/contracts/MultiSigWallet.sol\":860:918  mapping(uint => mapping(address => bool)) public isConfirm */\n    tag_6:\n      callvalue\n      dup1\n      iszero\n      tag_33\n      jumpi\n      0x00\n      dup1\n      revert\n    tag_33:\n      pop\n      tag_34\n      0x04\n      dup1\n      calldatasize\n      sub\n      dup2\n      add\n      swap1\n      tag_35\n      swap2\n      swap1\n      tag_36\n      jump\t// in\n    tag_35:\n      tag_37\n      jump\t// in\n    tag_34:\n      mload(0x40)\n      tag_38\n      swap2\n      swap1\n      tag_26\n      jump\t// in\n    tag_38:\n      mload(0x40)\n      dup1\n      swap2\n      sub\n      swap1\n      return\n        /* \"Documents/EthDev/Projects2/SolidityByExamples/MultiSigWallet/contracts/MultiSigWallet.sol\":985:1015  uint public numOfConfirmations */\n    tag_7:\n      callvalue\n      dup1\n      iszero\n      tag_39\n      jumpi\n      0x00\n      dup1\n      revert\n    tag_39:\n      pop\n      tag_40\n      tag_41\n      jump\t// in\n    tag_40:\n      mload(0x40)\n      tag_42\n      swap2\n      swap1\n      tag_43\n      jump\t// in\n    tag_42:\n      mload(0x40)\n      dup1\n      swap2\n      sub\n      swap1\n      return\n        /* \"Documents/EthDev/Projects2/SolidityByExamples/MultiSigWallet/contracts/MultiSigWallet.sol\":2359:2639  function submitTransaction(address _to, uint _value, bytes memory _data) external onlyOwner {... */\n    tag_8:\n      callvalue\n      dup1\n      iszero\n      tag_44\n      jumpi\n      0x00\n      dup1\n      revert\n    tag_44:\n      pop\n      tag_45\n      0x04\n      dup1\n      calldatasize\n      sub\n      dup2\n      add\n      swap1\n      tag_46\n      swap2\n      swap1\n      tag_47\n      jump\t// in\n    tag_46:\n      tag_48\n      jump\t// in\n    tag_45:\n      stop\n        /* \"Documents/EthDev/Projects2/SolidityByExamples/MultiSigWallet/contracts/MultiSigWallet.sol\":494:517  address[] public owners */\n    tag_17:\n      0x00\n      dup2\n      dup2\n      sload\n      dup2\n      lt\n      tag_49\n      jumpi\n      0x00\n      dup1\n      revert\n    tag_49:\n      swap1\n      0x00\n      mstore\n      keccak256(0x00, 0x20)\n      add\n      0x00\n      swap2\n      pop\n      sload\n      swap1\n      0x0100\n      exp\n      swap1\n      div\n      0xffffffffffffffffffffffffffffffffffffffff\n      and\n      dup2\n      jump\t// out\n        /* \"Documents/EthDev/Projects2/SolidityByExamples/MultiSigWallet/contracts/MultiSigWallet.sol\":731:770  mapping(address => bool) public isOwner */\n    tag_24:\n      mstore(0x20, 0x01)\n      dup1\n      0x00\n      mstore\n      keccak256(0x00, 0x40)\n      0x00\n      swap2\n      pop\n      sload\n      swap1\n      0x0100\n      exp\n      swap1\n      div\n      0xff\n      and\n      dup2\n      jump\t// out\n        /* \"Documents/EthDev/Projects2/SolidityByExamples/MultiSigWallet/contracts/MultiSigWallet.sol\":943:976  Transaction[] public transactions */\n    tag_30:\n      0x03\n      dup2\n      dup2\n      sload\n      dup2\n      lt\n      tag_51\n      jumpi\n      0x00\n      dup1\n      revert\n    tag_51:\n      swap1\n      0x00\n      mstore\n      keccak256(0x00, 0x20)\n      swap1\n      0x05\n      mul\n      add\n      0x00\n      swap2\n      pop\n      swap1\n      pop\n      dup1\n      0x00\n      add\n      0x00\n      swap1\n      sload\n      swap1\n      0x0100\n      exp\n      swap1\n      div\n      0xffffffffffffffffffffffffffffffffffffffff\n      and\n      swap1\n      dup1\n      0x01\n      add\n      sload\n      swap1\n      dup1\n      0x02\n      add\n      dup1\n      sload\n      tag_53\n      swap1\n      tag_54\n      jump\t// in\n    tag_53:\n      dup1\n      0x1f\n      add\n      0x20\n      dup1\n      swap2\n      div\n      mul\n      0x20\n      add\n      mload(0x40)\n      swap1\n      dup2\n      add\n      0x40\n      mstore\n      dup1\n      swap3\n      swap2\n      swap1\n      dup2\n      dup2\n      mstore\n      0x20\n      add\n      dup3\n      dup1\n      sload\n      tag_55\n      swap1\n      tag_54\n      jump\t// in\n    tag_55:\n      dup1\n      iszero\n      tag_56\n      jumpi\n      dup1\n      0x1f\n      lt\n      tag_57\n      jumpi\n      0x0100\n      dup1\n      dup4\n      sload\n      div\n      mul\n      dup4\n      mstore\n      swap2\n      0x20\n      add\n      swap2\n      jump(tag_56)\n    tag_57:\n      dup3\n      add\n      swap2\n      swap1\n      0x00\n      mstore\n      keccak256(0x00, 0x20)\n      swap1\n    tag_58:\n      dup2\n      sload\n      dup2\n      mstore\n      swap1\n      0x01\n      add\n      swap1\n      0x20\n      add\n      dup1\n      dup4\n      gt\n      tag_58\n      jumpi\n      dup3\n      swap1\n      sub\n      0x1f\n      and\n      dup3\n      add\n      swap2\n    tag_56:\n      pop\n      pop\n      pop\n      pop\n      pop\n      swap1\n      dup1\n      0x03\n      add\n      0x00\n      swap1\n      sload\n      swap1\n      0x0100\n      exp\n      swap1\n      div\n      0xff\n      and\n      swap1\n      dup1\n      0x04\n      add\n      sload\n      swap1\n      pop\n      dup6\n      jump\t// out\n        /* \"Documents/EthDev/Projects2/SolidityByExamples/MultiSigWallet/contracts/MultiSigWallet.sol\":860:918  mapping(uint => mapping(address => bool)) public isConfirm */\n    tag_37:\n      mstore(0x20, 0x02)\n      dup2\n      0x00\n      mstore\n      mstore(0x20, keccak256(0x00, 0x40))\n      dup1\n      0x00\n      mstore\n      keccak256(0x00, 0x40)\n      0x00\n      swap2\n      pop\n      swap2\n      pop\n      swap1\n      sload\n      swap1\n      0x0100\n      exp\n      swap1\n      div\n      0xff\n      and\n      dup2\n      jump\t// out\n        /* \"Documents/EthDev/Projects2/SolidityByExamples/MultiSigWallet/contracts/MultiSigWallet.sol\":985:1015  uint public numOfConfirmations */\n    tag_41:\n      sload(0x04)\n      dup2\n      jump\t// out\n        /* \"Documents/EthDev/Projects2/SolidityByExamples/MultiSigWallet/contracts/MultiSigWallet.sol\":2359:2639  function submitTransaction(address _to, uint _value, bytes memory _data) external onlyOwner {... */\n    tag_48:\n        /* \"Documents/EthDev/Projects2/SolidityByExamples/MultiSigWallet/contracts/MultiSigWallet.sol\":1064:1071  isOwner */\n      0x01\n        /* \"Documents/EthDev/Projects2/SolidityByExamples/MultiSigWallet/contracts/MultiSigWallet.sol\":1064:1083  isOwner[msg.sender] */\n      0x00\n        /* \"Documents/EthDev/Projects2/SolidityByExamples/MultiSigWallet/contracts/MultiSigWallet.sol\":1072:1082  msg.sender */\n      caller\n        /* \"Documents/EthDev/Projects2/SolidityByExamples/MultiSigWallet/contracts/MultiSigWallet.sol\":1064:1083  isOwner[msg.sender] */\n      0xffffffffffffffffffffffffffffffffffffffff\n      and\n      0xffffffffffffffffffffffffffffffffffffffff\n      and\n      dup2\n      mstore\n      0x20\n      add\n      swap1\n      dup2\n      mstore\n      0x20\n      add\n      0x00\n      keccak256\n      0x00\n      swap1\n      sload\n      swap1\n      0x0100\n      exp\n      swap1\n      div\n      0xff\n      and\n        /* \"Documents/EthDev/Projects2/SolidityByExamples/MultiSigWallet/contracts/MultiSigWallet.sol\":1056:1129  require(isOwner[msg.sender], \"Only Owners can access this functionality\") */\n      tag_60\n      jumpi\n      mload(0x40)\n      0x08c379a000000000000000000000000000000000000000000000000000000000\n      dup2\n      mstore\n      0x04\n      add\n      tag_61\n      swap1\n      tag_62\n      jump\t// in\n    tag_61:\n      mload(0x40)\n      dup1\n      swap2\n      sub\n      swap1\n      revert\n    tag_60:\n        /* \"Documents/EthDev/Projects2/SolidityByExamples/MultiSigWallet/contracts/MultiSigWallet.sol\":2462:2471  uint txId */\n      0x00\n        /* \"Documents/EthDev/Projects2/SolidityByExamples/MultiSigWallet/contracts/MultiSigWallet.sol\":2474:2486  transactions */\n      0x03\n        /* \"Documents/EthDev/Projects2/SolidityByExamples/MultiSigWallet/contracts/MultiSigWallet.sol\":2474:2493  transactions.length */\n      dup1\n      sload\n      swap1\n      pop\n        /* \"Documents/EthDev/Projects2/SolidityByExamples/MultiSigWallet/contracts/MultiSigWallet.sol\":2462:2493  uint txId = transactions.length */\n      swap1\n      pop\n        /* \"Documents/EthDev/Projects2/SolidityByExamples/MultiSigWallet/contracts/MultiSigWallet.sol\":2506:2518  transactions */\n      0x03\n        /* \"Documents/EthDev/Projects2/SolidityByExamples/MultiSigWallet/contracts/MultiSigWallet.sol\":2524:2565  Transaction(_to, _value, _data, false, 0) */\n      mload(0x40)\n      dup1\n      0xa0\n      add\n      0x40\n      mstore\n      dup1\n        /* \"Documents/EthDev/Projects2/SolidityByExamples/MultiSigWallet/contracts/MultiSigWallet.sol\":2536:2539  _to */\n      dup7\n        /* \"Documents/EthDev/Projects2/SolidityByExamples/MultiSigWallet/contracts/MultiSigWallet.sol\":2524:2565  Transaction(_to, _value, _data, false, 0) */\n      0xffffffffffffffffffffffffffffffffffffffff\n      and\n      dup2\n      mstore\n      0x20\n      add\n        /* \"Documents/EthDev/Projects2/SolidityByExamples/MultiSigWallet/contracts/MultiSigWallet.sol\":2541:2547  _value */\n      dup6\n        /* \"Documents/EthDev/Projects2/SolidityByExamples/MultiSigWallet/contracts/MultiSigWallet.sol\":2524:2565  Transaction(_to, _value, _data, false, 0) */\n      dup2\n      mstore\n      0x20\n      add\n        /* \"Documents/EthDev/Projects2/SolidityByExamples/MultiSigWallet/contracts/MultiSigWallet.sol\":2549:2554  _data */\n      dup5\n        /* \"Documents/EthDev/Projects2/SolidityByExamples/MultiSigWallet/contracts/MultiSigWallet.sol\":2524:2565  Transaction(_to, _value, _data, false, 0) */\n      dup2\n      mstore\n      0x20\n      add\n        /* \"Documents/EthDev/Projects2/SolidityByExamples/MultiSigWallet/contracts/MultiSigWallet.sol\":2556:2561  false */\n      0x00\n        /* \"Documents/EthDev/Projects2/SolidityByExamples/MultiSigWallet/contracts/MultiSigWallet.sol\":2524:2565  Transaction(_to, _value, _data, false, 0) */\n      iszero\n      iszero\n      dup2\n      mstore\n      0x20\n      add\n        /* \"Documents/EthDev/Projects2/SolidityByExamples/MultiSigWallet/contracts/MultiSigWallet.sol\":2563:2564  0 */\n      0x00\n        /* \"Documents/EthDev/Projects2/SolidityByExamples/MultiSigWallet/contracts/MultiSigWallet.sol\":2524:2565  Transaction(_to, _value, _data, false, 0) */\n      dup2\n      mstore\n      pop\n        /* \"Documents/EthDev/Projects2/SolidityByExamples/MultiSigWallet/contracts/MultiSigWallet.sol\":2506:2566  transactions.push(Transaction(_to, _value, _data, false, 0)) */\n      swap1\n      dup1\n      0x01\n      dup2\n      sload\n      add\n      dup1\n      dup3\n      sstore\n      dup1\n      swap2\n      pop\n      pop\n      0x01\n      swap1\n      sub\n      swap1\n      0x00\n      mstore\n      keccak256(0x00, 0x20)\n      swap1\n      0x05\n      mul\n      add\n      0x00\n      swap1\n      swap2\n      swap1\n      swap2\n      swap1\n      swap2\n      pop\n      0x00\n      dup3\n      add\n      mload\n      dup2\n      0x00\n      add\n      exp(0x0100, 0x00)\n      dup2\n      sload\n      dup2\n      0xffffffffffffffffffffffffffffffffffffffff\n      mul\n      not\n      and\n      swap1\n      dup4\n      0xffffffffffffffffffffffffffffffffffffffff\n      and\n      mul\n      or\n      swap1\n      sstore\n      pop\n      0x20\n      dup3\n      add\n      mload\n      dup2\n      0x01\n      add\n      sstore\n      0x40\n      dup3\n      add\n      mload\n      dup2\n      0x02\n      add\n      swap1\n      dup1\n      mload\n      swap1\n      0x20\n      add\n      swap1\n      tag_65\n      swap3\n      swap2\n      swap1\n      tag_66\n      jump\t// in\n    tag_65:\n      pop\n      0x60\n      dup3\n      add\n      mload\n      dup2\n      0x03\n      add\n      exp(0x0100, 0x00)\n      dup2\n      sload\n      dup2\n      0xff\n      mul\n      not\n      and\n      swap1\n      dup4\n      iszero\n      iszero\n      mul\n      or\n      swap1\n      sstore\n      pop\n      0x80\n      dup3\n      add\n      mload\n      dup2\n      0x04\n      add\n      sstore\n      pop\n      pop\n        /* \"Documents/EthDev/Projects2/SolidityByExamples/MultiSigWallet/contracts/MultiSigWallet.sol\":2611:2615  txId */\n      dup1\n        /* \"Documents/EthDev/Projects2/SolidityByExamples/MultiSigWallet/contracts/MultiSigWallet.sol\":2606:2609  _to */\n      dup5\n        /* \"Documents/EthDev/Projects2/SolidityByExamples/MultiSigWallet/contracts/MultiSigWallet.sol\":2584:2631  Submitted(msg.sender, _to, txId, _value, _data) */\n      0xffffffffffffffffffffffffffffffffffffffff\n      and\n        /* \"Documents/EthDev/Projects2/SolidityByExamples/MultiSigWallet/contracts/MultiSigWallet.sol\":2594:2604  msg.sender */\n      caller\n        /* \"Documents/EthDev/Projects2/SolidityByExamples/MultiSigWallet/contracts/MultiSigWallet.sol\":2584:2631  Submitted(msg.sender, _to, txId, _value, _data) */\n      0xffffffffffffffffffffffffffffffffffffffff\n      and\n      0xc70c0c0ff6c60f55d0dab9fa570f029325751f9edcd8d1a8df81dc4528c5d68a\n        /* \"Documents/EthDev/Projects2/SolidityByExamples/MultiSigWallet/contracts/MultiSigWallet.sol\":2617:2623  _value */\n      dup7\n        /* \"Documents/EthDev/Projects2/SolidityByExamples/MultiSigWallet/contracts/MultiSigWallet.sol\":2625:2630  _data */\n      dup7\n        /* \"Documents/EthDev/Projects2/SolidityByExamples/MultiSigWallet/contracts/MultiSigWallet.sol\":2584:2631  Submitted(msg.sender, _to, txId, _value, _data) */\n      mload(0x40)\n      tag_67\n      swap3\n      swap2\n      swap1\n      tag_68\n      jump\t// in\n    tag_67:\n      mload(0x40)\n      dup1\n      swap2\n      sub\n      swap1\n      log4\n        /* \"Documents/EthDev/Projects2/SolidityByExamples/MultiSigWallet/contracts/MultiSigWallet.sol\":2451:2639  {... */\n      pop\n        /* \"Documents/EthDev/Projects2/SolidityByExamples/MultiSigWallet/contracts/MultiSigWallet.sol\":2359:2639  function submitTransaction(address _to, uint _value, bytes memory _data) external onlyOwner {... */\n      pop\n      pop\n      pop\n      jump\t// out\n    tag_66:\n      dup3\n      dup1\n      sload\n      tag_69\n      swap1\n      tag_54\n      jump\t// in\n    tag_69:\n      swap1\n      0x00\n      mstore\n      keccak256(0x00, 0x20)\n      swap1\n      0x1f\n      add\n      0x20\n      swap1\n      div\n      dup2\n      add\n      swap3\n      dup3\n      tag_71\n      jumpi\n      0x00\n      dup6\n      sstore\n      jump(tag_70)\n    tag_71:\n      dup3\n      0x1f\n      lt\n      tag_72\n      jumpi\n      dup1\n      mload\n      not(0xff)\n      and\n      dup4\n      dup1\n      add\n      or\n      dup6\n      sstore\n      jump(tag_70)\n    tag_72:\n      dup3\n      dup1\n      add\n      0x01\n      add\n      dup6\n      sstore\n      dup3\n      iszero\n      tag_70\n      jumpi\n      swap2\n      dup3\n      add\n    tag_73:\n      dup3\n      dup2\n      gt\n      iszero\n      tag_74\n      jumpi\n      dup3\n      mload\n      dup3\n      sstore\n      swap2\n      0x20\n      add\n      swap2\n      swap1\n      0x01\n      add\n      swap1\n      jump(tag_73)\n    tag_74:\n    tag_70:\n      pop\n      swap1\n      pop\n      tag_75\n      swap2\n      swap1\n      tag_76\n      jump\t// in\n    tag_75:\n      pop\n      swap1\n      jump\t// out\n    tag_76:\n    tag_77:\n      dup1\n      dup3\n      gt\n      iszero\n      tag_78\n      jumpi\n      0x00\n      dup2\n      0x00\n      swap1\n      sstore\n      pop\n      0x01\n      add\n      jump(tag_77)\n    tag_78:\n      pop\n      swap1\n      jump\t// out\n        /* \"#utility.yul\":7:84   */\n    tag_79:\n        /* \"#utility.yul\":44:51   */\n      0x00\n        /* \"#utility.yul\":73:78   */\n      dup2\n        /* \"#utility.yul\":62:78   */\n      swap1\n      pop\n        /* \"#utility.yul\":7:84   */\n      swap2\n      swap1\n      pop\n      jump\t// out\n        /* \"#utility.yul\":90:208   */\n    tag_80:\n        /* \"#utility.yul\":177:201   */\n      tag_114\n        /* \"#utility.yul\":195:200   */\n      dup2\n        /* \"#utility.yul\":177:201   */\n      tag_79\n      jump\t// in\n    tag_114:\n        /* \"#utility.yul\":172:175   */\n      dup3\n        /* \"#utility.yul\":165:202   */\n      mstore\n        /* \"#utility.yul\":90:208   */\n      pop\n      pop\n      jump\t// out\n        /* \"#utility.yul\":214:546   */\n    tag_12:\n        /* \"#utility.yul\":335:339   */\n      0x00\n        /* \"#utility.yul\":373:375   */\n      0x40\n        /* \"#utility.yul\":362:371   */\n      dup3\n        /* \"#utility.yul\":358:376   */\n      add\n        /* \"#utility.yul\":350:376   */\n      swap1\n      pop\n        /* \"#utility.yul\":386:457   */\n      tag_116\n        /* \"#utility.yul\":454:455   */\n      0x00\n        /* \"#utility.yul\":443:452   */\n      dup4\n        /* \"#utility.yul\":439:456   */\n      add\n        /* \"#utility.yul\":430:436   */\n      dup6\n        /* \"#utility.yul\":386:457   */\n      tag_80\n      jump\t// in\n    tag_116:\n        /* \"#utility.yul\":467:539   */\n      tag_117\n        /* \"#utility.yul\":535:537   */\n      0x20\n        /* \"#utility.yul\":524:533   */\n      dup4\n        /* \"#utility.yul\":520:538   */\n      add\n        /* \"#utility.yul\":511:517   */\n      dup5\n        /* \"#utility.yul\":467:539   */\n      tag_80\n      jump\t// in\n    tag_117:\n        /* \"#utility.yul\":214:546   */\n      swap4\n      swap3\n      pop\n      pop\n      pop\n      jump\t// out\n        /* \"#utility.yul\":552:627   */\n    tag_81:\n        /* \"#utility.yul\":585:591   */\n      0x00\n        /* \"#utility.yul\":618:620   */\n      0x40\n        /* \"#utility.yul\":612:621   */\n      mload\n        /* \"#utility.yul\":602:621   */\n      swap1\n      pop\n        /* \"#utility.yul\":552:627   */\n      swap1\n      jump\t// out\n        /* \"#utility.yul\":633:750   */\n    tag_82:\n        /* \"#utility.yul\":742:743   */\n      0x00\n        /* \"#utility.yul\":739:740   */\n      dup1\n        /* \"#utility.yul\":732:744   */\n      revert\n        /* \"#utility.yul\":756:873   */\n    tag_83:\n        /* \"#utility.yul\":865:866   */\n      0x00\n        /* \"#utility.yul\":862:863   */\n      dup1\n        /* \"#utility.yul\":855:867   */\n      revert\n        /* \"#utility.yul\":879:1001   */\n    tag_84:\n        /* \"#utility.yul\":952:976   */\n      tag_122\n        /* \"#utility.yul\":970:975   */\n      dup2\n        /* \"#utility.yul\":952:976   */\n      tag_79\n      jump\t// in\n    tag_122:\n        /* \"#utility.yul\":945:950   */\n      dup2\n        /* \"#utility.yul\":942:977   */\n      eq\n        /* \"#utility.yul\":932:995   */\n      tag_123\n      jumpi\n        /* \"#utility.yul\":991:992   */\n      0x00\n        /* \"#utility.yul\":988:989   */\n      dup1\n        /* \"#utility.yul\":981:993   */\n      revert\n        /* \"#utility.yul\":932:995   */\n    tag_123:\n        /* \"#utility.yul\":879:1001   */\n      pop\n      jump\t// out\n        /* \"#utility.yul\":1007:1146   */\n    tag_85:\n        /* \"#utility.yul\":1053:1058   */\n      0x00\n        /* \"#utility.yul\":1091:1097   */\n      dup2\n        /* \"#utility.yul\":1078:1098   */\n      calldataload\n        /* \"#utility.yul\":1069:1098   */\n      swap1\n      pop\n        /* \"#utility.yul\":1107:1140   */\n      tag_125\n        /* \"#utility.yul\":1134:1139   */\n      dup2\n        /* \"#utility.yul\":1107:1140   */\n      tag_84\n      jump\t// in\n    tag_125:\n        /* \"#utility.yul\":1007:1146   */\n      swap3\n      swap2\n      pop\n      pop\n      jump\t// out\n        /* \"#utility.yul\":1152:1481   */\n    tag_16:\n        /* \"#utility.yul\":1211:1217   */\n      0x00\n        /* \"#utility.yul\":1260:1262   */\n      0x20\n        /* \"#utility.yul\":1248:1257   */\n      dup3\n        /* \"#utility.yul\":1239:1246   */\n      dup5\n        /* \"#utility.yul\":1235:1258   */\n      sub\n        /* \"#utility.yul\":1231:1263   */\n      slt\n        /* \"#utility.yul\":1228:1347   */\n      iszero\n      tag_127\n      jumpi\n        /* \"#utility.yul\":1266:1345   */\n      tag_128\n      tag_82\n      jump\t// in\n    tag_128:\n        /* \"#utility.yul\":1228:1347   */\n    tag_127:\n        /* \"#utility.yul\":1386:1387   */\n      0x00\n        /* \"#utility.yul\":1411:1464   */\n      tag_129\n        /* \"#utility.yul\":1456:1463   */\n      dup5\n        /* \"#utility.yul\":1447:1453   */\n      dup3\n        /* \"#utility.yul\":1436:1445   */\n      dup6\n        /* \"#utility.yul\":1432:1454   */\n      add\n        /* \"#utility.yul\":1411:1464   */\n      tag_85\n      jump\t// in\n    tag_129:\n        /* \"#utility.yul\":1401:1464   */\n      swap2\n      pop\n        /* \"#utility.yul\":1357:1474   */\n      pop\n        /* \"#utility.yul\":1152:1481   */\n      swap3\n      swap2\n      pop\n      pop\n      jump\t// out\n        /* \"#utility.yul\":1487:1613   */\n    tag_86:\n        /* \"#utility.yul\":1524:1531   */\n      0x00\n        /* \"#utility.yul\":1564:1606   */\n      0xffffffffffffffffffffffffffffffffffffffff\n        /* \"#utility.yul\":1557:1562   */\n      dup3\n        /* \"#utility.yul\":1553:1607   */\n      and\n        /* \"#utility.yul\":1542:1607   */\n      swap1\n      pop\n        /* \"#utility.yul\":1487:1613   */\n      swap2\n      swap1\n      pop\n      jump\t// out\n        /* \"#utility.yul\":1619:1715   */\n    tag_87:\n        /* \"#utility.yul\":1656:1663   */\n      0x00\n        /* \"#utility.yul\":1685:1709   */\n      tag_132\n        /* \"#utility.yul\":1703:1708   */\n      dup3\n        /* \"#utility.yul\":1685:1709   */\n      tag_86\n      jump\t// in\n    tag_132:\n        /* \"#utility.yul\":1674:1709   */\n      swap1\n      pop\n        /* \"#utility.yul\":1619:1715   */\n      swap2\n      swap1\n      pop\n      jump\t// out\n        /* \"#utility.yul\":1721:1839   */\n    tag_88:\n        /* \"#utility.yul\":1808:1832   */\n      tag_134\n        /* \"#utility.yul\":1826:1831   */\n      dup2\n        /* \"#utility.yul\":1808:1832   */\n      tag_87\n      jump\t// in\n    tag_134:\n        /* \"#utility.yul\":1803:1806   */\n      dup3\n        /* \"#utility.yul\":1796:1833   */\n      mstore\n        /* \"#utility.yul\":1721:1839   */\n      pop\n      pop\n      jump\t// out\n        /* \"#utility.yul\":1845:2067   */\n    tag_19:\n        /* \"#utility.yul\":1938:1942   */\n      0x00\n        /* \"#utility.yul\":1976:1978   */\n      0x20\n        /* \"#utility.yul\":1965:1974   */\n      dup3\n        /* \"#utility.yul\":1961:1979   */\n      add\n        /* \"#utility.yul\":1953:1979   */\n      swap1\n      pop\n        /* \"#utility.yul\":1989:2060   */\n      tag_136\n        /* \"#utility.yul\":2057:2058   */\n      0x00\n        /* \"#utility.yul\":2046:2055   */\n      dup4\n        /* \"#utility.yul\":2042:2059   */\n      add\n        /* \"#utility.yul\":2033:2039   */\n      dup5\n        /* \"#utility.yul\":1989:2060   */\n      tag_88\n      jump\t// in\n    tag_136:\n        /* \"#utility.yul\":1845:2067   */\n      swap3\n      swap2\n      pop\n      pop\n      jump\t// out\n        /* \"#utility.yul\":2073:2195   */\n    tag_89:\n        /* \"#utility.yul\":2146:2170   */\n      tag_138\n        /* \"#utility.yul\":2164:2169   */\n      dup2\n        /* \"#utility.yul\":2146:2170   */\n      tag_87\n      jump\t// in\n    tag_138:\n        /* \"#utility.yul\":2139:2144   */\n      dup2\n        /* \"#utility.yul\":2136:2171   */\n      eq\n        /* \"#utility.yul\":2126:2189   */\n      tag_139\n      jumpi\n        /* \"#utility.yul\":2185:2186   */\n      0x00\n        /* \"#utility.yul\":2182:2183   */\n      dup1\n        /* \"#utility.yul\":2175:2187   */\n      revert\n        /* \"#utility.yul\":2126:2189   */\n    tag_139:\n        /* \"#utility.yul\":2073:2195   */\n      pop\n      jump\t// out\n        /* \"#utility.yul\":2201:2340   */\n    tag_90:\n        /* \"#utility.yul\":2247:2252   */\n      0x00\n        /* \"#utility.yul\":2285:2291   */\n      dup2\n        /* \"#utility.yul\":2272:2292   */\n      calldataload\n        /* \"#utility.yul\":2263:2292   */\n      swap1\n      pop\n        /* \"#utility.yul\":2301:2334   */\n      tag_141\n        /* \"#utility.yul\":2328:2333   */\n      dup2\n        /* \"#utility.yul\":2301:2334   */\n      tag_89\n      jump\t// in\n    tag_141:\n        /* \"#utility.yul\":2201:2340   */\n      swap3\n      swap2\n      pop\n      pop\n      jump\t// out\n        /* \"#utility.yul\":2346:2675   */\n    tag_23:\n        /* \"#utility.yul\":2405:2411   */\n      0x00\n        /* \"#utility.yul\":2454:2456   */\n      0x20\n        /* \"#utility.yul\":2442:2451   */\n      dup3\n        /* \"#utility.yul\":2433:2440   */\n      dup5\n        /* \"#utility.yul\":2429:2452   */\n      sub\n        /* \"#utility.yul\":2425:2457   */\n      slt\n        /* \"#utility.yul\":2422:2541   */\n      iszero\n      tag_143\n      jumpi\n        /* \"#utility.yul\":2460:2539   */\n      tag_144\n      tag_82\n      jump\t// in\n    tag_144:\n        /* \"#utility.yul\":2422:2541   */\n    tag_143:\n        /* \"#utility.yul\":2580:2581   */\n      0x00\n        /* \"#utility.yul\":2605:2658   */\n      tag_145\n        /* \"#utility.yul\":2650:2657   */\n      dup5\n        /* \"#utility.yul\":2641:2647   */\n      dup3\n        /* \"#utility.yul\":2630:2639   */\n      dup6\n        /* \"#utility.yul\":2626:2648   */\n      add\n        /* \"#utility.yul\":2605:2658   */\n      tag_90\n      jump\t// in\n    tag_145:\n        /* \"#utility.yul\":2595:2658   */\n      swap2\n      pop\n        /* \"#utility.yul\":2551:2668   */\n      pop\n        /* \"#utility.yul\":2346:2675   */\n      swap3\n      swap2\n      pop\n      pop\n      jump\t// out\n        /* \"#utility.yul\":2681:2771   */\n    tag_91:\n        /* \"#utility.yul\":2715:2722   */\n      0x00\n        /* \"#utility.yul\":2758:2763   */\n      dup2\n        /* \"#utility.yul\":2751:2764   */\n      iszero\n        /* \"#utility.yul\":2744:2765   */\n      iszero\n        /* \"#utility.yul\":2733:2765   */\n      swap1\n      pop\n        /* \"#utility.yul\":2681:2771   */\n      swap2\n      swap1\n      pop\n      jump\t// out\n        /* \"#utility.yul\":2777:2886   */\n    tag_92:\n        /* \"#utility.yul\":2858:2879   */\n      tag_148\n        /* \"#utility.yul\":2873:2878   */\n      dup2\n        /* \"#utility.yul\":2858:2879   */\n      tag_91\n      jump\t// in\n    tag_148:\n        /* \"#utility.yul\":2853:2856   */\n      dup3\n        /* \"#utility.yul\":2846:2880   */\n      mstore\n        /* \"#utility.yul\":2777:2886   */\n      pop\n      pop\n      jump\t// out\n        /* \"#utility.yul\":2892:3102   */\n    tag_26:\n        /* \"#utility.yul\":2979:2983   */\n      0x00\n        /* \"#utility.yul\":3017:3019   */\n      0x20\n        /* \"#utility.yul\":3006:3015   */\n      dup3\n        /* \"#utility.yul\":3002:3020   */\n      add\n        /* \"#utility.yul\":2994:3020   */\n      swap1\n      pop\n        /* \"#utility.yul\":3030:3095   */\n      tag_150\n        /* \"#utility.yul\":3092:3093   */\n      0x00\n        /* \"#utility.yul\":3081:3090   */\n      dup4\n        /* \"#utility.yul\":3077:3094   */\n      add\n        /* \"#utility.yul\":3068:3074   */\n      dup5\n        /* \"#utility.yul\":3030:3095   */\n      tag_92\n      jump\t// in\n    tag_150:\n        /* \"#utility.yul\":2892:3102   */\n      swap3\n      swap2\n      pop\n      pop\n      jump\t// out\n        /* \"#utility.yul\":3108:3206   */\n    tag_93:\n        /* \"#utility.yul\":3159:3165   */\n      0x00\n        /* \"#utility.yul\":3193:3198   */\n      dup2\n        /* \"#utility.yul\":3187:3199   */\n      mload\n        /* \"#utility.yul\":3177:3199   */\n      swap1\n      pop\n        /* \"#utility.yul\":3108:3206   */\n      swap2\n      swap1\n      pop\n      jump\t// out\n        /* \"#utility.yul\":3212:3380   */\n    tag_94:\n        /* \"#utility.yul\":3295:3306   */\n      0x00\n        /* \"#utility.yul\":3329:3335   */\n      dup3\n        /* \"#utility.yul\":3324:3327   */\n      dup3\n        /* \"#utility.yul\":3317:3336   */\n      mstore\n        /* \"#utility.yul\":3369:3373   */\n      0x20\n        /* \"#utility.yul\":3364:3367   */\n      dup3\n        /* \"#utility.yul\":3360:3374   */\n      add\n        /* \"#utility.yul\":3345:3374   */\n      swap1\n      pop\n        /* \"#utility.yul\":3212:3380   */\n      swap3\n      swap2\n      pop\n      pop\n      jump\t// out\n        /* \"#utility.yul\":3386:3693   */\n    tag_95:\n        /* \"#utility.yul\":3454:3455   */\n      0x00\n        /* \"#utility.yul\":3464:3577   */\n    tag_154:\n        /* \"#utility.yul\":3478:3484   */\n      dup4\n        /* \"#utility.yul\":3475:3476   */\n      dup2\n        /* \"#utility.yul\":3472:3485   */\n      lt\n        /* \"#utility.yul\":3464:3577   */\n      iszero\n      tag_156\n      jumpi\n        /* \"#utility.yul\":3563:3564   */\n      dup1\n        /* \"#utility.yul\":3558:3561   */\n      dup3\n        /* \"#utility.yul\":3554:3565   */\n      add\n        /* \"#utility.yul\":3548:3566   */\n      mload\n        /* \"#utility.yul\":3544:3545   */\n      dup2\n        /* \"#utility.yul\":3539:3542   */\n      dup5\n        /* \"#utility.yul\":3535:3546   */\n      add\n        /* \"#utility.yul\":3528:3567   */\n      mstore\n        /* \"#utility.yul\":3500:3502   */\n      0x20\n        /* \"#utility.yul\":3497:3498   */\n      dup2\n        /* \"#utility.yul\":3493:3503   */\n      add\n        /* \"#utility.yul\":3488:3503   */\n      swap1\n      pop\n        /* \"#utility.yul\":3464:3577   */\n      jump(tag_154)\n    tag_156:\n        /* \"#utility.yul\":3595:3601   */\n      dup4\n        /* \"#utility.yul\":3592:3593   */\n      dup2\n        /* \"#utility.yul\":3589:3602   */\n      gt\n        /* \"#utility.yul\":3586:3687   */\n      iszero\n      tag_157\n      jumpi\n        /* \"#utility.yul\":3675:3676   */\n      0x00\n        /* \"#utility.yul\":3666:3672   */\n      dup5\n        /* \"#utility.yul\":3661:3664   */\n      dup5\n        /* \"#utility.yul\":3657:3673   */\n      add\n        /* \"#utility.yul\":3650:3677   */\n      mstore\n        /* \"#utility.yul\":3586:3687   */\n    tag_157:\n        /* \"#utility.yul\":3435:3693   */\n      pop\n        /* \"#utility.yul\":3386:3693   */\n      pop\n      pop\n      pop\n      jump\t// out\n        /* \"#utility.yul\":3699:3801   */\n    tag_96:\n        /* \"#utility.yul\":3740:3746   */\n      0x00\n        /* \"#utility.yul\":3791:3793   */\n      0x1f\n        /* \"#utility.yul\":3787:3794   */\n      not\n        /* \"#utility.yul\":3782:3784   */\n      0x1f\n        /* \"#utility.yul\":3775:3780   */\n      dup4\n        /* \"#utility.yul\":3771:3785   */\n      add\n        /* \"#utility.yul\":3767:3795   */\n      and\n        /* \"#utility.yul\":3757:3795   */\n      swap1\n      pop\n        /* \"#utility.yul\":3699:3801   */\n      swap2\n      swap1\n      pop\n      jump\t// out\n        /* \"#utility.yul\":3807:4167   */\n    tag_97:\n        /* \"#utility.yul\":3893:3896   */\n      0x00\n        /* \"#utility.yul\":3921:3959   */\n      tag_160\n        /* \"#utility.yul\":3953:3958   */\n      dup3\n        /* \"#utility.yul\":3921:3959   */\n      tag_93\n      jump\t// in\n    tag_160:\n        /* \"#utility.yul\":3975:4045   */\n      tag_161\n        /* \"#utility.yul\":4038:4044   */\n      dup2\n        /* \"#utility.yul\":4033:4036   */\n      dup6\n        /* \"#utility.yul\":3975:4045   */\n      tag_94\n      jump\t// in\n    tag_161:\n        /* \"#utility.yul\":3968:4045   */\n      swap4\n      pop\n        /* \"#utility.yul\":4054:4106   */\n      tag_162\n        /* \"#utility.yul\":4099:4105   */\n      dup2\n        /* \"#utility.yul\":4094:4097   */\n      dup6\n        /* \"#utility.yul\":4087:4091   */\n      0x20\n        /* \"#utility.yul\":4080:4085   */\n      dup7\n        /* \"#utility.yul\":4076:4092   */\n      add\n        /* \"#utility.yul\":4054:4106   */\n      tag_95\n      jump\t// in\n    tag_162:\n        /* \"#utility.yul\":4131:4160   */\n      tag_163\n        /* \"#utility.yul\":4153:4159   */\n      dup2\n        /* \"#utility.yul\":4131:4160   */\n      tag_96\n      jump\t// in\n    tag_163:\n        /* \"#utility.yul\":4126:4129   */\n      dup5\n        /* \"#utility.yul\":4122:4161   */\n      add\n        /* \"#utility.yul\":4115:4161   */\n      swap2\n      pop\n        /* \"#utility.yul\":3897:4167   */\n      pop\n        /* \"#utility.yul\":3807:4167   */\n      swap3\n      swap2\n      pop\n      pop\n      jump\t// out\n        /* \"#utility.yul\":4173:4912   */\n    tag_32:\n        /* \"#utility.yul\":4390:4394   */\n      0x00\n        /* \"#utility.yul\":4428:4431   */\n      0xa0\n        /* \"#utility.yul\":4417:4426   */\n      dup3\n        /* \"#utility.yul\":4413:4432   */\n      add\n        /* \"#utility.yul\":4405:4432   */\n      swap1\n      pop\n        /* \"#utility.yul\":4442:4513   */\n      tag_165\n        /* \"#utility.yul\":4510:4511   */\n      0x00\n        /* \"#utility.yul\":4499:4508   */\n      dup4\n        /* \"#utility.yul\":4495:4512   */\n      add\n        /* \"#utility.yul\":4486:4492   */\n      dup9\n        /* \"#utility.yul\":4442:4513   */\n      tag_88\n      jump\t// in\n    tag_165:\n        /* \"#utility.yul\":4523:4595   */\n      tag_166\n        /* \"#utility.yul\":4591:4593   */\n      0x20\n        /* \"#utility.yul\":4580:4589   */\n      dup4\n        /* \"#utility.yul\":4576:4594   */\n      add\n        /* \"#utility.yul\":4567:4573   */\n      dup8\n        /* \"#utility.yul\":4523:4595   */\n      tag_80\n      jump\t// in\n    tag_166:\n        /* \"#utility.yul\":4642:4651   */\n      dup2\n        /* \"#utility.yul\":4636:4640   */\n      dup2\n        /* \"#utility.yul\":4632:4652   */\n      sub\n        /* \"#utility.yul\":4627:4629   */\n      0x40\n        /* \"#utility.yul\":4616:4625   */\n      dup4\n        /* \"#utility.yul\":4612:4630   */\n      add\n        /* \"#utility.yul\":4605:4653   */\n      mstore\n        /* \"#utility.yul\":4670:4746   */\n      tag_167\n        /* \"#utility.yul\":4741:4745   */\n      dup2\n        /* \"#utility.yul\":4732:4738   */\n      dup7\n        /* \"#utility.yul\":4670:4746   */\n      tag_97\n      jump\t// in\n    tag_167:\n        /* \"#utility.yul\":4662:4746   */\n      swap1\n      pop\n        /* \"#utility.yul\":4756:4822   */\n      tag_168\n        /* \"#utility.yul\":4818:4820   */\n      0x60\n        /* \"#utility.yul\":4807:4816   */\n      dup4\n        /* \"#utility.yul\":4803:4821   */\n      add\n        /* \"#utility.yul\":4794:4800   */\n      dup6\n        /* \"#utility.yul\":4756:4822   */\n      tag_92\n      jump\t// in\n    tag_168:\n        /* \"#utility.yul\":4832:4905   */\n      tag_169\n        /* \"#utility.yul\":4900:4903   */\n      0x80\n        /* \"#utility.yul\":4889:4898   */\n      dup4\n        /* \"#utility.yul\":4885:4904   */\n      add\n        /* \"#utility.yul\":4876:4882   */\n      dup5\n        /* \"#utility.yul\":4832:4905   */\n      tag_80\n      jump\t// in\n    tag_169:\n        /* \"#utility.yul\":4173:4912   */\n      swap7\n      swap6\n      pop\n      pop\n      pop\n      pop\n      pop\n      pop\n      jump\t// out\n        /* \"#utility.yul\":4918:5392   */\n    tag_36:\n        /* \"#utility.yul\":4986:4992   */\n      0x00\n        /* \"#utility.yul\":4994:5000   */\n      dup1\n        /* \"#utility.yul\":5043:5045   */\n      0x40\n        /* \"#utility.yul\":5031:5040   */\n      dup4\n        /* \"#utility.yul\":5022:5029   */\n      dup6\n        /* \"#utility.yul\":5018:5041   */\n      sub\n        /* \"#utility.yul\":5014:5046   */\n      slt\n        /* \"#utility.yul\":5011:5130   */\n      iszero\n      tag_171\n      jumpi\n        /* \"#utility.yul\":5049:5128   */\n      tag_172\n      tag_82\n      jump\t// in\n    tag_172:\n        /* \"#utility.yul\":5011:5130   */\n    tag_171:\n        /* \"#utility.yul\":5169:5170   */\n      0x00\n        /* \"#utility.yul\":5194:5247   */\n      tag_173\n        /* \"#utility.yul\":5239:5246   */\n      dup6\n        /* \"#utility.yul\":5230:5236   */\n      dup3\n        /* \"#utility.yul\":5219:5228   */\n      dup7\n        /* \"#utility.yul\":5215:5237   */\n      add\n        /* \"#utility.yul\":5194:5247   */\n      tag_85\n      jump\t// in\n    tag_173:\n        /* \"#utility.yul\":5184:5247   */\n      swap3\n      pop\n        /* \"#utility.yul\":5140:5257   */\n      pop\n        /* \"#utility.yul\":5296:5298   */\n      0x20\n        /* \"#utility.yul\":5322:5375   */\n      tag_174\n        /* \"#utility.yul\":5367:5374   */\n      dup6\n        /* \"#utility.yul\":5358:5364   */\n      dup3\n        /* \"#utility.yul\":5347:5356   */\n      dup7\n        /* \"#utility.yul\":5343:5365   */\n      add\n        /* \"#utility.yul\":5322:5375   */\n      tag_90\n      jump\t// in\n    tag_174:\n        /* \"#utility.yul\":5312:5375   */\n      swap2\n      pop\n        /* \"#utility.yul\":5267:5385   */\n      pop\n        /* \"#utility.yul\":4918:5392   */\n      swap3\n      pop\n      swap3\n      swap1\n      pop\n      jump\t// out\n        /* \"#utility.yul\":5398:5620   */\n    tag_43:\n        /* \"#utility.yul\":5491:5495   */\n      0x00\n        /* \"#utility.yul\":5529:5531   */\n      0x20\n        /* \"#utility.yul\":5518:5527   */\n      dup3\n        /* \"#utility.yul\":5514:5532   */\n      add\n        /* \"#utility.yul\":5506:5532   */\n      swap1\n      pop\n        /* \"#utility.yul\":5542:5613   */\n      tag_176\n        /* \"#utility.yul\":5610:5611   */\n      0x00\n        /* \"#utility.yul\":5599:5608   */\n      dup4\n        /* \"#utility.yul\":5595:5612   */\n      add\n        /* \"#utility.yul\":5586:5592   */\n      dup5\n        /* \"#utility.yul\":5542:5613   */\n      tag_80\n      jump\t// in\n    tag_176:\n        /* \"#utility.yul\":5398:5620   */\n      swap3\n      swap2\n      pop\n      pop\n      jump\t// out\n        /* \"#utility.yul\":5626:5743   */\n    tag_98:\n        /* \"#utility.yul\":5735:5736   */\n      0x00\n        /* \"#utility.yul\":5732:5733   */\n      dup1\n        /* \"#utility.yul\":5725:5737   */\n      revert\n        /* \"#utility.yul\":5749:5866   */\n    tag_99:\n        /* \"#utility.yul\":5858:5859   */\n      0x00\n        /* \"#utility.yul\":5855:5856   */\n      dup1\n        /* \"#utility.yul\":5848:5860   */\n      revert\n        /* \"#utility.yul\":5872:6052   */\n    tag_100:\n        /* \"#utility.yul\":5920:5997   */\n      0x4e487b7100000000000000000000000000000000000000000000000000000000\n        /* \"#utility.yul\":5917:5918   */\n      0x00\n        /* \"#utility.yul\":5910:5998   */\n      mstore\n        /* \"#utility.yul\":6017:6021   */\n      0x41\n        /* \"#utility.yul\":6014:6015   */\n      0x04\n        /* \"#utility.yul\":6007:6022   */\n      mstore\n        /* \"#utility.yul\":6041:6045   */\n      0x24\n        /* \"#utility.yul\":6038:6039   */\n      0x00\n        /* \"#utility.yul\":6031:6046   */\n      revert\n        /* \"#utility.yul\":6058:6339   */\n    tag_101:\n        /* \"#utility.yul\":6141:6168   */\n      tag_181\n        /* \"#utility.yul\":6163:6167   */\n      dup3\n        /* \"#utility.yul\":6141:6168   */\n      tag_96\n      jump\t// in\n    tag_181:\n        /* \"#utility.yul\":6133:6139   */\n      dup2\n        /* \"#utility.yul\":6129:6169   */\n      add\n        /* \"#utility.yul\":6271:6277   */\n      dup2\n        /* \"#utility.yul\":6259:6269   */\n      dup2\n        /* \"#utility.yul\":6256:6278   */\n      lt\n        /* \"#utility.yul\":6235:6253   */\n      0xffffffffffffffff\n        /* \"#utility.yul\":6223:6233   */\n      dup3\n        /* \"#utility.yul\":6220:6254   */\n      gt\n        /* \"#utility.yul\":6217:6279   */\n      or\n        /* \"#utility.yul\":6214:6302   */\n      iszero\n      tag_182\n      jumpi\n        /* \"#utility.yul\":6282:6300   */\n      tag_183\n      tag_100\n      jump\t// in\n    tag_183:\n        /* \"#utility.yul\":6214:6302   */\n    tag_182:\n        /* \"#utility.yul\":6322:6332   */\n      dup1\n        /* \"#utility.yul\":6318:6320   */\n      0x40\n        /* \"#utility.yul\":6311:6333   */\n      mstore\n        /* \"#utility.yul\":6101:6339   */\n      pop\n        /* \"#utility.yul\":6058:6339   */\n      pop\n      pop\n      jump\t// out\n        /* \"#utility.yul\":6345:6474   */\n    tag_102:\n        /* \"#utility.yul\":6379:6385   */\n      0x00\n        /* \"#utility.yul\":6406:6426   */\n      tag_185\n      tag_81\n      jump\t// in\n    tag_185:\n        /* \"#utility.yul\":6396:6426   */\n      swap1\n      pop\n        /* \"#utility.yul\":6435:6468   */\n      tag_186\n        /* \"#utility.yul\":6463:6467   */\n      dup3\n        /* \"#utility.yul\":6455:6461   */\n      dup3\n        /* \"#utility.yul\":6435:6468   */\n      tag_101\n      jump\t// in\n    tag_186:\n        /* \"#utility.yul\":6345:6474   */\n      swap2\n      swap1\n      pop\n      jump\t// out\n        /* \"#utility.yul\":6480:6787   */\n    tag_103:\n        /* \"#utility.yul\":6541:6545   */\n      0x00\n        /* \"#utility.yul\":6631:6649   */\n      0xffffffffffffffff\n        /* \"#utility.yul\":6623:6629   */\n      dup3\n        /* \"#utility.yul\":6620:6650   */\n      gt\n        /* \"#utility.yul\":6617:6673   */\n      iszero\n      tag_188\n      jumpi\n        /* \"#utility.yul\":6653:6671   */\n      tag_189\n      tag_100\n      jump\t// in\n    tag_189:\n        /* \"#utility.yul\":6617:6673   */\n    tag_188:\n        /* \"#utility.yul\":6691:6720   */\n      tag_190\n        /* \"#utility.yul\":6713:6719   */\n      dup3\n        /* \"#utility.yul\":6691:6720   */\n      tag_96\n      jump\t// in\n    tag_190:\n        /* \"#utility.yul\":6683:6720   */\n      swap1\n      pop\n        /* \"#utility.yul\":6775:6779   */\n      0x20\n        /* \"#utility.yul\":6769:6773   */\n      dup2\n        /* \"#utility.yul\":6765:6780   */\n      add\n        /* \"#utility.yul\":6757:6780   */\n      swap1\n      pop\n        /* \"#utility.yul\":6480:6787   */\n      swap2\n      swap1\n      pop\n      jump\t// out\n        /* \"#utility.yul\":6793:6947   */\n    tag_104:\n        /* \"#utility.yul\":6877:6883   */\n      dup3\n        /* \"#utility.yul\":6872:6875   */\n      dup2\n        /* \"#utility.yul\":6867:6870   */\n      dup4\n        /* \"#utility.yul\":6854:6884   */\n      calldatacopy\n        /* \"#utility.yul\":6939:6940   */\n      0x00\n        /* \"#utility.yul\":6930:6936   */\n      dup4\n        /* \"#utility.yul\":6925:6928   */\n      dup4\n        /* \"#utility.yul\":6921:6937   */\n      add\n        /* \"#utility.yul\":6914:6941   */\n      mstore\n        /* \"#utility.yul\":6793:6947   */\n      pop\n      pop\n      pop\n      jump\t// out\n        /* \"#utility.yul\":6953:7363   */\n    tag_105:\n        /* \"#utility.yul\":7030:7035   */\n      0x00\n        /* \"#utility.yul\":7055:7120   */\n      tag_193\n        /* \"#utility.yul\":7071:7119   */\n      tag_194\n        /* \"#utility.yul\":7112:7118   */\n      dup5\n        /* \"#utility.yul\":7071:7119   */\n      tag_103\n      jump\t// in\n    tag_194:\n        /* \"#utility.yul\":7055:7120   */\n      tag_102\n      jump\t// in\n    tag_193:\n        /* \"#utility.yul\":7046:7120   */\n      swap1\n      pop\n        /* \"#utility.yul\":7143:7149   */\n      dup3\n        /* \"#utility.yul\":7136:7141   */\n      dup2\n        /* \"#utility.yul\":7129:7150   */\n      mstore\n        /* \"#utility.yul\":7181:7185   */\n      0x20\n        /* \"#utility.yul\":7174:7179   */\n      dup2\n        /* \"#utility.yul\":7170:7186   */\n      add\n        /* \"#utility.yul\":7219:7222   */\n      dup5\n        /* \"#utility.yul\":7210:7216   */\n      dup5\n        /* \"#utility.yul\":7205:7208   */\n      dup5\n        /* \"#utility.yul\":7201:7217   */\n      add\n        /* \"#utility.yul\":7198:7223   */\n      gt\n        /* \"#utility.yul\":7195:7307   */\n      iszero\n      tag_195\n      jumpi\n        /* \"#utility.yul\":7226:7305   */\n      tag_196\n      tag_99\n      jump\t// in\n    tag_196:\n        /* \"#utility.yul\":7195:7307   */\n    tag_195:\n        /* \"#utility.yul\":7316:7357   */\n      tag_197\n        /* \"#utility.yul\":7350:7356   */\n      dup5\n        /* \"#utility.yul\":7345:7348   */\n      dup3\n        /* \"#utility.yul\":7340:7343   */\n      dup6\n        /* \"#utility.yul\":7316:7357   */\n      tag_104\n      jump\t// in\n    tag_197:\n        /* \"#utility.yul\":7036:7363   */\n      pop\n        /* \"#utility.yul\":6953:7363   */\n      swap4\n      swap3\n      pop\n      pop\n      pop\n      jump\t// out\n        /* \"#utility.yul\":7382:7720   */\n    tag_106:\n        /* \"#utility.yul\":7437:7442   */\n      0x00\n        /* \"#utility.yul\":7486:7489   */\n      dup3\n        /* \"#utility.yul\":7479:7483   */\n      0x1f\n        /* \"#utility.yul\":7471:7477   */\n      dup4\n        /* \"#utility.yul\":7467:7484   */\n      add\n        /* \"#utility.yul\":7463:7490   */\n      slt\n        /* \"#utility.yul\":7453:7575   */\n      tag_199\n      jumpi\n        /* \"#utility.yul\":7494:7573   */\n      tag_200\n      tag_98\n      jump\t// in\n    tag_200:\n        /* \"#utility.yul\":7453:7575   */\n    tag_199:\n        /* \"#utility.yul\":7611:7617   */\n      dup2\n        /* \"#utility.yul\":7598:7618   */\n      calldataload\n        /* \"#utility.yul\":7636:7714   */\n      tag_201\n        /* \"#utility.yul\":7710:7713   */\n      dup5\n        /* \"#utility.yul\":7702:7708   */\n      dup3\n        /* \"#utility.yul\":7695:7699   */\n      0x20\n        /* \"#utility.yul\":7687:7693   */\n      dup7\n        /* \"#utility.yul\":7683:7700   */\n      add\n        /* \"#utility.yul\":7636:7714   */\n      tag_105\n      jump\t// in\n    tag_201:\n        /* \"#utility.yul\":7627:7714   */\n      swap2\n      pop\n        /* \"#utility.yul\":7443:7720   */\n      pop\n        /* \"#utility.yul\":7382:7720   */\n      swap3\n      swap2\n      pop\n      pop\n      jump\t// out\n        /* \"#utility.yul\":7726:8523   */\n    tag_47:\n        /* \"#utility.yul\":7812:7818   */\n      0x00\n        /* \"#utility.yul\":7820:7826   */\n      dup1\n        /* \"#utility.yul\":7828:7834   */\n      0x00\n        /* \"#utility.yul\":7877:7879   */\n      0x60\n        /* \"#utility.yul\":7865:7874   */\n      dup5\n        /* \"#utility.yul\":7856:7863   */\n      dup7\n        /* \"#utility.yul\":7852:7875   */\n      sub\n        /* \"#utility.yul\":7848:7880   */\n      slt\n        /* \"#utility.yul\":7845:7964   */\n      iszero\n      tag_203\n      jumpi\n        /* \"#utility.yul\":7883:7962   */\n      tag_204\n      tag_82\n      jump\t// in\n    tag_204:\n        /* \"#utility.yul\":7845:7964   */\n    tag_203:\n        /* \"#utility.yul\":8003:8004   */\n      0x00\n        /* \"#utility.yul\":8028:8081   */\n      tag_205\n        /* \"#utility.yul\":8073:8080   */\n      dup7\n        /* \"#utility.yul\":8064:8070   */\n      dup3\n        /* \"#utility.yul\":8053:8062   */\n      dup8\n        /* \"#utility.yul\":8049:8071   */\n      add\n        /* \"#utility.yul\":8028:8081   */\n      tag_90\n      jump\t// in\n    tag_205:\n        /* \"#utility.yul\":8018:8081   */\n      swap4\n      pop\n        /* \"#utility.yul\":7974:8091   */\n      pop\n        /* \"#utility.yul\":8130:8132   */\n      0x20\n        /* \"#utility.yul\":8156:8209   */\n      tag_206\n        /* \"#utility.yul\":8201:8208   */\n      dup7\n        /* \"#utility.yul\":8192:8198   */\n      dup3\n        /* \"#utility.yul\":8181:8190   */\n      dup8\n        /* \"#utility.yul\":8177:8199   */\n      add\n        /* \"#utility.yul\":8156:8209   */\n      tag_85\n      jump\t// in\n    tag_206:\n        /* \"#utility.yul\":8146:8209   */\n      swap3\n      pop\n        /* \"#utility.yul\":8101:8219   */\n      pop\n        /* \"#utility.yul\":8286:8288   */\n      0x40\n        /* \"#utility.yul\":8275:8284   */\n      dup5\n        /* \"#utility.yul\":8271:8289   */\n      add\n        /* \"#utility.yul\":8258:8290   */\n      calldataload\n        /* \"#utility.yul\":8317:8335   */\n      0xffffffffffffffff\n        /* \"#utility.yul\":8309:8315   */\n      dup2\n        /* \"#utility.yul\":8306:8336   */\n      gt\n        /* \"#utility.yul\":8303:8420   */\n      iszero\n      tag_207\n      jumpi\n        /* \"#utility.yul\":8339:8418   */\n      tag_208\n      tag_83\n      jump\t// in\n    tag_208:\n        /* \"#utility.yul\":8303:8420   */\n    tag_207:\n        /* \"#utility.yul\":8444:8506   */\n      tag_209\n        /* \"#utility.yul\":8498:8505   */\n      dup7\n        /* \"#utility.yul\":8489:8495   */\n      dup3\n        /* \"#utility.yul\":8478:8487   */\n      dup8\n        /* \"#utility.yul\":8474:8496   */\n      add\n        /* \"#utility.yul\":8444:8506   */\n      tag_106\n      jump\t// in\n    tag_209:\n        /* \"#utility.yul\":8434:8506   */\n      swap2\n      pop\n        /* \"#utility.yul\":8229:8516   */\n      pop\n        /* \"#utility.yul\":7726:8523   */\n      swap3\n      pop\n      swap3\n      pop\n      swap3\n      jump\t// out\n        /* \"#utility.yul\":8529:8709   */\n    tag_107:\n        /* \"#utility.yul\":8577:8654   */\n      0x4e487b7100000000000000000000000000000000000000000000000000000000\n        /* \"#utility.yul\":8574:8575   */\n      0x00\n        /* \"#utility.yul\":8567:8655   */\n      mstore\n        /* \"#utility.yul\":8674:8678   */\n      0x22\n        /* \"#utility.yul\":8671:8672   */\n      0x04\n        /* \"#utility.yul\":8664:8679   */\n      mstore\n        /* \"#utility.yul\":8698:8702   */\n      0x24\n        /* \"#utility.yul\":8695:8696   */\n      0x00\n        /* \"#utility.yul\":8688:8703   */\n      revert\n        /* \"#utility.yul\":8715:9035   */\n    tag_54:\n        /* \"#utility.yul\":8759:8765   */\n      0x00\n        /* \"#utility.yul\":8796:8797   */\n      0x02\n        /* \"#utility.yul\":8790:8794   */\n      dup3\n        /* \"#utility.yul\":8786:8798   */\n      div\n        /* \"#utility.yul\":8776:8798   */\n      swap1\n      pop\n        /* \"#utility.yul\":8843:8844   */\n      0x01\n        /* \"#utility.yul\":8837:8841   */\n      dup3\n        /* \"#utility.yul\":8833:8845   */\n      and\n        /* \"#utility.yul\":8864:8882   */\n      dup1\n        /* \"#utility.yul\":8854:8935   */\n      tag_212\n      jumpi\n        /* \"#utility.yul\":8920:8924   */\n      0x7f\n        /* \"#utility.yul\":8912:8918   */\n      dup3\n        /* \"#utility.yul\":8908:8925   */\n      and\n        /* \"#utility.yul\":8898:8925   */\n      swap2\n      pop\n        /* \"#utility.yul\":8854:8935   */\n    tag_212:\n        /* \"#utility.yul\":8982:8984   */\n      0x20\n        /* \"#utility.yul\":8974:8980   */\n      dup3\n        /* \"#utility.yul\":8971:8985   */\n      lt\n        /* \"#utility.yul\":8951:8969   */\n      dup2\n        /* \"#utility.yul\":8948:8986   */\n      eq\n        /* \"#utility.yul\":8945:9029   */\n      iszero\n      tag_213\n      jumpi\n        /* \"#utility.yul\":9001:9019   */\n      tag_214\n      tag_107\n      jump\t// in\n    tag_214:\n        /* \"#utility.yul\":8945:9029   */\n    tag_213:\n        /* \"#utility.yul\":8766:9035   */\n      pop\n        /* \"#utility.yul\":8715:9035   */\n      swap2\n      swap1\n      pop\n      jump\t// out\n        /* \"#utility.yul\":9041:9210   */\n    tag_108:\n        /* \"#utility.yul\":9125:9136   */\n      0x00\n        /* \"#utility.yul\":9159:9165   */\n      dup3\n        /* \"#utility.yul\":9154:9157   */\n      dup3\n        /* \"#utility.yul\":9147:9166   */\n      mstore\n        /* \"#utility.yul\":9199:9203   */\n      0x20\n        /* \"#utility.yul\":9194:9197   */\n      dup3\n        /* \"#utility.yul\":9190:9204   */\n      add\n        /* \"#utility.yul\":9175:9204   */\n      swap1\n      pop\n        /* \"#utility.yul\":9041:9210   */\n      swap3\n      swap2\n      pop\n      pop\n      jump\t// out\n        /* \"#utility.yul\":9216:9444   */\n    tag_109:\n        /* \"#utility.yul\":9356:9390   */\n      0x4f6e6c79204f776e6572732063616e2061636365737320746869732066756e63\n        /* \"#utility.yul\":9352:9353   */\n      0x00\n        /* \"#utility.yul\":9344:9350   */\n      dup3\n        /* \"#utility.yul\":9340:9354   */\n      add\n        /* \"#utility.yul\":9333:9391   */\n      mstore\n        /* \"#utility.yul\":9425:9436   */\n      0x74696f6e616c6974790000000000000000000000000000000000000000000000\n        /* \"#utility.yul\":9420:9422   */\n      0x20\n        /* \"#utility.yul\":9412:9418   */\n      dup3\n        /* \"#utility.yul\":9408:9423   */\n      add\n        /* \"#utility.yul\":9401:9437   */\n      mstore\n        /* \"#utility.yul\":9216:9444   */\n      pop\n      jump\t// out\n        /* \"#utility.yul\":9450:9816   */\n    tag_110:\n        /* \"#utility.yul\":9592:9595   */\n      0x00\n        /* \"#utility.yul\":9613:9680   */\n      tag_218\n        /* \"#utility.yul\":9677:9679   */\n      0x29\n        /* \"#utility.yul\":9672:9675   */\n      dup4\n        /* \"#utility.yul\":9613:9680   */\n      tag_108\n      jump\t// in\n    tag_218:\n        /* \"#utility.yul\":9606:9680   */\n      swap2\n      pop\n        /* \"#utility.yul\":9689:9782   */\n      tag_219\n        /* \"#utility.yul\":9778:9781   */\n      dup3\n        /* \"#utility.yul\":9689:9782   */\n      tag_109\n      jump\t// in\n    tag_219:\n        /* \"#utility.yul\":9807:9809   */\n      0x40\n        /* \"#utility.yul\":9802:9805   */\n      dup3\n        /* \"#utility.yul\":9798:9810   */\n      add\n        /* \"#utility.yul\":9791:9810   */\n      swap1\n      pop\n        /* \"#utility.yul\":9450:9816   */\n      swap2\n      swap1\n      pop\n      jump\t// out\n        /* \"#utility.yul\":9822:10241   */\n    tag_62:\n        /* \"#utility.yul\":9988:9992   */\n      0x00\n        /* \"#utility.yul\":10026:10028   */\n      0x20\n        /* \"#utility.yul\":10015:10024   */\n      dup3\n        /* \"#utility.yul\":10011:10029   */\n      add\n        /* \"#utility.yul\":10003:10029   */\n      swap1\n      pop\n        /* \"#utility.yul\":10075:10084   */\n      dup2\n        /* \"#utility.yul\":10069:10073   */\n      dup2\n        /* \"#utility.yul\":10065:10085   */\n      sub\n        /* \"#utility.yul\":10061:10062   */\n      0x00\n        /* \"#utility.yul\":10050:10059   */\n      dup4\n        /* \"#utility.yul\":10046:10063   */\n      add\n        /* \"#utility.yul\":10039:10086   */\n      mstore\n        /* \"#utility.yul\":10103:10234   */\n      tag_221\n        /* \"#utility.yul\":10229:10233   */\n      dup2\n        /* \"#utility.yul\":10103:10234   */\n      tag_110\n      jump\t// in\n    tag_221:\n        /* \"#utility.yul\":10095:10234   */\n      swap1\n      pop\n        /* \"#utility.yul\":9822:10241   */\n      swap2\n      swap1\n      pop\n      jump\t// out\n        /* \"#utility.yul\":10247:10666   */\n    tag_68:\n        /* \"#utility.yul\":10386:10390   */\n      0x00\n        /* \"#utility.yul\":10424:10426   */\n      0x40\n        /* \"#utility.yul\":10413:10422   */\n      dup3\n        /* \"#utility.yul\":10409:10427   */\n      add\n        /* \"#utility.yul\":10401:10427   */\n      swap1\n      pop\n        /* \"#utility.yul\":10437:10508   */\n      tag_223\n        /* \"#utility.yul\":10505:10506   */\n      0x00\n        /* \"#utility.yul\":10494:10503   */\n      dup4\n        /* \"#utility.yul\":10490:10507   */\n      add\n        /* \"#utility.yul\":10481:10487   */\n      dup6\n        /* \"#utility.yul\":10437:10508   */\n      tag_80\n      jump\t// in\n    tag_223:\n        /* \"#utility.yul\":10555:10564   */\n      dup2\n        /* \"#utility.yul\":10549:10553   */\n      dup2\n        /* \"#utility.yul\":10545:10565   */\n      sub\n        /* \"#utility.yul\":10540:10542   */\n      0x20\n        /* \"#utility.yul\":10529:10538   */\n      dup4\n        /* \"#utility.yul\":10525:10543   */\n      add\n        /* \"#utility.yul\":10518:10566   */\n      mstore\n        /* \"#utility.yul\":10583:10659   */\n      tag_224\n        /* \"#utility.yul\":10654:10658   */\n      dup2\n        /* \"#utility.yul\":10645:10651   */\n      dup5\n        /* \"#utility.yul\":10583:10659   */\n      tag_97\n      jump\t// in\n    tag_224:\n        /* \"#utility.yul\":10575:10659   */\n      swap1\n      pop\n        /* \"#utility.yul\":10247:10666   */\n      swap4\n      swap3\n      pop\n      pop\n      pop\n      jump\t// out\n\n    auxdata: 0xa264697066735822122056aaf88348bd8d5e2e1b9519503bc1d1ef944643c2b8478e55b4de4e31708c9964736f6c634300080a0033\n}\n",
				"bytecode": {
					"linkReferences": {},
					"object": "60806040523480156200001157600080fd5b506040516200143c3803806200143c83398181016040528101906200003791906200050e565b60008251116200007e576040517f08c379a00000000000000000000000000000000000000000000000000000000081526004016200007590620005d5565b60405180910390fd5b60008111801562000090575081518111155b620000d2576040517f08c379a0000000000000000000000000000000000000000000000000000000008152600401620000c99062000647565b60405180910390fd5b60005b8251811015620002d5576000838281518110620000f757620000f662000669565b5b60200260200101519050600073ffffffffffffffffffffffffffffffffffffffff168173ffffffffffffffffffffffffffffffffffffffff16141562000174576040517f08c379a00000000000000000000000000000000000000000000000000000000081526004016200016b90620006e8565b60405180910390fd5b600160008273ffffffffffffffffffffffffffffffffffffffff1673ffffffffffffffffffffffffffffffffffffffff16815260200190815260200160002060009054906101000a900460ff161562000204576040517f08c379a0000000000000000000000000000000000000000000000000000000008152600401620001fb906200075a565b60405180910390fd5b60018060008373ffffffffffffffffffffffffffffffffffffffff1673ffffffffffffffffffffffffffffffffffffffff16815260200190815260200160002060006101000a81548160ff0219169083151502179055506000819080600181540180825580915050600190039060005260206000200160009091909190916101000a81548173ffffffffffffffffffffffffffffffffffffffff021916908373ffffffffffffffffffffffffffffffffffffffff160217905550508080620002cc90620007ab565b915050620000d5565b50806004819055505050620007f9565b6000604051905090565b600080fd5b600080fd5b600080fd5b6000601f19601f8301169050919050565b7f4e487b7100000000000000000000000000000000000000000000000000000000600052604160045260246000fd5b6200034982620002fe565b810181811067ffffffffffffffff821117156200036b576200036a6200030f565b5b80604052505050565b600062000380620002e5565b90506200038e82826200033e565b919050565b600067ffffffffffffffff821115620003b157620003b06200030f565b5b602082029050602081019050919050565b600080fd5b600073ffffffffffffffffffffffffffffffffffffffff82169050919050565b6000620003f482620003c7565b9050919050565b6200040681620003e7565b81146200041257600080fd5b50565b6000815190506200042681620003fb565b92915050565b6000620004436200043d8462000393565b62000374565b90508083825260208201905060208402830185811115620004695762000468620003c2565b5b835b8181101562000496578062000481888262000415565b8452602084019350506020810190506200046b565b5050509392505050565b600082601f830112620004b857620004b7620002f9565b5b8151620004ca8482602086016200042c565b91505092915050565b6000819050919050565b620004e881620004d3565b8114620004f457600080fd5b50565b6000815190506200050881620004dd565b92915050565b60008060408385031215620005285762000527620002ef565b5b600083015167ffffffffffffffff811115620005495762000548620002f4565b5b6200055785828601620004a0565b92505060206200056a85828601620004f7565b9150509250929050565b600082825260208201905092915050565b7f4d7573742068617665203e31206f776e65727300000000000000000000000000600082015250565b6000620005bd60138362000574565b9150620005ca8262000585565b602082019050919050565b60006020820190508181036000830152620005f081620005ae565b9050919050565b7f496e76616c6964204e756d626572206f6620436f6e6669726d6174696f6e7300600082015250565b60006200062f601f8362000574565b91506200063c82620005f7565b602082019050919050565b60006020820190508181036000830152620006628162000620565b9050919050565b7f4e487b7100000000000000000000000000000000000000000000000000000000600052603260045260246000fd5b7f43616e742068617665205a65726f2061646472657373206173206f776e657200600082015250565b6000620006d0601f8362000574565b9150620006dd8262000698565b602082019050919050565b600060208201905081810360008301526200070381620006c1565b9050919050565b7f4475706c6963617465204f776e6572206e6f7420616c6c6f7765642100000000600082015250565b600062000742601c8362000574565b91506200074f826200070a565b602082019050919050565b60006020820190508181036000830152620007758162000733565b9050919050565b7f4e487b7100000000000000000000000000000000000000000000000000000000600052601160045260246000fd5b6000620007b882620004d3565b91507fffffffffffffffffffffffffffffffffffffffffffffffffffffffffffffffff821415620007ee57620007ed6200077c565b5b600182019050919050565b610c3380620008096000396000f3fe6080604052600436106100595760003560e01c8063025e7c27146100b55780632f54bf6e146100f25780639ace38c21461012f5780639ba83e1b14610170578063b032e075146101ad578063c6427474146101d8576100b0565b366100b0573373ffffffffffffffffffffffffffffffffffffffff167f90890809c654f11d6e72a28fa60149770a0d11ec6c92319d6ceb2bb0a4ea1a1534476040516100a6929190610656565b60405180910390a2005b600080fd5b3480156100c157600080fd5b506100dc60048036038101906100d791906106bf565b610201565b6040516100e9919061072d565b60405180910390f35b3480156100fe57600080fd5b5061011960048036038101906101149190610774565b610240565b60405161012691906107bc565b60405180910390f35b34801561013b57600080fd5b50610156600480360381019061015191906106bf565b610260565b604051610167959493929190610870565b60405180910390f35b34801561017c57600080fd5b50610197600480360381019061019291906108ca565b61035b565b6040516101a491906107bc565b60405180910390f35b3480156101b957600080fd5b506101c261038a565b6040516101cf919061090a565b60405180910390f35b3480156101e457600080fd5b506101ff60048036038101906101fa9190610a5a565b610390565b005b6000818154811061021157600080fd5b906000526020600020016000915054906101000a900473ffffffffffffffffffffffffffffffffffffffff1681565b60016020528060005260406000206000915054906101000a900460ff1681565b6003818154811061027057600080fd5b90600052602060002090600502016000915090508060000160009054906101000a900473ffffffffffffffffffffffffffffffffffffffff16908060010154908060020180546102bf90610af8565b80601f01602080910402602001604051908101604052809291908181526020018280546102eb90610af8565b80156103385780601f1061030d57610100808354040283529160200191610338565b820191906000526020600020905b81548152906001019060200180831161031b57829003601f168201915b5050505050908060030160009054906101000a900460ff16908060040154905085565b60026020528160005260406000206020528060005260406000206000915091509054906101000a900460ff1681565b60045481565b600160003373ffffffffffffffffffffffffffffffffffffffff1673ffffffffffffffffffffffffffffffffffffffff16815260200190815260200160002060009054906101000a900460ff1661041c576040517f08c379a000000000000000000000000000000000000000000000000000000000815260040161041390610bad565b60405180910390fd5b6000600380549050905060036040518060a001604052808673ffffffffffffffffffffffffffffffffffffffff1681526020018581526020018481526020016000151581526020016000815250908060018154018082558091505060019003906000526020600020906005020160009091909190915060008201518160000160006101000a81548173ffffffffffffffffffffffffffffffffffffffff021916908373ffffffffffffffffffffffffffffffffffffffff1602179055506020820151816001015560408201518160020190805190602001906104ff92919061059a565b5060608201518160030160006101000a81548160ff021916908315150217905550608082015181600401555050808473ffffffffffffffffffffffffffffffffffffffff163373ffffffffffffffffffffffffffffffffffffffff167fc70c0c0ff6c60f55d0dab9fa570f029325751f9edcd8d1a8df81dc4528c5d68a868660405161058c929190610bcd565b60405180910390a450505050565b8280546105a690610af8565b90600052602060002090601f0160209004810192826105c8576000855561060f565b82601f106105e157805160ff191683800117855561060f565b8280016001018555821561060f579182015b8281111561060e5782518255916020019190600101906105f3565b5b50905061061c9190610620565b5090565b5b80821115610639576000816000905550600101610621565b5090565b6000819050919050565b6106508161063d565b82525050565b600060408201905061066b6000830185610647565b6106786020830184610647565b9392505050565b6000604051905090565b600080fd5b600080fd5b61069c8161063d565b81146106a757600080fd5b50565b6000813590506106b981610693565b92915050565b6000602082840312156106d5576106d4610689565b5b60006106e3848285016106aa565b91505092915050565b600073ffffffffffffffffffffffffffffffffffffffff82169050919050565b6000610717826106ec565b9050919050565b6107278161070c565b82525050565b6000602082019050610742600083018461071e565b92915050565b6107518161070c565b811461075c57600080fd5b50565b60008135905061076e81610748565b92915050565b60006020828403121561078a57610789610689565b5b60006107988482850161075f565b91505092915050565b60008115159050919050565b6107b6816107a1565b82525050565b60006020820190506107d160008301846107ad565b92915050565b600081519050919050565b600082825260208201905092915050565b60005b838110156108115780820151818401526020810190506107f6565b83811115610820576000848401525b50505050565b6000601f19601f8301169050919050565b6000610842826107d7565b61084c81856107e2565b935061085c8185602086016107f3565b61086581610826565b840191505092915050565b600060a082019050610885600083018861071e565b6108926020830187610647565b81810360408301526108a48186610837565b90506108b360608301856107ad565b6108c06080830184610647565b9695505050505050565b600080604083850312156108e1576108e0610689565b5b60006108ef858286016106aa565b92505060206109008582860161075f565b9150509250929050565b600060208201905061091f6000830184610647565b92915050565b600080fd5b600080fd5b7f4e487b7100000000000000000000000000000000000000000000000000000000600052604160045260246000fd5b61096782610826565b810181811067ffffffffffffffff821117156109865761098561092f565b5b80604052505050565b600061099961067f565b90506109a5828261095e565b919050565b600067ffffffffffffffff8211156109c5576109c461092f565b5b6109ce82610826565b9050602081019050919050565b82818337600083830152505050565b60006109fd6109f8846109aa565b61098f565b905082815260208101848484011115610a1957610a1861092a565b5b610a248482856109db565b509392505050565b600082601f830112610a4157610a40610925565b5b8135610a518482602086016109ea565b91505092915050565b600080600060608486031215610a7357610a72610689565b5b6000610a818682870161075f565b9350506020610a92868287016106aa565b925050604084013567ffffffffffffffff811115610ab357610ab261068e565b5b610abf86828701610a2c565b9150509250925092565b7f4e487b7100000000000000000000000000000000000000000000000000000000600052602260045260246000fd5b60006002820490506001821680610b1057607f821691505b60208210811415610b2457610b23610ac9565b5b50919050565b600082825260208201905092915050565b7f4f6e6c79204f776e6572732063616e2061636365737320746869732066756e6360008201527f74696f6e616c6974790000000000000000000000000000000000000000000000602082015250565b6000610b97602983610b2a565b9150610ba282610b3b565b604082019050919050565b60006020820190508181036000830152610bc681610b8a565b9050919050565b6000604082019050610be26000830185610647565b8181036020830152610bf48184610837565b9050939250505056fea264697066735822122056aaf88348bd8d5e2e1b9519503bc1d1ef944643c2b8478e55b4de4e31708c9964736f6c634300080a0033",
					"opcodes": "PUSH1 0x80 PUSH1 0x40 MSTORE CALLVALUE DUP1 ISZERO PUSH3 0x11 JUMPI PUSH1 0x0 DUP1 REVERT JUMPDEST POP PUSH1 0x40 MLOAD PUSH3 0x143C CODESIZE SUB DUP1 PUSH3 0x143C DUP4 CODECOPY DUP2 DUP2 ADD PUSH1 0x40 MSTORE DUP2 ADD SWAP1 PUSH3 0x37 SWAP2 SWAP1 PUSH3 0x50E JUMP JUMPDEST PUSH1 0x0 DUP3 MLOAD GT PUSH3 0x7E JUMPI PUSH1 0x40 MLOAD PUSH32 0x8C379A000000000000000000000000000000000000000000000000000000000 DUP2 MSTORE PUSH1 0x4 ADD PUSH3 0x75 SWAP1 PUSH3 0x5D5 JUMP JUMPDEST PUSH1 0x40 MLOAD DUP1 SWAP2 SUB SWAP1 REVERT JUMPDEST PUSH1 0x0 DUP2 GT DUP1 ISZERO PUSH3 0x90 JUMPI POP DUP2 MLOAD DUP2 GT ISZERO JUMPDEST PUSH3 0xD2 JUMPI PUSH1 0x40 MLOAD PUSH32 0x8C379A000000000000000000000000000000000000000000000000000000000 DUP2 MSTORE PUSH1 0x4 ADD PUSH3 0xC9 SWAP1 PUSH3 0x647 JUMP JUMPDEST PUSH1 0x40 MLOAD DUP1 SWAP2 SUB SWAP1 REVERT JUMPDEST PUSH1 0x0 JUMPDEST DUP3 MLOAD DUP2 LT ISZERO PUSH3 0x2D5 JUMPI PUSH1 0x0 DUP4 DUP3 DUP2 MLOAD DUP2 LT PUSH3 0xF7 JUMPI PUSH3 0xF6 PUSH3 0x669 JUMP JUMPDEST JUMPDEST PUSH1 0x20 MUL PUSH1 0x20 ADD ADD MLOAD SWAP1 POP PUSH1 0x0 PUSH20 0xFFFFFFFFFFFFFFFFFFFFFFFFFFFFFFFFFFFFFFFF AND DUP2 PUSH20 0xFFFFFFFFFFFFFFFFFFFFFFFFFFFFFFFFFFFFFFFF AND EQ ISZERO PUSH3 0x174 JUMPI PUSH1 0x40 MLOAD PUSH32 0x8C379A000000000000000000000000000000000000000000000000000000000 DUP2 MSTORE PUSH1 0x4 ADD PUSH3 0x16B SWAP1 PUSH3 0x6E8 JUMP JUMPDEST PUSH1 0x40 MLOAD DUP1 SWAP2 SUB SWAP1 REVERT JUMPDEST PUSH1 0x1 PUSH1 0x0 DUP3 PUSH20 0xFFFFFFFFFFFFFFFFFFFFFFFFFFFFFFFFFFFFFFFF AND PUSH20 0xFFFFFFFFFFFFFFFFFFFFFFFFFFFFFFFFFFFFFFFF AND DUP2 MSTORE PUSH1 0x20 ADD SWAP1 DUP2 MSTORE PUSH1 0x20 ADD PUSH1 0x0 KECCAK256 PUSH1 0x0 SWAP1 SLOAD SWAP1 PUSH2 0x100 EXP SWAP1 DIV PUSH1 0xFF AND ISZERO PUSH3 0x204 JUMPI PUSH1 0x40 MLOAD PUSH32 0x8C379A000000000000000000000000000000000000000000000000000000000 DUP2 MSTORE PUSH1 0x4 ADD PUSH3 0x1FB SWAP1 PUSH3 0x75A JUMP JUMPDEST PUSH1 0x40 MLOAD DUP1 SWAP2 SUB SWAP1 REVERT JUMPDEST PUSH1 0x1 DUP1 PUSH1 0x0 DUP4 PUSH20 0xFFFFFFFFFFFFFFFFFFFFFFFFFFFFFFFFFFFFFFFF AND PUSH20 0xFFFFFFFFFFFFFFFFFFFFFFFFFFFFFFFFFFFFFFFF AND DUP2 MSTORE PUSH1 0x20 ADD SWAP1 DUP2 MSTORE PUSH1 0x20 ADD PUSH1 0x0 KECCAK256 PUSH1 0x0 PUSH2 0x100 EXP DUP2 SLOAD DUP2 PUSH1 0xFF MUL NOT AND SWAP1 DUP4 ISZERO ISZERO MUL OR SWAP1 SSTORE POP PUSH1 0x0 DUP2 SWAP1 DUP1 PUSH1 0x1 DUP2 SLOAD ADD DUP1 DUP3 SSTORE DUP1 SWAP2 POP POP PUSH1 0x1 SWAP1 SUB SWAP1 PUSH1 0x0 MSTORE PUSH1 0x20 PUSH1 0x0 KECCAK256 ADD PUSH1 0x0 SWAP1 SWAP2 SWAP1 SWAP2 SWAP1 SWAP2 PUSH2 0x100 EXP DUP2 SLOAD DUP2 PUSH20 0xFFFFFFFFFFFFFFFFFFFFFFFFFFFFFFFFFFFFFFFF MUL NOT AND SWAP1 DUP4 PUSH20 0xFFFFFFFFFFFFFFFFFFFFFFFFFFFFFFFFFFFFFFFF AND MUL OR SWAP1 SSTORE POP POP DUP1 DUP1 PUSH3 0x2CC SWAP1 PUSH3 0x7AB JUMP JUMPDEST SWAP2 POP POP PUSH3 0xD5 JUMP JUMPDEST POP DUP1 PUSH1 0x4 DUP2 SWAP1 SSTORE POP POP POP PUSH3 0x7F9 JUMP JUMPDEST PUSH1 0x0 PUSH1 0x40 MLOAD SWAP1 POP SWAP1 JUMP JUMPDEST PUSH1 0x0 DUP1 REVERT JUMPDEST PUSH1 0x0 DUP1 REVERT JUMPDEST PUSH1 0x0 DUP1 REVERT JUMPDEST PUSH1 0x0 PUSH1 0x1F NOT PUSH1 0x1F DUP4 ADD AND SWAP1 POP SWAP2 SWAP1 POP JUMP JUMPDEST PUSH32 0x4E487B7100000000000000000000000000000000000000000000000000000000 PUSH1 0x0 MSTORE PUSH1 0x41 PUSH1 0x4 MSTORE PUSH1 0x24 PUSH1 0x0 REVERT JUMPDEST PUSH3 0x349 DUP3 PUSH3 0x2FE JUMP JUMPDEST DUP2 ADD DUP2 DUP2 LT PUSH8 0xFFFFFFFFFFFFFFFF DUP3 GT OR ISZERO PUSH3 0x36B JUMPI PUSH3 0x36A PUSH3 0x30F JUMP JUMPDEST JUMPDEST DUP1 PUSH1 0x40 MSTORE POP POP POP JUMP JUMPDEST PUSH1 0x0 PUSH3 0x380 PUSH3 0x2E5 JUMP JUMPDEST SWAP1 POP PUSH3 0x38E DUP3 DUP3 PUSH3 0x33E JUMP JUMPDEST SWAP2 SWAP1 POP JUMP JUMPDEST PUSH1 0x0 PUSH8 0xFFFFFFFFFFFFFFFF DUP3 GT ISZERO PUSH3 0x3B1 JUMPI PUSH3 0x3B0 PUSH3 0x30F JUMP JUMPDEST JUMPDEST PUSH1 0x20 DUP3 MUL SWAP1 POP PUSH1 0x20 DUP2 ADD SWAP1 POP SWAP2 SWAP1 POP JUMP JUMPDEST PUSH1 0x0 DUP1 REVERT JUMPDEST PUSH1 0x0 PUSH20 0xFFFFFFFFFFFFFFFFFFFFFFFFFFFFFFFFFFFFFFFF DUP3 AND SWAP1 POP SWAP2 SWAP1 POP JUMP JUMPDEST PUSH1 0x0 PUSH3 0x3F4 DUP3 PUSH3 0x3C7 JUMP JUMPDEST SWAP1 POP SWAP2 SWAP1 POP JUMP JUMPDEST PUSH3 0x406 DUP2 PUSH3 0x3E7 JUMP JUMPDEST DUP2 EQ PUSH3 0x412 JUMPI PUSH1 0x0 DUP1 REVERT JUMPDEST POP JUMP JUMPDEST PUSH1 0x0 DUP2 MLOAD SWAP1 POP PUSH3 0x426 DUP2 PUSH3 0x3FB JUMP JUMPDEST SWAP3 SWAP2 POP POP JUMP JUMPDEST PUSH1 0x0 PUSH3 0x443 PUSH3 0x43D DUP5 PUSH3 0x393 JUMP JUMPDEST PUSH3 0x374 JUMP JUMPDEST SWAP1 POP DUP1 DUP4 DUP3 MSTORE PUSH1 0x20 DUP3 ADD SWAP1 POP PUSH1 0x20 DUP5 MUL DUP4 ADD DUP6 DUP2 GT ISZERO PUSH3 0x469 JUMPI PUSH3 0x468 PUSH3 0x3C2 JUMP JUMPDEST JUMPDEST DUP4 JUMPDEST DUP2 DUP2 LT ISZERO PUSH3 0x496 JUMPI DUP1 PUSH3 0x481 DUP9 DUP3 PUSH3 0x415 JUMP JUMPDEST DUP5 MSTORE PUSH1 0x20 DUP5 ADD SWAP4 POP POP PUSH1 0x20 DUP2 ADD SWAP1 POP PUSH3 0x46B JUMP JUMPDEST POP POP POP SWAP4 SWAP3 POP POP POP JUMP JUMPDEST PUSH1 0x0 DUP3 PUSH1 0x1F DUP4 ADD SLT PUSH3 0x4B8 JUMPI PUSH3 0x4B7 PUSH3 0x2F9 JUMP JUMPDEST JUMPDEST DUP2 MLOAD PUSH3 0x4CA DUP5 DUP3 PUSH1 0x20 DUP7 ADD PUSH3 0x42C JUMP JUMPDEST SWAP2 POP POP SWAP3 SWAP2 POP POP JUMP JUMPDEST PUSH1 0x0 DUP2 SWAP1 POP SWAP2 SWAP1 POP JUMP JUMPDEST PUSH3 0x4E8 DUP2 PUSH3 0x4D3 JUMP JUMPDEST DUP2 EQ PUSH3 0x4F4 JUMPI PUSH1 0x0 DUP1 REVERT JUMPDEST POP JUMP JUMPDEST PUSH1 0x0 DUP2 MLOAD SWAP1 POP PUSH3 0x508 DUP2 PUSH3 0x4DD JUMP JUMPDEST SWAP3 SWAP2 POP POP JUMP JUMPDEST PUSH1 0x0 DUP1 PUSH1 0x40 DUP4 DUP6 SUB SLT ISZERO PUSH3 0x528 JUMPI PUSH3 0x527 PUSH3 0x2EF JUMP JUMPDEST JUMPDEST PUSH1 0x0 DUP4 ADD MLOAD PUSH8 0xFFFFFFFFFFFFFFFF DUP2 GT ISZERO PUSH3 0x549 JUMPI PUSH3 0x548 PUSH3 0x2F4 JUMP JUMPDEST JUMPDEST PUSH3 0x557 DUP6 DUP3 DUP7 ADD PUSH3 0x4A0 JUMP JUMPDEST SWAP3 POP POP PUSH1 0x20 PUSH3 0x56A DUP6 DUP3 DUP7 ADD PUSH3 0x4F7 JUMP JUMPDEST SWAP2 POP POP SWAP3 POP SWAP3 SWAP1 POP JUMP JUMPDEST PUSH1 0x0 DUP3 DUP3 MSTORE PUSH1 0x20 DUP3 ADD SWAP1 POP SWAP3 SWAP2 POP POP JUMP JUMPDEST PUSH32 0x4D7573742068617665203E31206F776E65727300000000000000000000000000 PUSH1 0x0 DUP3 ADD MSTORE POP JUMP JUMPDEST PUSH1 0x0 PUSH3 0x5BD PUSH1 0x13 DUP4 PUSH3 0x574 JUMP JUMPDEST SWAP2 POP PUSH3 0x5CA DUP3 PUSH3 0x585 JUMP JUMPDEST PUSH1 0x20 DUP3 ADD SWAP1 POP SWAP2 SWAP1 POP JUMP JUMPDEST PUSH1 0x0 PUSH1 0x20 DUP3 ADD SWAP1 POP DUP2 DUP2 SUB PUSH1 0x0 DUP4 ADD MSTORE PUSH3 0x5F0 DUP2 PUSH3 0x5AE JUMP JUMPDEST SWAP1 POP SWAP2 SWAP1 POP JUMP JUMPDEST PUSH32 0x496E76616C6964204E756D626572206F6620436F6E6669726D6174696F6E7300 PUSH1 0x0 DUP3 ADD MSTORE POP JUMP JUMPDEST PUSH1 0x0 PUSH3 0x62F PUSH1 0x1F DUP4 PUSH3 0x574 JUMP JUMPDEST SWAP2 POP PUSH3 0x63C DUP3 PUSH3 0x5F7 JUMP JUMPDEST PUSH1 0x20 DUP3 ADD SWAP1 POP SWAP2 SWAP1 POP JUMP JUMPDEST PUSH1 0x0 PUSH1 0x20 DUP3 ADD SWAP1 POP DUP2 DUP2 SUB PUSH1 0x0 DUP4 ADD MSTORE PUSH3 0x662 DUP2 PUSH3 0x620 JUMP JUMPDEST SWAP1 POP SWAP2 SWAP1 POP JUMP JUMPDEST PUSH32 0x4E487B7100000000000000000000000000000000000000000000000000000000 PUSH1 0x0 MSTORE PUSH1 0x32 PUSH1 0x4 MSTORE PUSH1 0x24 PUSH1 0x0 REVERT JUMPDEST PUSH32 0x43616E742068617665205A65726F2061646472657373206173206F776E657200 PUSH1 0x0 DUP3 ADD MSTORE POP JUMP JUMPDEST PUSH1 0x0 PUSH3 0x6D0 PUSH1 0x1F DUP4 PUSH3 0x574 JUMP JUMPDEST SWAP2 POP PUSH3 0x6DD DUP3 PUSH3 0x698 JUMP JUMPDEST PUSH1 0x20 DUP3 ADD SWAP1 POP SWAP2 SWAP1 POP JUMP JUMPDEST PUSH1 0x0 PUSH1 0x20 DUP3 ADD SWAP1 POP DUP2 DUP2 SUB PUSH1 0x0 DUP4 ADD MSTORE PUSH3 0x703 DUP2 PUSH3 0x6C1 JUMP JUMPDEST SWAP1 POP SWAP2 SWAP1 POP JUMP JUMPDEST PUSH32 0x4475706C6963617465204F776E6572206E6F7420616C6C6F7765642100000000 PUSH1 0x0 DUP3 ADD MSTORE POP JUMP JUMPDEST PUSH1 0x0 PUSH3 0x742 PUSH1 0x1C DUP4 PUSH3 0x574 JUMP JUMPDEST SWAP2 POP PUSH3 0x74F DUP3 PUSH3 0x70A JUMP JUMPDEST PUSH1 0x20 DUP3 ADD SWAP1 POP SWAP2 SWAP1 POP JUMP JUMPDEST PUSH1 0x0 PUSH1 0x20 DUP3 ADD SWAP1 POP DUP2 DUP2 SUB PUSH1 0x0 DUP4 ADD MSTORE PUSH3 0x775 DUP2 PUSH3 0x733 JUMP JUMPDEST SWAP1 POP SWAP2 SWAP1 POP JUMP JUMPDEST PUSH32 0x4E487B7100000000000000000000000000000000000000000000000000000000 PUSH1 0x0 MSTORE PUSH1 0x11 PUSH1 0x4 MSTORE PUSH1 0x24 PUSH1 0x0 REVERT JUMPDEST PUSH1 0x0 PUSH3 0x7B8 DUP3 PUSH3 0x4D3 JUMP JUMPDEST SWAP2 POP PUSH32 0xFFFFFFFFFFFFFFFFFFFFFFFFFFFFFFFFFFFFFFFFFFFFFFFFFFFFFFFFFFFFFFFF DUP3 EQ ISZERO PUSH3 0x7EE JUMPI PUSH3 0x7ED PUSH3 0x77C JUMP JUMPDEST JUMPDEST PUSH1 0x1 DUP3 ADD SWAP1 POP SWAP2 SWAP1 POP JUMP JUMPDEST PUSH2 0xC33 DUP1 PUSH3 0x809 PUSH1 0x0 CODECOPY PUSH1 0x0 RETURN INVALID PUSH1 0x80 PUSH1 0x40 MSTORE PUSH1 0x4 CALLDATASIZE LT PUSH2 0x59 JUMPI PUSH1 0x0 CALLDATALOAD PUSH1 0xE0 SHR DUP1 PUSH4 0x25E7C27 EQ PUSH2 0xB5 JUMPI DUP1 PUSH4 0x2F54BF6E EQ PUSH2 0xF2 JUMPI DUP1 PUSH4 0x9ACE38C2 EQ PUSH2 0x12F JUMPI DUP1 PUSH4 0x9BA83E1B EQ PUSH2 0x170 JUMPI DUP1 PUSH4 0xB032E075 EQ PUSH2 0x1AD JUMPI DUP1 PUSH4 0xC6427474 EQ PUSH2 0x1D8 JUMPI PUSH2 0xB0 JUMP JUMPDEST CALLDATASIZE PUSH2 0xB0 JUMPI CALLER PUSH20 0xFFFFFFFFFFFFFFFFFFFFFFFFFFFFFFFFFFFFFFFF AND PUSH32 0x90890809C654F11D6E72A28FA60149770A0D11EC6C92319D6CEB2BB0A4EA1A15 CALLVALUE SELFBALANCE PUSH1 0x40 MLOAD PUSH2 0xA6 SWAP3 SWAP2 SWAP1 PUSH2 0x656 JUMP JUMPDEST PUSH1 0x40 MLOAD DUP1 SWAP2 SUB SWAP1 LOG2 STOP JUMPDEST PUSH1 0x0 DUP1 REVERT JUMPDEST CALLVALUE DUP1 ISZERO PUSH2 0xC1 JUMPI PUSH1 0x0 DUP1 REVERT JUMPDEST POP PUSH2 0xDC PUSH1 0x4 DUP1 CALLDATASIZE SUB DUP2 ADD SWAP1 PUSH2 0xD7 SWAP2 SWAP1 PUSH2 0x6BF JUMP JUMPDEST PUSH2 0x201 JUMP JUMPDEST PUSH1 0x40 MLOAD PUSH2 0xE9 SWAP2 SWAP1 PUSH2 0x72D JUMP JUMPDEST PUSH1 0x40 MLOAD DUP1 SWAP2 SUB SWAP1 RETURN JUMPDEST CALLVALUE DUP1 ISZERO PUSH2 0xFE JUMPI PUSH1 0x0 DUP1 REVERT JUMPDEST POP PUSH2 0x119 PUSH1 0x4 DUP1 CALLDATASIZE SUB DUP2 ADD SWAP1 PUSH2 0x114 SWAP2 SWAP1 PUSH2 0x774 JUMP JUMPDEST PUSH2 0x240 JUMP JUMPDEST PUSH1 0x40 MLOAD PUSH2 0x126 SWAP2 SWAP1 PUSH2 0x7BC JUMP JUMPDEST PUSH1 0x40 MLOAD DUP1 SWAP2 SUB SWAP1 RETURN JUMPDEST CALLVALUE DUP1 ISZERO PUSH2 0x13B JUMPI PUSH1 0x0 DUP1 REVERT JUMPDEST POP PUSH2 0x156 PUSH1 0x4 DUP1 CALLDATASIZE SUB DUP2 ADD SWAP1 PUSH2 0x151 SWAP2 SWAP1 PUSH2 0x6BF JUMP JUMPDEST PUSH2 0x260 JUMP JUMPDEST PUSH1 0x40 MLOAD PUSH2 0x167 SWAP6 SWAP5 SWAP4 SWAP3 SWAP2 SWAP1 PUSH2 0x870 JUMP JUMPDEST PUSH1 0x40 MLOAD DUP1 SWAP2 SUB SWAP1 RETURN JUMPDEST CALLVALUE DUP1 ISZERO PUSH2 0x17C JUMPI PUSH1 0x0 DUP1 REVERT JUMPDEST POP PUSH2 0x197 PUSH1 0x4 DUP1 CALLDATASIZE SUB DUP2 ADD SWAP1 PUSH2 0x192 SWAP2 SWAP1 PUSH2 0x8CA JUMP JUMPDEST PUSH2 0x35B JUMP JUMPDEST PUSH1 0x40 MLOAD PUSH2 0x1A4 SWAP2 SWAP1 PUSH2 0x7BC JUMP JUMPDEST PUSH1 0x40 MLOAD DUP1 SWAP2 SUB SWAP1 RETURN JUMPDEST CALLVALUE DUP1 ISZERO PUSH2 0x1B9 JUMPI PUSH1 0x0 DUP1 REVERT JUMPDEST POP PUSH2 0x1C2 PUSH2 0x38A JUMP JUMPDEST PUSH1 0x40 MLOAD PUSH2 0x1CF SWAP2 SWAP1 PUSH2 0x90A JUMP JUMPDEST PUSH1 0x40 MLOAD DUP1 SWAP2 SUB SWAP1 RETURN JUMPDEST CALLVALUE DUP1 ISZERO PUSH2 0x1E4 JUMPI PUSH1 0x0 DUP1 REVERT JUMPDEST POP PUSH2 0x1FF PUSH1 0x4 DUP1 CALLDATASIZE SUB DUP2 ADD SWAP1 PUSH2 0x1FA SWAP2 SWAP1 PUSH2 0xA5A JUMP JUMPDEST PUSH2 0x390 JUMP JUMPDEST STOP JUMPDEST PUSH1 0x0 DUP2 DUP2 SLOAD DUP2 LT PUSH2 0x211 JUMPI PUSH1 0x0 DUP1 REVERT JUMPDEST SWAP1 PUSH1 0x0 MSTORE PUSH1 0x20 PUSH1 0x0 KECCAK256 ADD PUSH1 0x0 SWAP2 POP SLOAD SWAP1 PUSH2 0x100 EXP SWAP1 DIV PUSH20 0xFFFFFFFFFFFFFFFFFFFFFFFFFFFFFFFFFFFFFFFF AND DUP2 JUMP JUMPDEST PUSH1 0x1 PUSH1 0x20 MSTORE DUP1 PUSH1 0x0 MSTORE PUSH1 0x40 PUSH1 0x0 KECCAK256 PUSH1 0x0 SWAP2 POP SLOAD SWAP1 PUSH2 0x100 EXP SWAP1 DIV PUSH1 0xFF AND DUP2 JUMP JUMPDEST PUSH1 0x3 DUP2 DUP2 SLOAD DUP2 LT PUSH2 0x270 JUMPI PUSH1 0x0 DUP1 REVERT JUMPDEST SWAP1 PUSH1 0x0 MSTORE PUSH1 0x20 PUSH1 0x0 KECCAK256 SWAP1 PUSH1 0x5 MUL ADD PUSH1 0x0 SWAP2 POP SWAP1 POP DUP1 PUSH1 0x0 ADD PUSH1 0x0 SWAP1 SLOAD SWAP1 PUSH2 0x100 EXP SWAP1 DIV PUSH20 0xFFFFFFFFFFFFFFFFFFFFFFFFFFFFFFFFFFFFFFFF AND SWAP1 DUP1 PUSH1 0x1 ADD SLOAD SWAP1 DUP1 PUSH1 0x2 ADD DUP1 SLOAD PUSH2 0x2BF SWAP1 PUSH2 0xAF8 JUMP JUMPDEST DUP1 PUSH1 0x1F ADD PUSH1 0x20 DUP1 SWAP2 DIV MUL PUSH1 0x20 ADD PUSH1 0x40 MLOAD SWAP1 DUP2 ADD PUSH1 0x40 MSTORE DUP1 SWAP3 SWAP2 SWAP1 DUP2 DUP2 MSTORE PUSH1 0x20 ADD DUP3 DUP1 SLOAD PUSH2 0x2EB SWAP1 PUSH2 0xAF8 JUMP JUMPDEST DUP1 ISZERO PUSH2 0x338 JUMPI DUP1 PUSH1 0x1F LT PUSH2 0x30D JUMPI PUSH2 0x100 DUP1 DUP4 SLOAD DIV MUL DUP4 MSTORE SWAP2 PUSH1 0x20 ADD SWAP2 PUSH2 0x338 JUMP JUMPDEST DUP3 ADD SWAP2 SWAP1 PUSH1 0x0 MSTORE PUSH1 0x20 PUSH1 0x0 KECCAK256 SWAP1 JUMPDEST DUP2 SLOAD DUP2 MSTORE SWAP1 PUSH1 0x1 ADD SWAP1 PUSH1 0x20 ADD DUP1 DUP4 GT PUSH2 0x31B JUMPI DUP3 SWAP1 SUB PUSH1 0x1F AND DUP3 ADD SWAP2 JUMPDEST POP POP POP POP POP SWAP1 DUP1 PUSH1 0x3 ADD PUSH1 0x0 SWAP1 SLOAD SWAP1 PUSH2 0x100 EXP SWAP1 DIV PUSH1 0xFF AND SWAP1 DUP1 PUSH1 0x4 ADD SLOAD SWAP1 POP DUP6 JUMP JUMPDEST PUSH1 0x2 PUSH1 0x20 MSTORE DUP2 PUSH1 0x0 MSTORE PUSH1 0x40 PUSH1 0x0 KECCAK256 PUSH1 0x20 MSTORE DUP1 PUSH1 0x0 MSTORE PUSH1 0x40 PUSH1 0x0 KECCAK256 PUSH1 0x0 SWAP2 POP SWAP2 POP SWAP1 SLOAD SWAP1 PUSH2 0x100 EXP SWAP1 DIV PUSH1 0xFF AND DUP2 JUMP JUMPDEST PUSH1 0x4 SLOAD DUP2 JUMP JUMPDEST PUSH1 0x1 PUSH1 0x0 CALLER PUSH20 0xFFFFFFFFFFFFFFFFFFFFFFFFFFFFFFFFFFFFFFFF AND PUSH20 0xFFFFFFFFFFFFFFFFFFFFFFFFFFFFFFFFFFFFFFFF AND DUP2 MSTORE PUSH1 0x20 ADD SWAP1 DUP2 MSTORE PUSH1 0x20 ADD PUSH1 0x0 KECCAK256 PUSH1 0x0 SWAP1 SLOAD SWAP1 PUSH2 0x100 EXP SWAP1 DIV PUSH1 0xFF AND PUSH2 0x41C JUMPI PUSH1 0x40 MLOAD PUSH32 0x8C379A000000000000000000000000000000000000000000000000000000000 DUP2 MSTORE PUSH1 0x4 ADD PUSH2 0x413 SWAP1 PUSH2 0xBAD JUMP JUMPDEST PUSH1 0x40 MLOAD DUP1 SWAP2 SUB SWAP1 REVERT JUMPDEST PUSH1 0x0 PUSH1 0x3 DUP1 SLOAD SWAP1 POP SWAP1 POP PUSH1 0x3 PUSH1 0x40 MLOAD DUP1 PUSH1 0xA0 ADD PUSH1 0x40 MSTORE DUP1 DUP7 PUSH20 0xFFFFFFFFFFFFFFFFFFFFFFFFFFFFFFFFFFFFFFFF AND DUP2 MSTORE PUSH1 0x20 ADD DUP6 DUP2 MSTORE PUSH1 0x20 ADD DUP5 DUP2 MSTORE PUSH1 0x20 ADD PUSH1 0x0 ISZERO ISZERO DUP2 MSTORE PUSH1 0x20 ADD PUSH1 0x0 DUP2 MSTORE POP SWAP1 DUP1 PUSH1 0x1 DUP2 SLOAD ADD DUP1 DUP3 SSTORE DUP1 SWAP2 POP POP PUSH1 0x1 SWAP1 SUB SWAP1 PUSH1 0x0 MSTORE PUSH1 0x20 PUSH1 0x0 KECCAK256 SWAP1 PUSH1 0x5 MUL ADD PUSH1 0x0 SWAP1 SWAP2 SWAP1 SWAP2 SWAP1 SWAP2 POP PUSH1 0x0 DUP3 ADD MLOAD DUP2 PUSH1 0x0 ADD PUSH1 0x0 PUSH2 0x100 EXP DUP2 SLOAD DUP2 PUSH20 0xFFFFFFFFFFFFFFFFFFFFFFFFFFFFFFFFFFFFFFFF MUL NOT AND SWAP1 DUP4 PUSH20 0xFFFFFFFFFFFFFFFFFFFFFFFFFFFFFFFFFFFFFFFF AND MUL OR SWAP1 SSTORE POP PUSH1 0x20 DUP3 ADD MLOAD DUP2 PUSH1 0x1 ADD SSTORE PUSH1 0x40 DUP3 ADD MLOAD DUP2 PUSH1 0x2 ADD SWAP1 DUP1 MLOAD SWAP1 PUSH1 0x20 ADD SWAP1 PUSH2 0x4FF SWAP3 SWAP2 SWAP1 PUSH2 0x59A JUMP JUMPDEST POP PUSH1 0x60 DUP3 ADD MLOAD DUP2 PUSH1 0x3 ADD PUSH1 0x0 PUSH2 0x100 EXP DUP2 SLOAD DUP2 PUSH1 0xFF MUL NOT AND SWAP1 DUP4 ISZERO ISZERO MUL OR SWAP1 SSTORE POP PUSH1 0x80 DUP3 ADD MLOAD DUP2 PUSH1 0x4 ADD SSTORE POP POP DUP1 DUP5 PUSH20 0xFFFFFFFFFFFFFFFFFFFFFFFFFFFFFFFFFFFFFFFF AND CALLER PUSH20 0xFFFFFFFFFFFFFFFFFFFFFFFFFFFFFFFFFFFFFFFF AND PUSH32 0xC70C0C0FF6C60F55D0DAB9FA570F029325751F9EDCD8D1A8DF81DC4528C5D68A DUP7 DUP7 PUSH1 0x40 MLOAD PUSH2 0x58C SWAP3 SWAP2 SWAP1 PUSH2 0xBCD JUMP JUMPDEST PUSH1 0x40 MLOAD DUP1 SWAP2 SUB SWAP1 LOG4 POP POP POP POP JUMP JUMPDEST DUP3 DUP1 SLOAD PUSH2 0x5A6 SWAP1 PUSH2 0xAF8 JUMP JUMPDEST SWAP1 PUSH1 0x0 MSTORE PUSH1 0x20 PUSH1 0x0 KECCAK256 SWAP1 PUSH1 0x1F ADD PUSH1 0x20 SWAP1 DIV DUP2 ADD SWAP3 DUP3 PUSH2 0x5C8 JUMPI PUSH1 0x0 DUP6 SSTORE PUSH2 0x60F JUMP JUMPDEST DUP3 PUSH1 0x1F LT PUSH2 0x5E1 JUMPI DUP1 MLOAD PUSH1 0xFF NOT AND DUP4 DUP1 ADD OR DUP6 SSTORE PUSH2 0x60F JUMP JUMPDEST DUP3 DUP1 ADD PUSH1 0x1 ADD DUP6 SSTORE DUP3 ISZERO PUSH2 0x60F JUMPI SWAP2 DUP3 ADD JUMPDEST DUP3 DUP2 GT ISZERO PUSH2 0x60E JUMPI DUP3 MLOAD DUP3 SSTORE SWAP2 PUSH1 0x20 ADD SWAP2 SWAP1 PUSH1 0x1 ADD SWAP1 PUSH2 0x5F3 JUMP JUMPDEST JUMPDEST POP SWAP1 POP PUSH2 0x61C SWAP2 SWAP1 PUSH2 0x620 JUMP JUMPDEST POP SWAP1 JUMP JUMPDEST JUMPDEST DUP1 DUP3 GT ISZERO PUSH2 0x639 JUMPI PUSH1 0x0 DUP2 PUSH1 0x0 SWAP1 SSTORE POP PUSH1 0x1 ADD PUSH2 0x621 JUMP JUMPDEST POP SWAP1 JUMP JUMPDEST PUSH1 0x0 DUP2 SWAP1 POP SWAP2 SWAP1 POP JUMP JUMPDEST PUSH2 0x650 DUP2 PUSH2 0x63D JUMP JUMPDEST DUP3 MSTORE POP POP JUMP JUMPDEST PUSH1 0x0 PUSH1 0x40 DUP3 ADD SWAP1 POP PUSH2 0x66B PUSH1 0x0 DUP4 ADD DUP6 PUSH2 0x647 JUMP JUMPDEST PUSH2 0x678 PUSH1 0x20 DUP4 ADD DUP5 PUSH2 0x647 JUMP JUMPDEST SWAP4 SWAP3 POP POP POP JUMP JUMPDEST PUSH1 0x0 PUSH1 0x40 MLOAD SWAP1 POP SWAP1 JUMP JUMPDEST PUSH1 0x0 DUP1 REVERT JUMPDEST PUSH1 0x0 DUP1 REVERT JUMPDEST PUSH2 0x69C DUP2 PUSH2 0x63D JUMP JUMPDEST DUP2 EQ PUSH2 0x6A7 JUMPI PUSH1 0x0 DUP1 REVERT JUMPDEST POP JUMP JUMPDEST PUSH1 0x0 DUP2 CALLDATALOAD SWAP1 POP PUSH2 0x6B9 DUP2 PUSH2 0x693 JUMP JUMPDEST SWAP3 SWAP2 POP POP JUMP JUMPDEST PUSH1 0x0 PUSH1 0x20 DUP3 DUP5 SUB SLT ISZERO PUSH2 0x6D5 JUMPI PUSH2 0x6D4 PUSH2 0x689 JUMP JUMPDEST JUMPDEST PUSH1 0x0 PUSH2 0x6E3 DUP5 DUP3 DUP6 ADD PUSH2 0x6AA JUMP JUMPDEST SWAP2 POP POP SWAP3 SWAP2 POP POP JUMP JUMPDEST PUSH1 0x0 PUSH20 0xFFFFFFFFFFFFFFFFFFFFFFFFFFFFFFFFFFFFFFFF DUP3 AND SWAP1 POP SWAP2 SWAP1 POP JUMP JUMPDEST PUSH1 0x0 PUSH2 0x717 DUP3 PUSH2 0x6EC JUMP JUMPDEST SWAP1 POP SWAP2 SWAP1 POP JUMP JUMPDEST PUSH2 0x727 DUP2 PUSH2 0x70C JUMP JUMPDEST DUP3 MSTORE POP POP JUMP JUMPDEST PUSH1 0x0 PUSH1 0x20 DUP3 ADD SWAP1 POP PUSH2 0x742 PUSH1 0x0 DUP4 ADD DUP5 PUSH2 0x71E JUMP JUMPDEST SWAP3 SWAP2 POP POP JUMP JUMPDEST PUSH2 0x751 DUP2 PUSH2 0x70C JUMP JUMPDEST DUP2 EQ PUSH2 0x75C JUMPI PUSH1 0x0 DUP1 REVERT JUMPDEST POP JUMP JUMPDEST PUSH1 0x0 DUP2 CALLDATALOAD SWAP1 POP PUSH2 0x76E DUP2 PUSH2 0x748 JUMP JUMPDEST SWAP3 SWAP2 POP POP JUMP JUMPDEST PUSH1 0x0 PUSH1 0x20 DUP3 DUP5 SUB SLT ISZERO PUSH2 0x78A JUMPI PUSH2 0x789 PUSH2 0x689 JUMP JUMPDEST JUMPDEST PUSH1 0x0 PUSH2 0x798 DUP5 DUP3 DUP6 ADD PUSH2 0x75F JUMP JUMPDEST SWAP2 POP POP SWAP3 SWAP2 POP POP JUMP JUMPDEST PUSH1 0x0 DUP2 ISZERO ISZERO SWAP1 POP SWAP2 SWAP1 POP JUMP JUMPDEST PUSH2 0x7B6 DUP2 PUSH2 0x7A1 JUMP JUMPDEST DUP3 MSTORE POP POP JUMP JUMPDEST PUSH1 0x0 PUSH1 0x20 DUP3 ADD SWAP1 POP PUSH2 0x7D1 PUSH1 0x0 DUP4 ADD DUP5 PUSH2 0x7AD JUMP JUMPDEST SWAP3 SWAP2 POP POP JUMP JUMPDEST PUSH1 0x0 DUP2 MLOAD SWAP1 POP SWAP2 SWAP1 POP JUMP JUMPDEST PUSH1 0x0 DUP3 DUP3 MSTORE PUSH1 0x20 DUP3 ADD SWAP1 POP SWAP3 SWAP2 POP POP JUMP JUMPDEST PUSH1 0x0 JUMPDEST DUP4 DUP2 LT ISZERO PUSH2 0x811 JUMPI DUP1 DUP3 ADD MLOAD DUP2 DUP5 ADD MSTORE PUSH1 0x20 DUP2 ADD SWAP1 POP PUSH2 0x7F6 JUMP JUMPDEST DUP4 DUP2 GT ISZERO PUSH2 0x820 JUMPI PUSH1 0x0 DUP5 DUP5 ADD MSTORE JUMPDEST POP POP POP POP JUMP JUMPDEST PUSH1 0x0 PUSH1 0x1F NOT PUSH1 0x1F DUP4 ADD AND SWAP1 POP SWAP2 SWAP1 POP JUMP JUMPDEST PUSH1 0x0 PUSH2 0x842 DUP3 PUSH2 0x7D7 JUMP JUMPDEST PUSH2 0x84C DUP2 DUP6 PUSH2 0x7E2 JUMP JUMPDEST SWAP4 POP PUSH2 0x85C DUP2 DUP6 PUSH1 0x20 DUP7 ADD PUSH2 0x7F3 JUMP JUMPDEST PUSH2 0x865 DUP2 PUSH2 0x826 JUMP JUMPDEST DUP5 ADD SWAP2 POP POP SWAP3 SWAP2 POP POP JUMP JUMPDEST PUSH1 0x0 PUSH1 0xA0 DUP3 ADD SWAP1 POP PUSH2 0x885 PUSH1 0x0 DUP4 ADD DUP9 PUSH2 0x71E JUMP JUMPDEST PUSH2 0x892 PUSH1 0x20 DUP4 ADD DUP8 PUSH2 0x647 JUMP JUMPDEST DUP2 DUP2 SUB PUSH1 0x40 DUP4 ADD MSTORE PUSH2 0x8A4 DUP2 DUP7 PUSH2 0x837 JUMP JUMPDEST SWAP1 POP PUSH2 0x8B3 PUSH1 0x60 DUP4 ADD DUP6 PUSH2 0x7AD JUMP JUMPDEST PUSH2 0x8C0 PUSH1 0x80 DUP4 ADD DUP5 PUSH2 0x647 JUMP JUMPDEST SWAP7 SWAP6 POP POP POP POP POP POP JUMP JUMPDEST PUSH1 0x0 DUP1 PUSH1 0x40 DUP4 DUP6 SUB SLT ISZERO PUSH2 0x8E1 JUMPI PUSH2 0x8E0 PUSH2 0x689 JUMP JUMPDEST JUMPDEST PUSH1 0x0 PUSH2 0x8EF DUP6 DUP3 DUP7 ADD PUSH2 0x6AA JUMP JUMPDEST SWAP3 POP POP PUSH1 0x20 PUSH2 0x900 DUP6 DUP3 DUP7 ADD PUSH2 0x75F JUMP JUMPDEST SWAP2 POP POP SWAP3 POP SWAP3 SWAP1 POP JUMP JUMPDEST PUSH1 0x0 PUSH1 0x20 DUP3 ADD SWAP1 POP PUSH2 0x91F PUSH1 0x0 DUP4 ADD DUP5 PUSH2 0x647 JUMP JUMPDEST SWAP3 SWAP2 POP POP JUMP JUMPDEST PUSH1 0x0 DUP1 REVERT JUMPDEST PUSH1 0x0 DUP1 REVERT JUMPDEST PUSH32 0x4E487B7100000000000000000000000000000000000000000000000000000000 PUSH1 0x0 MSTORE PUSH1 0x41 PUSH1 0x4 MSTORE PUSH1 0x24 PUSH1 0x0 REVERT JUMPDEST PUSH2 0x967 DUP3 PUSH2 0x826 JUMP JUMPDEST DUP2 ADD DUP2 DUP2 LT PUSH8 0xFFFFFFFFFFFFFFFF DUP3 GT OR ISZERO PUSH2 0x986 JUMPI PUSH2 0x985 PUSH2 0x92F JUMP JUMPDEST JUMPDEST DUP1 PUSH1 0x40 MSTORE POP POP POP JUMP JUMPDEST PUSH1 0x0 PUSH2 0x999 PUSH2 0x67F JUMP JUMPDEST SWAP1 POP PUSH2 0x9A5 DUP3 DUP3 PUSH2 0x95E JUMP JUMPDEST SWAP2 SWAP1 POP JUMP JUMPDEST PUSH1 0x0 PUSH8 0xFFFFFFFFFFFFFFFF DUP3 GT ISZERO PUSH2 0x9C5 JUMPI PUSH2 0x9C4 PUSH2 0x92F JUMP JUMPDEST JUMPDEST PUSH2 0x9CE DUP3 PUSH2 0x826 JUMP JUMPDEST SWAP1 POP PUSH1 0x20 DUP2 ADD SWAP1 POP SWAP2 SWAP1 POP JUMP JUMPDEST DUP3 DUP2 DUP4 CALLDATACOPY PUSH1 0x0 DUP4 DUP4 ADD MSTORE POP POP POP JUMP JUMPDEST PUSH1 0x0 PUSH2 0x9FD PUSH2 0x9F8 DUP5 PUSH2 0x9AA JUMP JUMPDEST PUSH2 0x98F JUMP JUMPDEST SWAP1 POP DUP3 DUP2 MSTORE PUSH1 0x20 DUP2 ADD DUP5 DUP5 DUP5 ADD GT ISZERO PUSH2 0xA19 JUMPI PUSH2 0xA18 PUSH2 0x92A JUMP JUMPDEST JUMPDEST PUSH2 0xA24 DUP5 DUP3 DUP6 PUSH2 0x9DB JUMP JUMPDEST POP SWAP4 SWAP3 POP POP POP JUMP JUMPDEST PUSH1 0x0 DUP3 PUSH1 0x1F DUP4 ADD SLT PUSH2 0xA41 JUMPI PUSH2 0xA40 PUSH2 0x925 JUMP JUMPDEST JUMPDEST DUP2 CALLDATALOAD PUSH2 0xA51 DUP5 DUP3 PUSH1 0x20 DUP7 ADD PUSH2 0x9EA JUMP JUMPDEST SWAP2 POP POP SWAP3 SWAP2 POP POP JUMP JUMPDEST PUSH1 0x0 DUP1 PUSH1 0x0 PUSH1 0x60 DUP5 DUP7 SUB SLT ISZERO PUSH2 0xA73 JUMPI PUSH2 0xA72 PUSH2 0x689 JUMP JUMPDEST JUMPDEST PUSH1 0x0 PUSH2 0xA81 DUP7 DUP3 DUP8 ADD PUSH2 0x75F JUMP JUMPDEST SWAP4 POP POP PUSH1 0x20 PUSH2 0xA92 DUP7 DUP3 DUP8 ADD PUSH2 0x6AA JUMP JUMPDEST SWAP3 POP POP PUSH1 0x40 DUP5 ADD CALLDATALOAD PUSH8 0xFFFFFFFFFFFFFFFF DUP2 GT ISZERO PUSH2 0xAB3 JUMPI PUSH2 0xAB2 PUSH2 0x68E JUMP JUMPDEST JUMPDEST PUSH2 0xABF DUP7 DUP3 DUP8 ADD PUSH2 0xA2C JUMP JUMPDEST SWAP2 POP POP SWAP3 POP SWAP3 POP SWAP3 JUMP JUMPDEST PUSH32 0x4E487B7100000000000000000000000000000000000000000000000000000000 PUSH1 0x0 MSTORE PUSH1 0x22 PUSH1 0x4 MSTORE PUSH1 0x24 PUSH1 0x0 REVERT JUMPDEST PUSH1 0x0 PUSH1 0x2 DUP3 DIV SWAP1 POP PUSH1 0x1 DUP3 AND DUP1 PUSH2 0xB10 JUMPI PUSH1 0x7F DUP3 AND SWAP2 POP JUMPDEST PUSH1 0x20 DUP3 LT DUP2 EQ ISZERO PUSH2 0xB24 JUMPI PUSH2 0xB23 PUSH2 0xAC9 JUMP JUMPDEST JUMPDEST POP SWAP2 SWAP1 POP JUMP JUMPDEST PUSH1 0x0 DUP3 DUP3 MSTORE PUSH1 0x20 DUP3 ADD SWAP1 POP SWAP3 SWAP2 POP POP JUMP JUMPDEST PUSH32 0x4F6E6C79204F776E6572732063616E2061636365737320746869732066756E63 PUSH1 0x0 DUP3 ADD MSTORE PUSH32 0x74696F6E616C6974790000000000000000000000000000000000000000000000 PUSH1 0x20 DUP3 ADD MSTORE POP JUMP JUMPDEST PUSH1 0x0 PUSH2 0xB97 PUSH1 0x29 DUP4 PUSH2 0xB2A JUMP JUMPDEST SWAP2 POP PUSH2 0xBA2 DUP3 PUSH2 0xB3B JUMP JUMPDEST PUSH1 0x40 DUP3 ADD SWAP1 POP SWAP2 SWAP1 POP JUMP JUMPDEST PUSH1 0x0 PUSH1 0x20 DUP3 ADD SWAP1 POP DUP2 DUP2 SUB PUSH1 0x0 DUP4 ADD MSTORE PUSH2 0xBC6 DUP2 PUSH2 0xB8A JUMP JUMPDEST SWAP1 POP SWAP2 SWAP1 POP JUMP JUMPDEST PUSH1 0x0 PUSH1 0x40 DUP3 ADD SWAP1 POP PUSH2 0xBE2 PUSH1 0x0 DUP4 ADD DUP6 PUSH2 0x647 JUMP JUMPDEST DUP2 DUP2 SUB PUSH1 0x20 DUP4 ADD MSTORE PUSH2 0xBF4 DUP2 DUP5 PUSH2 0x837 JUMP JUMPDEST SWAP1 POP SWAP4 SWAP3 POP POP POP JUMP INVALID LOG2 PUSH5 0x6970667358 0x22 SLT KECCAK256 JUMP 0xAA 0xF8 DUP4 BASEFEE 0xBD DUP14 0x5E 0x2E SHL SWAP6 NOT POP EXTCODESIZE 0xC1 0xD1 0xEF SWAP5 CHAINID NUMBER 0xC2 0xB8 SELFBALANCE DUP15 SSTORE 0xB4 0xDE 0x4E BALANCE PUSH17 0x8C9964736F6C634300080A003300000000 "
				},
				"gasEstimates": {
					"creation": {
						"codeDepositCost": "624600",
						"executionCost": "infinite",
						"totalCost": "infinite"
					},
					"external": {
						"isConfirm(uint256,address)": "3131",
						"isOwner(address)": "2845",
						"numOfConfirmations()": "2495",
						"owners(uint256)": "4934",
						"submitTransaction(address,uint256,bytes)": "infinite",
						"transactions(uint256)": "infinite"
					}
				},
				"methodIdentifiers": {
					"isConfirm(uint256,address)": "9ba83e1b",
					"isOwner(address)": "2f54bf6e",
					"numOfConfirmations()": "b032e075",
					"owners(uint256)": "025e7c27",
					"submitTransaction(address,uint256,bytes)": "c6427474",
					"transactions(uint256)": "9ace38c2"
				}
			},
			"userdoc": {
				"kind": "user",
				"methods": {},
				"version": 1
			}
		}
	}
}